{
  "contracts/cards/Card.sol": {
    "Card": {
      "abi": [
        {
          "inputs": [
            {
              "internalType": "address",
              "name": "controller",
              "type": "address"
            },
            {
              "internalType": "string",
              "name": "baseURI",
              "type": "string"
            }
          ],
          "stateMutability": "nonpayable",
          "type": "constructor"
        },
        {
          "inputs": [
            {
              "internalType": "address",
              "name": "sender",
              "type": "address"
            },
            {
              "internalType": "uint256",
              "name": "tokenId",
              "type": "uint256"
            },
            {
              "internalType": "address",
              "name": "owner",
              "type": "address"
            }
          ],
          "name": "ERC721IncorrectOwner",
          "type": "error"
        },
        {
          "inputs": [
            {
              "internalType": "address",
              "name": "operator",
              "type": "address"
            },
            {
              "internalType": "uint256",
              "name": "tokenId",
              "type": "uint256"
            }
          ],
          "name": "ERC721InsufficientApproval",
          "type": "error"
        },
        {
          "inputs": [
            {
              "internalType": "address",
              "name": "approver",
              "type": "address"
            }
          ],
          "name": "ERC721InvalidApprover",
          "type": "error"
        },
        {
          "inputs": [
            {
              "internalType": "address",
              "name": "operator",
              "type": "address"
            }
          ],
          "name": "ERC721InvalidOperator",
          "type": "error"
        },
        {
          "inputs": [
            {
              "internalType": "address",
              "name": "owner",
              "type": "address"
            }
          ],
          "name": "ERC721InvalidOwner",
          "type": "error"
        },
        {
          "inputs": [
            {
              "internalType": "address",
              "name": "receiver",
              "type": "address"
            }
          ],
          "name": "ERC721InvalidReceiver",
          "type": "error"
        },
        {
          "inputs": [
            {
              "internalType": "address",
              "name": "sender",
              "type": "address"
            }
          ],
          "name": "ERC721InvalidSender",
          "type": "error"
        },
        {
          "inputs": [
            {
              "internalType": "uint256",
              "name": "tokenId",
              "type": "uint256"
            }
          ],
          "name": "ERC721NonexistentToken",
          "type": "error"
        },
        {
          "inputs": [
            {
              "internalType": "address",
              "name": "owner",
              "type": "address"
            }
          ],
          "name": "OwnableInvalidOwner",
          "type": "error"
        },
        {
          "inputs": [
            {
              "internalType": "address",
              "name": "account",
              "type": "address"
            }
          ],
          "name": "OwnableUnauthorizedAccount",
          "type": "error"
        },
        {
          "anonymous": false,
          "inputs": [
            {
              "indexed": true,
              "internalType": "address",
              "name": "owner",
              "type": "address"
            },
            {
              "indexed": true,
              "internalType": "address",
              "name": "approved",
              "type": "address"
            },
            {
              "indexed": true,
              "internalType": "uint256",
              "name": "tokenId",
              "type": "uint256"
            }
          ],
          "name": "Approval",
          "type": "event"
        },
        {
          "anonymous": false,
          "inputs": [
            {
              "indexed": true,
              "internalType": "address",
              "name": "owner",
              "type": "address"
            },
            {
              "indexed": true,
              "internalType": "address",
              "name": "operator",
              "type": "address"
            },
            {
              "indexed": false,
              "internalType": "bool",
              "name": "approved",
              "type": "bool"
            }
          ],
          "name": "ApprovalForAll",
          "type": "event"
        },
        {
          "anonymous": false,
          "inputs": [
            {
              "indexed": true,
              "internalType": "address",
              "name": "previousOwner",
              "type": "address"
            },
            {
              "indexed": true,
              "internalType": "address",
              "name": "newOwner",
              "type": "address"
            }
          ],
          "name": "OwnershipTransferred",
          "type": "event"
        },
        {
          "anonymous": false,
          "inputs": [
            {
              "indexed": true,
              "internalType": "address",
              "name": "from",
              "type": "address"
            },
            {
              "indexed": true,
              "internalType": "address",
              "name": "to",
              "type": "address"
            },
            {
              "indexed": true,
              "internalType": "uint256",
              "name": "tokenId",
              "type": "uint256"
            }
          ],
          "name": "Transfer",
          "type": "event"
        },
        {
          "inputs": [
            {
              "internalType": "address",
              "name": "to",
              "type": "address"
            },
            {
              "internalType": "uint256",
              "name": "tokenId",
              "type": "uint256"
            }
          ],
          "name": "approve",
          "outputs": [],
          "stateMutability": "nonpayable",
          "type": "function"
        },
        {
          "inputs": [
            {
              "internalType": "address",
              "name": "owner",
              "type": "address"
            }
          ],
          "name": "balanceOf",
          "outputs": [
            {
              "internalType": "uint256",
              "name": "",
              "type": "uint256"
            }
          ],
          "stateMutability": "view",
          "type": "function"
        },
        {
          "inputs": [
            {
              "internalType": "uint256",
              "name": "tokenId",
              "type": "uint256"
            }
          ],
          "name": "burn",
          "outputs": [],
          "stateMutability": "nonpayable",
          "type": "function"
        },
        {
          "inputs": [
            {
              "internalType": "uint256",
              "name": "tokenId",
              "type": "uint256"
            }
          ],
          "name": "getApproved",
          "outputs": [
            {
              "internalType": "address",
              "name": "",
              "type": "address"
            }
          ],
          "stateMutability": "view",
          "type": "function"
        },
        {
          "inputs": [],
          "name": "getMintPrice",
          "outputs": [
            {
              "internalType": "uint256",
              "name": "",
              "type": "uint256"
            }
          ],
          "stateMutability": "pure",
          "type": "function"
        },
        {
          "inputs": [
            {
              "internalType": "address",
              "name": "owner",
              "type": "address"
            },
            {
              "internalType": "address",
              "name": "operator",
              "type": "address"
            }
          ],
          "name": "isApprovedForAll",
          "outputs": [
            {
              "internalType": "bool",
              "name": "",
              "type": "bool"
            }
          ],
          "stateMutability": "view",
          "type": "function"
        },
        {
          "inputs": [
            {
              "internalType": "address",
              "name": "to",
              "type": "address"
            }
          ],
          "name": "mint",
          "outputs": [],
          "stateMutability": "nonpayable",
          "type": "function"
        },
        {
          "inputs": [],
          "name": "name",
          "outputs": [
            {
              "internalType": "string",
              "name": "",
              "type": "string"
            }
          ],
          "stateMutability": "view",
          "type": "function"
        },
        {
          "inputs": [],
          "name": "owner",
          "outputs": [
            {
              "internalType": "address",
              "name": "",
              "type": "address"
            }
          ],
          "stateMutability": "view",
          "type": "function"
        },
        {
          "inputs": [
            {
              "internalType": "uint256",
              "name": "tokenId",
              "type": "uint256"
            }
          ],
          "name": "ownerOf",
          "outputs": [
            {
              "internalType": "address",
              "name": "",
              "type": "address"
            }
          ],
          "stateMutability": "view",
          "type": "function"
        },
        {
          "inputs": [],
          "name": "renounceOwnership",
          "outputs": [],
          "stateMutability": "nonpayable",
          "type": "function"
        },
        {
          "inputs": [
            {
              "internalType": "address",
              "name": "from",
              "type": "address"
            },
            {
              "internalType": "address",
              "name": "to",
              "type": "address"
            },
            {
              "internalType": "uint256",
              "name": "tokenId",
              "type": "uint256"
            }
          ],
          "name": "safeTransferFrom",
          "outputs": [],
          "stateMutability": "nonpayable",
          "type": "function"
        },
        {
          "inputs": [
            {
              "internalType": "address",
              "name": "from",
              "type": "address"
            },
            {
              "internalType": "address",
              "name": "to",
              "type": "address"
            },
            {
              "internalType": "uint256",
              "name": "tokenId",
              "type": "uint256"
            },
            {
              "internalType": "bytes",
              "name": "data",
              "type": "bytes"
            }
          ],
          "name": "safeTransferFrom",
          "outputs": [],
          "stateMutability": "nonpayable",
          "type": "function"
        },
        {
          "inputs": [
            {
              "internalType": "address",
              "name": "operator",
              "type": "address"
            },
            {
              "internalType": "bool",
              "name": "approved",
              "type": "bool"
            }
          ],
          "name": "setApprovalForAll",
          "outputs": [],
          "stateMutability": "nonpayable",
          "type": "function"
        },
        {
          "inputs": [
            {
              "internalType": "bytes4",
              "name": "interfaceId",
              "type": "bytes4"
            }
          ],
          "name": "supportsInterface",
          "outputs": [
            {
              "internalType": "bool",
              "name": "",
              "type": "bool"
            }
          ],
          "stateMutability": "view",
          "type": "function"
        },
        {
          "inputs": [],
          "name": "symbol",
          "outputs": [
            {
              "internalType": "string",
              "name": "",
              "type": "string"
            }
          ],
          "stateMutability": "view",
          "type": "function"
        },
        {
          "inputs": [
            {
              "internalType": "uint256",
              "name": "tokenId",
              "type": "uint256"
            }
          ],
          "name": "tokenURI",
          "outputs": [
            {
              "internalType": "string",
              "name": "",
              "type": "string"
            }
          ],
          "stateMutability": "view",
          "type": "function"
        },
        {
          "inputs": [
            {
              "internalType": "address",
              "name": "from",
              "type": "address"
            },
            {
              "internalType": "address",
              "name": "to",
              "type": "address"
            },
            {
              "internalType": "uint256",
              "name": "tokenId",
              "type": "uint256"
            }
          ],
          "name": "transferFrom",
          "outputs": [],
          "stateMutability": "nonpayable",
          "type": "function"
        },
        {
          "inputs": [
            {
              "internalType": "address",
              "name": "newOwner",
              "type": "address"
            }
          ],
          "name": "transferOwnership",
          "outputs": [],
          "stateMutability": "nonpayable",
          "type": "function"
        }
      ],
      "evm": {
        "bytecode": {
          "linkReferences": {},
          "object": "6080604052346200051e57620017ed803803806200001d8162000543565b9283398101906040818303126200051e5780516001600160a01b0390818116908190036200051e576020838101516001600160401b03948582116200051e570194601f918183880112156200051e5786518681116200033957601f19976200008b8286018a16840162000543565b938285528383830101116200051e57829060005b8381106200050957505060009184010152620000ba62000523565b93600d85526c125b98db1d5cda5d9950d85c99609a1b82860152620000de62000523565b9560039687815262494e4360e81b84820152865189811162000339576000546001988982811c92168015620004fe575b8783101462000318578189849311620004a8575b508690898311600114620004445760009262000438575b5050600019828b1b1c191690881b176000555b80519089821162000339578754908882811c921680156200042d575b8683101462000318578188849311620003d7575b508590888311600114620003745760009262000368575b5050600019828a1b1c191690871b1786555b81156200034f57600680546001600160a01b031981168417909155167f8be0079c531659141344cd1fd0a4f28419497f9722a3daafe3b4186f6b6457e0600080a3815195861162000339576008548481811c911680156200032e575b828210146200031857838111620002cc575b50809286116001146200025e57508495509084929160009562000252575b50501b92600019911b1c1916176008555b60405161128390816200056a8239f35b01519350388062000231565b93929585908116600860005285600020956000905b89838310620002b1575050501062000296575b50505050811b0160085562000242565b01519060f884600019921b161c191690553880808062000286565b85870151895590970196948501948893509081019062000273565b6008600052816000208480890160051c820192848a106200030e575b0160051c019085905b8281106200030157505062000213565b60008155018590620002f1565b92508192620002e8565b634e487b7160e01b600052602260045260246000fd5b90607f169062000201565b634e487b7160e01b600052604160045260246000fd5b604051631e4fbdf760e01b815260006004820152602490fd5b01519050388062000193565b908c8a94169184600052876000209260005b89828210620003c05750508411620003a7575b505050811b018655620001a5565b0151600019838c1b60f8161c1916905538808062000399565b8385015186558d9790950194938401930162000386565b90915088600052856000208880850160051c82019288861062000423575b918b91869594930160051c01915b828110620004135750506200017c565b600081558594508b910162000403565b92508192620003f5565b91607f169162000168565b01519050388062000139565b908d8b94169160008052886000209260005b8a82821062000491575050841162000478575b505050811b016000556200014c565b0151600019838d1b60f8161c1916905538808062000469565b8385015186558e9790950194938401930162000456565b90915060008052866000208980850160051c820192898610620004f4575b918c91869594930160051c01915b828110620004e457505062000122565b600081558594508c9101620004d4565b92508192620004c6565b91607f16916200010e565b8181018301518682018401528492016200009f565b600080fd5b60408051919082016001600160401b038111838210176200033957604052565b6040519190601f01601f191682016001600160401b03811183821017620003395760405256fe6080604081815260048036101561001557600080fd5b600092833560e01c90816301ffc9a714610af25750806306fdde0314610a41578063081812fc14610a08578063095ea7b31461091557806323b872dd146108fd57806342842e0e146108ae57806342966c68146107855780636352211e146107555780636a627842146105f957806370a082311461058b578063715018a6146105305780638da5cb5b1461050857806395d89b4114610429578063a22cb4651461036f578063a7f93ebd14610354578063b88d4fde146102cb578063c87b56dd146101ea578063e985e9c5146101985763f2fde38b146100f457600080fd5b346101945760203660031901126101945761010d610c02565b90610116611209565b6001600160a01b03809216928315610165575050600654826001600160a01b0319821617600655167f8be0079c531659141344cd1fd0a4f28419497f9722a3daafe3b4186f6b6457e08380a380f35b908460249251917f1e4fbdf7000000000000000000000000000000000000000000000000000000008352820152fd5b8280fd5b5050346101e657806003193601126101e65760ff816020936101b8610c02565b6101c0610c1d565b6001600160a01b0391821683526005875283832091168252855220549151911615158152f35b5080fd5b50903461019457602091826003193601126102c7573583526009825280832081519384918181549061021b82610cbc565b928386526001928860018216918260001461029d57505060011461025f575b858861025b8961024c848a0385610c68565b51928284938452830190610bc2565b0390f35b87945081939291528383205b828410610285575050508201018161024c61025b3861023a565b8054848a01860152889550879490930192810161026b565b60ff19168882015294151560051b8701909401945085935061024c925061025b915038905061023a565b8380fd5b509034610194576080366003190112610194576102e6610c02565b6102ee610c1d565b846064359467ffffffffffffffff86116101e657366023870112156101e6578501359461032661031d87610ca0565b95519586610c68565b85855236602487830101116101e6578561035196602460209301838801378501015260443591611039565b80f35b5050346101e657816003193601126101e65751908152602090f35b509034610194578060031936011261019457610389610c02565b9060243591821515809303610425576001600160a01b03169283156103f75750338452600560205280842083855260205280842060ff1981541660ff8416179055519081527f17307eab39ab6107e8899845ad3d59bd9653f200f220920489ca2b5937696c3160203392a380f35b8360249251917f5b08ba18000000000000000000000000000000000000000000000000000000008352820152fd5b8480fd5b82843461050557806003193601126105055781519182826001936001549461045086610cbc565b91828552602096876001821691826000146104de575050600114610482575b50505061025b929161024c910385610c68565b9190869350600183527fb10e2d527612073b26eecdfd717e6a320cf44b4afac2b0732d9fcbe2b7fa0cf65b8284106104c6575050508201018161024c61025b61046f565b8054848a0186015288955087949093019281016104ad565b60ff19168782015293151560051b8601909301935084925061024c915061025b905061046f565b80fd5b5050346101e657816003193601126101e6576020906001600160a01b03600654169051908152f35b8334610505578060031936011261050557610549611209565b806001600160a01b036006546001600160a01b03198116600655167f8be0079c531659141344cd1fd0a4f28419497f9722a3daafe3b4186f6b6457e08280a380f35b509134610505576020366003190112610505576001600160a01b036105ae610c02565b169283156105cb5750806020938392526003845220549051908152f35b9060249251917f89c62b64000000000000000000000000000000000000000000000000000000008352820152fd5b50823461050557602092836003193601126101e657610616610c02565b61061e611209565b6007546001600160a01b0380921691821561073f57818552600287528385205416918215159283610707575b818652600388528486206001815401905582865260028852848620826001600160a01b03198254161790557fddf252ad1be2c89b69c2b068fc378daa952ba7f163c4a11628f55a4df523b3ef8680a46106d9576106b1906009856007548552528220610ee2565b60075460001981146106c65760010160075580f35b506011602492634e487b7160e01b835252fd5b6024935051917f73c6ac6e000000000000000000000000000000000000000000000000000000008352820152fd5b61072883600052600460205260406000206001600160a01b03198154169055565b80865260038852848620805460001901905561064a565b60248686865191633250574960e11b8352820152fd5b50913461050557602036600319011261050557506001600160a01b0361077d602093356111ce565b915191168152f35b50903461019457602090816003193601126102c7578235916107a5611209565b82855260098152848281206107ba8154610cbc565b80610872575b50508390526002815282856001600160a01b0384822054166002811594851561083a575b848452528482206001600160a01b031981541690557fddf252ad1be2c89b69c2b068fc378daa952ba7f163c4a11628f55a4df523b3ef8280a4610825578380f35b602493505191637e27328960e01b8352820152fd5b61085b85600052600460205260406000206001600160a01b03198154169055565b8284526003815286842080546000190190556107e4565b82601f821160011461088a575050555b8438806107c0565b90918082526108a7601f868420940160051c840160018501610ecb565b5555610882565b509190346101e6576108bf36610c33565b91835193602085019085821067ffffffffffffffff8311176108ea5761035196975052858452611039565b60248760418a634e487b7160e01b835252fd5b83346105055761035161090f36610c33565b91610cf6565b50903461019457806003193601126101945761092f610c02565b9160243561093c816111ce565b331515806109f5575b806109cd575b61099e5781906001600160a01b03809616958691167f8c5be1e5ebec7d5bd14f71427d1e84f3dd0314c0f7b2291e5b200ac8c7c3b9258880a484526020528220906001600160a01b031982541617905580f35b83517fa9fbf51f0000000000000000000000000000000000000000000000000000000081523381850152602490fd5b506001600160a01b0381168652600560205283862033875260205260ff84872054161561094b565b50336001600160a01b0382161415610945565b50346101945760203660031901126101945781602093826001600160a01b039335610a32816111ce565b50825285522054169051908152f35b82843461050557806003193601126105055781519182828354610a6381610cbc565b90818452602095600191876001821691826000146104de575050600114610a975750505061025b929161024c910385610c68565b91908693508280527f290decd9548b62a8d60345a988386fc84ba6bc95484008f6362f93160ef3e5635b828410610ada575050508201018161024c61025b61046f565b8054848a018601528895508794909301928101610ac1565b9250503461019457602036600319011261019457357fffffffff00000000000000000000000000000000000000000000000000000000811680910361019457602092507f80ac58cd000000000000000000000000000000000000000000000000000000008114908115610b98575b8115610b6e575b5015158152f35b7f01ffc9a70000000000000000000000000000000000000000000000000000000091501438610b67565b7f5b5e139f0000000000000000000000000000000000000000000000000000000081149150610b60565b919082519283825260005b848110610bee575050826000602080949584010152601f8019910116010190565b602081830181015184830182015201610bcd565b600435906001600160a01b0382168203610c1857565b600080fd5b602435906001600160a01b0382168203610c1857565b6060906003190112610c18576001600160a01b03906004358281168103610c1857916024359081168103610c18579060443590565b90601f8019910116810190811067ffffffffffffffff821117610c8a57604052565b634e487b7160e01b600052604160045260246000fd5b67ffffffffffffffff8111610c8a57601f01601f191660200190565b90600182811c92168015610cec575b6020831014610cd657565b634e487b7160e01b600052602260045260246000fd5b91607f1691610ccb565b90916001600160a01b03809316928315610eb357600092828452826020956002875260409684888820541696879133151580610e04575b509060027fddf252ad1be2c89b69c2b068fc378daa952ba7f163c4a11628f55a4df523b3ef9284610dcc575b858352600381528b83206001815401905586835252898120846001600160a01b031982541617905580a41692838303610d925750505050565b6064945051927f64283d7b000000000000000000000000000000000000000000000000000000008452600484015260248301526044820152fd5b610ded87600052600460205260406000206001600160a01b03198154169055565b848352600381528b83208054600019019055610d59565b91939450915080610e72575b15610e2057859291879138610d2d565b878688610e3d576024915190637e27328960e01b82526004820152fd5b60449151907f177e802f0000000000000000000000000000000000000000000000000000000082523360048301526024820152fd5b503387148015610e97575b80610e105750858252600481523385898420541614610e10565b5086825260058152878220338352815260ff8883205416610e7d565b6024604051633250574960e11b815260006004820152fd5b818110610ed6575050565b60008155600101610ecb565b906008821461103557610ef6600854610cbc565b9167ffffffffffffffff8311610c8a57610f108154610cbc565b601f8111610ff8575b50600092601f8111600114610f555780919293600091610f49575b508160011b916000199060031b1c1916179055565b90506008015438610f34565b8184526020808520601f19831695909181905b878210610fbf57505082600194959610610f86575b5050811b019055565b7ff3f7a9fe364faab93b216da50a3214154f22a0a2b415b23a84c8169e8b636ee3015460001960f88460031b161c191690553880610f7d565b82938192937ff3f7a9fe364faab93b216da50a3214154f22a0a2b415b23a84c8169e8b636ee30154815560018091019401920190610f68565b61102590826000526020600020601f860160051c8101916020871061102b575b601f0160051c0190610ecb565b38610f19565b9091508190611018565b9050565b611044838383610cf6565b813b611051575b50505050565b6001600160a01b03949192939480931693604051937f150b7a020000000000000000000000000000000000000000000000000000000092838652336004870152166024850152604484015260806064840152826110b46020966084830190610bc2565b039285816000958187895af1849181611176575b50611127575050503d60001461111f573d6110e281610ca0565b906110f06040519283610c68565b81528091843d92013e5b8051928361111a5760248360405190633250574960e11b82526004820152fd5b019050fd5b5060606110fa565b9092507fffffffff00000000000000000000000000000000000000000000000000000000919450160361115e57503880808061104b565b60249060405190633250574960e11b82526004820152fd5b9091508681813d83116111c7575b61118e8183610c68565b8101031261042557517fffffffff00000000000000000000000000000000000000000000000000000000811681036104255790386110c8565b503d611184565b8060005260026020526001600160a01b03604060002054169081156111f1575090565b60249060405190637e27328960e01b82526004820152fd5b6001600160a01b0360065416330361121d57565b60246040517f118cdaa7000000000000000000000000000000000000000000000000000000008152336004820152fdfea2646970667358221220bd53b3265229f1221b52eb2d09624447592b834aea407137417fce63f044c68c64736f6c63430008180033",
          "opcodes": "PUSH1 0x80 PUSH1 0x40 MSTORE CALLVALUE PUSH3 0x51E JUMPI PUSH3 0x17ED DUP1 CODESIZE SUB DUP1 PUSH3 0x1D DUP2 PUSH3 0x543 JUMP JUMPDEST SWAP3 DUP4 CODECOPY DUP2 ADD SWAP1 PUSH1 0x40 DUP2 DUP4 SUB SLT PUSH3 0x51E JUMPI DUP1 MLOAD PUSH1 0x1 PUSH1 0x1 PUSH1 0xA0 SHL SUB SWAP1 DUP2 DUP2 AND SWAP1 DUP2 SWAP1 SUB PUSH3 0x51E JUMPI PUSH1 0x20 DUP4 DUP2 ADD MLOAD PUSH1 0x1 PUSH1 0x1 PUSH1 0x40 SHL SUB SWAP5 DUP6 DUP3 GT PUSH3 0x51E JUMPI ADD SWAP5 PUSH1 0x1F SWAP2 DUP2 DUP4 DUP9 ADD SLT ISZERO PUSH3 0x51E JUMPI DUP7 MLOAD DUP7 DUP2 GT PUSH3 0x339 JUMPI PUSH1 0x1F NOT SWAP8 PUSH3 0x8B DUP3 DUP7 ADD DUP11 AND DUP5 ADD PUSH3 0x543 JUMP JUMPDEST SWAP4 DUP3 DUP6 MSTORE DUP4 DUP4 DUP4 ADD ADD GT PUSH3 0x51E JUMPI DUP3 SWAP1 PUSH1 0x0 JUMPDEST DUP4 DUP2 LT PUSH3 0x509 JUMPI POP POP PUSH1 0x0 SWAP2 DUP5 ADD ADD MSTORE PUSH3 0xBA PUSH3 0x523 JUMP JUMPDEST SWAP4 PUSH1 0xD DUP6 MSTORE PUSH13 0x125B98DB1D5CDA5D9950D85C99 PUSH1 0x9A SHL DUP3 DUP7 ADD MSTORE PUSH3 0xDE PUSH3 0x523 JUMP JUMPDEST SWAP6 PUSH1 0x3 SWAP7 DUP8 DUP2 MSTORE PUSH3 0x494E43 PUSH1 0xE8 SHL DUP5 DUP3 ADD MSTORE DUP7 MLOAD DUP10 DUP2 GT PUSH3 0x339 JUMPI PUSH1 0x0 SLOAD PUSH1 0x1 SWAP9 DUP10 DUP3 DUP2 SHR SWAP3 AND DUP1 ISZERO PUSH3 0x4FE JUMPI JUMPDEST DUP8 DUP4 LT EQ PUSH3 0x318 JUMPI DUP2 DUP10 DUP5 SWAP4 GT PUSH3 0x4A8 JUMPI JUMPDEST POP DUP7 SWAP1 DUP10 DUP4 GT PUSH1 0x1 EQ PUSH3 0x444 JUMPI PUSH1 0x0 SWAP3 PUSH3 0x438 JUMPI JUMPDEST POP POP PUSH1 0x0 NOT DUP3 DUP12 SHL SHR NOT AND SWAP1 DUP9 SHL OR PUSH1 0x0 SSTORE JUMPDEST DUP1 MLOAD SWAP1 DUP10 DUP3 GT PUSH3 0x339 JUMPI DUP8 SLOAD SWAP1 DUP9 DUP3 DUP2 SHR SWAP3 AND DUP1 ISZERO PUSH3 0x42D JUMPI JUMPDEST DUP7 DUP4 LT EQ PUSH3 0x318 JUMPI DUP2 DUP9 DUP5 SWAP4 GT PUSH3 0x3D7 JUMPI JUMPDEST POP DUP6 SWAP1 DUP9 DUP4 GT PUSH1 0x1 EQ PUSH3 0x374 JUMPI PUSH1 0x0 SWAP3 PUSH3 0x368 JUMPI JUMPDEST POP POP PUSH1 0x0 NOT DUP3 DUP11 SHL SHR NOT AND SWAP1 DUP8 SHL OR DUP7 SSTORE JUMPDEST DUP2 ISZERO PUSH3 0x34F JUMPI PUSH1 0x6 DUP1 SLOAD PUSH1 0x1 PUSH1 0x1 PUSH1 0xA0 SHL SUB NOT DUP2 AND DUP5 OR SWAP1 SWAP2 SSTORE AND PUSH32 0x8BE0079C531659141344CD1FD0A4F28419497F9722A3DAAFE3B4186F6B6457E0 PUSH1 0x0 DUP1 LOG3 DUP2 MLOAD SWAP6 DUP7 GT PUSH3 0x339 JUMPI PUSH1 0x8 SLOAD DUP5 DUP2 DUP2 SHR SWAP2 AND DUP1 ISZERO PUSH3 0x32E JUMPI JUMPDEST DUP3 DUP3 LT EQ PUSH3 0x318 JUMPI DUP4 DUP2 GT PUSH3 0x2CC JUMPI JUMPDEST POP DUP1 SWAP3 DUP7 GT PUSH1 0x1 EQ PUSH3 0x25E JUMPI POP DUP5 SWAP6 POP SWAP1 DUP5 SWAP3 SWAP2 PUSH1 0x0 SWAP6 PUSH3 0x252 JUMPI JUMPDEST POP POP SHL SWAP3 PUSH1 0x0 NOT SWAP2 SHL SHR NOT AND OR PUSH1 0x8 SSTORE JUMPDEST PUSH1 0x40 MLOAD PUSH2 0x1283 SWAP1 DUP2 PUSH3 0x56A DUP3 CODECOPY RETURN JUMPDEST ADD MLOAD SWAP4 POP CODESIZE DUP1 PUSH3 0x231 JUMP JUMPDEST SWAP4 SWAP3 SWAP6 DUP6 SWAP1 DUP2 AND PUSH1 0x8 PUSH1 0x0 MSTORE DUP6 PUSH1 0x0 KECCAK256 SWAP6 PUSH1 0x0 SWAP1 JUMPDEST DUP10 DUP4 DUP4 LT PUSH3 0x2B1 JUMPI POP POP POP LT PUSH3 0x296 JUMPI JUMPDEST POP POP POP POP DUP2 SHL ADD PUSH1 0x8 SSTORE PUSH3 0x242 JUMP JUMPDEST ADD MLOAD SWAP1 PUSH1 0xF8 DUP5 PUSH1 0x0 NOT SWAP3 SHL AND SHR NOT AND SWAP1 SSTORE CODESIZE DUP1 DUP1 DUP1 PUSH3 0x286 JUMP JUMPDEST DUP6 DUP8 ADD MLOAD DUP10 SSTORE SWAP1 SWAP8 ADD SWAP7 SWAP5 DUP6 ADD SWAP5 DUP9 SWAP4 POP SWAP1 DUP2 ADD SWAP1 PUSH3 0x273 JUMP JUMPDEST PUSH1 0x8 PUSH1 0x0 MSTORE DUP2 PUSH1 0x0 KECCAK256 DUP5 DUP1 DUP10 ADD PUSH1 0x5 SHR DUP3 ADD SWAP3 DUP5 DUP11 LT PUSH3 0x30E JUMPI JUMPDEST ADD PUSH1 0x5 SHR ADD SWAP1 DUP6 SWAP1 JUMPDEST DUP3 DUP2 LT PUSH3 0x301 JUMPI POP POP PUSH3 0x213 JUMP JUMPDEST PUSH1 0x0 DUP2 SSTORE ADD DUP6 SWAP1 PUSH3 0x2F1 JUMP JUMPDEST SWAP3 POP DUP2 SWAP3 PUSH3 0x2E8 JUMP JUMPDEST PUSH4 0x4E487B71 PUSH1 0xE0 SHL PUSH1 0x0 MSTORE PUSH1 0x22 PUSH1 0x4 MSTORE PUSH1 0x24 PUSH1 0x0 REVERT JUMPDEST SWAP1 PUSH1 0x7F AND SWAP1 PUSH3 0x201 JUMP JUMPDEST PUSH4 0x4E487B71 PUSH1 0xE0 SHL PUSH1 0x0 MSTORE PUSH1 0x41 PUSH1 0x4 MSTORE PUSH1 0x24 PUSH1 0x0 REVERT JUMPDEST PUSH1 0x40 MLOAD PUSH4 0x1E4FBDF7 PUSH1 0xE0 SHL DUP2 MSTORE PUSH1 0x0 PUSH1 0x4 DUP3 ADD MSTORE PUSH1 0x24 SWAP1 REVERT JUMPDEST ADD MLOAD SWAP1 POP CODESIZE DUP1 PUSH3 0x193 JUMP JUMPDEST SWAP1 DUP13 DUP11 SWAP5 AND SWAP2 DUP5 PUSH1 0x0 MSTORE DUP8 PUSH1 0x0 KECCAK256 SWAP3 PUSH1 0x0 JUMPDEST DUP10 DUP3 DUP3 LT PUSH3 0x3C0 JUMPI POP POP DUP5 GT PUSH3 0x3A7 JUMPI JUMPDEST POP POP POP DUP2 SHL ADD DUP7 SSTORE PUSH3 0x1A5 JUMP JUMPDEST ADD MLOAD PUSH1 0x0 NOT DUP4 DUP13 SHL PUSH1 0xF8 AND SHR NOT AND SWAP1 SSTORE CODESIZE DUP1 DUP1 PUSH3 0x399 JUMP JUMPDEST DUP4 DUP6 ADD MLOAD DUP7 SSTORE DUP14 SWAP8 SWAP1 SWAP6 ADD SWAP5 SWAP4 DUP5 ADD SWAP4 ADD PUSH3 0x386 JUMP JUMPDEST SWAP1 SWAP2 POP DUP9 PUSH1 0x0 MSTORE DUP6 PUSH1 0x0 KECCAK256 DUP9 DUP1 DUP6 ADD PUSH1 0x5 SHR DUP3 ADD SWAP3 DUP9 DUP7 LT PUSH3 0x423 JUMPI JUMPDEST SWAP2 DUP12 SWAP2 DUP7 SWAP6 SWAP5 SWAP4 ADD PUSH1 0x5 SHR ADD SWAP2 JUMPDEST DUP3 DUP2 LT PUSH3 0x413 JUMPI POP POP PUSH3 0x17C JUMP JUMPDEST PUSH1 0x0 DUP2 SSTORE DUP6 SWAP5 POP DUP12 SWAP2 ADD PUSH3 0x403 JUMP JUMPDEST SWAP3 POP DUP2 SWAP3 PUSH3 0x3F5 JUMP JUMPDEST SWAP2 PUSH1 0x7F AND SWAP2 PUSH3 0x168 JUMP JUMPDEST ADD MLOAD SWAP1 POP CODESIZE DUP1 PUSH3 0x139 JUMP JUMPDEST SWAP1 DUP14 DUP12 SWAP5 AND SWAP2 PUSH1 0x0 DUP1 MSTORE DUP9 PUSH1 0x0 KECCAK256 SWAP3 PUSH1 0x0 JUMPDEST DUP11 DUP3 DUP3 LT PUSH3 0x491 JUMPI POP POP DUP5 GT PUSH3 0x478 JUMPI JUMPDEST POP POP POP DUP2 SHL ADD PUSH1 0x0 SSTORE PUSH3 0x14C JUMP JUMPDEST ADD MLOAD PUSH1 0x0 NOT DUP4 DUP14 SHL PUSH1 0xF8 AND SHR NOT AND SWAP1 SSTORE CODESIZE DUP1 DUP1 PUSH3 0x469 JUMP JUMPDEST DUP4 DUP6 ADD MLOAD DUP7 SSTORE DUP15 SWAP8 SWAP1 SWAP6 ADD SWAP5 SWAP4 DUP5 ADD SWAP4 ADD PUSH3 0x456 JUMP JUMPDEST SWAP1 SWAP2 POP PUSH1 0x0 DUP1 MSTORE DUP7 PUSH1 0x0 KECCAK256 DUP10 DUP1 DUP6 ADD PUSH1 0x5 SHR DUP3 ADD SWAP3 DUP10 DUP7 LT PUSH3 0x4F4 JUMPI JUMPDEST SWAP2 DUP13 SWAP2 DUP7 SWAP6 SWAP5 SWAP4 ADD PUSH1 0x5 SHR ADD SWAP2 JUMPDEST DUP3 DUP2 LT PUSH3 0x4E4 JUMPI POP POP PUSH3 0x122 JUMP JUMPDEST PUSH1 0x0 DUP2 SSTORE DUP6 SWAP5 POP DUP13 SWAP2 ADD PUSH3 0x4D4 JUMP JUMPDEST SWAP3 POP DUP2 SWAP3 PUSH3 0x4C6 JUMP JUMPDEST SWAP2 PUSH1 0x7F AND SWAP2 PUSH3 0x10E JUMP JUMPDEST DUP2 DUP2 ADD DUP4 ADD MLOAD DUP7 DUP3 ADD DUP5 ADD MSTORE DUP5 SWAP3 ADD PUSH3 0x9F JUMP JUMPDEST PUSH1 0x0 DUP1 REVERT JUMPDEST PUSH1 0x40 DUP1 MLOAD SWAP2 SWAP1 DUP3 ADD PUSH1 0x1 PUSH1 0x1 PUSH1 0x40 SHL SUB DUP2 GT DUP4 DUP3 LT OR PUSH3 0x339 JUMPI PUSH1 0x40 MSTORE JUMP JUMPDEST PUSH1 0x40 MLOAD SWAP2 SWAP1 PUSH1 0x1F ADD PUSH1 0x1F NOT AND DUP3 ADD PUSH1 0x1 PUSH1 0x1 PUSH1 0x40 SHL SUB DUP2 GT DUP4 DUP3 LT OR PUSH3 0x339 JUMPI PUSH1 0x40 MSTORE JUMP INVALID PUSH1 0x80 PUSH1 0x40 DUP2 DUP2 MSTORE PUSH1 0x4 DUP1 CALLDATASIZE LT ISZERO PUSH2 0x15 JUMPI PUSH1 0x0 DUP1 REVERT JUMPDEST PUSH1 0x0 SWAP3 DUP4 CALLDATALOAD PUSH1 0xE0 SHR SWAP1 DUP2 PUSH4 0x1FFC9A7 EQ PUSH2 0xAF2 JUMPI POP DUP1 PUSH4 0x6FDDE03 EQ PUSH2 0xA41 JUMPI DUP1 PUSH4 0x81812FC EQ PUSH2 0xA08 JUMPI DUP1 PUSH4 0x95EA7B3 EQ PUSH2 0x915 JUMPI DUP1 PUSH4 0x23B872DD EQ PUSH2 0x8FD JUMPI DUP1 PUSH4 0x42842E0E EQ PUSH2 0x8AE JUMPI DUP1 PUSH4 0x42966C68 EQ PUSH2 0x785 JUMPI DUP1 PUSH4 0x6352211E EQ PUSH2 0x755 JUMPI DUP1 PUSH4 0x6A627842 EQ PUSH2 0x5F9 JUMPI DUP1 PUSH4 0x70A08231 EQ PUSH2 0x58B JUMPI DUP1 PUSH4 0x715018A6 EQ PUSH2 0x530 JUMPI DUP1 PUSH4 0x8DA5CB5B EQ PUSH2 0x508 JUMPI DUP1 PUSH4 0x95D89B41 EQ PUSH2 0x429 JUMPI DUP1 PUSH4 0xA22CB465 EQ PUSH2 0x36F JUMPI DUP1 PUSH4 0xA7F93EBD EQ PUSH2 0x354 JUMPI DUP1 PUSH4 0xB88D4FDE EQ PUSH2 0x2CB JUMPI DUP1 PUSH4 0xC87B56DD EQ PUSH2 0x1EA JUMPI DUP1 PUSH4 0xE985E9C5 EQ PUSH2 0x198 JUMPI PUSH4 0xF2FDE38B EQ PUSH2 0xF4 JUMPI PUSH1 0x0 DUP1 REVERT JUMPDEST CALLVALUE PUSH2 0x194 JUMPI PUSH1 0x20 CALLDATASIZE PUSH1 0x3 NOT ADD SLT PUSH2 0x194 JUMPI PUSH2 0x10D PUSH2 0xC02 JUMP JUMPDEST SWAP1 PUSH2 0x116 PUSH2 0x1209 JUMP JUMPDEST PUSH1 0x1 PUSH1 0x1 PUSH1 0xA0 SHL SUB DUP1 SWAP3 AND SWAP3 DUP4 ISZERO PUSH2 0x165 JUMPI POP POP PUSH1 0x6 SLOAD DUP3 PUSH1 0x1 PUSH1 0x1 PUSH1 0xA0 SHL SUB NOT DUP3 AND OR PUSH1 0x6 SSTORE AND PUSH32 0x8BE0079C531659141344CD1FD0A4F28419497F9722A3DAAFE3B4186F6B6457E0 DUP4 DUP1 LOG3 DUP1 RETURN JUMPDEST SWAP1 DUP5 PUSH1 0x24 SWAP3 MLOAD SWAP2 PUSH32 0x1E4FBDF700000000000000000000000000000000000000000000000000000000 DUP4 MSTORE DUP3 ADD MSTORE REVERT JUMPDEST DUP3 DUP1 REVERT JUMPDEST POP POP CALLVALUE PUSH2 0x1E6 JUMPI DUP1 PUSH1 0x3 NOT CALLDATASIZE ADD SLT PUSH2 0x1E6 JUMPI PUSH1 0xFF DUP2 PUSH1 0x20 SWAP4 PUSH2 0x1B8 PUSH2 0xC02 JUMP JUMPDEST PUSH2 0x1C0 PUSH2 0xC1D JUMP JUMPDEST PUSH1 0x1 PUSH1 0x1 PUSH1 0xA0 SHL SUB SWAP2 DUP3 AND DUP4 MSTORE PUSH1 0x5 DUP8 MSTORE DUP4 DUP4 KECCAK256 SWAP2 AND DUP3 MSTORE DUP6 MSTORE KECCAK256 SLOAD SWAP2 MLOAD SWAP2 AND ISZERO ISZERO DUP2 MSTORE RETURN JUMPDEST POP DUP1 REVERT JUMPDEST POP SWAP1 CALLVALUE PUSH2 0x194 JUMPI PUSH1 0x20 SWAP2 DUP3 PUSH1 0x3 NOT CALLDATASIZE ADD SLT PUSH2 0x2C7 JUMPI CALLDATALOAD DUP4 MSTORE PUSH1 0x9 DUP3 MSTORE DUP1 DUP4 KECCAK256 DUP2 MLOAD SWAP4 DUP5 SWAP2 DUP2 DUP2 SLOAD SWAP1 PUSH2 0x21B DUP3 PUSH2 0xCBC JUMP JUMPDEST SWAP3 DUP4 DUP7 MSTORE PUSH1 0x1 SWAP3 DUP9 PUSH1 0x1 DUP3 AND SWAP2 DUP3 PUSH1 0x0 EQ PUSH2 0x29D JUMPI POP POP PUSH1 0x1 EQ PUSH2 0x25F JUMPI JUMPDEST DUP6 DUP9 PUSH2 0x25B DUP10 PUSH2 0x24C DUP5 DUP11 SUB DUP6 PUSH2 0xC68 JUMP JUMPDEST MLOAD SWAP3 DUP3 DUP5 SWAP4 DUP5 MSTORE DUP4 ADD SWAP1 PUSH2 0xBC2 JUMP JUMPDEST SUB SWAP1 RETURN JUMPDEST DUP8 SWAP5 POP DUP2 SWAP4 SWAP3 SWAP2 MSTORE DUP4 DUP4 KECCAK256 JUMPDEST DUP3 DUP5 LT PUSH2 0x285 JUMPI POP POP POP DUP3 ADD ADD DUP2 PUSH2 0x24C PUSH2 0x25B CODESIZE PUSH2 0x23A JUMP JUMPDEST DUP1 SLOAD DUP5 DUP11 ADD DUP7 ADD MSTORE DUP9 SWAP6 POP DUP8 SWAP5 SWAP1 SWAP4 ADD SWAP3 DUP2 ADD PUSH2 0x26B JUMP JUMPDEST PUSH1 0xFF NOT AND DUP9 DUP3 ADD MSTORE SWAP5 ISZERO ISZERO PUSH1 0x5 SHL DUP8 ADD SWAP1 SWAP5 ADD SWAP5 POP DUP6 SWAP4 POP PUSH2 0x24C SWAP3 POP PUSH2 0x25B SWAP2 POP CODESIZE SWAP1 POP PUSH2 0x23A JUMP JUMPDEST DUP4 DUP1 REVERT JUMPDEST POP SWAP1 CALLVALUE PUSH2 0x194 JUMPI PUSH1 0x80 CALLDATASIZE PUSH1 0x3 NOT ADD SLT PUSH2 0x194 JUMPI PUSH2 0x2E6 PUSH2 0xC02 JUMP JUMPDEST PUSH2 0x2EE PUSH2 0xC1D JUMP JUMPDEST DUP5 PUSH1 0x64 CALLDATALOAD SWAP5 PUSH8 0xFFFFFFFFFFFFFFFF DUP7 GT PUSH2 0x1E6 JUMPI CALLDATASIZE PUSH1 0x23 DUP8 ADD SLT ISZERO PUSH2 0x1E6 JUMPI DUP6 ADD CALLDATALOAD SWAP5 PUSH2 0x326 PUSH2 0x31D DUP8 PUSH2 0xCA0 JUMP JUMPDEST SWAP6 MLOAD SWAP6 DUP7 PUSH2 0xC68 JUMP JUMPDEST DUP6 DUP6 MSTORE CALLDATASIZE PUSH1 0x24 DUP8 DUP4 ADD ADD GT PUSH2 0x1E6 JUMPI DUP6 PUSH2 0x351 SWAP7 PUSH1 0x24 PUSH1 0x20 SWAP4 ADD DUP4 DUP9 ADD CALLDATACOPY DUP6 ADD ADD MSTORE PUSH1 0x44 CALLDATALOAD SWAP2 PUSH2 0x1039 JUMP JUMPDEST DUP1 RETURN JUMPDEST POP POP CALLVALUE PUSH2 0x1E6 JUMPI DUP2 PUSH1 0x3 NOT CALLDATASIZE ADD SLT PUSH2 0x1E6 JUMPI MLOAD SWAP1 DUP2 MSTORE PUSH1 0x20 SWAP1 RETURN JUMPDEST POP SWAP1 CALLVALUE PUSH2 0x194 JUMPI DUP1 PUSH1 0x3 NOT CALLDATASIZE ADD SLT PUSH2 0x194 JUMPI PUSH2 0x389 PUSH2 0xC02 JUMP JUMPDEST SWAP1 PUSH1 0x24 CALLDATALOAD SWAP2 DUP3 ISZERO ISZERO DUP1 SWAP4 SUB PUSH2 0x425 JUMPI PUSH1 0x1 PUSH1 0x1 PUSH1 0xA0 SHL SUB AND SWAP3 DUP4 ISZERO PUSH2 0x3F7 JUMPI POP CALLER DUP5 MSTORE PUSH1 0x5 PUSH1 0x20 MSTORE DUP1 DUP5 KECCAK256 DUP4 DUP6 MSTORE PUSH1 0x20 MSTORE DUP1 DUP5 KECCAK256 PUSH1 0xFF NOT DUP2 SLOAD AND PUSH1 0xFF DUP5 AND OR SWAP1 SSTORE MLOAD SWAP1 DUP2 MSTORE PUSH32 0x17307EAB39AB6107E8899845AD3D59BD9653F200F220920489CA2B5937696C31 PUSH1 0x20 CALLER SWAP3 LOG3 DUP1 RETURN JUMPDEST DUP4 PUSH1 0x24 SWAP3 MLOAD SWAP2 PUSH32 0x5B08BA1800000000000000000000000000000000000000000000000000000000 DUP4 MSTORE DUP3 ADD MSTORE REVERT JUMPDEST DUP5 DUP1 REVERT JUMPDEST DUP3 DUP5 CALLVALUE PUSH2 0x505 JUMPI DUP1 PUSH1 0x3 NOT CALLDATASIZE ADD SLT PUSH2 0x505 JUMPI DUP2 MLOAD SWAP2 DUP3 DUP3 PUSH1 0x1 SWAP4 PUSH1 0x1 SLOAD SWAP5 PUSH2 0x450 DUP7 PUSH2 0xCBC JUMP JUMPDEST SWAP2 DUP3 DUP6 MSTORE PUSH1 0x20 SWAP7 DUP8 PUSH1 0x1 DUP3 AND SWAP2 DUP3 PUSH1 0x0 EQ PUSH2 0x4DE JUMPI POP POP PUSH1 0x1 EQ PUSH2 0x482 JUMPI JUMPDEST POP POP POP PUSH2 0x25B SWAP3 SWAP2 PUSH2 0x24C SWAP2 SUB DUP6 PUSH2 0xC68 JUMP JUMPDEST SWAP2 SWAP1 DUP7 SWAP4 POP PUSH1 0x1 DUP4 MSTORE PUSH32 0xB10E2D527612073B26EECDFD717E6A320CF44B4AFAC2B0732D9FCBE2B7FA0CF6 JUMPDEST DUP3 DUP5 LT PUSH2 0x4C6 JUMPI POP POP POP DUP3 ADD ADD DUP2 PUSH2 0x24C PUSH2 0x25B PUSH2 0x46F JUMP JUMPDEST DUP1 SLOAD DUP5 DUP11 ADD DUP7 ADD MSTORE DUP9 SWAP6 POP DUP8 SWAP5 SWAP1 SWAP4 ADD SWAP3 DUP2 ADD PUSH2 0x4AD JUMP JUMPDEST PUSH1 0xFF NOT AND DUP8 DUP3 ADD MSTORE SWAP4 ISZERO ISZERO PUSH1 0x5 SHL DUP7 ADD SWAP1 SWAP4 ADD SWAP4 POP DUP5 SWAP3 POP PUSH2 0x24C SWAP2 POP PUSH2 0x25B SWAP1 POP PUSH2 0x46F JUMP JUMPDEST DUP1 REVERT JUMPDEST POP POP CALLVALUE PUSH2 0x1E6 JUMPI DUP2 PUSH1 0x3 NOT CALLDATASIZE ADD SLT PUSH2 0x1E6 JUMPI PUSH1 0x20 SWAP1 PUSH1 0x1 PUSH1 0x1 PUSH1 0xA0 SHL SUB PUSH1 0x6 SLOAD AND SWAP1 MLOAD SWAP1 DUP2 MSTORE RETURN JUMPDEST DUP4 CALLVALUE PUSH2 0x505 JUMPI DUP1 PUSH1 0x3 NOT CALLDATASIZE ADD SLT PUSH2 0x505 JUMPI PUSH2 0x549 PUSH2 0x1209 JUMP JUMPDEST DUP1 PUSH1 0x1 PUSH1 0x1 PUSH1 0xA0 SHL SUB PUSH1 0x6 SLOAD PUSH1 0x1 PUSH1 0x1 PUSH1 0xA0 SHL SUB NOT DUP2 AND PUSH1 0x6 SSTORE AND PUSH32 0x8BE0079C531659141344CD1FD0A4F28419497F9722A3DAAFE3B4186F6B6457E0 DUP3 DUP1 LOG3 DUP1 RETURN JUMPDEST POP SWAP2 CALLVALUE PUSH2 0x505 JUMPI PUSH1 0x20 CALLDATASIZE PUSH1 0x3 NOT ADD SLT PUSH2 0x505 JUMPI PUSH1 0x1 PUSH1 0x1 PUSH1 0xA0 SHL SUB PUSH2 0x5AE PUSH2 0xC02 JUMP JUMPDEST AND SWAP3 DUP4 ISZERO PUSH2 0x5CB JUMPI POP DUP1 PUSH1 0x20 SWAP4 DUP4 SWAP3 MSTORE PUSH1 0x3 DUP5 MSTORE KECCAK256 SLOAD SWAP1 MLOAD SWAP1 DUP2 MSTORE RETURN JUMPDEST SWAP1 PUSH1 0x24 SWAP3 MLOAD SWAP2 PUSH32 0x89C62B6400000000000000000000000000000000000000000000000000000000 DUP4 MSTORE DUP3 ADD MSTORE REVERT JUMPDEST POP DUP3 CALLVALUE PUSH2 0x505 JUMPI PUSH1 0x20 SWAP3 DUP4 PUSH1 0x3 NOT CALLDATASIZE ADD SLT PUSH2 0x1E6 JUMPI PUSH2 0x616 PUSH2 0xC02 JUMP JUMPDEST PUSH2 0x61E PUSH2 0x1209 JUMP JUMPDEST PUSH1 0x7 SLOAD PUSH1 0x1 PUSH1 0x1 PUSH1 0xA0 SHL SUB DUP1 SWAP3 AND SWAP2 DUP3 ISZERO PUSH2 0x73F JUMPI DUP2 DUP6 MSTORE PUSH1 0x2 DUP8 MSTORE DUP4 DUP6 KECCAK256 SLOAD AND SWAP2 DUP3 ISZERO ISZERO SWAP3 DUP4 PUSH2 0x707 JUMPI JUMPDEST DUP2 DUP7 MSTORE PUSH1 0x3 DUP9 MSTORE DUP5 DUP7 KECCAK256 PUSH1 0x1 DUP2 SLOAD ADD SWAP1 SSTORE DUP3 DUP7 MSTORE PUSH1 0x2 DUP9 MSTORE DUP5 DUP7 KECCAK256 DUP3 PUSH1 0x1 PUSH1 0x1 PUSH1 0xA0 SHL SUB NOT DUP3 SLOAD AND OR SWAP1 SSTORE PUSH32 0xDDF252AD1BE2C89B69C2B068FC378DAA952BA7F163C4A11628F55A4DF523B3EF DUP7 DUP1 LOG4 PUSH2 0x6D9 JUMPI PUSH2 0x6B1 SWAP1 PUSH1 0x9 DUP6 PUSH1 0x7 SLOAD DUP6 MSTORE MSTORE DUP3 KECCAK256 PUSH2 0xEE2 JUMP JUMPDEST PUSH1 0x7 SLOAD PUSH1 0x0 NOT DUP2 EQ PUSH2 0x6C6 JUMPI PUSH1 0x1 ADD PUSH1 0x7 SSTORE DUP1 RETURN JUMPDEST POP PUSH1 0x11 PUSH1 0x24 SWAP3 PUSH4 0x4E487B71 PUSH1 0xE0 SHL DUP4 MSTORE MSTORE REVERT JUMPDEST PUSH1 0x24 SWAP4 POP MLOAD SWAP2 PUSH32 0x73C6AC6E00000000000000000000000000000000000000000000000000000000 DUP4 MSTORE DUP3 ADD MSTORE REVERT JUMPDEST PUSH2 0x728 DUP4 PUSH1 0x0 MSTORE PUSH1 0x4 PUSH1 0x20 MSTORE PUSH1 0x40 PUSH1 0x0 KECCAK256 PUSH1 0x1 PUSH1 0x1 PUSH1 0xA0 SHL SUB NOT DUP2 SLOAD AND SWAP1 SSTORE JUMP JUMPDEST DUP1 DUP7 MSTORE PUSH1 0x3 DUP9 MSTORE DUP5 DUP7 KECCAK256 DUP1 SLOAD PUSH1 0x0 NOT ADD SWAP1 SSTORE PUSH2 0x64A JUMP JUMPDEST PUSH1 0x24 DUP7 DUP7 DUP7 MLOAD SWAP2 PUSH4 0x32505749 PUSH1 0xE1 SHL DUP4 MSTORE DUP3 ADD MSTORE REVERT JUMPDEST POP SWAP2 CALLVALUE PUSH2 0x505 JUMPI PUSH1 0x20 CALLDATASIZE PUSH1 0x3 NOT ADD SLT PUSH2 0x505 JUMPI POP PUSH1 0x1 PUSH1 0x1 PUSH1 0xA0 SHL SUB PUSH2 0x77D PUSH1 0x20 SWAP4 CALLDATALOAD PUSH2 0x11CE JUMP JUMPDEST SWAP2 MLOAD SWAP2 AND DUP2 MSTORE RETURN JUMPDEST POP SWAP1 CALLVALUE PUSH2 0x194 JUMPI PUSH1 0x20 SWAP1 DUP2 PUSH1 0x3 NOT CALLDATASIZE ADD SLT PUSH2 0x2C7 JUMPI DUP3 CALLDATALOAD SWAP2 PUSH2 0x7A5 PUSH2 0x1209 JUMP JUMPDEST DUP3 DUP6 MSTORE PUSH1 0x9 DUP2 MSTORE DUP5 DUP3 DUP2 KECCAK256 PUSH2 0x7BA DUP2 SLOAD PUSH2 0xCBC JUMP JUMPDEST DUP1 PUSH2 0x872 JUMPI JUMPDEST POP POP DUP4 SWAP1 MSTORE PUSH1 0x2 DUP2 MSTORE DUP3 DUP6 PUSH1 0x1 PUSH1 0x1 PUSH1 0xA0 SHL SUB DUP5 DUP3 KECCAK256 SLOAD AND PUSH1 0x2 DUP2 ISZERO SWAP5 DUP6 ISZERO PUSH2 0x83A JUMPI JUMPDEST DUP5 DUP5 MSTORE MSTORE DUP5 DUP3 KECCAK256 PUSH1 0x1 PUSH1 0x1 PUSH1 0xA0 SHL SUB NOT DUP2 SLOAD AND SWAP1 SSTORE PUSH32 0xDDF252AD1BE2C89B69C2B068FC378DAA952BA7F163C4A11628F55A4DF523B3EF DUP3 DUP1 LOG4 PUSH2 0x825 JUMPI DUP4 DUP1 RETURN JUMPDEST PUSH1 0x24 SWAP4 POP MLOAD SWAP2 PUSH4 0x7E273289 PUSH1 0xE0 SHL DUP4 MSTORE DUP3 ADD MSTORE REVERT JUMPDEST PUSH2 0x85B DUP6 PUSH1 0x0 MSTORE PUSH1 0x4 PUSH1 0x20 MSTORE PUSH1 0x40 PUSH1 0x0 KECCAK256 PUSH1 0x1 PUSH1 0x1 PUSH1 0xA0 SHL SUB NOT DUP2 SLOAD AND SWAP1 SSTORE JUMP JUMPDEST DUP3 DUP5 MSTORE PUSH1 0x3 DUP2 MSTORE DUP7 DUP5 KECCAK256 DUP1 SLOAD PUSH1 0x0 NOT ADD SWAP1 SSTORE PUSH2 0x7E4 JUMP JUMPDEST DUP3 PUSH1 0x1F DUP3 GT PUSH1 0x1 EQ PUSH2 0x88A JUMPI POP POP SSTORE JUMPDEST DUP5 CODESIZE DUP1 PUSH2 0x7C0 JUMP JUMPDEST SWAP1 SWAP2 DUP1 DUP3 MSTORE PUSH2 0x8A7 PUSH1 0x1F DUP7 DUP5 KECCAK256 SWAP5 ADD PUSH1 0x5 SHR DUP5 ADD PUSH1 0x1 DUP6 ADD PUSH2 0xECB JUMP JUMPDEST SSTORE SSTORE PUSH2 0x882 JUMP JUMPDEST POP SWAP2 SWAP1 CALLVALUE PUSH2 0x1E6 JUMPI PUSH2 0x8BF CALLDATASIZE PUSH2 0xC33 JUMP JUMPDEST SWAP2 DUP4 MLOAD SWAP4 PUSH1 0x20 DUP6 ADD SWAP1 DUP6 DUP3 LT PUSH8 0xFFFFFFFFFFFFFFFF DUP4 GT OR PUSH2 0x8EA JUMPI PUSH2 0x351 SWAP7 SWAP8 POP MSTORE DUP6 DUP5 MSTORE PUSH2 0x1039 JUMP JUMPDEST PUSH1 0x24 DUP8 PUSH1 0x41 DUP11 PUSH4 0x4E487B71 PUSH1 0xE0 SHL DUP4 MSTORE MSTORE REVERT JUMPDEST DUP4 CALLVALUE PUSH2 0x505 JUMPI PUSH2 0x351 PUSH2 0x90F CALLDATASIZE PUSH2 0xC33 JUMP JUMPDEST SWAP2 PUSH2 0xCF6 JUMP JUMPDEST POP SWAP1 CALLVALUE PUSH2 0x194 JUMPI DUP1 PUSH1 0x3 NOT CALLDATASIZE ADD SLT PUSH2 0x194 JUMPI PUSH2 0x92F PUSH2 0xC02 JUMP JUMPDEST SWAP2 PUSH1 0x24 CALLDATALOAD PUSH2 0x93C DUP2 PUSH2 0x11CE JUMP JUMPDEST CALLER ISZERO ISZERO DUP1 PUSH2 0x9F5 JUMPI JUMPDEST DUP1 PUSH2 0x9CD JUMPI JUMPDEST PUSH2 0x99E JUMPI DUP2 SWAP1 PUSH1 0x1 PUSH1 0x1 PUSH1 0xA0 SHL SUB DUP1 SWAP7 AND SWAP6 DUP7 SWAP2 AND PUSH32 0x8C5BE1E5EBEC7D5BD14F71427D1E84F3DD0314C0F7B2291E5B200AC8C7C3B925 DUP9 DUP1 LOG4 DUP5 MSTORE PUSH1 0x20 MSTORE DUP3 KECCAK256 SWAP1 PUSH1 0x1 PUSH1 0x1 PUSH1 0xA0 SHL SUB NOT DUP3 SLOAD AND OR SWAP1 SSTORE DUP1 RETURN JUMPDEST DUP4 MLOAD PUSH32 0xA9FBF51F00000000000000000000000000000000000000000000000000000000 DUP2 MSTORE CALLER DUP2 DUP6 ADD MSTORE PUSH1 0x24 SWAP1 REVERT JUMPDEST POP PUSH1 0x1 PUSH1 0x1 PUSH1 0xA0 SHL SUB DUP2 AND DUP7 MSTORE PUSH1 0x5 PUSH1 0x20 MSTORE DUP4 DUP7 KECCAK256 CALLER DUP8 MSTORE PUSH1 0x20 MSTORE PUSH1 0xFF DUP5 DUP8 KECCAK256 SLOAD AND ISZERO PUSH2 0x94B JUMP JUMPDEST POP CALLER PUSH1 0x1 PUSH1 0x1 PUSH1 0xA0 SHL SUB DUP3 AND EQ ISZERO PUSH2 0x945 JUMP JUMPDEST POP CALLVALUE PUSH2 0x194 JUMPI PUSH1 0x20 CALLDATASIZE PUSH1 0x3 NOT ADD SLT PUSH2 0x194 JUMPI DUP2 PUSH1 0x20 SWAP4 DUP3 PUSH1 0x1 PUSH1 0x1 PUSH1 0xA0 SHL SUB SWAP4 CALLDATALOAD PUSH2 0xA32 DUP2 PUSH2 0x11CE JUMP JUMPDEST POP DUP3 MSTORE DUP6 MSTORE KECCAK256 SLOAD AND SWAP1 MLOAD SWAP1 DUP2 MSTORE RETURN JUMPDEST DUP3 DUP5 CALLVALUE PUSH2 0x505 JUMPI DUP1 PUSH1 0x3 NOT CALLDATASIZE ADD SLT PUSH2 0x505 JUMPI DUP2 MLOAD SWAP2 DUP3 DUP3 DUP4 SLOAD PUSH2 0xA63 DUP2 PUSH2 0xCBC JUMP JUMPDEST SWAP1 DUP2 DUP5 MSTORE PUSH1 0x20 SWAP6 PUSH1 0x1 SWAP2 DUP8 PUSH1 0x1 DUP3 AND SWAP2 DUP3 PUSH1 0x0 EQ PUSH2 0x4DE JUMPI POP POP PUSH1 0x1 EQ PUSH2 0xA97 JUMPI POP POP POP PUSH2 0x25B SWAP3 SWAP2 PUSH2 0x24C SWAP2 SUB DUP6 PUSH2 0xC68 JUMP JUMPDEST SWAP2 SWAP1 DUP7 SWAP4 POP DUP3 DUP1 MSTORE PUSH32 0x290DECD9548B62A8D60345A988386FC84BA6BC95484008F6362F93160EF3E563 JUMPDEST DUP3 DUP5 LT PUSH2 0xADA JUMPI POP POP POP DUP3 ADD ADD DUP2 PUSH2 0x24C PUSH2 0x25B PUSH2 0x46F JUMP JUMPDEST DUP1 SLOAD DUP5 DUP11 ADD DUP7 ADD MSTORE DUP9 SWAP6 POP DUP8 SWAP5 SWAP1 SWAP4 ADD SWAP3 DUP2 ADD PUSH2 0xAC1 JUMP JUMPDEST SWAP3 POP POP CALLVALUE PUSH2 0x194 JUMPI PUSH1 0x20 CALLDATASIZE PUSH1 0x3 NOT ADD SLT PUSH2 0x194 JUMPI CALLDATALOAD PUSH32 0xFFFFFFFF00000000000000000000000000000000000000000000000000000000 DUP2 AND DUP1 SWAP2 SUB PUSH2 0x194 JUMPI PUSH1 0x20 SWAP3 POP PUSH32 0x80AC58CD00000000000000000000000000000000000000000000000000000000 DUP2 EQ SWAP1 DUP2 ISZERO PUSH2 0xB98 JUMPI JUMPDEST DUP2 ISZERO PUSH2 0xB6E JUMPI JUMPDEST POP ISZERO ISZERO DUP2 MSTORE RETURN JUMPDEST PUSH32 0x1FFC9A700000000000000000000000000000000000000000000000000000000 SWAP2 POP EQ CODESIZE PUSH2 0xB67 JUMP JUMPDEST PUSH32 0x5B5E139F00000000000000000000000000000000000000000000000000000000 DUP2 EQ SWAP2 POP PUSH2 0xB60 JUMP JUMPDEST SWAP2 SWAP1 DUP3 MLOAD SWAP3 DUP4 DUP3 MSTORE PUSH1 0x0 JUMPDEST DUP5 DUP2 LT PUSH2 0xBEE JUMPI POP POP DUP3 PUSH1 0x0 PUSH1 0x20 DUP1 SWAP5 SWAP6 DUP5 ADD ADD MSTORE PUSH1 0x1F DUP1 NOT SWAP2 ADD AND ADD ADD SWAP1 JUMP JUMPDEST PUSH1 0x20 DUP2 DUP4 ADD DUP2 ADD MLOAD DUP5 DUP4 ADD DUP3 ADD MSTORE ADD PUSH2 0xBCD JUMP JUMPDEST PUSH1 0x4 CALLDATALOAD SWAP1 PUSH1 0x1 PUSH1 0x1 PUSH1 0xA0 SHL SUB DUP3 AND DUP3 SUB PUSH2 0xC18 JUMPI JUMP JUMPDEST PUSH1 0x0 DUP1 REVERT JUMPDEST PUSH1 0x24 CALLDATALOAD SWAP1 PUSH1 0x1 PUSH1 0x1 PUSH1 0xA0 SHL SUB DUP3 AND DUP3 SUB PUSH2 0xC18 JUMPI JUMP JUMPDEST PUSH1 0x60 SWAP1 PUSH1 0x3 NOT ADD SLT PUSH2 0xC18 JUMPI PUSH1 0x1 PUSH1 0x1 PUSH1 0xA0 SHL SUB SWAP1 PUSH1 0x4 CALLDATALOAD DUP3 DUP2 AND DUP2 SUB PUSH2 0xC18 JUMPI SWAP2 PUSH1 0x24 CALLDATALOAD SWAP1 DUP2 AND DUP2 SUB PUSH2 0xC18 JUMPI SWAP1 PUSH1 0x44 CALLDATALOAD SWAP1 JUMP JUMPDEST SWAP1 PUSH1 0x1F DUP1 NOT SWAP2 ADD AND DUP2 ADD SWAP1 DUP2 LT PUSH8 0xFFFFFFFFFFFFFFFF DUP3 GT OR PUSH2 0xC8A JUMPI PUSH1 0x40 MSTORE JUMP JUMPDEST PUSH4 0x4E487B71 PUSH1 0xE0 SHL PUSH1 0x0 MSTORE PUSH1 0x41 PUSH1 0x4 MSTORE PUSH1 0x24 PUSH1 0x0 REVERT JUMPDEST PUSH8 0xFFFFFFFFFFFFFFFF DUP2 GT PUSH2 0xC8A JUMPI PUSH1 0x1F ADD PUSH1 0x1F NOT AND PUSH1 0x20 ADD SWAP1 JUMP JUMPDEST SWAP1 PUSH1 0x1 DUP3 DUP2 SHR SWAP3 AND DUP1 ISZERO PUSH2 0xCEC JUMPI JUMPDEST PUSH1 0x20 DUP4 LT EQ PUSH2 0xCD6 JUMPI JUMP JUMPDEST PUSH4 0x4E487B71 PUSH1 0xE0 SHL PUSH1 0x0 MSTORE PUSH1 0x22 PUSH1 0x4 MSTORE PUSH1 0x24 PUSH1 0x0 REVERT JUMPDEST SWAP2 PUSH1 0x7F AND SWAP2 PUSH2 0xCCB JUMP JUMPDEST SWAP1 SWAP2 PUSH1 0x1 PUSH1 0x1 PUSH1 0xA0 SHL SUB DUP1 SWAP4 AND SWAP3 DUP4 ISZERO PUSH2 0xEB3 JUMPI PUSH1 0x0 SWAP3 DUP3 DUP5 MSTORE DUP3 PUSH1 0x20 SWAP6 PUSH1 0x2 DUP8 MSTORE PUSH1 0x40 SWAP7 DUP5 DUP9 DUP9 KECCAK256 SLOAD AND SWAP7 DUP8 SWAP2 CALLER ISZERO ISZERO DUP1 PUSH2 0xE04 JUMPI JUMPDEST POP SWAP1 PUSH1 0x2 PUSH32 0xDDF252AD1BE2C89B69C2B068FC378DAA952BA7F163C4A11628F55A4DF523B3EF SWAP3 DUP5 PUSH2 0xDCC JUMPI JUMPDEST DUP6 DUP4 MSTORE PUSH1 0x3 DUP2 MSTORE DUP12 DUP4 KECCAK256 PUSH1 0x1 DUP2 SLOAD ADD SWAP1 SSTORE DUP7 DUP4 MSTORE MSTORE DUP10 DUP2 KECCAK256 DUP5 PUSH1 0x1 PUSH1 0x1 PUSH1 0xA0 SHL SUB NOT DUP3 SLOAD AND OR SWAP1 SSTORE DUP1 LOG4 AND SWAP3 DUP4 DUP4 SUB PUSH2 0xD92 JUMPI POP POP POP POP JUMP JUMPDEST PUSH1 0x64 SWAP5 POP MLOAD SWAP3 PUSH32 0x64283D7B00000000000000000000000000000000000000000000000000000000 DUP5 MSTORE PUSH1 0x4 DUP5 ADD MSTORE PUSH1 0x24 DUP4 ADD MSTORE PUSH1 0x44 DUP3 ADD MSTORE REVERT JUMPDEST PUSH2 0xDED DUP8 PUSH1 0x0 MSTORE PUSH1 0x4 PUSH1 0x20 MSTORE PUSH1 0x40 PUSH1 0x0 KECCAK256 PUSH1 0x1 PUSH1 0x1 PUSH1 0xA0 SHL SUB NOT DUP2 SLOAD AND SWAP1 SSTORE JUMP JUMPDEST DUP5 DUP4 MSTORE PUSH1 0x3 DUP2 MSTORE DUP12 DUP4 KECCAK256 DUP1 SLOAD PUSH1 0x0 NOT ADD SWAP1 SSTORE PUSH2 0xD59 JUMP JUMPDEST SWAP2 SWAP4 SWAP5 POP SWAP2 POP DUP1 PUSH2 0xE72 JUMPI JUMPDEST ISZERO PUSH2 0xE20 JUMPI DUP6 SWAP3 SWAP2 DUP8 SWAP2 CODESIZE PUSH2 0xD2D JUMP JUMPDEST DUP8 DUP7 DUP9 PUSH2 0xE3D JUMPI PUSH1 0x24 SWAP2 MLOAD SWAP1 PUSH4 0x7E273289 PUSH1 0xE0 SHL DUP3 MSTORE PUSH1 0x4 DUP3 ADD MSTORE REVERT JUMPDEST PUSH1 0x44 SWAP2 MLOAD SWAP1 PUSH32 0x177E802F00000000000000000000000000000000000000000000000000000000 DUP3 MSTORE CALLER PUSH1 0x4 DUP4 ADD MSTORE PUSH1 0x24 DUP3 ADD MSTORE REVERT JUMPDEST POP CALLER DUP8 EQ DUP1 ISZERO PUSH2 0xE97 JUMPI JUMPDEST DUP1 PUSH2 0xE10 JUMPI POP DUP6 DUP3 MSTORE PUSH1 0x4 DUP2 MSTORE CALLER DUP6 DUP10 DUP5 KECCAK256 SLOAD AND EQ PUSH2 0xE10 JUMP JUMPDEST POP DUP7 DUP3 MSTORE PUSH1 0x5 DUP2 MSTORE DUP8 DUP3 KECCAK256 CALLER DUP4 MSTORE DUP2 MSTORE PUSH1 0xFF DUP9 DUP4 KECCAK256 SLOAD AND PUSH2 0xE7D JUMP JUMPDEST PUSH1 0x24 PUSH1 0x40 MLOAD PUSH4 0x32505749 PUSH1 0xE1 SHL DUP2 MSTORE PUSH1 0x0 PUSH1 0x4 DUP3 ADD MSTORE REVERT JUMPDEST DUP2 DUP2 LT PUSH2 0xED6 JUMPI POP POP JUMP JUMPDEST PUSH1 0x0 DUP2 SSTORE PUSH1 0x1 ADD PUSH2 0xECB JUMP JUMPDEST SWAP1 PUSH1 0x8 DUP3 EQ PUSH2 0x1035 JUMPI PUSH2 0xEF6 PUSH1 0x8 SLOAD PUSH2 0xCBC JUMP JUMPDEST SWAP2 PUSH8 0xFFFFFFFFFFFFFFFF DUP4 GT PUSH2 0xC8A JUMPI PUSH2 0xF10 DUP2 SLOAD PUSH2 0xCBC JUMP JUMPDEST PUSH1 0x1F DUP2 GT PUSH2 0xFF8 JUMPI JUMPDEST POP PUSH1 0x0 SWAP3 PUSH1 0x1F DUP2 GT PUSH1 0x1 EQ PUSH2 0xF55 JUMPI DUP1 SWAP2 SWAP3 SWAP4 PUSH1 0x0 SWAP2 PUSH2 0xF49 JUMPI JUMPDEST POP DUP2 PUSH1 0x1 SHL SWAP2 PUSH1 0x0 NOT SWAP1 PUSH1 0x3 SHL SHR NOT AND OR SWAP1 SSTORE JUMP JUMPDEST SWAP1 POP PUSH1 0x8 ADD SLOAD CODESIZE PUSH2 0xF34 JUMP JUMPDEST DUP2 DUP5 MSTORE PUSH1 0x20 DUP1 DUP6 KECCAK256 PUSH1 0x1F NOT DUP4 AND SWAP6 SWAP1 SWAP2 DUP2 SWAP1 JUMPDEST DUP8 DUP3 LT PUSH2 0xFBF JUMPI POP POP DUP3 PUSH1 0x1 SWAP5 SWAP6 SWAP7 LT PUSH2 0xF86 JUMPI JUMPDEST POP POP DUP2 SHL ADD SWAP1 SSTORE JUMP JUMPDEST PUSH32 0xF3F7A9FE364FAAB93B216DA50A3214154F22A0A2B415B23A84C8169E8B636EE3 ADD SLOAD PUSH1 0x0 NOT PUSH1 0xF8 DUP5 PUSH1 0x3 SHL AND SHR NOT AND SWAP1 SSTORE CODESIZE DUP1 PUSH2 0xF7D JUMP JUMPDEST DUP3 SWAP4 DUP2 SWAP3 SWAP4 PUSH32 0xF3F7A9FE364FAAB93B216DA50A3214154F22A0A2B415B23A84C8169E8B636EE3 ADD SLOAD DUP2 SSTORE PUSH1 0x1 DUP1 SWAP2 ADD SWAP5 ADD SWAP3 ADD SWAP1 PUSH2 0xF68 JUMP JUMPDEST PUSH2 0x1025 SWAP1 DUP3 PUSH1 0x0 MSTORE PUSH1 0x20 PUSH1 0x0 KECCAK256 PUSH1 0x1F DUP7 ADD PUSH1 0x5 SHR DUP2 ADD SWAP2 PUSH1 0x20 DUP8 LT PUSH2 0x102B JUMPI JUMPDEST PUSH1 0x1F ADD PUSH1 0x5 SHR ADD SWAP1 PUSH2 0xECB JUMP JUMPDEST CODESIZE PUSH2 0xF19 JUMP JUMPDEST SWAP1 SWAP2 POP DUP2 SWAP1 PUSH2 0x1018 JUMP JUMPDEST SWAP1 POP JUMP JUMPDEST PUSH2 0x1044 DUP4 DUP4 DUP4 PUSH2 0xCF6 JUMP JUMPDEST DUP2 EXTCODESIZE PUSH2 0x1051 JUMPI JUMPDEST POP POP POP POP JUMP JUMPDEST PUSH1 0x1 PUSH1 0x1 PUSH1 0xA0 SHL SUB SWAP5 SWAP2 SWAP3 SWAP4 SWAP5 DUP1 SWAP4 AND SWAP4 PUSH1 0x40 MLOAD SWAP4 PUSH32 0x150B7A0200000000000000000000000000000000000000000000000000000000 SWAP3 DUP4 DUP7 MSTORE CALLER PUSH1 0x4 DUP8 ADD MSTORE AND PUSH1 0x24 DUP6 ADD MSTORE PUSH1 0x44 DUP5 ADD MSTORE PUSH1 0x80 PUSH1 0x64 DUP5 ADD MSTORE DUP3 PUSH2 0x10B4 PUSH1 0x20 SWAP7 PUSH1 0x84 DUP4 ADD SWAP1 PUSH2 0xBC2 JUMP JUMPDEST SUB SWAP3 DUP6 DUP2 PUSH1 0x0 SWAP6 DUP2 DUP8 DUP10 GAS CALL DUP5 SWAP2 DUP2 PUSH2 0x1176 JUMPI JUMPDEST POP PUSH2 0x1127 JUMPI POP POP POP RETURNDATASIZE PUSH1 0x0 EQ PUSH2 0x111F JUMPI RETURNDATASIZE PUSH2 0x10E2 DUP2 PUSH2 0xCA0 JUMP JUMPDEST SWAP1 PUSH2 0x10F0 PUSH1 0x40 MLOAD SWAP3 DUP4 PUSH2 0xC68 JUMP JUMPDEST DUP2 MSTORE DUP1 SWAP2 DUP5 RETURNDATASIZE SWAP3 ADD RETURNDATACOPY JUMPDEST DUP1 MLOAD SWAP3 DUP4 PUSH2 0x111A JUMPI PUSH1 0x24 DUP4 PUSH1 0x40 MLOAD SWAP1 PUSH4 0x32505749 PUSH1 0xE1 SHL DUP3 MSTORE PUSH1 0x4 DUP3 ADD MSTORE REVERT JUMPDEST ADD SWAP1 POP REVERT JUMPDEST POP PUSH1 0x60 PUSH2 0x10FA JUMP JUMPDEST SWAP1 SWAP3 POP PUSH32 0xFFFFFFFF00000000000000000000000000000000000000000000000000000000 SWAP2 SWAP5 POP AND SUB PUSH2 0x115E JUMPI POP CODESIZE DUP1 DUP1 DUP1 PUSH2 0x104B JUMP JUMPDEST PUSH1 0x24 SWAP1 PUSH1 0x40 MLOAD SWAP1 PUSH4 0x32505749 PUSH1 0xE1 SHL DUP3 MSTORE PUSH1 0x4 DUP3 ADD MSTORE REVERT JUMPDEST SWAP1 SWAP2 POP DUP7 DUP2 DUP2 RETURNDATASIZE DUP4 GT PUSH2 0x11C7 JUMPI JUMPDEST PUSH2 0x118E DUP2 DUP4 PUSH2 0xC68 JUMP JUMPDEST DUP2 ADD SUB SLT PUSH2 0x425 JUMPI MLOAD PUSH32 0xFFFFFFFF00000000000000000000000000000000000000000000000000000000 DUP2 AND DUP2 SUB PUSH2 0x425 JUMPI SWAP1 CODESIZE PUSH2 0x10C8 JUMP JUMPDEST POP RETURNDATASIZE PUSH2 0x1184 JUMP JUMPDEST DUP1 PUSH1 0x0 MSTORE PUSH1 0x2 PUSH1 0x20 MSTORE PUSH1 0x1 PUSH1 0x1 PUSH1 0xA0 SHL SUB PUSH1 0x40 PUSH1 0x0 KECCAK256 SLOAD AND SWAP1 DUP2 ISZERO PUSH2 0x11F1 JUMPI POP SWAP1 JUMP JUMPDEST PUSH1 0x24 SWAP1 PUSH1 0x40 MLOAD SWAP1 PUSH4 0x7E273289 PUSH1 0xE0 SHL DUP3 MSTORE PUSH1 0x4 DUP3 ADD MSTORE REVERT JUMPDEST PUSH1 0x1 PUSH1 0x1 PUSH1 0xA0 SHL SUB PUSH1 0x6 SLOAD AND CALLER SUB PUSH2 0x121D JUMPI JUMP JUMPDEST PUSH1 0x24 PUSH1 0x40 MLOAD PUSH32 0x118CDAA700000000000000000000000000000000000000000000000000000000 DUP2 MSTORE CALLER PUSH1 0x4 DUP3 ADD MSTORE REVERT INVALID LOG2 PUSH5 0x6970667358 0x22 SLT KECCAK256 0xBD MSTORE8 0xB3 0x26 MSTORE 0x29 CALL 0x22 SHL MSTORE 0xEB 0x2D MULMOD PUSH3 0x444759 0x2B DUP4 BLOBBASEFEE 0xEA BLOCKHASH PUSH18 0x37417FCE63F044C68C64736F6C6343000818 STOP CALLER "
        },
        "methodIdentifiers": {
          "approve(address,uint256)": "095ea7b3",
          "balanceOf(address)": "70a08231",
          "burn(uint256)": "42966c68",
          "getApproved(uint256)": "081812fc",
          "getMintPrice()": "a7f93ebd",
          "isApprovedForAll(address,address)": "e985e9c5",
          "mint(address)": "6a627842",
          "name()": "06fdde03",
          "owner()": "8da5cb5b",
          "ownerOf(uint256)": "6352211e",
          "renounceOwnership()": "715018a6",
          "safeTransferFrom(address,address,uint256)": "42842e0e",
          "safeTransferFrom(address,address,uint256,bytes)": "b88d4fde",
          "setApprovalForAll(address,bool)": "a22cb465",
          "supportsInterface(bytes4)": "01ffc9a7",
          "symbol()": "95d89b41",
          "tokenURI(uint256)": "c87b56dd",
          "transferFrom(address,address,uint256)": "23b872dd",
          "transferOwnership(address)": "f2fde38b"
        }
      }
    }
  }
}