{
  "contracts/providers/CardProvider.sol": {
    "CardProvider": {
      "abi": [
        {
          "inputs": [
            {
              "internalType": "address",
              "name": "controller",
              "type": "address"
            }
          ],
          "stateMutability": "nonpayable",
          "type": "constructor"
        },
        {
          "inputs": [
            {
              "internalType": "address",
              "name": "owner",
              "type": "address"
            }
          ],
          "name": "OwnableInvalidOwner",
          "type": "error"
        },
        {
          "inputs": [
            {
              "internalType": "address",
              "name": "account",
              "type": "address"
            }
          ],
          "name": "OwnableUnauthorizedAccount",
          "type": "error"
        },
        {
          "anonymous": false,
          "inputs": [
            {
              "indexed": true,
              "internalType": "address",
              "name": "previousOwner",
              "type": "address"
            },
            {
              "indexed": true,
              "internalType": "address",
              "name": "newOwner",
              "type": "address"
            }
          ],
          "name": "OwnershipTransferred",
          "type": "event"
        },
        {
          "inputs": [
            {
              "internalType": "address",
              "name": "streamer",
              "type": "address"
            },
            {
              "internalType": "string",
              "name": "baseURI",
              "type": "string"
            }
          ],
          "name": "createCard",
          "outputs": [
            {
              "internalType": "address",
              "name": "",
              "type": "address"
            }
          ],
          "stateMutability": "nonpayable",
          "type": "function"
        },
        {
          "inputs": [
            {
              "internalType": "address",
              "name": "streamer",
              "type": "address"
            },
            {
              "internalType": "string",
              "name": "name",
              "type": "string"
            },
            {
              "internalType": "string",
              "name": "symbol",
              "type": "string"
            },
            {
              "internalType": "uint256",
              "name": "mintPrice",
              "type": "uint256"
            },
            {
              "internalType": "string",
              "name": "baseURI",
              "type": "string"
            }
          ],
          "name": "createExclusiveCard",
          "outputs": [
            {
              "internalType": "address",
              "name": "",
              "type": "address"
            }
          ],
          "stateMutability": "nonpayable",
          "type": "function"
        },
        {
          "inputs": [
            {
              "internalType": "address",
              "name": "streamer",
              "type": "address"
            }
          ],
          "name": "getCard",
          "outputs": [
            {
              "internalType": "address",
              "name": "",
              "type": "address"
            }
          ],
          "stateMutability": "view",
          "type": "function"
        },
        {
          "inputs": [
            {
              "internalType": "address",
              "name": "streamer",
              "type": "address"
            }
          ],
          "name": "getExclusiveCard",
          "outputs": [
            {
              "internalType": "address",
              "name": "",
              "type": "address"
            }
          ],
          "stateMutability": "view",
          "type": "function"
        },
        {
          "inputs": [
            {
              "internalType": "address",
              "name": "cardId",
              "type": "address"
            },
            {
              "internalType": "address",
              "name": "to",
              "type": "address"
            }
          ],
          "name": "mintCard",
          "outputs": [],
          "stateMutability": "nonpayable",
          "type": "function"
        },
        {
          "inputs": [],
          "name": "owner",
          "outputs": [
            {
              "internalType": "address",
              "name": "",
              "type": "address"
            }
          ],
          "stateMutability": "view",
          "type": "function"
        },
        {
          "inputs": [],
          "name": "renounceOwnership",
          "outputs": [],
          "stateMutability": "nonpayable",
          "type": "function"
        },
        {
          "inputs": [
            {
              "internalType": "address",
              "name": "newOwner",
              "type": "address"
            }
          ],
          "name": "transferOwnership",
          "outputs": [],
          "stateMutability": "nonpayable",
          "type": "function"
        }
      ],
      "evm": {
        "bytecode": {
          "linkReferences": {},
          "object": "6080346100bb57601f6137c438819003918201601f19168301916001600160401b038311848410176100c0578084926020946040528339810103126100bb57516001600160a01b0390818116908190036100bb5780156100a257600080546001600160a01b03198116831782556040519316907f8be0079c531659141344cd1fd0a4f28419497f9722a3daafe3b4186f6b6457e09080a36136ed90816100d78239f35b604051631e4fbdf760e01b815260006004820152602490fd5b600080fd5b634e487b7160e01b600052604160045260246000fdfe604060808152600490813610156200001657600080fd5b600091823560e01c908163032b1ff9146200041d578382633fd39fa1146200035b57508163715018a614620002ed5781638da5cb5b14620002c557816397e68eb614620001bf578163ceafb18d1462000181578163f2fde38b14620000c6575063f82568f9146200008657600080fd5b34620000c2576020366003190112620000c257602091816001600160a01b039182620000b162000578565b168152600285522054169051908152f35b5080fd5b9050346200017d5760203660031901126200017d57620000e562000578565b90620000f062000653565b6001600160a01b038092169283156200014e5750506000548273ffffffffffffffffffffffffffffffffffffffff19821617600055167f8be0079c531659141344cd1fd0a4f28419497f9722a3daafe3b4186f6b6457e0600080a380f35b908460249251917f1e4fbdf7000000000000000000000000000000000000000000000000000000008352820152fd5b8280fd5b505034620000c2576020366003190112620000c257602091816001600160a01b039182620001ae62000578565b168152600185522054169051908152f35b919050346200017d57806003193601126200017d57620001de62000578565b67ffffffffffffffff92602435848111620002c15762000202903690830162000594565b6200020c62000653565b6001600160a01b03809316948587526001602052838588205416620002bd578451926117ed908185019285841090841117620002aa5750918562000263928594620006998639308152816020820152019062000611565b039085f08015620002a0579382916020951693815260018552208273ffffffffffffffffffffffffffffffffffffffff1982541617905551908152f35b82513d86823e3d90fd5b886041602492634e487b7160e01b835252fd5b8680fd5b8580fd5b505034620000c25781600319360112620000c2576001600160a01b0360209254169051908152f35b833462000358578060031936011262000358576200030a62000653565b60006001600160a01b03815473ffffffffffffffffffffffffffffffffffffffff1981168355167f8be0079c531659141344cd1fd0a4f28419497f9722a3daafe3b4186f6b6457e08280a380f35b80fd5b9291503462000419578160031936011262000419576200037a62000578565b602435906001600160a01b0390818316809303620002c1576200039c62000653565b16803b15620004155760248592855196879384927f6a627842000000000000000000000000000000000000000000000000000000008452878401525af18015620002a057620003e9578380f35b67ffffffffffffffff8311620004025750523880808380f35b836041602492634e487b7160e01b835252fd5b8480fd5b5050fd5b919050346200017d5760a03660031901126200017d576200043d62000578565b67ffffffffffffffff92602435848111620002c15762000461903690830162000594565b93604435818111620002bd576200047c903690840162000594565b608435828111620005745762000496903690850162000594565b906001600160a01b0380951696878952600260205285878a20541662000570578651946118329081870195878710908711176200055d5750859492620004fb620005209593620005099362001e86893930865260a0602087015260a086019062000611565b908482038a86015262000611565b916064356060820152608081840391015262000611565b039085f08015620002a0579382916020951693815260028552208273ffffffffffffffffffffffffffffffffffffffff1982541617905551908152f35b8a6041602492634e487b7160e01b835252fd5b8880fd5b8780fd5b600435906001600160a01b03821682036200058f57565b600080fd5b81601f820112156200058f5780359067ffffffffffffffff92838311620005fb5760405193601f8401601f19908116603f0116850190811185821017620005fb57604052828452602083830101116200058f57816000926020809301838601378301015290565b634e487b7160e01b600052604160045260246000fd5b919082519283825260005b8481106200063e575050826000602080949584010152601f8019910116010190565b6020818301810151848301820152016200061c565b6001600160a01b036000541633036200066857565b60246040517f118cdaa7000000000000000000000000000000000000000000000000000000008152336004820152fdfe6080604052346200051e57620017ed803803806200001d8162000543565b9283398101906040818303126200051e5780516001600160a01b0390818116908190036200051e576020838101516001600160401b03948582116200051e570194601f918183880112156200051e5786518681116200033957601f19976200008b8286018a16840162000543565b938285528383830101116200051e57829060005b8381106200050957505060009184010152620000ba62000523565b93600d85526c125b98db1d5cda5d9950d85c99609a1b82860152620000de62000523565b9560039687815262494e4360e81b84820152865189811162000339576000546001988982811c92168015620004fe575b8783101462000318578189849311620004a8575b508690898311600114620004445760009262000438575b5050600019828b1b1c191690881b176000555b80519089821162000339578754908882811c921680156200042d575b8683101462000318578188849311620003d7575b508590888311600114620003745760009262000368575b5050600019828a1b1c191690871b1786555b81156200034f57600680546001600160a01b031981168417909155167f8be0079c531659141344cd1fd0a4f28419497f9722a3daafe3b4186f6b6457e0600080a3815195861162000339576008548481811c911680156200032e575b828210146200031857838111620002cc575b50809286116001146200025e57508495509084929160009562000252575b50501b92600019911b1c1916176008555b60405161128390816200056a8239f35b01519350388062000231565b93929585908116600860005285600020956000905b89838310620002b1575050501062000296575b50505050811b0160085562000242565b01519060f884600019921b161c191690553880808062000286565b85870151895590970196948501948893509081019062000273565b6008600052816000208480890160051c820192848a106200030e575b0160051c019085905b8281106200030157505062000213565b60008155018590620002f1565b92508192620002e8565b634e487b7160e01b600052602260045260246000fd5b90607f169062000201565b634e487b7160e01b600052604160045260246000fd5b604051631e4fbdf760e01b815260006004820152602490fd5b01519050388062000193565b908c8a94169184600052876000209260005b89828210620003c05750508411620003a7575b505050811b018655620001a5565b0151600019838c1b60f8161c1916905538808062000399565b8385015186558d9790950194938401930162000386565b90915088600052856000208880850160051c82019288861062000423575b918b91869594930160051c01915b828110620004135750506200017c565b600081558594508b910162000403565b92508192620003f5565b91607f169162000168565b01519050388062000139565b908d8b94169160008052886000209260005b8a82821062000491575050841162000478575b505050811b016000556200014c565b0151600019838d1b60f8161c1916905538808062000469565b8385015186558e9790950194938401930162000456565b90915060008052866000208980850160051c820192898610620004f4575b918c91869594930160051c01915b828110620004e457505062000122565b600081558594508c9101620004d4565b92508192620004c6565b91607f16916200010e565b8181018301518682018401528492016200009f565b600080fd5b60408051919082016001600160401b038111838210176200033957604052565b6040519190601f01601f191682016001600160401b03811183821017620003395760405256fe6080604081815260048036101561001557600080fd5b600092833560e01c90816301ffc9a714610af25750806306fdde0314610a41578063081812fc14610a08578063095ea7b31461091557806323b872dd146108fd57806342842e0e146108ae57806342966c68146107855780636352211e146107555780636a627842146105f957806370a082311461058b578063715018a6146105305780638da5cb5b1461050857806395d89b4114610429578063a22cb4651461036f578063a7f93ebd14610354578063b88d4fde146102cb578063c87b56dd146101ea578063e985e9c5146101985763f2fde38b146100f457600080fd5b346101945760203660031901126101945761010d610c02565b90610116611209565b6001600160a01b03809216928315610165575050600654826001600160a01b0319821617600655167f8be0079c531659141344cd1fd0a4f28419497f9722a3daafe3b4186f6b6457e08380a380f35b908460249251917f1e4fbdf7000000000000000000000000000000000000000000000000000000008352820152fd5b8280fd5b5050346101e657806003193601126101e65760ff816020936101b8610c02565b6101c0610c1d565b6001600160a01b0391821683526005875283832091168252855220549151911615158152f35b5080fd5b50903461019457602091826003193601126102c7573583526009825280832081519384918181549061021b82610cbc565b928386526001928860018216918260001461029d57505060011461025f575b858861025b8961024c848a0385610c68565b51928284938452830190610bc2565b0390f35b87945081939291528383205b828410610285575050508201018161024c61025b3861023a565b8054848a01860152889550879490930192810161026b565b60ff19168882015294151560051b8701909401945085935061024c925061025b915038905061023a565b8380fd5b509034610194576080366003190112610194576102e6610c02565b6102ee610c1d565b846064359467ffffffffffffffff86116101e657366023870112156101e6578501359461032661031d87610ca0565b95519586610c68565b85855236602487830101116101e6578561035196602460209301838801378501015260443591611039565b80f35b5050346101e657816003193601126101e65751908152602090f35b509034610194578060031936011261019457610389610c02565b9060243591821515809303610425576001600160a01b03169283156103f75750338452600560205280842083855260205280842060ff1981541660ff8416179055519081527f17307eab39ab6107e8899845ad3d59bd9653f200f220920489ca2b5937696c3160203392a380f35b8360249251917f5b08ba18000000000000000000000000000000000000000000000000000000008352820152fd5b8480fd5b82843461050557806003193601126105055781519182826001936001549461045086610cbc565b91828552602096876001821691826000146104de575050600114610482575b50505061025b929161024c910385610c68565b9190869350600183527fb10e2d527612073b26eecdfd717e6a320cf44b4afac2b0732d9fcbe2b7fa0cf65b8284106104c6575050508201018161024c61025b61046f565b8054848a0186015288955087949093019281016104ad565b60ff19168782015293151560051b8601909301935084925061024c915061025b905061046f565b80fd5b5050346101e657816003193601126101e6576020906001600160a01b03600654169051908152f35b8334610505578060031936011261050557610549611209565b806001600160a01b036006546001600160a01b03198116600655167f8be0079c531659141344cd1fd0a4f28419497f9722a3daafe3b4186f6b6457e08280a380f35b509134610505576020366003190112610505576001600160a01b036105ae610c02565b169283156105cb5750806020938392526003845220549051908152f35b9060249251917f89c62b64000000000000000000000000000000000000000000000000000000008352820152fd5b50823461050557602092836003193601126101e657610616610c02565b61061e611209565b6007546001600160a01b0380921691821561073f57818552600287528385205416918215159283610707575b818652600388528486206001815401905582865260028852848620826001600160a01b03198254161790557fddf252ad1be2c89b69c2b068fc378daa952ba7f163c4a11628f55a4df523b3ef8680a46106d9576106b1906009856007548552528220610ee2565b60075460001981146106c65760010160075580f35b506011602492634e487b7160e01b835252fd5b6024935051917f73c6ac6e000000000000000000000000000000000000000000000000000000008352820152fd5b61072883600052600460205260406000206001600160a01b03198154169055565b80865260038852848620805460001901905561064a565b60248686865191633250574960e11b8352820152fd5b50913461050557602036600319011261050557506001600160a01b0361077d602093356111ce565b915191168152f35b50903461019457602090816003193601126102c7578235916107a5611209565b82855260098152848281206107ba8154610cbc565b80610872575b50508390526002815282856001600160a01b0384822054166002811594851561083a575b848452528482206001600160a01b031981541690557fddf252ad1be2c89b69c2b068fc378daa952ba7f163c4a11628f55a4df523b3ef8280a4610825578380f35b602493505191637e27328960e01b8352820152fd5b61085b85600052600460205260406000206001600160a01b03198154169055565b8284526003815286842080546000190190556107e4565b82601f821160011461088a575050555b8438806107c0565b90918082526108a7601f868420940160051c840160018501610ecb565b5555610882565b509190346101e6576108bf36610c33565b91835193602085019085821067ffffffffffffffff8311176108ea5761035196975052858452611039565b60248760418a634e487b7160e01b835252fd5b83346105055761035161090f36610c33565b91610cf6565b50903461019457806003193601126101945761092f610c02565b9160243561093c816111ce565b331515806109f5575b806109cd575b61099e5781906001600160a01b03809616958691167f8c5be1e5ebec7d5bd14f71427d1e84f3dd0314c0f7b2291e5b200ac8c7c3b9258880a484526020528220906001600160a01b031982541617905580f35b83517fa9fbf51f0000000000000000000000000000000000000000000000000000000081523381850152602490fd5b506001600160a01b0381168652600560205283862033875260205260ff84872054161561094b565b50336001600160a01b0382161415610945565b50346101945760203660031901126101945781602093826001600160a01b039335610a32816111ce565b50825285522054169051908152f35b82843461050557806003193601126105055781519182828354610a6381610cbc565b90818452602095600191876001821691826000146104de575050600114610a975750505061025b929161024c910385610c68565b91908693508280527f290decd9548b62a8d60345a988386fc84ba6bc95484008f6362f93160ef3e5635b828410610ada575050508201018161024c61025b61046f565b8054848a018601528895508794909301928101610ac1565b9250503461019457602036600319011261019457357fffffffff00000000000000000000000000000000000000000000000000000000811680910361019457602092507f80ac58cd000000000000000000000000000000000000000000000000000000008114908115610b98575b8115610b6e575b5015158152f35b7f01ffc9a70000000000000000000000000000000000000000000000000000000091501438610b67565b7f5b5e139f0000000000000000000000000000000000000000000000000000000081149150610b60565b919082519283825260005b848110610bee575050826000602080949584010152601f8019910116010190565b602081830181015184830182015201610bcd565b600435906001600160a01b0382168203610c1857565b600080fd5b602435906001600160a01b0382168203610c1857565b6060906003190112610c18576001600160a01b03906004358281168103610c1857916024359081168103610c18579060443590565b90601f8019910116810190811067ffffffffffffffff821117610c8a57604052565b634e487b7160e01b600052604160045260246000fd5b67ffffffffffffffff8111610c8a57601f01601f191660200190565b90600182811c92168015610cec575b6020831014610cd657565b634e487b7160e01b600052602260045260246000fd5b91607f1691610ccb565b90916001600160a01b03809316928315610eb357600092828452826020956002875260409684888820541696879133151580610e04575b509060027fddf252ad1be2c89b69c2b068fc378daa952ba7f163c4a11628f55a4df523b3ef9284610dcc575b858352600381528b83206001815401905586835252898120846001600160a01b031982541617905580a41692838303610d925750505050565b6064945051927f64283d7b000000000000000000000000000000000000000000000000000000008452600484015260248301526044820152fd5b610ded87600052600460205260406000206001600160a01b03198154169055565b848352600381528b83208054600019019055610d59565b91939450915080610e72575b15610e2057859291879138610d2d565b878688610e3d576024915190637e27328960e01b82526004820152fd5b60449151907f177e802f0000000000000000000000000000000000000000000000000000000082523360048301526024820152fd5b503387148015610e97575b80610e105750858252600481523385898420541614610e10565b5086825260058152878220338352815260ff8883205416610e7d565b6024604051633250574960e11b815260006004820152fd5b818110610ed6575050565b60008155600101610ecb565b906008821461103557610ef6600854610cbc565b9167ffffffffffffffff8311610c8a57610f108154610cbc565b601f8111610ff8575b50600092601f8111600114610f555780919293600091610f49575b508160011b916000199060031b1c1916179055565b90506008015438610f34565b8184526020808520601f19831695909181905b878210610fbf57505082600194959610610f86575b5050811b019055565b7ff3f7a9fe364faab93b216da50a3214154f22a0a2b415b23a84c8169e8b636ee3015460001960f88460031b161c191690553880610f7d565b82938192937ff3f7a9fe364faab93b216da50a3214154f22a0a2b415b23a84c8169e8b636ee30154815560018091019401920190610f68565b61102590826000526020600020601f860160051c8101916020871061102b575b601f0160051c0190610ecb565b38610f19565b9091508190611018565b9050565b611044838383610cf6565b813b611051575b50505050565b6001600160a01b03949192939480931693604051937f150b7a020000000000000000000000000000000000000000000000000000000092838652336004870152166024850152604484015260806064840152826110b46020966084830190610bc2565b039285816000958187895af1849181611176575b50611127575050503d60001461111f573d6110e281610ca0565b906110f06040519283610c68565b81528091843d92013e5b8051928361111a5760248360405190633250574960e11b82526004820152fd5b019050fd5b5060606110fa565b9092507fffffffff00000000000000000000000000000000000000000000000000000000919450160361115e57503880808061104b565b60249060405190633250574960e11b82526004820152fd5b9091508681813d83116111c7575b61118e8183610c68565b8101031261042557517fffffffff00000000000000000000000000000000000000000000000000000000811681036104255790386110c8565b503d611184565b8060005260026020526001600160a01b03604060002054169081156111f1575090565b60249060405190637e27328960e01b82526004820152fd5b6001600160a01b0360065416330361121d57565b60246040517f118cdaa7000000000000000000000000000000000000000000000000000000008152336004820152fdfea2646970667358221220bd53b3265229f1221b52eb2d09624447592b834aea407137417fce63f044c68c64736f6c634300081800336080604052346200050d5762001832803803806200001d8162000512565b92833981019060a0818303126200050d5780516001600160a01b0380821693918490036200050d5760208381015190946001600160401b039490918581116200050d57846200006e91830162000538565b9360408201518681116200050d57816200008a91840162000538565b9160608101519160808201518881116200050d57620000aa920162000538565b92855194878611620004f7576000938454966001988989811c99168015620004ec575b8c8a1014620003ef5781908c601f9a8b811162000496575b50508c908d8b84116001146200042e5750889262000422575b5050600019600383901b1c191690891b1785555b8051908982116200040e5788548981811c9116801562000403575b8c821014620003ef57908b828a85941162000399575b50508b908983116001146200033257879262000326575b5050600019600383901b1c191690881b1787555b81156200030d57600680546001600160a01b031981168417909155167f8be0079c531659141344cd1fd0a4f28419497f9722a3daafe3b4186f6b6457e08480a36008558151948511620002f9576009548481811c91168015620002ee575b87821014620002da5783811162000291575b5085928511600114620002285793945084929190836200021c575b50501b916000199060031b1c1916176009555b6040516112879081620005ab8239f35b015192503880620001f9565b6009815285812093958591601f198316915b888383106200027657505050106200025c575b505050811b016009556200020c565b015160001960f88460031b161c191690553880806200024d565b8587015188559096019594850194879350908101906200023a565b600982528682208480880160051c820192898910620002d0575b0160051c019085905b828110620002c4575050620001de565b838155018590620002b4565b92508192620002ab565b634e487b7160e01b82526022600452602482fd5b90607f1690620001cc565b634e487b7160e01b81526041600452602490fd5b604051631e4fbdf760e01b815260048101859052602490fd5b0151905038806200015a565b8a88528c88208b94509190601f198416898f5b8282106200037f575050841162000365575b505050811b0187556200016e565b015160001960f88460031b161c1916905538808062000357565b8484015186558e9790950194938401939081019062000345565b909192508a8852898289209181860160051c8301938610620003e5575b918c91869594930160051c01915b828110620003d657508d915062000143565b8981558594508c9101620003c4565b92508192620003b6565b634e487b7160e01b87526022600452602487fd5b90607f16906200012d565b634e487b7160e01b86526041600452602486fd5b015190503880620000fe565b91908c9450601f1984168a8052838b20938b905b8282106200047c575050841162000462575b505050811b01855562000112565b015160001960f88460031b161c1916905538808062000454565b8484015186558f9790950194938401939081019062000442565b909192508880528a828a209181860160051c8301938610620004e2575b918d91869594930160051c01915b828110620004d357508e9150620000e5565b8a81558594508d9101620004c1565b92508192620004b3565b98607f1698620000cd565b634e487b7160e01b600052604160045260246000fd5b600080fd5b6040519190601f01601f191682016001600160401b03811183821017620004f757604052565b919080601f840112156200050d5782516001600160401b038111620004f7576020906200056e601f8201601f1916830162000512565b928184528282870101116200050d5760005b8181106200059657508260009394955001015290565b85810183015184820184015282016200058056fe6080604081815260048036101561001557600080fd5b600092833560e01c90816301ffc9a714610af65750806306fdde0314610a45578063081812fc14610a0c578063095ea7b31461091957806323b872dd1461090157806342842e0e146108b257806342966c68146107895780636352211e146107595780636a627842146105fd57806370a082311461058f578063715018a6146105345780638da5cb5b1461050c57806395d89b411461042d578063a22cb46514610373578063a7f93ebd14610354578063b88d4fde146102cb578063c87b56dd146101ea578063e985e9c5146101985763f2fde38b146100f457600080fd5b346101945760203660031901126101945761010d610c06565b9061011661120d565b6001600160a01b03809216928315610165575050600654826001600160a01b0319821617600655167f8be0079c531659141344cd1fd0a4f28419497f9722a3daafe3b4186f6b6457e08380a380f35b908460249251917f1e4fbdf7000000000000000000000000000000000000000000000000000000008352820152fd5b8280fd5b5050346101e657806003193601126101e65760ff816020936101b8610c06565b6101c0610c21565b6001600160a01b0391821683526005875283832091168252855220549151911615158152f35b5080fd5b50903461019457602091826003193601126102c757358352600a825280832081519384918181549061021b82610cc0565b928386526001928860018216918260001461029d57505060011461025f575b858861025b8961024c848a0385610c6c565b51928284938452830190610bc6565b0390f35b87945081939291528383205b828410610285575050508201018161024c61025b3861023a565b8054848a01860152889550879490930192810161026b565b60ff19168882015294151560051b8701909401945085935061024c925061025b915038905061023a565b8380fd5b509034610194576080366003190112610194576102e6610c06565b6102ee610c21565b846064359467ffffffffffffffff86116101e657366023870112156101e6578501359461032661031d87610ca4565b95519586610c6c565b85855236602487830101116101e657856103519660246020930183880137850101526044359161103d565b80f35b5050346101e657816003193601126101e6576020906008549051908152f35b50903461019457806003193601126101945761038d610c06565b9060243591821515809303610429576001600160a01b03169283156103fb5750338452600560205280842083855260205280842060ff1981541660ff8416179055519081527f17307eab39ab6107e8899845ad3d59bd9653f200f220920489ca2b5937696c3160203392a380f35b8360249251917f5b08ba18000000000000000000000000000000000000000000000000000000008352820152fd5b8480fd5b82843461050957806003193601126105095781519182826001936001549461045486610cc0565b91828552602096876001821691826000146104e2575050600114610486575b50505061025b929161024c910385610c6c565b9190869350600183527fb10e2d527612073b26eecdfd717e6a320cf44b4afac2b0732d9fcbe2b7fa0cf65b8284106104ca575050508201018161024c61025b610473565b8054848a0186015288955087949093019281016104b1565b60ff19168782015293151560051b8601909301935084925061024c915061025b9050610473565b80fd5b5050346101e657816003193601126101e6576020906001600160a01b03600654169051908152f35b833461050957806003193601126105095761054d61120d565b806001600160a01b036006546001600160a01b03198116600655167f8be0079c531659141344cd1fd0a4f28419497f9722a3daafe3b4186f6b6457e08280a380f35b509134610509576020366003190112610509576001600160a01b036105b2610c06565b169283156105cf5750806020938392526003845220549051908152f35b9060249251917f89c62b64000000000000000000000000000000000000000000000000000000008352820152fd5b50823461050957602092836003193601126101e65761061a610c06565b61062261120d565b6007546001600160a01b038092169182156107435781855260028752838520541691821515928361070b575b818652600388528486206001815401905582865260028852848620826001600160a01b03198254161790557fddf252ad1be2c89b69c2b068fc378daa952ba7f163c4a11628f55a4df523b3ef8680a46106dd576106b590600a856007548552528220610ee6565b60075460001981146106ca5760010160075580f35b506011602492634e487b7160e01b835252fd5b6024935051917f73c6ac6e000000000000000000000000000000000000000000000000000000008352820152fd5b61072c83600052600460205260406000206001600160a01b03198154169055565b80865260038852848620805460001901905561064e565b60248686865191633250574960e11b8352820152fd5b50913461050957602036600319011261050957506001600160a01b03610781602093356111d2565b915191168152f35b50903461019457602090816003193601126102c7578235916107a961120d565b828552600a8152848281206107be8154610cc0565b80610876575b50508390526002815282856001600160a01b0384822054166002811594851561083e575b848452528482206001600160a01b031981541690557fddf252ad1be2c89b69c2b068fc378daa952ba7f163c4a11628f55a4df523b3ef8280a4610829578380f35b602493505191637e27328960e01b8352820152fd5b61085f85600052600460205260406000206001600160a01b03198154169055565b8284526003815286842080546000190190556107e8565b82601f821160011461088e575050555b8438806107c4565b90918082526108ab601f868420940160051c840160018501610ecf565b5555610886565b509190346101e6576108c336610c37565b91835193602085019085821067ffffffffffffffff8311176108ee576103519697505285845261103d565b60248760418a634e487b7160e01b835252fd5b83346105095761035161091336610c37565b91610cfa565b509034610194578060031936011261019457610933610c06565b91602435610940816111d2565b331515806109f9575b806109d1575b6109a25781906001600160a01b03809616958691167f8c5be1e5ebec7d5bd14f71427d1e84f3dd0314c0f7b2291e5b200ac8c7c3b9258880a484526020528220906001600160a01b031982541617905580f35b83517fa9fbf51f0000000000000000000000000000000000000000000000000000000081523381850152602490fd5b506001600160a01b0381168652600560205283862033875260205260ff84872054161561094f565b50336001600160a01b0382161415610949565b50346101945760203660031901126101945781602093826001600160a01b039335610a36816111d2565b50825285522054169051908152f35b82843461050957806003193601126105095781519182828354610a6781610cc0565b90818452602095600191876001821691826000146104e2575050600114610a9b5750505061025b929161024c910385610c6c565b91908693508280527f290decd9548b62a8d60345a988386fc84ba6bc95484008f6362f93160ef3e5635b828410610ade575050508201018161024c61025b610473565b8054848a018601528895508794909301928101610ac5565b9250503461019457602036600319011261019457357fffffffff00000000000000000000000000000000000000000000000000000000811680910361019457602092507f80ac58cd000000000000000000000000000000000000000000000000000000008114908115610b9c575b8115610b72575b5015158152f35b7f01ffc9a70000000000000000000000000000000000000000000000000000000091501438610b6b565b7f5b5e139f0000000000000000000000000000000000000000000000000000000081149150610b64565b919082519283825260005b848110610bf2575050826000602080949584010152601f8019910116010190565b602081830181015184830182015201610bd1565b600435906001600160a01b0382168203610c1c57565b600080fd5b602435906001600160a01b0382168203610c1c57565b6060906003190112610c1c576001600160a01b03906004358281168103610c1c57916024359081168103610c1c579060443590565b90601f8019910116810190811067ffffffffffffffff821117610c8e57604052565b634e487b7160e01b600052604160045260246000fd5b67ffffffffffffffff8111610c8e57601f01601f191660200190565b90600182811c92168015610cf0575b6020831014610cda57565b634e487b7160e01b600052602260045260246000fd5b91607f1691610ccf565b90916001600160a01b03809316928315610eb757600092828452826020956002875260409684888820541696879133151580610e08575b509060027fddf252ad1be2c89b69c2b068fc378daa952ba7f163c4a11628f55a4df523b3ef9284610dd0575b858352600381528b83206001815401905586835252898120846001600160a01b031982541617905580a41692838303610d965750505050565b6064945051927f64283d7b000000000000000000000000000000000000000000000000000000008452600484015260248301526044820152fd5b610df187600052600460205260406000206001600160a01b03198154169055565b848352600381528b83208054600019019055610d5d565b91939450915080610e76575b15610e2457859291879138610d31565b878688610e41576024915190637e27328960e01b82526004820152fd5b60449151907f177e802f0000000000000000000000000000000000000000000000000000000082523360048301526024820152fd5b503387148015610e9b575b80610e145750858252600481523385898420541614610e14565b5086825260058152878220338352815260ff8883205416610e81565b6024604051633250574960e11b815260006004820152fd5b818110610eda575050565b60008155600101610ecf565b906009821461103957610efa600954610cc0565b9167ffffffffffffffff8311610c8e57610f148154610cc0565b601f8111610ffc575b50600092601f8111600114610f595780919293600091610f4d575b508160011b916000199060031b1c1916179055565b90506009015438610f38565b8184526020808520601f19831695909181905b878210610fc357505082600194959610610f8a575b5050811b019055565b7f6e1540171b6c0c960b71a7020d9f60077f6af931a8bbf590da0223dacf75c7af015460001960f88460031b161c191690553880610f81565b82938192937f6e1540171b6c0c960b71a7020d9f60077f6af931a8bbf590da0223dacf75c7af0154815560018091019401920190610f6c565b61102990826000526020600020601f860160051c8101916020871061102f575b601f0160051c0190610ecf565b38610f1d565b909150819061101c565b9050565b611048838383610cfa565b813b611055575b50505050565b6001600160a01b03949192939480931693604051937f150b7a020000000000000000000000000000000000000000000000000000000092838652336004870152166024850152604484015260806064840152826110b86020966084830190610bc6565b039285816000958187895af184918161117a575b5061112b575050503d600014611123573d6110e681610ca4565b906110f46040519283610c6c565b81528091843d92013e5b8051928361111e5760248360405190633250574960e11b82526004820152fd5b019050fd5b5060606110fe565b9092507fffffffff00000000000000000000000000000000000000000000000000000000919450160361116257503880808061104f565b60249060405190633250574960e11b82526004820152fd5b9091508681813d83116111cb575b6111928183610c6c565b8101031261042957517fffffffff00000000000000000000000000000000000000000000000000000000811681036104295790386110cc565b503d611188565b8060005260026020526001600160a01b03604060002054169081156111f5575090565b60249060405190637e27328960e01b82526004820152fd5b6001600160a01b0360065416330361122157565b60246040517f118cdaa7000000000000000000000000000000000000000000000000000000008152336004820152fdfea2646970667358221220b85f90f74920f70261e60fd524b51edf1622b983208926b441a3a2aca275a44464736f6c63430008180033a2646970667358221220331256f4534d20ec30a583b63bb46f3d6c3aac3c1e7ad60f89256620548a0df264736f6c63430008180033",
          "opcodes": "PUSH1 0x80 CALLVALUE PUSH2 0xBB JUMPI PUSH1 0x1F PUSH2 0x37C4 CODESIZE DUP2 SWAP1 SUB SWAP2 DUP3 ADD PUSH1 0x1F NOT AND DUP4 ADD SWAP2 PUSH1 0x1 PUSH1 0x1 PUSH1 0x40 SHL SUB DUP4 GT DUP5 DUP5 LT OR PUSH2 0xC0 JUMPI DUP1 DUP5 SWAP3 PUSH1 0x20 SWAP5 PUSH1 0x40 MSTORE DUP4 CODECOPY DUP2 ADD SUB SLT PUSH2 0xBB JUMPI MLOAD PUSH1 0x1 PUSH1 0x1 PUSH1 0xA0 SHL SUB SWAP1 DUP2 DUP2 AND SWAP1 DUP2 SWAP1 SUB PUSH2 0xBB JUMPI DUP1 ISZERO PUSH2 0xA2 JUMPI PUSH1 0x0 DUP1 SLOAD PUSH1 0x1 PUSH1 0x1 PUSH1 0xA0 SHL SUB NOT DUP2 AND DUP4 OR DUP3 SSTORE PUSH1 0x40 MLOAD SWAP4 AND SWAP1 PUSH32 0x8BE0079C531659141344CD1FD0A4F28419497F9722A3DAAFE3B4186F6B6457E0 SWAP1 DUP1 LOG3 PUSH2 0x36ED SWAP1 DUP2 PUSH2 0xD7 DUP3 CODECOPY RETURN JUMPDEST PUSH1 0x40 MLOAD PUSH4 0x1E4FBDF7 PUSH1 0xE0 SHL DUP2 MSTORE PUSH1 0x0 PUSH1 0x4 DUP3 ADD MSTORE PUSH1 0x24 SWAP1 REVERT JUMPDEST PUSH1 0x0 DUP1 REVERT JUMPDEST PUSH4 0x4E487B71 PUSH1 0xE0 SHL PUSH1 0x0 MSTORE PUSH1 0x41 PUSH1 0x4 MSTORE PUSH1 0x24 PUSH1 0x0 REVERT INVALID PUSH1 0x40 PUSH1 0x80 DUP2 MSTORE PUSH1 0x4 SWAP1 DUP2 CALLDATASIZE LT ISZERO PUSH3 0x16 JUMPI PUSH1 0x0 DUP1 REVERT JUMPDEST PUSH1 0x0 SWAP2 DUP3 CALLDATALOAD PUSH1 0xE0 SHR SWAP1 DUP2 PUSH4 0x32B1FF9 EQ PUSH3 0x41D JUMPI DUP4 DUP3 PUSH4 0x3FD39FA1 EQ PUSH3 0x35B JUMPI POP DUP2 PUSH4 0x715018A6 EQ PUSH3 0x2ED JUMPI DUP2 PUSH4 0x8DA5CB5B EQ PUSH3 0x2C5 JUMPI DUP2 PUSH4 0x97E68EB6 EQ PUSH3 0x1BF JUMPI DUP2 PUSH4 0xCEAFB18D EQ PUSH3 0x181 JUMPI DUP2 PUSH4 0xF2FDE38B EQ PUSH3 0xC6 JUMPI POP PUSH4 0xF82568F9 EQ PUSH3 0x86 JUMPI PUSH1 0x0 DUP1 REVERT JUMPDEST CALLVALUE PUSH3 0xC2 JUMPI PUSH1 0x20 CALLDATASIZE PUSH1 0x3 NOT ADD SLT PUSH3 0xC2 JUMPI PUSH1 0x20 SWAP2 DUP2 PUSH1 0x1 PUSH1 0x1 PUSH1 0xA0 SHL SUB SWAP2 DUP3 PUSH3 0xB1 PUSH3 0x578 JUMP JUMPDEST AND DUP2 MSTORE PUSH1 0x2 DUP6 MSTORE KECCAK256 SLOAD AND SWAP1 MLOAD SWAP1 DUP2 MSTORE RETURN JUMPDEST POP DUP1 REVERT JUMPDEST SWAP1 POP CALLVALUE PUSH3 0x17D JUMPI PUSH1 0x20 CALLDATASIZE PUSH1 0x3 NOT ADD SLT PUSH3 0x17D JUMPI PUSH3 0xE5 PUSH3 0x578 JUMP JUMPDEST SWAP1 PUSH3 0xF0 PUSH3 0x653 JUMP JUMPDEST PUSH1 0x1 PUSH1 0x1 PUSH1 0xA0 SHL SUB DUP1 SWAP3 AND SWAP3 DUP4 ISZERO PUSH3 0x14E JUMPI POP POP PUSH1 0x0 SLOAD DUP3 PUSH20 0xFFFFFFFFFFFFFFFFFFFFFFFFFFFFFFFFFFFFFFFF NOT DUP3 AND OR PUSH1 0x0 SSTORE AND PUSH32 0x8BE0079C531659141344CD1FD0A4F28419497F9722A3DAAFE3B4186F6B6457E0 PUSH1 0x0 DUP1 LOG3 DUP1 RETURN JUMPDEST SWAP1 DUP5 PUSH1 0x24 SWAP3 MLOAD SWAP2 PUSH32 0x1E4FBDF700000000000000000000000000000000000000000000000000000000 DUP4 MSTORE DUP3 ADD MSTORE REVERT JUMPDEST DUP3 DUP1 REVERT JUMPDEST POP POP CALLVALUE PUSH3 0xC2 JUMPI PUSH1 0x20 CALLDATASIZE PUSH1 0x3 NOT ADD SLT PUSH3 0xC2 JUMPI PUSH1 0x20 SWAP2 DUP2 PUSH1 0x1 PUSH1 0x1 PUSH1 0xA0 SHL SUB SWAP2 DUP3 PUSH3 0x1AE PUSH3 0x578 JUMP JUMPDEST AND DUP2 MSTORE PUSH1 0x1 DUP6 MSTORE KECCAK256 SLOAD AND SWAP1 MLOAD SWAP1 DUP2 MSTORE RETURN JUMPDEST SWAP2 SWAP1 POP CALLVALUE PUSH3 0x17D JUMPI DUP1 PUSH1 0x3 NOT CALLDATASIZE ADD SLT PUSH3 0x17D JUMPI PUSH3 0x1DE PUSH3 0x578 JUMP JUMPDEST PUSH8 0xFFFFFFFFFFFFFFFF SWAP3 PUSH1 0x24 CALLDATALOAD DUP5 DUP2 GT PUSH3 0x2C1 JUMPI PUSH3 0x202 SWAP1 CALLDATASIZE SWAP1 DUP4 ADD PUSH3 0x594 JUMP JUMPDEST PUSH3 0x20C PUSH3 0x653 JUMP JUMPDEST PUSH1 0x1 PUSH1 0x1 PUSH1 0xA0 SHL SUB DUP1 SWAP4 AND SWAP5 DUP6 DUP8 MSTORE PUSH1 0x1 PUSH1 0x20 MSTORE DUP4 DUP6 DUP9 KECCAK256 SLOAD AND PUSH3 0x2BD JUMPI DUP5 MLOAD SWAP3 PUSH2 0x17ED SWAP1 DUP2 DUP6 ADD SWAP3 DUP6 DUP5 LT SWAP1 DUP5 GT OR PUSH3 0x2AA JUMPI POP SWAP2 DUP6 PUSH3 0x263 SWAP3 DUP6 SWAP5 PUSH3 0x699 DUP7 CODECOPY ADDRESS DUP2 MSTORE DUP2 PUSH1 0x20 DUP3 ADD MSTORE ADD SWAP1 PUSH3 0x611 JUMP JUMPDEST SUB SWAP1 DUP6 CREATE DUP1 ISZERO PUSH3 0x2A0 JUMPI SWAP4 DUP3 SWAP2 PUSH1 0x20 SWAP6 AND SWAP4 DUP2 MSTORE PUSH1 0x1 DUP6 MSTORE KECCAK256 DUP3 PUSH20 0xFFFFFFFFFFFFFFFFFFFFFFFFFFFFFFFFFFFFFFFF NOT DUP3 SLOAD AND OR SWAP1 SSTORE MLOAD SWAP1 DUP2 MSTORE RETURN JUMPDEST DUP3 MLOAD RETURNDATASIZE DUP7 DUP3 RETURNDATACOPY RETURNDATASIZE SWAP1 REVERT JUMPDEST DUP9 PUSH1 0x41 PUSH1 0x24 SWAP3 PUSH4 0x4E487B71 PUSH1 0xE0 SHL DUP4 MSTORE MSTORE REVERT JUMPDEST DUP7 DUP1 REVERT JUMPDEST DUP6 DUP1 REVERT JUMPDEST POP POP CALLVALUE PUSH3 0xC2 JUMPI DUP2 PUSH1 0x3 NOT CALLDATASIZE ADD SLT PUSH3 0xC2 JUMPI PUSH1 0x1 PUSH1 0x1 PUSH1 0xA0 SHL SUB PUSH1 0x20 SWAP3 SLOAD AND SWAP1 MLOAD SWAP1 DUP2 MSTORE RETURN JUMPDEST DUP4 CALLVALUE PUSH3 0x358 JUMPI DUP1 PUSH1 0x3 NOT CALLDATASIZE ADD SLT PUSH3 0x358 JUMPI PUSH3 0x30A PUSH3 0x653 JUMP JUMPDEST PUSH1 0x0 PUSH1 0x1 PUSH1 0x1 PUSH1 0xA0 SHL SUB DUP2 SLOAD PUSH20 0xFFFFFFFFFFFFFFFFFFFFFFFFFFFFFFFFFFFFFFFF NOT DUP2 AND DUP4 SSTORE AND PUSH32 0x8BE0079C531659141344CD1FD0A4F28419497F9722A3DAAFE3B4186F6B6457E0 DUP3 DUP1 LOG3 DUP1 RETURN JUMPDEST DUP1 REVERT JUMPDEST SWAP3 SWAP2 POP CALLVALUE PUSH3 0x419 JUMPI DUP2 PUSH1 0x3 NOT CALLDATASIZE ADD SLT PUSH3 0x419 JUMPI PUSH3 0x37A PUSH3 0x578 JUMP JUMPDEST PUSH1 0x24 CALLDATALOAD SWAP1 PUSH1 0x1 PUSH1 0x1 PUSH1 0xA0 SHL SUB SWAP1 DUP2 DUP4 AND DUP1 SWAP4 SUB PUSH3 0x2C1 JUMPI PUSH3 0x39C PUSH3 0x653 JUMP JUMPDEST AND DUP1 EXTCODESIZE ISZERO PUSH3 0x415 JUMPI PUSH1 0x24 DUP6 SWAP3 DUP6 MLOAD SWAP7 DUP8 SWAP4 DUP5 SWAP3 PUSH32 0x6A62784200000000000000000000000000000000000000000000000000000000 DUP5 MSTORE DUP8 DUP5 ADD MSTORE GAS CALL DUP1 ISZERO PUSH3 0x2A0 JUMPI PUSH3 0x3E9 JUMPI DUP4 DUP1 RETURN JUMPDEST PUSH8 0xFFFFFFFFFFFFFFFF DUP4 GT PUSH3 0x402 JUMPI POP MSTORE CODESIZE DUP1 DUP1 DUP4 DUP1 RETURN JUMPDEST DUP4 PUSH1 0x41 PUSH1 0x24 SWAP3 PUSH4 0x4E487B71 PUSH1 0xE0 SHL DUP4 MSTORE MSTORE REVERT JUMPDEST DUP5 DUP1 REVERT JUMPDEST POP POP REVERT JUMPDEST SWAP2 SWAP1 POP CALLVALUE PUSH3 0x17D JUMPI PUSH1 0xA0 CALLDATASIZE PUSH1 0x3 NOT ADD SLT PUSH3 0x17D JUMPI PUSH3 0x43D PUSH3 0x578 JUMP JUMPDEST PUSH8 0xFFFFFFFFFFFFFFFF SWAP3 PUSH1 0x24 CALLDATALOAD DUP5 DUP2 GT PUSH3 0x2C1 JUMPI PUSH3 0x461 SWAP1 CALLDATASIZE SWAP1 DUP4 ADD PUSH3 0x594 JUMP JUMPDEST SWAP4 PUSH1 0x44 CALLDATALOAD DUP2 DUP2 GT PUSH3 0x2BD JUMPI PUSH3 0x47C SWAP1 CALLDATASIZE SWAP1 DUP5 ADD PUSH3 0x594 JUMP JUMPDEST PUSH1 0x84 CALLDATALOAD DUP3 DUP2 GT PUSH3 0x574 JUMPI PUSH3 0x496 SWAP1 CALLDATASIZE SWAP1 DUP6 ADD PUSH3 0x594 JUMP JUMPDEST SWAP1 PUSH1 0x1 PUSH1 0x1 PUSH1 0xA0 SHL SUB DUP1 SWAP6 AND SWAP7 DUP8 DUP10 MSTORE PUSH1 0x2 PUSH1 0x20 MSTORE DUP6 DUP8 DUP11 KECCAK256 SLOAD AND PUSH3 0x570 JUMPI DUP7 MLOAD SWAP5 PUSH2 0x1832 SWAP1 DUP2 DUP8 ADD SWAP6 DUP8 DUP8 LT SWAP1 DUP8 GT OR PUSH3 0x55D JUMPI POP DUP6 SWAP5 SWAP3 PUSH3 0x4FB PUSH3 0x520 SWAP6 SWAP4 PUSH3 0x509 SWAP4 PUSH3 0x1E86 DUP10 CODECOPY ADDRESS DUP7 MSTORE PUSH1 0xA0 PUSH1 0x20 DUP8 ADD MSTORE PUSH1 0xA0 DUP7 ADD SWAP1 PUSH3 0x611 JUMP JUMPDEST SWAP1 DUP5 DUP3 SUB DUP11 DUP7 ADD MSTORE PUSH3 0x611 JUMP JUMPDEST SWAP2 PUSH1 0x64 CALLDATALOAD PUSH1 0x60 DUP3 ADD MSTORE PUSH1 0x80 DUP2 DUP5 SUB SWAP2 ADD MSTORE PUSH3 0x611 JUMP JUMPDEST SUB SWAP1 DUP6 CREATE DUP1 ISZERO PUSH3 0x2A0 JUMPI SWAP4 DUP3 SWAP2 PUSH1 0x20 SWAP6 AND SWAP4 DUP2 MSTORE PUSH1 0x2 DUP6 MSTORE KECCAK256 DUP3 PUSH20 0xFFFFFFFFFFFFFFFFFFFFFFFFFFFFFFFFFFFFFFFF NOT DUP3 SLOAD AND OR SWAP1 SSTORE MLOAD SWAP1 DUP2 MSTORE RETURN JUMPDEST DUP11 PUSH1 0x41 PUSH1 0x24 SWAP3 PUSH4 0x4E487B71 PUSH1 0xE0 SHL DUP4 MSTORE MSTORE REVERT JUMPDEST DUP9 DUP1 REVERT JUMPDEST DUP8 DUP1 REVERT JUMPDEST PUSH1 0x4 CALLDATALOAD SWAP1 PUSH1 0x1 PUSH1 0x1 PUSH1 0xA0 SHL SUB DUP3 AND DUP3 SUB PUSH3 0x58F JUMPI JUMP JUMPDEST PUSH1 0x0 DUP1 REVERT JUMPDEST DUP2 PUSH1 0x1F DUP3 ADD SLT ISZERO PUSH3 0x58F JUMPI DUP1 CALLDATALOAD SWAP1 PUSH8 0xFFFFFFFFFFFFFFFF SWAP3 DUP4 DUP4 GT PUSH3 0x5FB JUMPI PUSH1 0x40 MLOAD SWAP4 PUSH1 0x1F DUP5 ADD PUSH1 0x1F NOT SWAP1 DUP2 AND PUSH1 0x3F ADD AND DUP6 ADD SWAP1 DUP2 GT DUP6 DUP3 LT OR PUSH3 0x5FB JUMPI PUSH1 0x40 MSTORE DUP3 DUP5 MSTORE PUSH1 0x20 DUP4 DUP4 ADD ADD GT PUSH3 0x58F JUMPI DUP2 PUSH1 0x0 SWAP3 PUSH1 0x20 DUP1 SWAP4 ADD DUP4 DUP7 ADD CALLDATACOPY DUP4 ADD ADD MSTORE SWAP1 JUMP JUMPDEST PUSH4 0x4E487B71 PUSH1 0xE0 SHL PUSH1 0x0 MSTORE PUSH1 0x41 PUSH1 0x4 MSTORE PUSH1 0x24 PUSH1 0x0 REVERT JUMPDEST SWAP2 SWAP1 DUP3 MLOAD SWAP3 DUP4 DUP3 MSTORE PUSH1 0x0 JUMPDEST DUP5 DUP2 LT PUSH3 0x63E JUMPI POP POP DUP3 PUSH1 0x0 PUSH1 0x20 DUP1 SWAP5 SWAP6 DUP5 ADD ADD MSTORE PUSH1 0x1F DUP1 NOT SWAP2 ADD AND ADD ADD SWAP1 JUMP JUMPDEST PUSH1 0x20 DUP2 DUP4 ADD DUP2 ADD MLOAD DUP5 DUP4 ADD DUP3 ADD MSTORE ADD PUSH3 0x61C JUMP JUMPDEST PUSH1 0x1 PUSH1 0x1 PUSH1 0xA0 SHL SUB PUSH1 0x0 SLOAD AND CALLER SUB PUSH3 0x668 JUMPI JUMP JUMPDEST PUSH1 0x24 PUSH1 0x40 MLOAD PUSH32 0x118CDAA700000000000000000000000000000000000000000000000000000000 DUP2 MSTORE CALLER PUSH1 0x4 DUP3 ADD MSTORE REVERT INVALID PUSH1 0x80 PUSH1 0x40 MSTORE CALLVALUE PUSH3 0x51E JUMPI PUSH3 0x17ED DUP1 CODESIZE SUB DUP1 PUSH3 0x1D DUP2 PUSH3 0x543 JUMP JUMPDEST SWAP3 DUP4 CODECOPY DUP2 ADD SWAP1 PUSH1 0x40 DUP2 DUP4 SUB SLT PUSH3 0x51E JUMPI DUP1 MLOAD PUSH1 0x1 PUSH1 0x1 PUSH1 0xA0 SHL SUB SWAP1 DUP2 DUP2 AND SWAP1 DUP2 SWAP1 SUB PUSH3 0x51E JUMPI PUSH1 0x20 DUP4 DUP2 ADD MLOAD PUSH1 0x1 PUSH1 0x1 PUSH1 0x40 SHL SUB SWAP5 DUP6 DUP3 GT PUSH3 0x51E JUMPI ADD SWAP5 PUSH1 0x1F SWAP2 DUP2 DUP4 DUP9 ADD SLT ISZERO PUSH3 0x51E JUMPI DUP7 MLOAD DUP7 DUP2 GT PUSH3 0x339 JUMPI PUSH1 0x1F NOT SWAP8 PUSH3 0x8B DUP3 DUP7 ADD DUP11 AND DUP5 ADD PUSH3 0x543 JUMP JUMPDEST SWAP4 DUP3 DUP6 MSTORE DUP4 DUP4 DUP4 ADD ADD GT PUSH3 0x51E JUMPI DUP3 SWAP1 PUSH1 0x0 JUMPDEST DUP4 DUP2 LT PUSH3 0x509 JUMPI POP POP PUSH1 0x0 SWAP2 DUP5 ADD ADD MSTORE PUSH3 0xBA PUSH3 0x523 JUMP JUMPDEST SWAP4 PUSH1 0xD DUP6 MSTORE PUSH13 0x125B98DB1D5CDA5D9950D85C99 PUSH1 0x9A SHL DUP3 DUP7 ADD MSTORE PUSH3 0xDE PUSH3 0x523 JUMP JUMPDEST SWAP6 PUSH1 0x3 SWAP7 DUP8 DUP2 MSTORE PUSH3 0x494E43 PUSH1 0xE8 SHL DUP5 DUP3 ADD MSTORE DUP7 MLOAD DUP10 DUP2 GT PUSH3 0x339 JUMPI PUSH1 0x0 SLOAD PUSH1 0x1 SWAP9 DUP10 DUP3 DUP2 SHR SWAP3 AND DUP1 ISZERO PUSH3 0x4FE JUMPI JUMPDEST DUP8 DUP4 LT EQ PUSH3 0x318 JUMPI DUP2 DUP10 DUP5 SWAP4 GT PUSH3 0x4A8 JUMPI JUMPDEST POP DUP7 SWAP1 DUP10 DUP4 GT PUSH1 0x1 EQ PUSH3 0x444 JUMPI PUSH1 0x0 SWAP3 PUSH3 0x438 JUMPI JUMPDEST POP POP PUSH1 0x0 NOT DUP3 DUP12 SHL SHR NOT AND SWAP1 DUP9 SHL OR PUSH1 0x0 SSTORE JUMPDEST DUP1 MLOAD SWAP1 DUP10 DUP3 GT PUSH3 0x339 JUMPI DUP8 SLOAD SWAP1 DUP9 DUP3 DUP2 SHR SWAP3 AND DUP1 ISZERO PUSH3 0x42D JUMPI JUMPDEST DUP7 DUP4 LT EQ PUSH3 0x318 JUMPI DUP2 DUP9 DUP5 SWAP4 GT PUSH3 0x3D7 JUMPI JUMPDEST POP DUP6 SWAP1 DUP9 DUP4 GT PUSH1 0x1 EQ PUSH3 0x374 JUMPI PUSH1 0x0 SWAP3 PUSH3 0x368 JUMPI JUMPDEST POP POP PUSH1 0x0 NOT DUP3 DUP11 SHL SHR NOT AND SWAP1 DUP8 SHL OR DUP7 SSTORE JUMPDEST DUP2 ISZERO PUSH3 0x34F JUMPI PUSH1 0x6 DUP1 SLOAD PUSH1 0x1 PUSH1 0x1 PUSH1 0xA0 SHL SUB NOT DUP2 AND DUP5 OR SWAP1 SWAP2 SSTORE AND PUSH32 0x8BE0079C531659141344CD1FD0A4F28419497F9722A3DAAFE3B4186F6B6457E0 PUSH1 0x0 DUP1 LOG3 DUP2 MLOAD SWAP6 DUP7 GT PUSH3 0x339 JUMPI PUSH1 0x8 SLOAD DUP5 DUP2 DUP2 SHR SWAP2 AND DUP1 ISZERO PUSH3 0x32E JUMPI JUMPDEST DUP3 DUP3 LT EQ PUSH3 0x318 JUMPI DUP4 DUP2 GT PUSH3 0x2CC JUMPI JUMPDEST POP DUP1 SWAP3 DUP7 GT PUSH1 0x1 EQ PUSH3 0x25E JUMPI POP DUP5 SWAP6 POP SWAP1 DUP5 SWAP3 SWAP2 PUSH1 0x0 SWAP6 PUSH3 0x252 JUMPI JUMPDEST POP POP SHL SWAP3 PUSH1 0x0 NOT SWAP2 SHL SHR NOT AND OR PUSH1 0x8 SSTORE JUMPDEST PUSH1 0x40 MLOAD PUSH2 0x1283 SWAP1 DUP2 PUSH3 0x56A DUP3 CODECOPY RETURN JUMPDEST ADD MLOAD SWAP4 POP CODESIZE DUP1 PUSH3 0x231 JUMP JUMPDEST SWAP4 SWAP3 SWAP6 DUP6 SWAP1 DUP2 AND PUSH1 0x8 PUSH1 0x0 MSTORE DUP6 PUSH1 0x0 KECCAK256 SWAP6 PUSH1 0x0 SWAP1 JUMPDEST DUP10 DUP4 DUP4 LT PUSH3 0x2B1 JUMPI POP POP POP LT PUSH3 0x296 JUMPI JUMPDEST POP POP POP POP DUP2 SHL ADD PUSH1 0x8 SSTORE PUSH3 0x242 JUMP JUMPDEST ADD MLOAD SWAP1 PUSH1 0xF8 DUP5 PUSH1 0x0 NOT SWAP3 SHL AND SHR NOT AND SWAP1 SSTORE CODESIZE DUP1 DUP1 DUP1 PUSH3 0x286 JUMP JUMPDEST DUP6 DUP8 ADD MLOAD DUP10 SSTORE SWAP1 SWAP8 ADD SWAP7 SWAP5 DUP6 ADD SWAP5 DUP9 SWAP4 POP SWAP1 DUP2 ADD SWAP1 PUSH3 0x273 JUMP JUMPDEST PUSH1 0x8 PUSH1 0x0 MSTORE DUP2 PUSH1 0x0 KECCAK256 DUP5 DUP1 DUP10 ADD PUSH1 0x5 SHR DUP3 ADD SWAP3 DUP5 DUP11 LT PUSH3 0x30E JUMPI JUMPDEST ADD PUSH1 0x5 SHR ADD SWAP1 DUP6 SWAP1 JUMPDEST DUP3 DUP2 LT PUSH3 0x301 JUMPI POP POP PUSH3 0x213 JUMP JUMPDEST PUSH1 0x0 DUP2 SSTORE ADD DUP6 SWAP1 PUSH3 0x2F1 JUMP JUMPDEST SWAP3 POP DUP2 SWAP3 PUSH3 0x2E8 JUMP JUMPDEST PUSH4 0x4E487B71 PUSH1 0xE0 SHL PUSH1 0x0 MSTORE PUSH1 0x22 PUSH1 0x4 MSTORE PUSH1 0x24 PUSH1 0x0 REVERT JUMPDEST SWAP1 PUSH1 0x7F AND SWAP1 PUSH3 0x201 JUMP JUMPDEST PUSH4 0x4E487B71 PUSH1 0xE0 SHL PUSH1 0x0 MSTORE PUSH1 0x41 PUSH1 0x4 MSTORE PUSH1 0x24 PUSH1 0x0 REVERT JUMPDEST PUSH1 0x40 MLOAD PUSH4 0x1E4FBDF7 PUSH1 0xE0 SHL DUP2 MSTORE PUSH1 0x0 PUSH1 0x4 DUP3 ADD MSTORE PUSH1 0x24 SWAP1 REVERT JUMPDEST ADD MLOAD SWAP1 POP CODESIZE DUP1 PUSH3 0x193 JUMP JUMPDEST SWAP1 DUP13 DUP11 SWAP5 AND SWAP2 DUP5 PUSH1 0x0 MSTORE DUP8 PUSH1 0x0 KECCAK256 SWAP3 PUSH1 0x0 JUMPDEST DUP10 DUP3 DUP3 LT PUSH3 0x3C0 JUMPI POP POP DUP5 GT PUSH3 0x3A7 JUMPI JUMPDEST POP POP POP DUP2 SHL ADD DUP7 SSTORE PUSH3 0x1A5 JUMP JUMPDEST ADD MLOAD PUSH1 0x0 NOT DUP4 DUP13 SHL PUSH1 0xF8 AND SHR NOT AND SWAP1 SSTORE CODESIZE DUP1 DUP1 PUSH3 0x399 JUMP JUMPDEST DUP4 DUP6 ADD MLOAD DUP7 SSTORE DUP14 SWAP8 SWAP1 SWAP6 ADD SWAP5 SWAP4 DUP5 ADD SWAP4 ADD PUSH3 0x386 JUMP JUMPDEST SWAP1 SWAP2 POP DUP9 PUSH1 0x0 MSTORE DUP6 PUSH1 0x0 KECCAK256 DUP9 DUP1 DUP6 ADD PUSH1 0x5 SHR DUP3 ADD SWAP3 DUP9 DUP7 LT PUSH3 0x423 JUMPI JUMPDEST SWAP2 DUP12 SWAP2 DUP7 SWAP6 SWAP5 SWAP4 ADD PUSH1 0x5 SHR ADD SWAP2 JUMPDEST DUP3 DUP2 LT PUSH3 0x413 JUMPI POP POP PUSH3 0x17C JUMP JUMPDEST PUSH1 0x0 DUP2 SSTORE DUP6 SWAP5 POP DUP12 SWAP2 ADD PUSH3 0x403 JUMP JUMPDEST SWAP3 POP DUP2 SWAP3 PUSH3 0x3F5 JUMP JUMPDEST SWAP2 PUSH1 0x7F AND SWAP2 PUSH3 0x168 JUMP JUMPDEST ADD MLOAD SWAP1 POP CODESIZE DUP1 PUSH3 0x139 JUMP JUMPDEST SWAP1 DUP14 DUP12 SWAP5 AND SWAP2 PUSH1 0x0 DUP1 MSTORE DUP9 PUSH1 0x0 KECCAK256 SWAP3 PUSH1 0x0 JUMPDEST DUP11 DUP3 DUP3 LT PUSH3 0x491 JUMPI POP POP DUP5 GT PUSH3 0x478 JUMPI JUMPDEST POP POP POP DUP2 SHL ADD PUSH1 0x0 SSTORE PUSH3 0x14C JUMP JUMPDEST ADD MLOAD PUSH1 0x0 NOT DUP4 DUP14 SHL PUSH1 0xF8 AND SHR NOT AND SWAP1 SSTORE CODESIZE DUP1 DUP1 PUSH3 0x469 JUMP JUMPDEST DUP4 DUP6 ADD MLOAD DUP7 SSTORE DUP15 SWAP8 SWAP1 SWAP6 ADD SWAP5 SWAP4 DUP5 ADD SWAP4 ADD PUSH3 0x456 JUMP JUMPDEST SWAP1 SWAP2 POP PUSH1 0x0 DUP1 MSTORE DUP7 PUSH1 0x0 KECCAK256 DUP10 DUP1 DUP6 ADD PUSH1 0x5 SHR DUP3 ADD SWAP3 DUP10 DUP7 LT PUSH3 0x4F4 JUMPI JUMPDEST SWAP2 DUP13 SWAP2 DUP7 SWAP6 SWAP5 SWAP4 ADD PUSH1 0x5 SHR ADD SWAP2 JUMPDEST DUP3 DUP2 LT PUSH3 0x4E4 JUMPI POP POP PUSH3 0x122 JUMP JUMPDEST PUSH1 0x0 DUP2 SSTORE DUP6 SWAP5 POP DUP13 SWAP2 ADD PUSH3 0x4D4 JUMP JUMPDEST SWAP3 POP DUP2 SWAP3 PUSH3 0x4C6 JUMP JUMPDEST SWAP2 PUSH1 0x7F AND SWAP2 PUSH3 0x10E JUMP JUMPDEST DUP2 DUP2 ADD DUP4 ADD MLOAD DUP7 DUP3 ADD DUP5 ADD MSTORE DUP5 SWAP3 ADD PUSH3 0x9F JUMP JUMPDEST PUSH1 0x0 DUP1 REVERT JUMPDEST PUSH1 0x40 DUP1 MLOAD SWAP2 SWAP1 DUP3 ADD PUSH1 0x1 PUSH1 0x1 PUSH1 0x40 SHL SUB DUP2 GT DUP4 DUP3 LT OR PUSH3 0x339 JUMPI PUSH1 0x40 MSTORE JUMP JUMPDEST PUSH1 0x40 MLOAD SWAP2 SWAP1 PUSH1 0x1F ADD PUSH1 0x1F NOT AND DUP3 ADD PUSH1 0x1 PUSH1 0x1 PUSH1 0x40 SHL SUB DUP2 GT DUP4 DUP3 LT OR PUSH3 0x339 JUMPI PUSH1 0x40 MSTORE JUMP INVALID PUSH1 0x80 PUSH1 0x40 DUP2 DUP2 MSTORE PUSH1 0x4 DUP1 CALLDATASIZE LT ISZERO PUSH2 0x15 JUMPI PUSH1 0x0 DUP1 REVERT JUMPDEST PUSH1 0x0 SWAP3 DUP4 CALLDATALOAD PUSH1 0xE0 SHR SWAP1 DUP2 PUSH4 0x1FFC9A7 EQ PUSH2 0xAF2 JUMPI POP DUP1 PUSH4 0x6FDDE03 EQ PUSH2 0xA41 JUMPI DUP1 PUSH4 0x81812FC EQ PUSH2 0xA08 JUMPI DUP1 PUSH4 0x95EA7B3 EQ PUSH2 0x915 JUMPI DUP1 PUSH4 0x23B872DD EQ PUSH2 0x8FD JUMPI DUP1 PUSH4 0x42842E0E EQ PUSH2 0x8AE JUMPI DUP1 PUSH4 0x42966C68 EQ PUSH2 0x785 JUMPI DUP1 PUSH4 0x6352211E EQ PUSH2 0x755 JUMPI DUP1 PUSH4 0x6A627842 EQ PUSH2 0x5F9 JUMPI DUP1 PUSH4 0x70A08231 EQ PUSH2 0x58B JUMPI DUP1 PUSH4 0x715018A6 EQ PUSH2 0x530 JUMPI DUP1 PUSH4 0x8DA5CB5B EQ PUSH2 0x508 JUMPI DUP1 PUSH4 0x95D89B41 EQ PUSH2 0x429 JUMPI DUP1 PUSH4 0xA22CB465 EQ PUSH2 0x36F JUMPI DUP1 PUSH4 0xA7F93EBD EQ PUSH2 0x354 JUMPI DUP1 PUSH4 0xB88D4FDE EQ PUSH2 0x2CB JUMPI DUP1 PUSH4 0xC87B56DD EQ PUSH2 0x1EA JUMPI DUP1 PUSH4 0xE985E9C5 EQ PUSH2 0x198 JUMPI PUSH4 0xF2FDE38B EQ PUSH2 0xF4 JUMPI PUSH1 0x0 DUP1 REVERT JUMPDEST CALLVALUE PUSH2 0x194 JUMPI PUSH1 0x20 CALLDATASIZE PUSH1 0x3 NOT ADD SLT PUSH2 0x194 JUMPI PUSH2 0x10D PUSH2 0xC02 JUMP JUMPDEST SWAP1 PUSH2 0x116 PUSH2 0x1209 JUMP JUMPDEST PUSH1 0x1 PUSH1 0x1 PUSH1 0xA0 SHL SUB DUP1 SWAP3 AND SWAP3 DUP4 ISZERO PUSH2 0x165 JUMPI POP POP PUSH1 0x6 SLOAD DUP3 PUSH1 0x1 PUSH1 0x1 PUSH1 0xA0 SHL SUB NOT DUP3 AND OR PUSH1 0x6 SSTORE AND PUSH32 0x8BE0079C531659141344CD1FD0A4F28419497F9722A3DAAFE3B4186F6B6457E0 DUP4 DUP1 LOG3 DUP1 RETURN JUMPDEST SWAP1 DUP5 PUSH1 0x24 SWAP3 MLOAD SWAP2 PUSH32 0x1E4FBDF700000000000000000000000000000000000000000000000000000000 DUP4 MSTORE DUP3 ADD MSTORE REVERT JUMPDEST DUP3 DUP1 REVERT JUMPDEST POP POP CALLVALUE PUSH2 0x1E6 JUMPI DUP1 PUSH1 0x3 NOT CALLDATASIZE ADD SLT PUSH2 0x1E6 JUMPI PUSH1 0xFF DUP2 PUSH1 0x20 SWAP4 PUSH2 0x1B8 PUSH2 0xC02 JUMP JUMPDEST PUSH2 0x1C0 PUSH2 0xC1D JUMP JUMPDEST PUSH1 0x1 PUSH1 0x1 PUSH1 0xA0 SHL SUB SWAP2 DUP3 AND DUP4 MSTORE PUSH1 0x5 DUP8 MSTORE DUP4 DUP4 KECCAK256 SWAP2 AND DUP3 MSTORE DUP6 MSTORE KECCAK256 SLOAD SWAP2 MLOAD SWAP2 AND ISZERO ISZERO DUP2 MSTORE RETURN JUMPDEST POP DUP1 REVERT JUMPDEST POP SWAP1 CALLVALUE PUSH2 0x194 JUMPI PUSH1 0x20 SWAP2 DUP3 PUSH1 0x3 NOT CALLDATASIZE ADD SLT PUSH2 0x2C7 JUMPI CALLDATALOAD DUP4 MSTORE PUSH1 0x9 DUP3 MSTORE DUP1 DUP4 KECCAK256 DUP2 MLOAD SWAP4 DUP5 SWAP2 DUP2 DUP2 SLOAD SWAP1 PUSH2 0x21B DUP3 PUSH2 0xCBC JUMP JUMPDEST SWAP3 DUP4 DUP7 MSTORE PUSH1 0x1 SWAP3 DUP9 PUSH1 0x1 DUP3 AND SWAP2 DUP3 PUSH1 0x0 EQ PUSH2 0x29D JUMPI POP POP PUSH1 0x1 EQ PUSH2 0x25F JUMPI JUMPDEST DUP6 DUP9 PUSH2 0x25B DUP10 PUSH2 0x24C DUP5 DUP11 SUB DUP6 PUSH2 0xC68 JUMP JUMPDEST MLOAD SWAP3 DUP3 DUP5 SWAP4 DUP5 MSTORE DUP4 ADD SWAP1 PUSH2 0xBC2 JUMP JUMPDEST SUB SWAP1 RETURN JUMPDEST DUP8 SWAP5 POP DUP2 SWAP4 SWAP3 SWAP2 MSTORE DUP4 DUP4 KECCAK256 JUMPDEST DUP3 DUP5 LT PUSH2 0x285 JUMPI POP POP POP DUP3 ADD ADD DUP2 PUSH2 0x24C PUSH2 0x25B CODESIZE PUSH2 0x23A JUMP JUMPDEST DUP1 SLOAD DUP5 DUP11 ADD DUP7 ADD MSTORE DUP9 SWAP6 POP DUP8 SWAP5 SWAP1 SWAP4 ADD SWAP3 DUP2 ADD PUSH2 0x26B JUMP JUMPDEST PUSH1 0xFF NOT AND DUP9 DUP3 ADD MSTORE SWAP5 ISZERO ISZERO PUSH1 0x5 SHL DUP8 ADD SWAP1 SWAP5 ADD SWAP5 POP DUP6 SWAP4 POP PUSH2 0x24C SWAP3 POP PUSH2 0x25B SWAP2 POP CODESIZE SWAP1 POP PUSH2 0x23A JUMP JUMPDEST DUP4 DUP1 REVERT JUMPDEST POP SWAP1 CALLVALUE PUSH2 0x194 JUMPI PUSH1 0x80 CALLDATASIZE PUSH1 0x3 NOT ADD SLT PUSH2 0x194 JUMPI PUSH2 0x2E6 PUSH2 0xC02 JUMP JUMPDEST PUSH2 0x2EE PUSH2 0xC1D JUMP JUMPDEST DUP5 PUSH1 0x64 CALLDATALOAD SWAP5 PUSH8 0xFFFFFFFFFFFFFFFF DUP7 GT PUSH2 0x1E6 JUMPI CALLDATASIZE PUSH1 0x23 DUP8 ADD SLT ISZERO PUSH2 0x1E6 JUMPI DUP6 ADD CALLDATALOAD SWAP5 PUSH2 0x326 PUSH2 0x31D DUP8 PUSH2 0xCA0 JUMP JUMPDEST SWAP6 MLOAD SWAP6 DUP7 PUSH2 0xC68 JUMP JUMPDEST DUP6 DUP6 MSTORE CALLDATASIZE PUSH1 0x24 DUP8 DUP4 ADD ADD GT PUSH2 0x1E6 JUMPI DUP6 PUSH2 0x351 SWAP7 PUSH1 0x24 PUSH1 0x20 SWAP4 ADD DUP4 DUP9 ADD CALLDATACOPY DUP6 ADD ADD MSTORE PUSH1 0x44 CALLDATALOAD SWAP2 PUSH2 0x1039 JUMP JUMPDEST DUP1 RETURN JUMPDEST POP POP CALLVALUE PUSH2 0x1E6 JUMPI DUP2 PUSH1 0x3 NOT CALLDATASIZE ADD SLT PUSH2 0x1E6 JUMPI MLOAD SWAP1 DUP2 MSTORE PUSH1 0x20 SWAP1 RETURN JUMPDEST POP SWAP1 CALLVALUE PUSH2 0x194 JUMPI DUP1 PUSH1 0x3 NOT CALLDATASIZE ADD SLT PUSH2 0x194 JUMPI PUSH2 0x389 PUSH2 0xC02 JUMP JUMPDEST SWAP1 PUSH1 0x24 CALLDATALOAD SWAP2 DUP3 ISZERO ISZERO DUP1 SWAP4 SUB PUSH2 0x425 JUMPI PUSH1 0x1 PUSH1 0x1 PUSH1 0xA0 SHL SUB AND SWAP3 DUP4 ISZERO PUSH2 0x3F7 JUMPI POP CALLER DUP5 MSTORE PUSH1 0x5 PUSH1 0x20 MSTORE DUP1 DUP5 KECCAK256 DUP4 DUP6 MSTORE PUSH1 0x20 MSTORE DUP1 DUP5 KECCAK256 PUSH1 0xFF NOT DUP2 SLOAD AND PUSH1 0xFF DUP5 AND OR SWAP1 SSTORE MLOAD SWAP1 DUP2 MSTORE PUSH32 0x17307EAB39AB6107E8899845AD3D59BD9653F200F220920489CA2B5937696C31 PUSH1 0x20 CALLER SWAP3 LOG3 DUP1 RETURN JUMPDEST DUP4 PUSH1 0x24 SWAP3 MLOAD SWAP2 PUSH32 0x5B08BA1800000000000000000000000000000000000000000000000000000000 DUP4 MSTORE DUP3 ADD MSTORE REVERT JUMPDEST DUP5 DUP1 REVERT JUMPDEST DUP3 DUP5 CALLVALUE PUSH2 0x505 JUMPI DUP1 PUSH1 0x3 NOT CALLDATASIZE ADD SLT PUSH2 0x505 JUMPI DUP2 MLOAD SWAP2 DUP3 DUP3 PUSH1 0x1 SWAP4 PUSH1 0x1 SLOAD SWAP5 PUSH2 0x450 DUP7 PUSH2 0xCBC JUMP JUMPDEST SWAP2 DUP3 DUP6 MSTORE PUSH1 0x20 SWAP7 DUP8 PUSH1 0x1 DUP3 AND SWAP2 DUP3 PUSH1 0x0 EQ PUSH2 0x4DE JUMPI POP POP PUSH1 0x1 EQ PUSH2 0x482 JUMPI JUMPDEST POP POP POP PUSH2 0x25B SWAP3 SWAP2 PUSH2 0x24C SWAP2 SUB DUP6 PUSH2 0xC68 JUMP JUMPDEST SWAP2 SWAP1 DUP7 SWAP4 POP PUSH1 0x1 DUP4 MSTORE PUSH32 0xB10E2D527612073B26EECDFD717E6A320CF44B4AFAC2B0732D9FCBE2B7FA0CF6 JUMPDEST DUP3 DUP5 LT PUSH2 0x4C6 JUMPI POP POP POP DUP3 ADD ADD DUP2 PUSH2 0x24C PUSH2 0x25B PUSH2 0x46F JUMP JUMPDEST DUP1 SLOAD DUP5 DUP11 ADD DUP7 ADD MSTORE DUP9 SWAP6 POP DUP8 SWAP5 SWAP1 SWAP4 ADD SWAP3 DUP2 ADD PUSH2 0x4AD JUMP JUMPDEST PUSH1 0xFF NOT AND DUP8 DUP3 ADD MSTORE SWAP4 ISZERO ISZERO PUSH1 0x5 SHL DUP7 ADD SWAP1 SWAP4 ADD SWAP4 POP DUP5 SWAP3 POP PUSH2 0x24C SWAP2 POP PUSH2 0x25B SWAP1 POP PUSH2 0x46F JUMP JUMPDEST DUP1 REVERT JUMPDEST POP POP CALLVALUE PUSH2 0x1E6 JUMPI DUP2 PUSH1 0x3 NOT CALLDATASIZE ADD SLT PUSH2 0x1E6 JUMPI PUSH1 0x20 SWAP1 PUSH1 0x1 PUSH1 0x1 PUSH1 0xA0 SHL SUB PUSH1 0x6 SLOAD AND SWAP1 MLOAD SWAP1 DUP2 MSTORE RETURN JUMPDEST DUP4 CALLVALUE PUSH2 0x505 JUMPI DUP1 PUSH1 0x3 NOT CALLDATASIZE ADD SLT PUSH2 0x505 JUMPI PUSH2 0x549 PUSH2 0x1209 JUMP JUMPDEST DUP1 PUSH1 0x1 PUSH1 0x1 PUSH1 0xA0 SHL SUB PUSH1 0x6 SLOAD PUSH1 0x1 PUSH1 0x1 PUSH1 0xA0 SHL SUB NOT DUP2 AND PUSH1 0x6 SSTORE AND PUSH32 0x8BE0079C531659141344CD1FD0A4F28419497F9722A3DAAFE3B4186F6B6457E0 DUP3 DUP1 LOG3 DUP1 RETURN JUMPDEST POP SWAP2 CALLVALUE PUSH2 0x505 JUMPI PUSH1 0x20 CALLDATASIZE PUSH1 0x3 NOT ADD SLT PUSH2 0x505 JUMPI PUSH1 0x1 PUSH1 0x1 PUSH1 0xA0 SHL SUB PUSH2 0x5AE PUSH2 0xC02 JUMP JUMPDEST AND SWAP3 DUP4 ISZERO PUSH2 0x5CB JUMPI POP DUP1 PUSH1 0x20 SWAP4 DUP4 SWAP3 MSTORE PUSH1 0x3 DUP5 MSTORE KECCAK256 SLOAD SWAP1 MLOAD SWAP1 DUP2 MSTORE RETURN JUMPDEST SWAP1 PUSH1 0x24 SWAP3 MLOAD SWAP2 PUSH32 0x89C62B6400000000000000000000000000000000000000000000000000000000 DUP4 MSTORE DUP3 ADD MSTORE REVERT JUMPDEST POP DUP3 CALLVALUE PUSH2 0x505 JUMPI PUSH1 0x20 SWAP3 DUP4 PUSH1 0x3 NOT CALLDATASIZE ADD SLT PUSH2 0x1E6 JUMPI PUSH2 0x616 PUSH2 0xC02 JUMP JUMPDEST PUSH2 0x61E PUSH2 0x1209 JUMP JUMPDEST PUSH1 0x7 SLOAD PUSH1 0x1 PUSH1 0x1 PUSH1 0xA0 SHL SUB DUP1 SWAP3 AND SWAP2 DUP3 ISZERO PUSH2 0x73F JUMPI DUP2 DUP6 MSTORE PUSH1 0x2 DUP8 MSTORE DUP4 DUP6 KECCAK256 SLOAD AND SWAP2 DUP3 ISZERO ISZERO SWAP3 DUP4 PUSH2 0x707 JUMPI JUMPDEST DUP2 DUP7 MSTORE PUSH1 0x3 DUP9 MSTORE DUP5 DUP7 KECCAK256 PUSH1 0x1 DUP2 SLOAD ADD SWAP1 SSTORE DUP3 DUP7 MSTORE PUSH1 0x2 DUP9 MSTORE DUP5 DUP7 KECCAK256 DUP3 PUSH1 0x1 PUSH1 0x1 PUSH1 0xA0 SHL SUB NOT DUP3 SLOAD AND OR SWAP1 SSTORE PUSH32 0xDDF252AD1BE2C89B69C2B068FC378DAA952BA7F163C4A11628F55A4DF523B3EF DUP7 DUP1 LOG4 PUSH2 0x6D9 JUMPI PUSH2 0x6B1 SWAP1 PUSH1 0x9 DUP6 PUSH1 0x7 SLOAD DUP6 MSTORE MSTORE DUP3 KECCAK256 PUSH2 0xEE2 JUMP JUMPDEST PUSH1 0x7 SLOAD PUSH1 0x0 NOT DUP2 EQ PUSH2 0x6C6 JUMPI PUSH1 0x1 ADD PUSH1 0x7 SSTORE DUP1 RETURN JUMPDEST POP PUSH1 0x11 PUSH1 0x24 SWAP3 PUSH4 0x4E487B71 PUSH1 0xE0 SHL DUP4 MSTORE MSTORE REVERT JUMPDEST PUSH1 0x24 SWAP4 POP MLOAD SWAP2 PUSH32 0x73C6AC6E00000000000000000000000000000000000000000000000000000000 DUP4 MSTORE DUP3 ADD MSTORE REVERT JUMPDEST PUSH2 0x728 DUP4 PUSH1 0x0 MSTORE PUSH1 0x4 PUSH1 0x20 MSTORE PUSH1 0x40 PUSH1 0x0 KECCAK256 PUSH1 0x1 PUSH1 0x1 PUSH1 0xA0 SHL SUB NOT DUP2 SLOAD AND SWAP1 SSTORE JUMP JUMPDEST DUP1 DUP7 MSTORE PUSH1 0x3 DUP9 MSTORE DUP5 DUP7 KECCAK256 DUP1 SLOAD PUSH1 0x0 NOT ADD SWAP1 SSTORE PUSH2 0x64A JUMP JUMPDEST PUSH1 0x24 DUP7 DUP7 DUP7 MLOAD SWAP2 PUSH4 0x32505749 PUSH1 0xE1 SHL DUP4 MSTORE DUP3 ADD MSTORE REVERT JUMPDEST POP SWAP2 CALLVALUE PUSH2 0x505 JUMPI PUSH1 0x20 CALLDATASIZE PUSH1 0x3 NOT ADD SLT PUSH2 0x505 JUMPI POP PUSH1 0x1 PUSH1 0x1 PUSH1 0xA0 SHL SUB PUSH2 0x77D PUSH1 0x20 SWAP4 CALLDATALOAD PUSH2 0x11CE JUMP JUMPDEST SWAP2 MLOAD SWAP2 AND DUP2 MSTORE RETURN JUMPDEST POP SWAP1 CALLVALUE PUSH2 0x194 JUMPI PUSH1 0x20 SWAP1 DUP2 PUSH1 0x3 NOT CALLDATASIZE ADD SLT PUSH2 0x2C7 JUMPI DUP3 CALLDATALOAD SWAP2 PUSH2 0x7A5 PUSH2 0x1209 JUMP JUMPDEST DUP3 DUP6 MSTORE PUSH1 0x9 DUP2 MSTORE DUP5 DUP3 DUP2 KECCAK256 PUSH2 0x7BA DUP2 SLOAD PUSH2 0xCBC JUMP JUMPDEST DUP1 PUSH2 0x872 JUMPI JUMPDEST POP POP DUP4 SWAP1 MSTORE PUSH1 0x2 DUP2 MSTORE DUP3 DUP6 PUSH1 0x1 PUSH1 0x1 PUSH1 0xA0 SHL SUB DUP5 DUP3 KECCAK256 SLOAD AND PUSH1 0x2 DUP2 ISZERO SWAP5 DUP6 ISZERO PUSH2 0x83A JUMPI JUMPDEST DUP5 DUP5 MSTORE MSTORE DUP5 DUP3 KECCAK256 PUSH1 0x1 PUSH1 0x1 PUSH1 0xA0 SHL SUB NOT DUP2 SLOAD AND SWAP1 SSTORE PUSH32 0xDDF252AD1BE2C89B69C2B068FC378DAA952BA7F163C4A11628F55A4DF523B3EF DUP3 DUP1 LOG4 PUSH2 0x825 JUMPI DUP4 DUP1 RETURN JUMPDEST PUSH1 0x24 SWAP4 POP MLOAD SWAP2 PUSH4 0x7E273289 PUSH1 0xE0 SHL DUP4 MSTORE DUP3 ADD MSTORE REVERT JUMPDEST PUSH2 0x85B DUP6 PUSH1 0x0 MSTORE PUSH1 0x4 PUSH1 0x20 MSTORE PUSH1 0x40 PUSH1 0x0 KECCAK256 PUSH1 0x1 PUSH1 0x1 PUSH1 0xA0 SHL SUB NOT DUP2 SLOAD AND SWAP1 SSTORE JUMP JUMPDEST DUP3 DUP5 MSTORE PUSH1 0x3 DUP2 MSTORE DUP7 DUP5 KECCAK256 DUP1 SLOAD PUSH1 0x0 NOT ADD SWAP1 SSTORE PUSH2 0x7E4 JUMP JUMPDEST DUP3 PUSH1 0x1F DUP3 GT PUSH1 0x1 EQ PUSH2 0x88A JUMPI POP POP SSTORE JUMPDEST DUP5 CODESIZE DUP1 PUSH2 0x7C0 JUMP JUMPDEST SWAP1 SWAP2 DUP1 DUP3 MSTORE PUSH2 0x8A7 PUSH1 0x1F DUP7 DUP5 KECCAK256 SWAP5 ADD PUSH1 0x5 SHR DUP5 ADD PUSH1 0x1 DUP6 ADD PUSH2 0xECB JUMP JUMPDEST SSTORE SSTORE PUSH2 0x882 JUMP JUMPDEST POP SWAP2 SWAP1 CALLVALUE PUSH2 0x1E6 JUMPI PUSH2 0x8BF CALLDATASIZE PUSH2 0xC33 JUMP JUMPDEST SWAP2 DUP4 MLOAD SWAP4 PUSH1 0x20 DUP6 ADD SWAP1 DUP6 DUP3 LT PUSH8 0xFFFFFFFFFFFFFFFF DUP4 GT OR PUSH2 0x8EA JUMPI PUSH2 0x351 SWAP7 SWAP8 POP MSTORE DUP6 DUP5 MSTORE PUSH2 0x1039 JUMP JUMPDEST PUSH1 0x24 DUP8 PUSH1 0x41 DUP11 PUSH4 0x4E487B71 PUSH1 0xE0 SHL DUP4 MSTORE MSTORE REVERT JUMPDEST DUP4 CALLVALUE PUSH2 0x505 JUMPI PUSH2 0x351 PUSH2 0x90F CALLDATASIZE PUSH2 0xC33 JUMP JUMPDEST SWAP2 PUSH2 0xCF6 JUMP JUMPDEST POP SWAP1 CALLVALUE PUSH2 0x194 JUMPI DUP1 PUSH1 0x3 NOT CALLDATASIZE ADD SLT PUSH2 0x194 JUMPI PUSH2 0x92F PUSH2 0xC02 JUMP JUMPDEST SWAP2 PUSH1 0x24 CALLDATALOAD PUSH2 0x93C DUP2 PUSH2 0x11CE JUMP JUMPDEST CALLER ISZERO ISZERO DUP1 PUSH2 0x9F5 JUMPI JUMPDEST DUP1 PUSH2 0x9CD JUMPI JUMPDEST PUSH2 0x99E JUMPI DUP2 SWAP1 PUSH1 0x1 PUSH1 0x1 PUSH1 0xA0 SHL SUB DUP1 SWAP7 AND SWAP6 DUP7 SWAP2 AND PUSH32 0x8C5BE1E5EBEC7D5BD14F71427D1E84F3DD0314C0F7B2291E5B200AC8C7C3B925 DUP9 DUP1 LOG4 DUP5 MSTORE PUSH1 0x20 MSTORE DUP3 KECCAK256 SWAP1 PUSH1 0x1 PUSH1 0x1 PUSH1 0xA0 SHL SUB NOT DUP3 SLOAD AND OR SWAP1 SSTORE DUP1 RETURN JUMPDEST DUP4 MLOAD PUSH32 0xA9FBF51F00000000000000000000000000000000000000000000000000000000 DUP2 MSTORE CALLER DUP2 DUP6 ADD MSTORE PUSH1 0x24 SWAP1 REVERT JUMPDEST POP PUSH1 0x1 PUSH1 0x1 PUSH1 0xA0 SHL SUB DUP2 AND DUP7 MSTORE PUSH1 0x5 PUSH1 0x20 MSTORE DUP4 DUP7 KECCAK256 CALLER DUP8 MSTORE PUSH1 0x20 MSTORE PUSH1 0xFF DUP5 DUP8 KECCAK256 SLOAD AND ISZERO PUSH2 0x94B JUMP JUMPDEST POP CALLER PUSH1 0x1 PUSH1 0x1 PUSH1 0xA0 SHL SUB DUP3 AND EQ ISZERO PUSH2 0x945 JUMP JUMPDEST POP CALLVALUE PUSH2 0x194 JUMPI PUSH1 0x20 CALLDATASIZE PUSH1 0x3 NOT ADD SLT PUSH2 0x194 JUMPI DUP2 PUSH1 0x20 SWAP4 DUP3 PUSH1 0x1 PUSH1 0x1 PUSH1 0xA0 SHL SUB SWAP4 CALLDATALOAD PUSH2 0xA32 DUP2 PUSH2 0x11CE JUMP JUMPDEST POP DUP3 MSTORE DUP6 MSTORE KECCAK256 SLOAD AND SWAP1 MLOAD SWAP1 DUP2 MSTORE RETURN JUMPDEST DUP3 DUP5 CALLVALUE PUSH2 0x505 JUMPI DUP1 PUSH1 0x3 NOT CALLDATASIZE ADD SLT PUSH2 0x505 JUMPI DUP2 MLOAD SWAP2 DUP3 DUP3 DUP4 SLOAD PUSH2 0xA63 DUP2 PUSH2 0xCBC JUMP JUMPDEST SWAP1 DUP2 DUP5 MSTORE PUSH1 0x20 SWAP6 PUSH1 0x1 SWAP2 DUP8 PUSH1 0x1 DUP3 AND SWAP2 DUP3 PUSH1 0x0 EQ PUSH2 0x4DE JUMPI POP POP PUSH1 0x1 EQ PUSH2 0xA97 JUMPI POP POP POP PUSH2 0x25B SWAP3 SWAP2 PUSH2 0x24C SWAP2 SUB DUP6 PUSH2 0xC68 JUMP JUMPDEST SWAP2 SWAP1 DUP7 SWAP4 POP DUP3 DUP1 MSTORE PUSH32 0x290DECD9548B62A8D60345A988386FC84BA6BC95484008F6362F93160EF3E563 JUMPDEST DUP3 DUP5 LT PUSH2 0xADA JUMPI POP POP POP DUP3 ADD ADD DUP2 PUSH2 0x24C PUSH2 0x25B PUSH2 0x46F JUMP JUMPDEST DUP1 SLOAD DUP5 DUP11 ADD DUP7 ADD MSTORE DUP9 SWAP6 POP DUP8 SWAP5 SWAP1 SWAP4 ADD SWAP3 DUP2 ADD PUSH2 0xAC1 JUMP JUMPDEST SWAP3 POP POP CALLVALUE PUSH2 0x194 JUMPI PUSH1 0x20 CALLDATASIZE PUSH1 0x3 NOT ADD SLT PUSH2 0x194 JUMPI CALLDATALOAD PUSH32 0xFFFFFFFF00000000000000000000000000000000000000000000000000000000 DUP2 AND DUP1 SWAP2 SUB PUSH2 0x194 JUMPI PUSH1 0x20 SWAP3 POP PUSH32 0x80AC58CD00000000000000000000000000000000000000000000000000000000 DUP2 EQ SWAP1 DUP2 ISZERO PUSH2 0xB98 JUMPI JUMPDEST DUP2 ISZERO PUSH2 0xB6E JUMPI JUMPDEST POP ISZERO ISZERO DUP2 MSTORE RETURN JUMPDEST PUSH32 0x1FFC9A700000000000000000000000000000000000000000000000000000000 SWAP2 POP EQ CODESIZE PUSH2 0xB67 JUMP JUMPDEST PUSH32 0x5B5E139F00000000000000000000000000000000000000000000000000000000 DUP2 EQ SWAP2 POP PUSH2 0xB60 JUMP JUMPDEST SWAP2 SWAP1 DUP3 MLOAD SWAP3 DUP4 DUP3 MSTORE PUSH1 0x0 JUMPDEST DUP5 DUP2 LT PUSH2 0xBEE JUMPI POP POP DUP3 PUSH1 0x0 PUSH1 0x20 DUP1 SWAP5 SWAP6 DUP5 ADD ADD MSTORE PUSH1 0x1F DUP1 NOT SWAP2 ADD AND ADD ADD SWAP1 JUMP JUMPDEST PUSH1 0x20 DUP2 DUP4 ADD DUP2 ADD MLOAD DUP5 DUP4 ADD DUP3 ADD MSTORE ADD PUSH2 0xBCD JUMP JUMPDEST PUSH1 0x4 CALLDATALOAD SWAP1 PUSH1 0x1 PUSH1 0x1 PUSH1 0xA0 SHL SUB DUP3 AND DUP3 SUB PUSH2 0xC18 JUMPI JUMP JUMPDEST PUSH1 0x0 DUP1 REVERT JUMPDEST PUSH1 0x24 CALLDATALOAD SWAP1 PUSH1 0x1 PUSH1 0x1 PUSH1 0xA0 SHL SUB DUP3 AND DUP3 SUB PUSH2 0xC18 JUMPI JUMP JUMPDEST PUSH1 0x60 SWAP1 PUSH1 0x3 NOT ADD SLT PUSH2 0xC18 JUMPI PUSH1 0x1 PUSH1 0x1 PUSH1 0xA0 SHL SUB SWAP1 PUSH1 0x4 CALLDATALOAD DUP3 DUP2 AND DUP2 SUB PUSH2 0xC18 JUMPI SWAP2 PUSH1 0x24 CALLDATALOAD SWAP1 DUP2 AND DUP2 SUB PUSH2 0xC18 JUMPI SWAP1 PUSH1 0x44 CALLDATALOAD SWAP1 JUMP JUMPDEST SWAP1 PUSH1 0x1F DUP1 NOT SWAP2 ADD AND DUP2 ADD SWAP1 DUP2 LT PUSH8 0xFFFFFFFFFFFFFFFF DUP3 GT OR PUSH2 0xC8A JUMPI PUSH1 0x40 MSTORE JUMP JUMPDEST PUSH4 0x4E487B71 PUSH1 0xE0 SHL PUSH1 0x0 MSTORE PUSH1 0x41 PUSH1 0x4 MSTORE PUSH1 0x24 PUSH1 0x0 REVERT JUMPDEST PUSH8 0xFFFFFFFFFFFFFFFF DUP2 GT PUSH2 0xC8A JUMPI PUSH1 0x1F ADD PUSH1 0x1F NOT AND PUSH1 0x20 ADD SWAP1 JUMP JUMPDEST SWAP1 PUSH1 0x1 DUP3 DUP2 SHR SWAP3 AND DUP1 ISZERO PUSH2 0xCEC JUMPI JUMPDEST PUSH1 0x20 DUP4 LT EQ PUSH2 0xCD6 JUMPI JUMP JUMPDEST PUSH4 0x4E487B71 PUSH1 0xE0 SHL PUSH1 0x0 MSTORE PUSH1 0x22 PUSH1 0x4 MSTORE PUSH1 0x24 PUSH1 0x0 REVERT JUMPDEST SWAP2 PUSH1 0x7F AND SWAP2 PUSH2 0xCCB JUMP JUMPDEST SWAP1 SWAP2 PUSH1 0x1 PUSH1 0x1 PUSH1 0xA0 SHL SUB DUP1 SWAP4 AND SWAP3 DUP4 ISZERO PUSH2 0xEB3 JUMPI PUSH1 0x0 SWAP3 DUP3 DUP5 MSTORE DUP3 PUSH1 0x20 SWAP6 PUSH1 0x2 DUP8 MSTORE PUSH1 0x40 SWAP7 DUP5 DUP9 DUP9 KECCAK256 SLOAD AND SWAP7 DUP8 SWAP2 CALLER ISZERO ISZERO DUP1 PUSH2 0xE04 JUMPI JUMPDEST POP SWAP1 PUSH1 0x2 PUSH32 0xDDF252AD1BE2C89B69C2B068FC378DAA952BA7F163C4A11628F55A4DF523B3EF SWAP3 DUP5 PUSH2 0xDCC JUMPI JUMPDEST DUP6 DUP4 MSTORE PUSH1 0x3 DUP2 MSTORE DUP12 DUP4 KECCAK256 PUSH1 0x1 DUP2 SLOAD ADD SWAP1 SSTORE DUP7 DUP4 MSTORE MSTORE DUP10 DUP2 KECCAK256 DUP5 PUSH1 0x1 PUSH1 0x1 PUSH1 0xA0 SHL SUB NOT DUP3 SLOAD AND OR SWAP1 SSTORE DUP1 LOG4 AND SWAP3 DUP4 DUP4 SUB PUSH2 0xD92 JUMPI POP POP POP POP JUMP JUMPDEST PUSH1 0x64 SWAP5 POP MLOAD SWAP3 PUSH32 0x64283D7B00000000000000000000000000000000000000000000000000000000 DUP5 MSTORE PUSH1 0x4 DUP5 ADD MSTORE PUSH1 0x24 DUP4 ADD MSTORE PUSH1 0x44 DUP3 ADD MSTORE REVERT JUMPDEST PUSH2 0xDED DUP8 PUSH1 0x0 MSTORE PUSH1 0x4 PUSH1 0x20 MSTORE PUSH1 0x40 PUSH1 0x0 KECCAK256 PUSH1 0x1 PUSH1 0x1 PUSH1 0xA0 SHL SUB NOT DUP2 SLOAD AND SWAP1 SSTORE JUMP JUMPDEST DUP5 DUP4 MSTORE PUSH1 0x3 DUP2 MSTORE DUP12 DUP4 KECCAK256 DUP1 SLOAD PUSH1 0x0 NOT ADD SWAP1 SSTORE PUSH2 0xD59 JUMP JUMPDEST SWAP2 SWAP4 SWAP5 POP SWAP2 POP DUP1 PUSH2 0xE72 JUMPI JUMPDEST ISZERO PUSH2 0xE20 JUMPI DUP6 SWAP3 SWAP2 DUP8 SWAP2 CODESIZE PUSH2 0xD2D JUMP JUMPDEST DUP8 DUP7 DUP9 PUSH2 0xE3D JUMPI PUSH1 0x24 SWAP2 MLOAD SWAP1 PUSH4 0x7E273289 PUSH1 0xE0 SHL DUP3 MSTORE PUSH1 0x4 DUP3 ADD MSTORE REVERT JUMPDEST PUSH1 0x44 SWAP2 MLOAD SWAP1 PUSH32 0x177E802F00000000000000000000000000000000000000000000000000000000 DUP3 MSTORE CALLER PUSH1 0x4 DUP4 ADD MSTORE PUSH1 0x24 DUP3 ADD MSTORE REVERT JUMPDEST POP CALLER DUP8 EQ DUP1 ISZERO PUSH2 0xE97 JUMPI JUMPDEST DUP1 PUSH2 0xE10 JUMPI POP DUP6 DUP3 MSTORE PUSH1 0x4 DUP2 MSTORE CALLER DUP6 DUP10 DUP5 KECCAK256 SLOAD AND EQ PUSH2 0xE10 JUMP JUMPDEST POP DUP7 DUP3 MSTORE PUSH1 0x5 DUP2 MSTORE DUP8 DUP3 KECCAK256 CALLER DUP4 MSTORE DUP2 MSTORE PUSH1 0xFF DUP9 DUP4 KECCAK256 SLOAD AND PUSH2 0xE7D JUMP JUMPDEST PUSH1 0x24 PUSH1 0x40 MLOAD PUSH4 0x32505749 PUSH1 0xE1 SHL DUP2 MSTORE PUSH1 0x0 PUSH1 0x4 DUP3 ADD MSTORE REVERT JUMPDEST DUP2 DUP2 LT PUSH2 0xED6 JUMPI POP POP JUMP JUMPDEST PUSH1 0x0 DUP2 SSTORE PUSH1 0x1 ADD PUSH2 0xECB JUMP JUMPDEST SWAP1 PUSH1 0x8 DUP3 EQ PUSH2 0x1035 JUMPI PUSH2 0xEF6 PUSH1 0x8 SLOAD PUSH2 0xCBC JUMP JUMPDEST SWAP2 PUSH8 0xFFFFFFFFFFFFFFFF DUP4 GT PUSH2 0xC8A JUMPI PUSH2 0xF10 DUP2 SLOAD PUSH2 0xCBC JUMP JUMPDEST PUSH1 0x1F DUP2 GT PUSH2 0xFF8 JUMPI JUMPDEST POP PUSH1 0x0 SWAP3 PUSH1 0x1F DUP2 GT PUSH1 0x1 EQ PUSH2 0xF55 JUMPI DUP1 SWAP2 SWAP3 SWAP4 PUSH1 0x0 SWAP2 PUSH2 0xF49 JUMPI JUMPDEST POP DUP2 PUSH1 0x1 SHL SWAP2 PUSH1 0x0 NOT SWAP1 PUSH1 0x3 SHL SHR NOT AND OR SWAP1 SSTORE JUMP JUMPDEST SWAP1 POP PUSH1 0x8 ADD SLOAD CODESIZE PUSH2 0xF34 JUMP JUMPDEST DUP2 DUP5 MSTORE PUSH1 0x20 DUP1 DUP6 KECCAK256 PUSH1 0x1F NOT DUP4 AND SWAP6 SWAP1 SWAP2 DUP2 SWAP1 JUMPDEST DUP8 DUP3 LT PUSH2 0xFBF JUMPI POP POP DUP3 PUSH1 0x1 SWAP5 SWAP6 SWAP7 LT PUSH2 0xF86 JUMPI JUMPDEST POP POP DUP2 SHL ADD SWAP1 SSTORE JUMP JUMPDEST PUSH32 0xF3F7A9FE364FAAB93B216DA50A3214154F22A0A2B415B23A84C8169E8B636EE3 ADD SLOAD PUSH1 0x0 NOT PUSH1 0xF8 DUP5 PUSH1 0x3 SHL AND SHR NOT AND SWAP1 SSTORE CODESIZE DUP1 PUSH2 0xF7D JUMP JUMPDEST DUP3 SWAP4 DUP2 SWAP3 SWAP4 PUSH32 0xF3F7A9FE364FAAB93B216DA50A3214154F22A0A2B415B23A84C8169E8B636EE3 ADD SLOAD DUP2 SSTORE PUSH1 0x1 DUP1 SWAP2 ADD SWAP5 ADD SWAP3 ADD SWAP1 PUSH2 0xF68 JUMP JUMPDEST PUSH2 0x1025 SWAP1 DUP3 PUSH1 0x0 MSTORE PUSH1 0x20 PUSH1 0x0 KECCAK256 PUSH1 0x1F DUP7 ADD PUSH1 0x5 SHR DUP2 ADD SWAP2 PUSH1 0x20 DUP8 LT PUSH2 0x102B JUMPI JUMPDEST PUSH1 0x1F ADD PUSH1 0x5 SHR ADD SWAP1 PUSH2 0xECB JUMP JUMPDEST CODESIZE PUSH2 0xF19 JUMP JUMPDEST SWAP1 SWAP2 POP DUP2 SWAP1 PUSH2 0x1018 JUMP JUMPDEST SWAP1 POP JUMP JUMPDEST PUSH2 0x1044 DUP4 DUP4 DUP4 PUSH2 0xCF6 JUMP JUMPDEST DUP2 EXTCODESIZE PUSH2 0x1051 JUMPI JUMPDEST POP POP POP POP JUMP JUMPDEST PUSH1 0x1 PUSH1 0x1 PUSH1 0xA0 SHL SUB SWAP5 SWAP2 SWAP3 SWAP4 SWAP5 DUP1 SWAP4 AND SWAP4 PUSH1 0x40 MLOAD SWAP4 PUSH32 0x150B7A0200000000000000000000000000000000000000000000000000000000 SWAP3 DUP4 DUP7 MSTORE CALLER PUSH1 0x4 DUP8 ADD MSTORE AND PUSH1 0x24 DUP6 ADD MSTORE PUSH1 0x44 DUP5 ADD MSTORE PUSH1 0x80 PUSH1 0x64 DUP5 ADD MSTORE DUP3 PUSH2 0x10B4 PUSH1 0x20 SWAP7 PUSH1 0x84 DUP4 ADD SWAP1 PUSH2 0xBC2 JUMP JUMPDEST SUB SWAP3 DUP6 DUP2 PUSH1 0x0 SWAP6 DUP2 DUP8 DUP10 GAS CALL DUP5 SWAP2 DUP2 PUSH2 0x1176 JUMPI JUMPDEST POP PUSH2 0x1127 JUMPI POP POP POP RETURNDATASIZE PUSH1 0x0 EQ PUSH2 0x111F JUMPI RETURNDATASIZE PUSH2 0x10E2 DUP2 PUSH2 0xCA0 JUMP JUMPDEST SWAP1 PUSH2 0x10F0 PUSH1 0x40 MLOAD SWAP3 DUP4 PUSH2 0xC68 JUMP JUMPDEST DUP2 MSTORE DUP1 SWAP2 DUP5 RETURNDATASIZE SWAP3 ADD RETURNDATACOPY JUMPDEST DUP1 MLOAD SWAP3 DUP4 PUSH2 0x111A JUMPI PUSH1 0x24 DUP4 PUSH1 0x40 MLOAD SWAP1 PUSH4 0x32505749 PUSH1 0xE1 SHL DUP3 MSTORE PUSH1 0x4 DUP3 ADD MSTORE REVERT JUMPDEST ADD SWAP1 POP REVERT JUMPDEST POP PUSH1 0x60 PUSH2 0x10FA JUMP JUMPDEST SWAP1 SWAP3 POP PUSH32 0xFFFFFFFF00000000000000000000000000000000000000000000000000000000 SWAP2 SWAP5 POP AND SUB PUSH2 0x115E JUMPI POP CODESIZE DUP1 DUP1 DUP1 PUSH2 0x104B JUMP JUMPDEST PUSH1 0x24 SWAP1 PUSH1 0x40 MLOAD SWAP1 PUSH4 0x32505749 PUSH1 0xE1 SHL DUP3 MSTORE PUSH1 0x4 DUP3 ADD MSTORE REVERT JUMPDEST SWAP1 SWAP2 POP DUP7 DUP2 DUP2 RETURNDATASIZE DUP4 GT PUSH2 0x11C7 JUMPI JUMPDEST PUSH2 0x118E DUP2 DUP4 PUSH2 0xC68 JUMP JUMPDEST DUP2 ADD SUB SLT PUSH2 0x425 JUMPI MLOAD PUSH32 0xFFFFFFFF00000000000000000000000000000000000000000000000000000000 DUP2 AND DUP2 SUB PUSH2 0x425 JUMPI SWAP1 CODESIZE PUSH2 0x10C8 JUMP JUMPDEST POP RETURNDATASIZE PUSH2 0x1184 JUMP JUMPDEST DUP1 PUSH1 0x0 MSTORE PUSH1 0x2 PUSH1 0x20 MSTORE PUSH1 0x1 PUSH1 0x1 PUSH1 0xA0 SHL SUB PUSH1 0x40 PUSH1 0x0 KECCAK256 SLOAD AND SWAP1 DUP2 ISZERO PUSH2 0x11F1 JUMPI POP SWAP1 JUMP JUMPDEST PUSH1 0x24 SWAP1 PUSH1 0x40 MLOAD SWAP1 PUSH4 0x7E273289 PUSH1 0xE0 SHL DUP3 MSTORE PUSH1 0x4 DUP3 ADD MSTORE REVERT JUMPDEST PUSH1 0x1 PUSH1 0x1 PUSH1 0xA0 SHL SUB PUSH1 0x6 SLOAD AND CALLER SUB PUSH2 0x121D JUMPI JUMP JUMPDEST PUSH1 0x24 PUSH1 0x40 MLOAD PUSH32 0x118CDAA700000000000000000000000000000000000000000000000000000000 DUP2 MSTORE CALLER PUSH1 0x4 DUP3 ADD MSTORE REVERT INVALID LOG2 PUSH5 0x6970667358 0x22 SLT KECCAK256 0xBD MSTORE8 0xB3 0x26 MSTORE 0x29 CALL 0x22 SHL MSTORE 0xEB 0x2D MULMOD PUSH3 0x444759 0x2B DUP4 BLOBBASEFEE 0xEA BLOCKHASH PUSH18 0x37417FCE63F044C68C64736F6C6343000818 STOP CALLER PUSH1 0x80 PUSH1 0x40 MSTORE CALLVALUE PUSH3 0x50D JUMPI PUSH3 0x1832 DUP1 CODESIZE SUB DUP1 PUSH3 0x1D DUP2 PUSH3 0x512 JUMP JUMPDEST SWAP3 DUP4 CODECOPY DUP2 ADD SWAP1 PUSH1 0xA0 DUP2 DUP4 SUB SLT PUSH3 0x50D JUMPI DUP1 MLOAD PUSH1 0x1 PUSH1 0x1 PUSH1 0xA0 SHL SUB DUP1 DUP3 AND SWAP4 SWAP2 DUP5 SWAP1 SUB PUSH3 0x50D JUMPI PUSH1 0x20 DUP4 DUP2 ADD MLOAD SWAP1 SWAP5 PUSH1 0x1 PUSH1 0x1 PUSH1 0x40 SHL SUB SWAP5 SWAP1 SWAP2 DUP6 DUP2 GT PUSH3 0x50D JUMPI DUP5 PUSH3 0x6E SWAP2 DUP4 ADD PUSH3 0x538 JUMP JUMPDEST SWAP4 PUSH1 0x40 DUP3 ADD MLOAD DUP7 DUP2 GT PUSH3 0x50D JUMPI DUP2 PUSH3 0x8A SWAP2 DUP5 ADD PUSH3 0x538 JUMP JUMPDEST SWAP2 PUSH1 0x60 DUP2 ADD MLOAD SWAP2 PUSH1 0x80 DUP3 ADD MLOAD DUP9 DUP2 GT PUSH3 0x50D JUMPI PUSH3 0xAA SWAP3 ADD PUSH3 0x538 JUMP JUMPDEST SWAP3 DUP6 MLOAD SWAP5 DUP8 DUP7 GT PUSH3 0x4F7 JUMPI PUSH1 0x0 SWAP4 DUP5 SLOAD SWAP7 PUSH1 0x1 SWAP9 DUP10 DUP10 DUP2 SHR SWAP10 AND DUP1 ISZERO PUSH3 0x4EC JUMPI JUMPDEST DUP13 DUP11 LT EQ PUSH3 0x3EF JUMPI DUP2 SWAP1 DUP13 PUSH1 0x1F SWAP11 DUP12 DUP2 GT PUSH3 0x496 JUMPI JUMPDEST POP POP DUP13 SWAP1 DUP14 DUP12 DUP5 GT PUSH1 0x1 EQ PUSH3 0x42E JUMPI POP DUP9 SWAP3 PUSH3 0x422 JUMPI JUMPDEST POP POP PUSH1 0x0 NOT PUSH1 0x3 DUP4 SWAP1 SHL SHR NOT AND SWAP1 DUP10 SHL OR DUP6 SSTORE JUMPDEST DUP1 MLOAD SWAP1 DUP10 DUP3 GT PUSH3 0x40E JUMPI DUP9 SLOAD DUP10 DUP2 DUP2 SHR SWAP2 AND DUP1 ISZERO PUSH3 0x403 JUMPI JUMPDEST DUP13 DUP3 LT EQ PUSH3 0x3EF JUMPI SWAP1 DUP12 DUP3 DUP11 DUP6 SWAP5 GT PUSH3 0x399 JUMPI JUMPDEST POP POP DUP12 SWAP1 DUP10 DUP4 GT PUSH1 0x1 EQ PUSH3 0x332 JUMPI DUP8 SWAP3 PUSH3 0x326 JUMPI JUMPDEST POP POP PUSH1 0x0 NOT PUSH1 0x3 DUP4 SWAP1 SHL SHR NOT AND SWAP1 DUP9 SHL OR DUP8 SSTORE JUMPDEST DUP2 ISZERO PUSH3 0x30D JUMPI PUSH1 0x6 DUP1 SLOAD PUSH1 0x1 PUSH1 0x1 PUSH1 0xA0 SHL SUB NOT DUP2 AND DUP5 OR SWAP1 SWAP2 SSTORE AND PUSH32 0x8BE0079C531659141344CD1FD0A4F28419497F9722A3DAAFE3B4186F6B6457E0 DUP5 DUP1 LOG3 PUSH1 0x8 SSTORE DUP2 MLOAD SWAP5 DUP6 GT PUSH3 0x2F9 JUMPI PUSH1 0x9 SLOAD DUP5 DUP2 DUP2 SHR SWAP2 AND DUP1 ISZERO PUSH3 0x2EE JUMPI JUMPDEST DUP8 DUP3 LT EQ PUSH3 0x2DA JUMPI DUP4 DUP2 GT PUSH3 0x291 JUMPI JUMPDEST POP DUP6 SWAP3 DUP6 GT PUSH1 0x1 EQ PUSH3 0x228 JUMPI SWAP4 SWAP5 POP DUP5 SWAP3 SWAP2 SWAP1 DUP4 PUSH3 0x21C JUMPI JUMPDEST POP POP SHL SWAP2 PUSH1 0x0 NOT SWAP1 PUSH1 0x3 SHL SHR NOT AND OR PUSH1 0x9 SSTORE JUMPDEST PUSH1 0x40 MLOAD PUSH2 0x1287 SWAP1 DUP2 PUSH3 0x5AB DUP3 CODECOPY RETURN JUMPDEST ADD MLOAD SWAP3 POP CODESIZE DUP1 PUSH3 0x1F9 JUMP JUMPDEST PUSH1 0x9 DUP2 MSTORE DUP6 DUP2 KECCAK256 SWAP4 SWAP6 DUP6 SWAP2 PUSH1 0x1F NOT DUP4 AND SWAP2 JUMPDEST DUP9 DUP4 DUP4 LT PUSH3 0x276 JUMPI POP POP POP LT PUSH3 0x25C JUMPI JUMPDEST POP POP POP DUP2 SHL ADD PUSH1 0x9 SSTORE PUSH3 0x20C JUMP JUMPDEST ADD MLOAD PUSH1 0x0 NOT PUSH1 0xF8 DUP5 PUSH1 0x3 SHL AND SHR NOT AND SWAP1 SSTORE CODESIZE DUP1 DUP1 PUSH3 0x24D JUMP JUMPDEST DUP6 DUP8 ADD MLOAD DUP9 SSTORE SWAP1 SWAP7 ADD SWAP6 SWAP5 DUP6 ADD SWAP5 DUP8 SWAP4 POP SWAP1 DUP2 ADD SWAP1 PUSH3 0x23A JUMP JUMPDEST PUSH1 0x9 DUP3 MSTORE DUP7 DUP3 KECCAK256 DUP5 DUP1 DUP9 ADD PUSH1 0x5 SHR DUP3 ADD SWAP3 DUP10 DUP10 LT PUSH3 0x2D0 JUMPI JUMPDEST ADD PUSH1 0x5 SHR ADD SWAP1 DUP6 SWAP1 JUMPDEST DUP3 DUP2 LT PUSH3 0x2C4 JUMPI POP POP PUSH3 0x1DE JUMP JUMPDEST DUP4 DUP2 SSTORE ADD DUP6 SWAP1 PUSH3 0x2B4 JUMP JUMPDEST SWAP3 POP DUP2 SWAP3 PUSH3 0x2AB JUMP JUMPDEST PUSH4 0x4E487B71 PUSH1 0xE0 SHL DUP3 MSTORE PUSH1 0x22 PUSH1 0x4 MSTORE PUSH1 0x24 DUP3 REVERT JUMPDEST SWAP1 PUSH1 0x7F AND SWAP1 PUSH3 0x1CC JUMP JUMPDEST PUSH4 0x4E487B71 PUSH1 0xE0 SHL DUP2 MSTORE PUSH1 0x41 PUSH1 0x4 MSTORE PUSH1 0x24 SWAP1 REVERT JUMPDEST PUSH1 0x40 MLOAD PUSH4 0x1E4FBDF7 PUSH1 0xE0 SHL DUP2 MSTORE PUSH1 0x4 DUP2 ADD DUP6 SWAP1 MSTORE PUSH1 0x24 SWAP1 REVERT JUMPDEST ADD MLOAD SWAP1 POP CODESIZE DUP1 PUSH3 0x15A JUMP JUMPDEST DUP11 DUP9 MSTORE DUP13 DUP9 KECCAK256 DUP12 SWAP5 POP SWAP2 SWAP1 PUSH1 0x1F NOT DUP5 AND DUP10 DUP16 JUMPDEST DUP3 DUP3 LT PUSH3 0x37F JUMPI POP POP DUP5 GT PUSH3 0x365 JUMPI JUMPDEST POP POP POP DUP2 SHL ADD DUP8 SSTORE PUSH3 0x16E JUMP JUMPDEST ADD MLOAD PUSH1 0x0 NOT PUSH1 0xF8 DUP5 PUSH1 0x3 SHL AND SHR NOT AND SWAP1 SSTORE CODESIZE DUP1 DUP1 PUSH3 0x357 JUMP JUMPDEST DUP5 DUP5 ADD MLOAD DUP7 SSTORE DUP15 SWAP8 SWAP1 SWAP6 ADD SWAP5 SWAP4 DUP5 ADD SWAP4 SWAP1 DUP2 ADD SWAP1 PUSH3 0x345 JUMP JUMPDEST SWAP1 SWAP2 SWAP3 POP DUP11 DUP9 MSTORE DUP10 DUP3 DUP10 KECCAK256 SWAP2 DUP2 DUP7 ADD PUSH1 0x5 SHR DUP4 ADD SWAP4 DUP7 LT PUSH3 0x3E5 JUMPI JUMPDEST SWAP2 DUP13 SWAP2 DUP7 SWAP6 SWAP5 SWAP4 ADD PUSH1 0x5 SHR ADD SWAP2 JUMPDEST DUP3 DUP2 LT PUSH3 0x3D6 JUMPI POP DUP14 SWAP2 POP PUSH3 0x143 JUMP JUMPDEST DUP10 DUP2 SSTORE DUP6 SWAP5 POP DUP13 SWAP2 ADD PUSH3 0x3C4 JUMP JUMPDEST SWAP3 POP DUP2 SWAP3 PUSH3 0x3B6 JUMP JUMPDEST PUSH4 0x4E487B71 PUSH1 0xE0 SHL DUP8 MSTORE PUSH1 0x22 PUSH1 0x4 MSTORE PUSH1 0x24 DUP8 REVERT JUMPDEST SWAP1 PUSH1 0x7F AND SWAP1 PUSH3 0x12D JUMP JUMPDEST PUSH4 0x4E487B71 PUSH1 0xE0 SHL DUP7 MSTORE PUSH1 0x41 PUSH1 0x4 MSTORE PUSH1 0x24 DUP7 REVERT JUMPDEST ADD MLOAD SWAP1 POP CODESIZE DUP1 PUSH3 0xFE JUMP JUMPDEST SWAP2 SWAP1 DUP13 SWAP5 POP PUSH1 0x1F NOT DUP5 AND DUP11 DUP1 MSTORE DUP4 DUP12 KECCAK256 SWAP4 DUP12 SWAP1 JUMPDEST DUP3 DUP3 LT PUSH3 0x47C JUMPI POP POP DUP5 GT PUSH3 0x462 JUMPI JUMPDEST POP POP POP DUP2 SHL ADD DUP6 SSTORE PUSH3 0x112 JUMP JUMPDEST ADD MLOAD PUSH1 0x0 NOT PUSH1 0xF8 DUP5 PUSH1 0x3 SHL AND SHR NOT AND SWAP1 SSTORE CODESIZE DUP1 DUP1 PUSH3 0x454 JUMP JUMPDEST DUP5 DUP5 ADD MLOAD DUP7 SSTORE DUP16 SWAP8 SWAP1 SWAP6 ADD SWAP5 SWAP4 DUP5 ADD SWAP4 SWAP1 DUP2 ADD SWAP1 PUSH3 0x442 JUMP JUMPDEST SWAP1 SWAP2 SWAP3 POP DUP9 DUP1 MSTORE DUP11 DUP3 DUP11 KECCAK256 SWAP2 DUP2 DUP7 ADD PUSH1 0x5 SHR DUP4 ADD SWAP4 DUP7 LT PUSH3 0x4E2 JUMPI JUMPDEST SWAP2 DUP14 SWAP2 DUP7 SWAP6 SWAP5 SWAP4 ADD PUSH1 0x5 SHR ADD SWAP2 JUMPDEST DUP3 DUP2 LT PUSH3 0x4D3 JUMPI POP DUP15 SWAP2 POP PUSH3 0xE5 JUMP JUMPDEST DUP11 DUP2 SSTORE DUP6 SWAP5 POP DUP14 SWAP2 ADD PUSH3 0x4C1 JUMP JUMPDEST SWAP3 POP DUP2 SWAP3 PUSH3 0x4B3 JUMP JUMPDEST SWAP9 PUSH1 0x7F AND SWAP9 PUSH3 0xCD JUMP JUMPDEST PUSH4 0x4E487B71 PUSH1 0xE0 SHL PUSH1 0x0 MSTORE PUSH1 0x41 PUSH1 0x4 MSTORE PUSH1 0x24 PUSH1 0x0 REVERT JUMPDEST PUSH1 0x0 DUP1 REVERT JUMPDEST PUSH1 0x40 MLOAD SWAP2 SWAP1 PUSH1 0x1F ADD PUSH1 0x1F NOT AND DUP3 ADD PUSH1 0x1 PUSH1 0x1 PUSH1 0x40 SHL SUB DUP2 GT DUP4 DUP3 LT OR PUSH3 0x4F7 JUMPI PUSH1 0x40 MSTORE JUMP JUMPDEST SWAP2 SWAP1 DUP1 PUSH1 0x1F DUP5 ADD SLT ISZERO PUSH3 0x50D JUMPI DUP3 MLOAD PUSH1 0x1 PUSH1 0x1 PUSH1 0x40 SHL SUB DUP2 GT PUSH3 0x4F7 JUMPI PUSH1 0x20 SWAP1 PUSH3 0x56E PUSH1 0x1F DUP3 ADD PUSH1 0x1F NOT AND DUP4 ADD PUSH3 0x512 JUMP JUMPDEST SWAP3 DUP2 DUP5 MSTORE DUP3 DUP3 DUP8 ADD ADD GT PUSH3 0x50D JUMPI PUSH1 0x0 JUMPDEST DUP2 DUP2 LT PUSH3 0x596 JUMPI POP DUP3 PUSH1 0x0 SWAP4 SWAP5 SWAP6 POP ADD ADD MSTORE SWAP1 JUMP JUMPDEST DUP6 DUP2 ADD DUP4 ADD MLOAD DUP5 DUP3 ADD DUP5 ADD MSTORE DUP3 ADD PUSH3 0x580 JUMP INVALID PUSH1 0x80 PUSH1 0x40 DUP2 DUP2 MSTORE PUSH1 0x4 DUP1 CALLDATASIZE LT ISZERO PUSH2 0x15 JUMPI PUSH1 0x0 DUP1 REVERT JUMPDEST PUSH1 0x0 SWAP3 DUP4 CALLDATALOAD PUSH1 0xE0 SHR SWAP1 DUP2 PUSH4 0x1FFC9A7 EQ PUSH2 0xAF6 JUMPI POP DUP1 PUSH4 0x6FDDE03 EQ PUSH2 0xA45 JUMPI DUP1 PUSH4 0x81812FC EQ PUSH2 0xA0C JUMPI DUP1 PUSH4 0x95EA7B3 EQ PUSH2 0x919 JUMPI DUP1 PUSH4 0x23B872DD EQ PUSH2 0x901 JUMPI DUP1 PUSH4 0x42842E0E EQ PUSH2 0x8B2 JUMPI DUP1 PUSH4 0x42966C68 EQ PUSH2 0x789 JUMPI DUP1 PUSH4 0x6352211E EQ PUSH2 0x759 JUMPI DUP1 PUSH4 0x6A627842 EQ PUSH2 0x5FD JUMPI DUP1 PUSH4 0x70A08231 EQ PUSH2 0x58F JUMPI DUP1 PUSH4 0x715018A6 EQ PUSH2 0x534 JUMPI DUP1 PUSH4 0x8DA5CB5B EQ PUSH2 0x50C JUMPI DUP1 PUSH4 0x95D89B41 EQ PUSH2 0x42D JUMPI DUP1 PUSH4 0xA22CB465 EQ PUSH2 0x373 JUMPI DUP1 PUSH4 0xA7F93EBD EQ PUSH2 0x354 JUMPI DUP1 PUSH4 0xB88D4FDE EQ PUSH2 0x2CB JUMPI DUP1 PUSH4 0xC87B56DD EQ PUSH2 0x1EA JUMPI DUP1 PUSH4 0xE985E9C5 EQ PUSH2 0x198 JUMPI PUSH4 0xF2FDE38B EQ PUSH2 0xF4 JUMPI PUSH1 0x0 DUP1 REVERT JUMPDEST CALLVALUE PUSH2 0x194 JUMPI PUSH1 0x20 CALLDATASIZE PUSH1 0x3 NOT ADD SLT PUSH2 0x194 JUMPI PUSH2 0x10D PUSH2 0xC06 JUMP JUMPDEST SWAP1 PUSH2 0x116 PUSH2 0x120D JUMP JUMPDEST PUSH1 0x1 PUSH1 0x1 PUSH1 0xA0 SHL SUB DUP1 SWAP3 AND SWAP3 DUP4 ISZERO PUSH2 0x165 JUMPI POP POP PUSH1 0x6 SLOAD DUP3 PUSH1 0x1 PUSH1 0x1 PUSH1 0xA0 SHL SUB NOT DUP3 AND OR PUSH1 0x6 SSTORE AND PUSH32 0x8BE0079C531659141344CD1FD0A4F28419497F9722A3DAAFE3B4186F6B6457E0 DUP4 DUP1 LOG3 DUP1 RETURN JUMPDEST SWAP1 DUP5 PUSH1 0x24 SWAP3 MLOAD SWAP2 PUSH32 0x1E4FBDF700000000000000000000000000000000000000000000000000000000 DUP4 MSTORE DUP3 ADD MSTORE REVERT JUMPDEST DUP3 DUP1 REVERT JUMPDEST POP POP CALLVALUE PUSH2 0x1E6 JUMPI DUP1 PUSH1 0x3 NOT CALLDATASIZE ADD SLT PUSH2 0x1E6 JUMPI PUSH1 0xFF DUP2 PUSH1 0x20 SWAP4 PUSH2 0x1B8 PUSH2 0xC06 JUMP JUMPDEST PUSH2 0x1C0 PUSH2 0xC21 JUMP JUMPDEST PUSH1 0x1 PUSH1 0x1 PUSH1 0xA0 SHL SUB SWAP2 DUP3 AND DUP4 MSTORE PUSH1 0x5 DUP8 MSTORE DUP4 DUP4 KECCAK256 SWAP2 AND DUP3 MSTORE DUP6 MSTORE KECCAK256 SLOAD SWAP2 MLOAD SWAP2 AND ISZERO ISZERO DUP2 MSTORE RETURN JUMPDEST POP DUP1 REVERT JUMPDEST POP SWAP1 CALLVALUE PUSH2 0x194 JUMPI PUSH1 0x20 SWAP2 DUP3 PUSH1 0x3 NOT CALLDATASIZE ADD SLT PUSH2 0x2C7 JUMPI CALLDATALOAD DUP4 MSTORE PUSH1 0xA DUP3 MSTORE DUP1 DUP4 KECCAK256 DUP2 MLOAD SWAP4 DUP5 SWAP2 DUP2 DUP2 SLOAD SWAP1 PUSH2 0x21B DUP3 PUSH2 0xCC0 JUMP JUMPDEST SWAP3 DUP4 DUP7 MSTORE PUSH1 0x1 SWAP3 DUP9 PUSH1 0x1 DUP3 AND SWAP2 DUP3 PUSH1 0x0 EQ PUSH2 0x29D JUMPI POP POP PUSH1 0x1 EQ PUSH2 0x25F JUMPI JUMPDEST DUP6 DUP9 PUSH2 0x25B DUP10 PUSH2 0x24C DUP5 DUP11 SUB DUP6 PUSH2 0xC6C JUMP JUMPDEST MLOAD SWAP3 DUP3 DUP5 SWAP4 DUP5 MSTORE DUP4 ADD SWAP1 PUSH2 0xBC6 JUMP JUMPDEST SUB SWAP1 RETURN JUMPDEST DUP8 SWAP5 POP DUP2 SWAP4 SWAP3 SWAP2 MSTORE DUP4 DUP4 KECCAK256 JUMPDEST DUP3 DUP5 LT PUSH2 0x285 JUMPI POP POP POP DUP3 ADD ADD DUP2 PUSH2 0x24C PUSH2 0x25B CODESIZE PUSH2 0x23A JUMP JUMPDEST DUP1 SLOAD DUP5 DUP11 ADD DUP7 ADD MSTORE DUP9 SWAP6 POP DUP8 SWAP5 SWAP1 SWAP4 ADD SWAP3 DUP2 ADD PUSH2 0x26B JUMP JUMPDEST PUSH1 0xFF NOT AND DUP9 DUP3 ADD MSTORE SWAP5 ISZERO ISZERO PUSH1 0x5 SHL DUP8 ADD SWAP1 SWAP5 ADD SWAP5 POP DUP6 SWAP4 POP PUSH2 0x24C SWAP3 POP PUSH2 0x25B SWAP2 POP CODESIZE SWAP1 POP PUSH2 0x23A JUMP JUMPDEST DUP4 DUP1 REVERT JUMPDEST POP SWAP1 CALLVALUE PUSH2 0x194 JUMPI PUSH1 0x80 CALLDATASIZE PUSH1 0x3 NOT ADD SLT PUSH2 0x194 JUMPI PUSH2 0x2E6 PUSH2 0xC06 JUMP JUMPDEST PUSH2 0x2EE PUSH2 0xC21 JUMP JUMPDEST DUP5 PUSH1 0x64 CALLDATALOAD SWAP5 PUSH8 0xFFFFFFFFFFFFFFFF DUP7 GT PUSH2 0x1E6 JUMPI CALLDATASIZE PUSH1 0x23 DUP8 ADD SLT ISZERO PUSH2 0x1E6 JUMPI DUP6 ADD CALLDATALOAD SWAP5 PUSH2 0x326 PUSH2 0x31D DUP8 PUSH2 0xCA4 JUMP JUMPDEST SWAP6 MLOAD SWAP6 DUP7 PUSH2 0xC6C JUMP JUMPDEST DUP6 DUP6 MSTORE CALLDATASIZE PUSH1 0x24 DUP8 DUP4 ADD ADD GT PUSH2 0x1E6 JUMPI DUP6 PUSH2 0x351 SWAP7 PUSH1 0x24 PUSH1 0x20 SWAP4 ADD DUP4 DUP9 ADD CALLDATACOPY DUP6 ADD ADD MSTORE PUSH1 0x44 CALLDATALOAD SWAP2 PUSH2 0x103D JUMP JUMPDEST DUP1 RETURN JUMPDEST POP POP CALLVALUE PUSH2 0x1E6 JUMPI DUP2 PUSH1 0x3 NOT CALLDATASIZE ADD SLT PUSH2 0x1E6 JUMPI PUSH1 0x20 SWAP1 PUSH1 0x8 SLOAD SWAP1 MLOAD SWAP1 DUP2 MSTORE RETURN JUMPDEST POP SWAP1 CALLVALUE PUSH2 0x194 JUMPI DUP1 PUSH1 0x3 NOT CALLDATASIZE ADD SLT PUSH2 0x194 JUMPI PUSH2 0x38D PUSH2 0xC06 JUMP JUMPDEST SWAP1 PUSH1 0x24 CALLDATALOAD SWAP2 DUP3 ISZERO ISZERO DUP1 SWAP4 SUB PUSH2 0x429 JUMPI PUSH1 0x1 PUSH1 0x1 PUSH1 0xA0 SHL SUB AND SWAP3 DUP4 ISZERO PUSH2 0x3FB JUMPI POP CALLER DUP5 MSTORE PUSH1 0x5 PUSH1 0x20 MSTORE DUP1 DUP5 KECCAK256 DUP4 DUP6 MSTORE PUSH1 0x20 MSTORE DUP1 DUP5 KECCAK256 PUSH1 0xFF NOT DUP2 SLOAD AND PUSH1 0xFF DUP5 AND OR SWAP1 SSTORE MLOAD SWAP1 DUP2 MSTORE PUSH32 0x17307EAB39AB6107E8899845AD3D59BD9653F200F220920489CA2B5937696C31 PUSH1 0x20 CALLER SWAP3 LOG3 DUP1 RETURN JUMPDEST DUP4 PUSH1 0x24 SWAP3 MLOAD SWAP2 PUSH32 0x5B08BA1800000000000000000000000000000000000000000000000000000000 DUP4 MSTORE DUP3 ADD MSTORE REVERT JUMPDEST DUP5 DUP1 REVERT JUMPDEST DUP3 DUP5 CALLVALUE PUSH2 0x509 JUMPI DUP1 PUSH1 0x3 NOT CALLDATASIZE ADD SLT PUSH2 0x509 JUMPI DUP2 MLOAD SWAP2 DUP3 DUP3 PUSH1 0x1 SWAP4 PUSH1 0x1 SLOAD SWAP5 PUSH2 0x454 DUP7 PUSH2 0xCC0 JUMP JUMPDEST SWAP2 DUP3 DUP6 MSTORE PUSH1 0x20 SWAP7 DUP8 PUSH1 0x1 DUP3 AND SWAP2 DUP3 PUSH1 0x0 EQ PUSH2 0x4E2 JUMPI POP POP PUSH1 0x1 EQ PUSH2 0x486 JUMPI JUMPDEST POP POP POP PUSH2 0x25B SWAP3 SWAP2 PUSH2 0x24C SWAP2 SUB DUP6 PUSH2 0xC6C JUMP JUMPDEST SWAP2 SWAP1 DUP7 SWAP4 POP PUSH1 0x1 DUP4 MSTORE PUSH32 0xB10E2D527612073B26EECDFD717E6A320CF44B4AFAC2B0732D9FCBE2B7FA0CF6 JUMPDEST DUP3 DUP5 LT PUSH2 0x4CA JUMPI POP POP POP DUP3 ADD ADD DUP2 PUSH2 0x24C PUSH2 0x25B PUSH2 0x473 JUMP JUMPDEST DUP1 SLOAD DUP5 DUP11 ADD DUP7 ADD MSTORE DUP9 SWAP6 POP DUP8 SWAP5 SWAP1 SWAP4 ADD SWAP3 DUP2 ADD PUSH2 0x4B1 JUMP JUMPDEST PUSH1 0xFF NOT AND DUP8 DUP3 ADD MSTORE SWAP4 ISZERO ISZERO PUSH1 0x5 SHL DUP7 ADD SWAP1 SWAP4 ADD SWAP4 POP DUP5 SWAP3 POP PUSH2 0x24C SWAP2 POP PUSH2 0x25B SWAP1 POP PUSH2 0x473 JUMP JUMPDEST DUP1 REVERT JUMPDEST POP POP CALLVALUE PUSH2 0x1E6 JUMPI DUP2 PUSH1 0x3 NOT CALLDATASIZE ADD SLT PUSH2 0x1E6 JUMPI PUSH1 0x20 SWAP1 PUSH1 0x1 PUSH1 0x1 PUSH1 0xA0 SHL SUB PUSH1 0x6 SLOAD AND SWAP1 MLOAD SWAP1 DUP2 MSTORE RETURN JUMPDEST DUP4 CALLVALUE PUSH2 0x509 JUMPI DUP1 PUSH1 0x3 NOT CALLDATASIZE ADD SLT PUSH2 0x509 JUMPI PUSH2 0x54D PUSH2 0x120D JUMP JUMPDEST DUP1 PUSH1 0x1 PUSH1 0x1 PUSH1 0xA0 SHL SUB PUSH1 0x6 SLOAD PUSH1 0x1 PUSH1 0x1 PUSH1 0xA0 SHL SUB NOT DUP2 AND PUSH1 0x6 SSTORE AND PUSH32 0x8BE0079C531659141344CD1FD0A4F28419497F9722A3DAAFE3B4186F6B6457E0 DUP3 DUP1 LOG3 DUP1 RETURN JUMPDEST POP SWAP2 CALLVALUE PUSH2 0x509 JUMPI PUSH1 0x20 CALLDATASIZE PUSH1 0x3 NOT ADD SLT PUSH2 0x509 JUMPI PUSH1 0x1 PUSH1 0x1 PUSH1 0xA0 SHL SUB PUSH2 0x5B2 PUSH2 0xC06 JUMP JUMPDEST AND SWAP3 DUP4 ISZERO PUSH2 0x5CF JUMPI POP DUP1 PUSH1 0x20 SWAP4 DUP4 SWAP3 MSTORE PUSH1 0x3 DUP5 MSTORE KECCAK256 SLOAD SWAP1 MLOAD SWAP1 DUP2 MSTORE RETURN JUMPDEST SWAP1 PUSH1 0x24 SWAP3 MLOAD SWAP2 PUSH32 0x89C62B6400000000000000000000000000000000000000000000000000000000 DUP4 MSTORE DUP3 ADD MSTORE REVERT JUMPDEST POP DUP3 CALLVALUE PUSH2 0x509 JUMPI PUSH1 0x20 SWAP3 DUP4 PUSH1 0x3 NOT CALLDATASIZE ADD SLT PUSH2 0x1E6 JUMPI PUSH2 0x61A PUSH2 0xC06 JUMP JUMPDEST PUSH2 0x622 PUSH2 0x120D JUMP JUMPDEST PUSH1 0x7 SLOAD PUSH1 0x1 PUSH1 0x1 PUSH1 0xA0 SHL SUB DUP1 SWAP3 AND SWAP2 DUP3 ISZERO PUSH2 0x743 JUMPI DUP2 DUP6 MSTORE PUSH1 0x2 DUP8 MSTORE DUP4 DUP6 KECCAK256 SLOAD AND SWAP2 DUP3 ISZERO ISZERO SWAP3 DUP4 PUSH2 0x70B JUMPI JUMPDEST DUP2 DUP7 MSTORE PUSH1 0x3 DUP9 MSTORE DUP5 DUP7 KECCAK256 PUSH1 0x1 DUP2 SLOAD ADD SWAP1 SSTORE DUP3 DUP7 MSTORE PUSH1 0x2 DUP9 MSTORE DUP5 DUP7 KECCAK256 DUP3 PUSH1 0x1 PUSH1 0x1 PUSH1 0xA0 SHL SUB NOT DUP3 SLOAD AND OR SWAP1 SSTORE PUSH32 0xDDF252AD1BE2C89B69C2B068FC378DAA952BA7F163C4A11628F55A4DF523B3EF DUP7 DUP1 LOG4 PUSH2 0x6DD JUMPI PUSH2 0x6B5 SWAP1 PUSH1 0xA DUP6 PUSH1 0x7 SLOAD DUP6 MSTORE MSTORE DUP3 KECCAK256 PUSH2 0xEE6 JUMP JUMPDEST PUSH1 0x7 SLOAD PUSH1 0x0 NOT DUP2 EQ PUSH2 0x6CA JUMPI PUSH1 0x1 ADD PUSH1 0x7 SSTORE DUP1 RETURN JUMPDEST POP PUSH1 0x11 PUSH1 0x24 SWAP3 PUSH4 0x4E487B71 PUSH1 0xE0 SHL DUP4 MSTORE MSTORE REVERT JUMPDEST PUSH1 0x24 SWAP4 POP MLOAD SWAP2 PUSH32 0x73C6AC6E00000000000000000000000000000000000000000000000000000000 DUP4 MSTORE DUP3 ADD MSTORE REVERT JUMPDEST PUSH2 0x72C DUP4 PUSH1 0x0 MSTORE PUSH1 0x4 PUSH1 0x20 MSTORE PUSH1 0x40 PUSH1 0x0 KECCAK256 PUSH1 0x1 PUSH1 0x1 PUSH1 0xA0 SHL SUB NOT DUP2 SLOAD AND SWAP1 SSTORE JUMP JUMPDEST DUP1 DUP7 MSTORE PUSH1 0x3 DUP9 MSTORE DUP5 DUP7 KECCAK256 DUP1 SLOAD PUSH1 0x0 NOT ADD SWAP1 SSTORE PUSH2 0x64E JUMP JUMPDEST PUSH1 0x24 DUP7 DUP7 DUP7 MLOAD SWAP2 PUSH4 0x32505749 PUSH1 0xE1 SHL DUP4 MSTORE DUP3 ADD MSTORE REVERT JUMPDEST POP SWAP2 CALLVALUE PUSH2 0x509 JUMPI PUSH1 0x20 CALLDATASIZE PUSH1 0x3 NOT ADD SLT PUSH2 0x509 JUMPI POP PUSH1 0x1 PUSH1 0x1 PUSH1 0xA0 SHL SUB PUSH2 0x781 PUSH1 0x20 SWAP4 CALLDATALOAD PUSH2 0x11D2 JUMP JUMPDEST SWAP2 MLOAD SWAP2 AND DUP2 MSTORE RETURN JUMPDEST POP SWAP1 CALLVALUE PUSH2 0x194 JUMPI PUSH1 0x20 SWAP1 DUP2 PUSH1 0x3 NOT CALLDATASIZE ADD SLT PUSH2 0x2C7 JUMPI DUP3 CALLDATALOAD SWAP2 PUSH2 0x7A9 PUSH2 0x120D JUMP JUMPDEST DUP3 DUP6 MSTORE PUSH1 0xA DUP2 MSTORE DUP5 DUP3 DUP2 KECCAK256 PUSH2 0x7BE DUP2 SLOAD PUSH2 0xCC0 JUMP JUMPDEST DUP1 PUSH2 0x876 JUMPI JUMPDEST POP POP DUP4 SWAP1 MSTORE PUSH1 0x2 DUP2 MSTORE DUP3 DUP6 PUSH1 0x1 PUSH1 0x1 PUSH1 0xA0 SHL SUB DUP5 DUP3 KECCAK256 SLOAD AND PUSH1 0x2 DUP2 ISZERO SWAP5 DUP6 ISZERO PUSH2 0x83E JUMPI JUMPDEST DUP5 DUP5 MSTORE MSTORE DUP5 DUP3 KECCAK256 PUSH1 0x1 PUSH1 0x1 PUSH1 0xA0 SHL SUB NOT DUP2 SLOAD AND SWAP1 SSTORE PUSH32 0xDDF252AD1BE2C89B69C2B068FC378DAA952BA7F163C4A11628F55A4DF523B3EF DUP3 DUP1 LOG4 PUSH2 0x829 JUMPI DUP4 DUP1 RETURN JUMPDEST PUSH1 0x24 SWAP4 POP MLOAD SWAP2 PUSH4 0x7E273289 PUSH1 0xE0 SHL DUP4 MSTORE DUP3 ADD MSTORE REVERT JUMPDEST PUSH2 0x85F DUP6 PUSH1 0x0 MSTORE PUSH1 0x4 PUSH1 0x20 MSTORE PUSH1 0x40 PUSH1 0x0 KECCAK256 PUSH1 0x1 PUSH1 0x1 PUSH1 0xA0 SHL SUB NOT DUP2 SLOAD AND SWAP1 SSTORE JUMP JUMPDEST DUP3 DUP5 MSTORE PUSH1 0x3 DUP2 MSTORE DUP7 DUP5 KECCAK256 DUP1 SLOAD PUSH1 0x0 NOT ADD SWAP1 SSTORE PUSH2 0x7E8 JUMP JUMPDEST DUP3 PUSH1 0x1F DUP3 GT PUSH1 0x1 EQ PUSH2 0x88E JUMPI POP POP SSTORE JUMPDEST DUP5 CODESIZE DUP1 PUSH2 0x7C4 JUMP JUMPDEST SWAP1 SWAP2 DUP1 DUP3 MSTORE PUSH2 0x8AB PUSH1 0x1F DUP7 DUP5 KECCAK256 SWAP5 ADD PUSH1 0x5 SHR DUP5 ADD PUSH1 0x1 DUP6 ADD PUSH2 0xECF JUMP JUMPDEST SSTORE SSTORE PUSH2 0x886 JUMP JUMPDEST POP SWAP2 SWAP1 CALLVALUE PUSH2 0x1E6 JUMPI PUSH2 0x8C3 CALLDATASIZE PUSH2 0xC37 JUMP JUMPDEST SWAP2 DUP4 MLOAD SWAP4 PUSH1 0x20 DUP6 ADD SWAP1 DUP6 DUP3 LT PUSH8 0xFFFFFFFFFFFFFFFF DUP4 GT OR PUSH2 0x8EE JUMPI PUSH2 0x351 SWAP7 SWAP8 POP MSTORE DUP6 DUP5 MSTORE PUSH2 0x103D JUMP JUMPDEST PUSH1 0x24 DUP8 PUSH1 0x41 DUP11 PUSH4 0x4E487B71 PUSH1 0xE0 SHL DUP4 MSTORE MSTORE REVERT JUMPDEST DUP4 CALLVALUE PUSH2 0x509 JUMPI PUSH2 0x351 PUSH2 0x913 CALLDATASIZE PUSH2 0xC37 JUMP JUMPDEST SWAP2 PUSH2 0xCFA JUMP JUMPDEST POP SWAP1 CALLVALUE PUSH2 0x194 JUMPI DUP1 PUSH1 0x3 NOT CALLDATASIZE ADD SLT PUSH2 0x194 JUMPI PUSH2 0x933 PUSH2 0xC06 JUMP JUMPDEST SWAP2 PUSH1 0x24 CALLDATALOAD PUSH2 0x940 DUP2 PUSH2 0x11D2 JUMP JUMPDEST CALLER ISZERO ISZERO DUP1 PUSH2 0x9F9 JUMPI JUMPDEST DUP1 PUSH2 0x9D1 JUMPI JUMPDEST PUSH2 0x9A2 JUMPI DUP2 SWAP1 PUSH1 0x1 PUSH1 0x1 PUSH1 0xA0 SHL SUB DUP1 SWAP7 AND SWAP6 DUP7 SWAP2 AND PUSH32 0x8C5BE1E5EBEC7D5BD14F71427D1E84F3DD0314C0F7B2291E5B200AC8C7C3B925 DUP9 DUP1 LOG4 DUP5 MSTORE PUSH1 0x20 MSTORE DUP3 KECCAK256 SWAP1 PUSH1 0x1 PUSH1 0x1 PUSH1 0xA0 SHL SUB NOT DUP3 SLOAD AND OR SWAP1 SSTORE DUP1 RETURN JUMPDEST DUP4 MLOAD PUSH32 0xA9FBF51F00000000000000000000000000000000000000000000000000000000 DUP2 MSTORE CALLER DUP2 DUP6 ADD MSTORE PUSH1 0x24 SWAP1 REVERT JUMPDEST POP PUSH1 0x1 PUSH1 0x1 PUSH1 0xA0 SHL SUB DUP2 AND DUP7 MSTORE PUSH1 0x5 PUSH1 0x20 MSTORE DUP4 DUP7 KECCAK256 CALLER DUP8 MSTORE PUSH1 0x20 MSTORE PUSH1 0xFF DUP5 DUP8 KECCAK256 SLOAD AND ISZERO PUSH2 0x94F JUMP JUMPDEST POP CALLER PUSH1 0x1 PUSH1 0x1 PUSH1 0xA0 SHL SUB DUP3 AND EQ ISZERO PUSH2 0x949 JUMP JUMPDEST POP CALLVALUE PUSH2 0x194 JUMPI PUSH1 0x20 CALLDATASIZE PUSH1 0x3 NOT ADD SLT PUSH2 0x194 JUMPI DUP2 PUSH1 0x20 SWAP4 DUP3 PUSH1 0x1 PUSH1 0x1 PUSH1 0xA0 SHL SUB SWAP4 CALLDATALOAD PUSH2 0xA36 DUP2 PUSH2 0x11D2 JUMP JUMPDEST POP DUP3 MSTORE DUP6 MSTORE KECCAK256 SLOAD AND SWAP1 MLOAD SWAP1 DUP2 MSTORE RETURN JUMPDEST DUP3 DUP5 CALLVALUE PUSH2 0x509 JUMPI DUP1 PUSH1 0x3 NOT CALLDATASIZE ADD SLT PUSH2 0x509 JUMPI DUP2 MLOAD SWAP2 DUP3 DUP3 DUP4 SLOAD PUSH2 0xA67 DUP2 PUSH2 0xCC0 JUMP JUMPDEST SWAP1 DUP2 DUP5 MSTORE PUSH1 0x20 SWAP6 PUSH1 0x1 SWAP2 DUP8 PUSH1 0x1 DUP3 AND SWAP2 DUP3 PUSH1 0x0 EQ PUSH2 0x4E2 JUMPI POP POP PUSH1 0x1 EQ PUSH2 0xA9B JUMPI POP POP POP PUSH2 0x25B SWAP3 SWAP2 PUSH2 0x24C SWAP2 SUB DUP6 PUSH2 0xC6C JUMP JUMPDEST SWAP2 SWAP1 DUP7 SWAP4 POP DUP3 DUP1 MSTORE PUSH32 0x290DECD9548B62A8D60345A988386FC84BA6BC95484008F6362F93160EF3E563 JUMPDEST DUP3 DUP5 LT PUSH2 0xADE JUMPI POP POP POP DUP3 ADD ADD DUP2 PUSH2 0x24C PUSH2 0x25B PUSH2 0x473 JUMP JUMPDEST DUP1 SLOAD DUP5 DUP11 ADD DUP7 ADD MSTORE DUP9 SWAP6 POP DUP8 SWAP5 SWAP1 SWAP4 ADD SWAP3 DUP2 ADD PUSH2 0xAC5 JUMP JUMPDEST SWAP3 POP POP CALLVALUE PUSH2 0x194 JUMPI PUSH1 0x20 CALLDATASIZE PUSH1 0x3 NOT ADD SLT PUSH2 0x194 JUMPI CALLDATALOAD PUSH32 0xFFFFFFFF00000000000000000000000000000000000000000000000000000000 DUP2 AND DUP1 SWAP2 SUB PUSH2 0x194 JUMPI PUSH1 0x20 SWAP3 POP PUSH32 0x80AC58CD00000000000000000000000000000000000000000000000000000000 DUP2 EQ SWAP1 DUP2 ISZERO PUSH2 0xB9C JUMPI JUMPDEST DUP2 ISZERO PUSH2 0xB72 JUMPI JUMPDEST POP ISZERO ISZERO DUP2 MSTORE RETURN JUMPDEST PUSH32 0x1FFC9A700000000000000000000000000000000000000000000000000000000 SWAP2 POP EQ CODESIZE PUSH2 0xB6B JUMP JUMPDEST PUSH32 0x5B5E139F00000000000000000000000000000000000000000000000000000000 DUP2 EQ SWAP2 POP PUSH2 0xB64 JUMP JUMPDEST SWAP2 SWAP1 DUP3 MLOAD SWAP3 DUP4 DUP3 MSTORE PUSH1 0x0 JUMPDEST DUP5 DUP2 LT PUSH2 0xBF2 JUMPI POP POP DUP3 PUSH1 0x0 PUSH1 0x20 DUP1 SWAP5 SWAP6 DUP5 ADD ADD MSTORE PUSH1 0x1F DUP1 NOT SWAP2 ADD AND ADD ADD SWAP1 JUMP JUMPDEST PUSH1 0x20 DUP2 DUP4 ADD DUP2 ADD MLOAD DUP5 DUP4 ADD DUP3 ADD MSTORE ADD PUSH2 0xBD1 JUMP JUMPDEST PUSH1 0x4 CALLDATALOAD SWAP1 PUSH1 0x1 PUSH1 0x1 PUSH1 0xA0 SHL SUB DUP3 AND DUP3 SUB PUSH2 0xC1C JUMPI JUMP JUMPDEST PUSH1 0x0 DUP1 REVERT JUMPDEST PUSH1 0x24 CALLDATALOAD SWAP1 PUSH1 0x1 PUSH1 0x1 PUSH1 0xA0 SHL SUB DUP3 AND DUP3 SUB PUSH2 0xC1C JUMPI JUMP JUMPDEST PUSH1 0x60 SWAP1 PUSH1 0x3 NOT ADD SLT PUSH2 0xC1C JUMPI PUSH1 0x1 PUSH1 0x1 PUSH1 0xA0 SHL SUB SWAP1 PUSH1 0x4 CALLDATALOAD DUP3 DUP2 AND DUP2 SUB PUSH2 0xC1C JUMPI SWAP2 PUSH1 0x24 CALLDATALOAD SWAP1 DUP2 AND DUP2 SUB PUSH2 0xC1C JUMPI SWAP1 PUSH1 0x44 CALLDATALOAD SWAP1 JUMP JUMPDEST SWAP1 PUSH1 0x1F DUP1 NOT SWAP2 ADD AND DUP2 ADD SWAP1 DUP2 LT PUSH8 0xFFFFFFFFFFFFFFFF DUP3 GT OR PUSH2 0xC8E JUMPI PUSH1 0x40 MSTORE JUMP JUMPDEST PUSH4 0x4E487B71 PUSH1 0xE0 SHL PUSH1 0x0 MSTORE PUSH1 0x41 PUSH1 0x4 MSTORE PUSH1 0x24 PUSH1 0x0 REVERT JUMPDEST PUSH8 0xFFFFFFFFFFFFFFFF DUP2 GT PUSH2 0xC8E JUMPI PUSH1 0x1F ADD PUSH1 0x1F NOT AND PUSH1 0x20 ADD SWAP1 JUMP JUMPDEST SWAP1 PUSH1 0x1 DUP3 DUP2 SHR SWAP3 AND DUP1 ISZERO PUSH2 0xCF0 JUMPI JUMPDEST PUSH1 0x20 DUP4 LT EQ PUSH2 0xCDA JUMPI JUMP JUMPDEST PUSH4 0x4E487B71 PUSH1 0xE0 SHL PUSH1 0x0 MSTORE PUSH1 0x22 PUSH1 0x4 MSTORE PUSH1 0x24 PUSH1 0x0 REVERT JUMPDEST SWAP2 PUSH1 0x7F AND SWAP2 PUSH2 0xCCF JUMP JUMPDEST SWAP1 SWAP2 PUSH1 0x1 PUSH1 0x1 PUSH1 0xA0 SHL SUB DUP1 SWAP4 AND SWAP3 DUP4 ISZERO PUSH2 0xEB7 JUMPI PUSH1 0x0 SWAP3 DUP3 DUP5 MSTORE DUP3 PUSH1 0x20 SWAP6 PUSH1 0x2 DUP8 MSTORE PUSH1 0x40 SWAP7 DUP5 DUP9 DUP9 KECCAK256 SLOAD AND SWAP7 DUP8 SWAP2 CALLER ISZERO ISZERO DUP1 PUSH2 0xE08 JUMPI JUMPDEST POP SWAP1 PUSH1 0x2 PUSH32 0xDDF252AD1BE2C89B69C2B068FC378DAA952BA7F163C4A11628F55A4DF523B3EF SWAP3 DUP5 PUSH2 0xDD0 JUMPI JUMPDEST DUP6 DUP4 MSTORE PUSH1 0x3 DUP2 MSTORE DUP12 DUP4 KECCAK256 PUSH1 0x1 DUP2 SLOAD ADD SWAP1 SSTORE DUP7 DUP4 MSTORE MSTORE DUP10 DUP2 KECCAK256 DUP5 PUSH1 0x1 PUSH1 0x1 PUSH1 0xA0 SHL SUB NOT DUP3 SLOAD AND OR SWAP1 SSTORE DUP1 LOG4 AND SWAP3 DUP4 DUP4 SUB PUSH2 0xD96 JUMPI POP POP POP POP JUMP JUMPDEST PUSH1 0x64 SWAP5 POP MLOAD SWAP3 PUSH32 0x64283D7B00000000000000000000000000000000000000000000000000000000 DUP5 MSTORE PUSH1 0x4 DUP5 ADD MSTORE PUSH1 0x24 DUP4 ADD MSTORE PUSH1 0x44 DUP3 ADD MSTORE REVERT JUMPDEST PUSH2 0xDF1 DUP8 PUSH1 0x0 MSTORE PUSH1 0x4 PUSH1 0x20 MSTORE PUSH1 0x40 PUSH1 0x0 KECCAK256 PUSH1 0x1 PUSH1 0x1 PUSH1 0xA0 SHL SUB NOT DUP2 SLOAD AND SWAP1 SSTORE JUMP JUMPDEST DUP5 DUP4 MSTORE PUSH1 0x3 DUP2 MSTORE DUP12 DUP4 KECCAK256 DUP1 SLOAD PUSH1 0x0 NOT ADD SWAP1 SSTORE PUSH2 0xD5D JUMP JUMPDEST SWAP2 SWAP4 SWAP5 POP SWAP2 POP DUP1 PUSH2 0xE76 JUMPI JUMPDEST ISZERO PUSH2 0xE24 JUMPI DUP6 SWAP3 SWAP2 DUP8 SWAP2 CODESIZE PUSH2 0xD31 JUMP JUMPDEST DUP8 DUP7 DUP9 PUSH2 0xE41 JUMPI PUSH1 0x24 SWAP2 MLOAD SWAP1 PUSH4 0x7E273289 PUSH1 0xE0 SHL DUP3 MSTORE PUSH1 0x4 DUP3 ADD MSTORE REVERT JUMPDEST PUSH1 0x44 SWAP2 MLOAD SWAP1 PUSH32 0x177E802F00000000000000000000000000000000000000000000000000000000 DUP3 MSTORE CALLER PUSH1 0x4 DUP4 ADD MSTORE PUSH1 0x24 DUP3 ADD MSTORE REVERT JUMPDEST POP CALLER DUP8 EQ DUP1 ISZERO PUSH2 0xE9B JUMPI JUMPDEST DUP1 PUSH2 0xE14 JUMPI POP DUP6 DUP3 MSTORE PUSH1 0x4 DUP2 MSTORE CALLER DUP6 DUP10 DUP5 KECCAK256 SLOAD AND EQ PUSH2 0xE14 JUMP JUMPDEST POP DUP7 DUP3 MSTORE PUSH1 0x5 DUP2 MSTORE DUP8 DUP3 KECCAK256 CALLER DUP4 MSTORE DUP2 MSTORE PUSH1 0xFF DUP9 DUP4 KECCAK256 SLOAD AND PUSH2 0xE81 JUMP JUMPDEST PUSH1 0x24 PUSH1 0x40 MLOAD PUSH4 0x32505749 PUSH1 0xE1 SHL DUP2 MSTORE PUSH1 0x0 PUSH1 0x4 DUP3 ADD MSTORE REVERT JUMPDEST DUP2 DUP2 LT PUSH2 0xEDA JUMPI POP POP JUMP JUMPDEST PUSH1 0x0 DUP2 SSTORE PUSH1 0x1 ADD PUSH2 0xECF JUMP JUMPDEST SWAP1 PUSH1 0x9 DUP3 EQ PUSH2 0x1039 JUMPI PUSH2 0xEFA PUSH1 0x9 SLOAD PUSH2 0xCC0 JUMP JUMPDEST SWAP2 PUSH8 0xFFFFFFFFFFFFFFFF DUP4 GT PUSH2 0xC8E JUMPI PUSH2 0xF14 DUP2 SLOAD PUSH2 0xCC0 JUMP JUMPDEST PUSH1 0x1F DUP2 GT PUSH2 0xFFC JUMPI JUMPDEST POP PUSH1 0x0 SWAP3 PUSH1 0x1F DUP2 GT PUSH1 0x1 EQ PUSH2 0xF59 JUMPI DUP1 SWAP2 SWAP3 SWAP4 PUSH1 0x0 SWAP2 PUSH2 0xF4D JUMPI JUMPDEST POP DUP2 PUSH1 0x1 SHL SWAP2 PUSH1 0x0 NOT SWAP1 PUSH1 0x3 SHL SHR NOT AND OR SWAP1 SSTORE JUMP JUMPDEST SWAP1 POP PUSH1 0x9 ADD SLOAD CODESIZE PUSH2 0xF38 JUMP JUMPDEST DUP2 DUP5 MSTORE PUSH1 0x20 DUP1 DUP6 KECCAK256 PUSH1 0x1F NOT DUP4 AND SWAP6 SWAP1 SWAP2 DUP2 SWAP1 JUMPDEST DUP8 DUP3 LT PUSH2 0xFC3 JUMPI POP POP DUP3 PUSH1 0x1 SWAP5 SWAP6 SWAP7 LT PUSH2 0xF8A JUMPI JUMPDEST POP POP DUP2 SHL ADD SWAP1 SSTORE JUMP JUMPDEST PUSH32 0x6E1540171B6C0C960B71A7020D9F60077F6AF931A8BBF590DA0223DACF75C7AF ADD SLOAD PUSH1 0x0 NOT PUSH1 0xF8 DUP5 PUSH1 0x3 SHL AND SHR NOT AND SWAP1 SSTORE CODESIZE DUP1 PUSH2 0xF81 JUMP JUMPDEST DUP3 SWAP4 DUP2 SWAP3 SWAP4 PUSH32 0x6E1540171B6C0C960B71A7020D9F60077F6AF931A8BBF590DA0223DACF75C7AF ADD SLOAD DUP2 SSTORE PUSH1 0x1 DUP1 SWAP2 ADD SWAP5 ADD SWAP3 ADD SWAP1 PUSH2 0xF6C JUMP JUMPDEST PUSH2 0x1029 SWAP1 DUP3 PUSH1 0x0 MSTORE PUSH1 0x20 PUSH1 0x0 KECCAK256 PUSH1 0x1F DUP7 ADD PUSH1 0x5 SHR DUP2 ADD SWAP2 PUSH1 0x20 DUP8 LT PUSH2 0x102F JUMPI JUMPDEST PUSH1 0x1F ADD PUSH1 0x5 SHR ADD SWAP1 PUSH2 0xECF JUMP JUMPDEST CODESIZE PUSH2 0xF1D JUMP JUMPDEST SWAP1 SWAP2 POP DUP2 SWAP1 PUSH2 0x101C JUMP JUMPDEST SWAP1 POP JUMP JUMPDEST PUSH2 0x1048 DUP4 DUP4 DUP4 PUSH2 0xCFA JUMP JUMPDEST DUP2 EXTCODESIZE PUSH2 0x1055 JUMPI JUMPDEST POP POP POP POP JUMP JUMPDEST PUSH1 0x1 PUSH1 0x1 PUSH1 0xA0 SHL SUB SWAP5 SWAP2 SWAP3 SWAP4 SWAP5 DUP1 SWAP4 AND SWAP4 PUSH1 0x40 MLOAD SWAP4 PUSH32 0x150B7A0200000000000000000000000000000000000000000000000000000000 SWAP3 DUP4 DUP7 MSTORE CALLER PUSH1 0x4 DUP8 ADD MSTORE AND PUSH1 0x24 DUP6 ADD MSTORE PUSH1 0x44 DUP5 ADD MSTORE PUSH1 0x80 PUSH1 0x64 DUP5 ADD MSTORE DUP3 PUSH2 0x10B8 PUSH1 0x20 SWAP7 PUSH1 0x84 DUP4 ADD SWAP1 PUSH2 0xBC6 JUMP JUMPDEST SUB SWAP3 DUP6 DUP2 PUSH1 0x0 SWAP6 DUP2 DUP8 DUP10 GAS CALL DUP5 SWAP2 DUP2 PUSH2 0x117A JUMPI JUMPDEST POP PUSH2 0x112B JUMPI POP POP POP RETURNDATASIZE PUSH1 0x0 EQ PUSH2 0x1123 JUMPI RETURNDATASIZE PUSH2 0x10E6 DUP2 PUSH2 0xCA4 JUMP JUMPDEST SWAP1 PUSH2 0x10F4 PUSH1 0x40 MLOAD SWAP3 DUP4 PUSH2 0xC6C JUMP JUMPDEST DUP2 MSTORE DUP1 SWAP2 DUP5 RETURNDATASIZE SWAP3 ADD RETURNDATACOPY JUMPDEST DUP1 MLOAD SWAP3 DUP4 PUSH2 0x111E JUMPI PUSH1 0x24 DUP4 PUSH1 0x40 MLOAD SWAP1 PUSH4 0x32505749 PUSH1 0xE1 SHL DUP3 MSTORE PUSH1 0x4 DUP3 ADD MSTORE REVERT JUMPDEST ADD SWAP1 POP REVERT JUMPDEST POP PUSH1 0x60 PUSH2 0x10FE JUMP JUMPDEST SWAP1 SWAP3 POP PUSH32 0xFFFFFFFF00000000000000000000000000000000000000000000000000000000 SWAP2 SWAP5 POP AND SUB PUSH2 0x1162 JUMPI POP CODESIZE DUP1 DUP1 DUP1 PUSH2 0x104F JUMP JUMPDEST PUSH1 0x24 SWAP1 PUSH1 0x40 MLOAD SWAP1 PUSH4 0x32505749 PUSH1 0xE1 SHL DUP3 MSTORE PUSH1 0x4 DUP3 ADD MSTORE REVERT JUMPDEST SWAP1 SWAP2 POP DUP7 DUP2 DUP2 RETURNDATASIZE DUP4 GT PUSH2 0x11CB JUMPI JUMPDEST PUSH2 0x1192 DUP2 DUP4 PUSH2 0xC6C JUMP JUMPDEST DUP2 ADD SUB SLT PUSH2 0x429 JUMPI MLOAD PUSH32 0xFFFFFFFF00000000000000000000000000000000000000000000000000000000 DUP2 AND DUP2 SUB PUSH2 0x429 JUMPI SWAP1 CODESIZE PUSH2 0x10CC JUMP JUMPDEST POP RETURNDATASIZE PUSH2 0x1188 JUMP JUMPDEST DUP1 PUSH1 0x0 MSTORE PUSH1 0x2 PUSH1 0x20 MSTORE PUSH1 0x1 PUSH1 0x1 PUSH1 0xA0 SHL SUB PUSH1 0x40 PUSH1 0x0 KECCAK256 SLOAD AND SWAP1 DUP2 ISZERO PUSH2 0x11F5 JUMPI POP SWAP1 JUMP JUMPDEST PUSH1 0x24 SWAP1 PUSH1 0x40 MLOAD SWAP1 PUSH4 0x7E273289 PUSH1 0xE0 SHL DUP3 MSTORE PUSH1 0x4 DUP3 ADD MSTORE REVERT JUMPDEST PUSH1 0x1 PUSH1 0x1 PUSH1 0xA0 SHL SUB PUSH1 0x6 SLOAD AND CALLER SUB PUSH2 0x1221 JUMPI JUMP JUMPDEST PUSH1 0x24 PUSH1 0x40 MLOAD PUSH32 0x118CDAA700000000000000000000000000000000000000000000000000000000 DUP2 MSTORE CALLER PUSH1 0x4 DUP3 ADD MSTORE REVERT INVALID LOG2 PUSH5 0x6970667358 0x22 SLT KECCAK256 0xB8 PUSH0 SWAP1 0xF7 BLOBHASH KECCAK256 0xF7 MUL PUSH2 0xE60F 0xD5 0x24 0xB5 0x1E 0xDF AND 0x22 0xB9 DUP4 KECCAK256 DUP10 0x26 0xB4 COINBASE LOG3 LOG2 0xAC LOG2 PUSH22 0xA44464736F6C63430008180033A26469706673582212 KECCAK256 CALLER SLT JUMP DELEGATECALL MSTORE8 0x4D KECCAK256 0xEC ADDRESS 0xA5 DUP4 0xB6 EXTCODESIZE 0xB4 PUSH16 0x3D6C3AAC3C1E7AD60F89256620548A0D CALLCODE PUSH5 0x736F6C6343 STOP ADDMOD XOR STOP CALLER "
        },
        "methodIdentifiers": {
          "createCard(address,string)": "97e68eb6",
          "createExclusiveCard(address,string,string,uint256,string)": "032b1ff9",
          "getCard(address)": "ceafb18d",
          "getExclusiveCard(address)": "f82568f9",
          "mintCard(address,address)": "3fd39fa1",
          "owner()": "8da5cb5b",
          "renounceOwnership()": "715018a6",
          "transferOwnership(address)": "f2fde38b"
        }
      }
    }
  }
}