{
  "contracts/providers/TipProvider.sol": {
    "TipProvider": {
      "abi": [
        {
          "inputs": [
            {
              "internalType": "address",
              "name": "controller",
              "type": "address"
            }
          ],
          "stateMutability": "nonpayable",
          "type": "constructor"
        },
        {
          "inputs": [
            {
              "internalType": "address",
              "name": "owner",
              "type": "address"
            }
          ],
          "name": "OwnableInvalidOwner",
          "type": "error"
        },
        {
          "inputs": [
            {
              "internalType": "address",
              "name": "account",
              "type": "address"
            }
          ],
          "name": "OwnableUnauthorizedAccount",
          "type": "error"
        },
        {
          "anonymous": false,
          "inputs": [
            {
              "indexed": true,
              "internalType": "address",
              "name": "previousOwner",
              "type": "address"
            },
            {
              "indexed": true,
              "internalType": "address",
              "name": "newOwner",
              "type": "address"
            }
          ],
          "name": "OwnershipTransferred",
          "type": "event"
        },
        {
          "inputs": [
            {
              "internalType": "bytes32",
              "name": "tipId",
              "type": "bytes32"
            }
          ],
          "name": "isPaused",
          "outputs": [
            {
              "internalType": "bool",
              "name": "",
              "type": "bool"
            }
          ],
          "stateMutability": "view",
          "type": "function"
        },
        {
          "inputs": [],
          "name": "owner",
          "outputs": [
            {
              "internalType": "address",
              "name": "",
              "type": "address"
            }
          ],
          "stateMutability": "view",
          "type": "function"
        },
        {
          "inputs": [
            {
              "internalType": "address",
              "name": "streamer",
              "type": "address"
            },
            {
              "internalType": "bytes32",
              "name": "tipId",
              "type": "bytes32"
            }
          ],
          "name": "pause",
          "outputs": [],
          "stateMutability": "nonpayable",
          "type": "function"
        },
        {
          "inputs": [
            {
              "internalType": "bytes32",
              "name": "tipId",
              "type": "bytes32"
            }
          ],
          "name": "raisedAmount",
          "outputs": [
            {
              "internalType": "uint256",
              "name": "",
              "type": "uint256"
            }
          ],
          "stateMutability": "view",
          "type": "function"
        },
        {
          "inputs": [],
          "name": "renounceOwnership",
          "outputs": [],
          "stateMutability": "nonpayable",
          "type": "function"
        },
        {
          "inputs": [
            {
              "internalType": "address",
              "name": "streamer",
              "type": "address"
            }
          ],
          "name": "start",
          "outputs": [
            {
              "internalType": "bytes32",
              "name": "",
              "type": "bytes32"
            }
          ],
          "stateMutability": "nonpayable",
          "type": "function"
        },
        {
          "inputs": [
            {
              "internalType": "bytes32",
              "name": "tipId",
              "type": "bytes32"
            },
            {
              "internalType": "uint256",
              "name": "amount",
              "type": "uint256"
            }
          ],
          "name": "tipStreamer",
          "outputs": [],
          "stateMutability": "nonpayable",
          "type": "function"
        },
        {
          "inputs": [
            {
              "internalType": "address",
              "name": "newOwner",
              "type": "address"
            }
          ],
          "name": "transferOwnership",
          "outputs": [],
          "stateMutability": "nonpayable",
          "type": "function"
        }
      ],
      "evm": {
        "bytecode": {
          "linkReferences": {},
          "object": "6080346100bb57601f61062b38819003918201601f19168301916001600160401b038311848410176100c0578084926020946040528339810103126100bb57516001600160a01b0390818116908190036100bb5780156100a257600080546001600160a01b03198116831782556040519316907f8be0079c531659141344cd1fd0a4f28419497f9722a3daafe3b4186f6b6457e09080a361055490816100d78239f35b604051631e4fbdf760e01b815260006004820152602490fd5b600080fd5b634e487b7160e01b600052604160045260246000fdfe6080604081815260048036101561001557600080fd5b600092833560e01c908163241b71bb1461048d575080633b52301d146103ed57806370ded48a146103c4578063715018a61461035e5780638da5cb5b14610334578063980975811461024e578063dd0b281e1461012a5763f2fde38b1461007b57600080fd5b34610126576020366003190112610126576100946104bf565b9061009d6104da565b6001600160a01b038092169283156100f757505082548273ffffffffffffffffffffffffffffffffffffffff198216178455167f8be0079c531659141344cd1fd0a4f28419497f9722a3daafe3b4186f6b6457e08380a380f35b908460249251917f1e4fbdf7000000000000000000000000000000000000000000000000000000008352820152fd5b8280fd5b50913461024b57602036600319011261024b576101456104bf565b61014d6104da565b825167ffffffffffffffff9360608201858111838210176102385781526001600160a01b0380931692838352602083019185835280840194868652815160208101917feeeeeeeeeeeeeeeeeeeeeeeeeeeeeeeeeeeeeeee000000000000000000000000835283820152426060820152606081526080810198818a10908a1117610225576020995090829189600297969594525190209687815260018a522092511673ffffffffffffffffffffffffffffffffffffffff19835416178255516001820155019051151560ff801983541691161790558152f35b60248860418c634e487b7160e01b835252fd5b602485604189634e487b7160e01b835252fd5b80fd5b5090346101265780600319360112610126576102686104bf565b6102706104da565b60243584526001602052818420906001600160a01b03808354169116036102f1576002019182549160ff83166102ae57505060ff1916600117905580f35b906020606492519162461bcd60e51b8352820152601b60248201527f446174612e5469702077617320616c72656164792070617573656400000000006044820152fd5b606483602084519162461bcd60e51b8352820152600960248201527f4e6f74206f776e657200000000000000000000000000000000000000000000006044820152fd5b50503461035a578160031936011261035a576001600160a01b0360209254169051908152f35b5080fd5b833461024b578060031936011261024b576103776104da565b806001600160a01b03815473ffffffffffffffffffffffffffffffffffffffff1981168355167f8be0079c531659141344cd1fd0a4f28419497f9722a3daafe3b4186f6b6457e08280a380f35b503461012657602036600319011261012657816020936001923581528285522001549051908152f35b5090346101265780600319360112610126576104076104da565b8135835260016020528083209060ff60028301541661044b5750600101805491602435830180931161043857505580f35b836011602492634e487b7160e01b835252fd5b5162461bcd60e51b8152602081840152601260248201527f446174612e5469702069732070617573656400000000000000000000000000006044820152606490fd5b92919050346104bb5760203660031901126104bb573583526001602090815292206002015460ff1615158152f35b8380fd5b600435906001600160a01b03821682036104d557565b600080fd5b6001600160a01b036000541633036104ee57565b60246040517f118cdaa7000000000000000000000000000000000000000000000000000000008152336004820152fdfea26469706673582212202bee89366049aa9a26365d26e210b2395898950071decf7eb97cbeedc85ab30d64736f6c63430008180033",
          "opcodes": "PUSH1 0x80 CALLVALUE PUSH2 0xBB JUMPI PUSH1 0x1F PUSH2 0x62B CODESIZE DUP2 SWAP1 SUB SWAP2 DUP3 ADD PUSH1 0x1F NOT AND DUP4 ADD SWAP2 PUSH1 0x1 PUSH1 0x1 PUSH1 0x40 SHL SUB DUP4 GT DUP5 DUP5 LT OR PUSH2 0xC0 JUMPI DUP1 DUP5 SWAP3 PUSH1 0x20 SWAP5 PUSH1 0x40 MSTORE DUP4 CODECOPY DUP2 ADD SUB SLT PUSH2 0xBB JUMPI MLOAD PUSH1 0x1 PUSH1 0x1 PUSH1 0xA0 SHL SUB SWAP1 DUP2 DUP2 AND SWAP1 DUP2 SWAP1 SUB PUSH2 0xBB JUMPI DUP1 ISZERO PUSH2 0xA2 JUMPI PUSH1 0x0 DUP1 SLOAD PUSH1 0x1 PUSH1 0x1 PUSH1 0xA0 SHL SUB NOT DUP2 AND DUP4 OR DUP3 SSTORE PUSH1 0x40 MLOAD SWAP4 AND SWAP1 PUSH32 0x8BE0079C531659141344CD1FD0A4F28419497F9722A3DAAFE3B4186F6B6457E0 SWAP1 DUP1 LOG3 PUSH2 0x554 SWAP1 DUP2 PUSH2 0xD7 DUP3 CODECOPY RETURN JUMPDEST PUSH1 0x40 MLOAD PUSH4 0x1E4FBDF7 PUSH1 0xE0 SHL DUP2 MSTORE PUSH1 0x0 PUSH1 0x4 DUP3 ADD MSTORE PUSH1 0x24 SWAP1 REVERT JUMPDEST PUSH1 0x0 DUP1 REVERT JUMPDEST PUSH4 0x4E487B71 PUSH1 0xE0 SHL PUSH1 0x0 MSTORE PUSH1 0x41 PUSH1 0x4 MSTORE PUSH1 0x24 PUSH1 0x0 REVERT INVALID PUSH1 0x80 PUSH1 0x40 DUP2 DUP2 MSTORE PUSH1 0x4 DUP1 CALLDATASIZE LT ISZERO PUSH2 0x15 JUMPI PUSH1 0x0 DUP1 REVERT JUMPDEST PUSH1 0x0 SWAP3 DUP4 CALLDATALOAD PUSH1 0xE0 SHR SWAP1 DUP2 PUSH4 0x241B71BB EQ PUSH2 0x48D JUMPI POP DUP1 PUSH4 0x3B52301D EQ PUSH2 0x3ED JUMPI DUP1 PUSH4 0x70DED48A EQ PUSH2 0x3C4 JUMPI DUP1 PUSH4 0x715018A6 EQ PUSH2 0x35E JUMPI DUP1 PUSH4 0x8DA5CB5B EQ PUSH2 0x334 JUMPI DUP1 PUSH4 0x98097581 EQ PUSH2 0x24E JUMPI DUP1 PUSH4 0xDD0B281E EQ PUSH2 0x12A JUMPI PUSH4 0xF2FDE38B EQ PUSH2 0x7B JUMPI PUSH1 0x0 DUP1 REVERT JUMPDEST CALLVALUE PUSH2 0x126 JUMPI PUSH1 0x20 CALLDATASIZE PUSH1 0x3 NOT ADD SLT PUSH2 0x126 JUMPI PUSH2 0x94 PUSH2 0x4BF JUMP JUMPDEST SWAP1 PUSH2 0x9D PUSH2 0x4DA JUMP JUMPDEST PUSH1 0x1 PUSH1 0x1 PUSH1 0xA0 SHL SUB DUP1 SWAP3 AND SWAP3 DUP4 ISZERO PUSH2 0xF7 JUMPI POP POP DUP3 SLOAD DUP3 PUSH20 0xFFFFFFFFFFFFFFFFFFFFFFFFFFFFFFFFFFFFFFFF NOT DUP3 AND OR DUP5 SSTORE AND PUSH32 0x8BE0079C531659141344CD1FD0A4F28419497F9722A3DAAFE3B4186F6B6457E0 DUP4 DUP1 LOG3 DUP1 RETURN JUMPDEST SWAP1 DUP5 PUSH1 0x24 SWAP3 MLOAD SWAP2 PUSH32 0x1E4FBDF700000000000000000000000000000000000000000000000000000000 DUP4 MSTORE DUP3 ADD MSTORE REVERT JUMPDEST DUP3 DUP1 REVERT JUMPDEST POP SWAP2 CALLVALUE PUSH2 0x24B JUMPI PUSH1 0x20 CALLDATASIZE PUSH1 0x3 NOT ADD SLT PUSH2 0x24B JUMPI PUSH2 0x145 PUSH2 0x4BF JUMP JUMPDEST PUSH2 0x14D PUSH2 0x4DA JUMP JUMPDEST DUP3 MLOAD PUSH8 0xFFFFFFFFFFFFFFFF SWAP4 PUSH1 0x60 DUP3 ADD DUP6 DUP2 GT DUP4 DUP3 LT OR PUSH2 0x238 JUMPI DUP2 MSTORE PUSH1 0x1 PUSH1 0x1 PUSH1 0xA0 SHL SUB DUP1 SWAP4 AND SWAP3 DUP4 DUP4 MSTORE PUSH1 0x20 DUP4 ADD SWAP2 DUP6 DUP4 MSTORE DUP1 DUP5 ADD SWAP5 DUP7 DUP7 MSTORE DUP2 MLOAD PUSH1 0x20 DUP2 ADD SWAP2 PUSH32 0xEEEEEEEEEEEEEEEEEEEEEEEEEEEEEEEEEEEEEEEE000000000000000000000000 DUP4 MSTORE DUP4 DUP3 ADD MSTORE TIMESTAMP PUSH1 0x60 DUP3 ADD MSTORE PUSH1 0x60 DUP2 MSTORE PUSH1 0x80 DUP2 ADD SWAP9 DUP2 DUP11 LT SWAP1 DUP11 GT OR PUSH2 0x225 JUMPI PUSH1 0x20 SWAP10 POP SWAP1 DUP3 SWAP2 DUP10 PUSH1 0x2 SWAP8 SWAP7 SWAP6 SWAP5 MSTORE MLOAD SWAP1 KECCAK256 SWAP7 DUP8 DUP2 MSTORE PUSH1 0x1 DUP11 MSTORE KECCAK256 SWAP3 MLOAD AND PUSH20 0xFFFFFFFFFFFFFFFFFFFFFFFFFFFFFFFFFFFFFFFF NOT DUP4 SLOAD AND OR DUP3 SSTORE MLOAD PUSH1 0x1 DUP3 ADD SSTORE ADD SWAP1 MLOAD ISZERO ISZERO PUSH1 0xFF DUP1 NOT DUP4 SLOAD AND SWAP2 AND OR SWAP1 SSTORE DUP2 MSTORE RETURN JUMPDEST PUSH1 0x24 DUP9 PUSH1 0x41 DUP13 PUSH4 0x4E487B71 PUSH1 0xE0 SHL DUP4 MSTORE MSTORE REVERT JUMPDEST PUSH1 0x24 DUP6 PUSH1 0x41 DUP10 PUSH4 0x4E487B71 PUSH1 0xE0 SHL DUP4 MSTORE MSTORE REVERT JUMPDEST DUP1 REVERT JUMPDEST POP SWAP1 CALLVALUE PUSH2 0x126 JUMPI DUP1 PUSH1 0x3 NOT CALLDATASIZE ADD SLT PUSH2 0x126 JUMPI PUSH2 0x268 PUSH2 0x4BF JUMP JUMPDEST PUSH2 0x270 PUSH2 0x4DA JUMP JUMPDEST PUSH1 0x24 CALLDATALOAD DUP5 MSTORE PUSH1 0x1 PUSH1 0x20 MSTORE DUP2 DUP5 KECCAK256 SWAP1 PUSH1 0x1 PUSH1 0x1 PUSH1 0xA0 SHL SUB DUP1 DUP4 SLOAD AND SWAP2 AND SUB PUSH2 0x2F1 JUMPI PUSH1 0x2 ADD SWAP2 DUP3 SLOAD SWAP2 PUSH1 0xFF DUP4 AND PUSH2 0x2AE JUMPI POP POP PUSH1 0xFF NOT AND PUSH1 0x1 OR SWAP1 SSTORE DUP1 RETURN JUMPDEST SWAP1 PUSH1 0x20 PUSH1 0x64 SWAP3 MLOAD SWAP2 PUSH3 0x461BCD PUSH1 0xE5 SHL DUP4 MSTORE DUP3 ADD MSTORE PUSH1 0x1B PUSH1 0x24 DUP3 ADD MSTORE PUSH32 0x446174612E5469702077617320616C7265616479207061757365640000000000 PUSH1 0x44 DUP3 ADD MSTORE REVERT JUMPDEST PUSH1 0x64 DUP4 PUSH1 0x20 DUP5 MLOAD SWAP2 PUSH3 0x461BCD PUSH1 0xE5 SHL DUP4 MSTORE DUP3 ADD MSTORE PUSH1 0x9 PUSH1 0x24 DUP3 ADD MSTORE PUSH32 0x4E6F74206F776E65720000000000000000000000000000000000000000000000 PUSH1 0x44 DUP3 ADD MSTORE REVERT JUMPDEST POP POP CALLVALUE PUSH2 0x35A JUMPI DUP2 PUSH1 0x3 NOT CALLDATASIZE ADD SLT PUSH2 0x35A JUMPI PUSH1 0x1 PUSH1 0x1 PUSH1 0xA0 SHL SUB PUSH1 0x20 SWAP3 SLOAD AND SWAP1 MLOAD SWAP1 DUP2 MSTORE RETURN JUMPDEST POP DUP1 REVERT JUMPDEST DUP4 CALLVALUE PUSH2 0x24B JUMPI DUP1 PUSH1 0x3 NOT CALLDATASIZE ADD SLT PUSH2 0x24B JUMPI PUSH2 0x377 PUSH2 0x4DA JUMP JUMPDEST DUP1 PUSH1 0x1 PUSH1 0x1 PUSH1 0xA0 SHL SUB DUP2 SLOAD PUSH20 0xFFFFFFFFFFFFFFFFFFFFFFFFFFFFFFFFFFFFFFFF NOT DUP2 AND DUP4 SSTORE AND PUSH32 0x8BE0079C531659141344CD1FD0A4F28419497F9722A3DAAFE3B4186F6B6457E0 DUP3 DUP1 LOG3 DUP1 RETURN JUMPDEST POP CALLVALUE PUSH2 0x126 JUMPI PUSH1 0x20 CALLDATASIZE PUSH1 0x3 NOT ADD SLT PUSH2 0x126 JUMPI DUP2 PUSH1 0x20 SWAP4 PUSH1 0x1 SWAP3 CALLDATALOAD DUP2 MSTORE DUP3 DUP6 MSTORE KECCAK256 ADD SLOAD SWAP1 MLOAD SWAP1 DUP2 MSTORE RETURN JUMPDEST POP SWAP1 CALLVALUE PUSH2 0x126 JUMPI DUP1 PUSH1 0x3 NOT CALLDATASIZE ADD SLT PUSH2 0x126 JUMPI PUSH2 0x407 PUSH2 0x4DA JUMP JUMPDEST DUP2 CALLDATALOAD DUP4 MSTORE PUSH1 0x1 PUSH1 0x20 MSTORE DUP1 DUP4 KECCAK256 SWAP1 PUSH1 0xFF PUSH1 0x2 DUP4 ADD SLOAD AND PUSH2 0x44B JUMPI POP PUSH1 0x1 ADD DUP1 SLOAD SWAP2 PUSH1 0x24 CALLDATALOAD DUP4 ADD DUP1 SWAP4 GT PUSH2 0x438 JUMPI POP SSTORE DUP1 RETURN JUMPDEST DUP4 PUSH1 0x11 PUSH1 0x24 SWAP3 PUSH4 0x4E487B71 PUSH1 0xE0 SHL DUP4 MSTORE MSTORE REVERT JUMPDEST MLOAD PUSH3 0x461BCD PUSH1 0xE5 SHL DUP2 MSTORE PUSH1 0x20 DUP2 DUP5 ADD MSTORE PUSH1 0x12 PUSH1 0x24 DUP3 ADD MSTORE PUSH32 0x446174612E546970206973207061757365640000000000000000000000000000 PUSH1 0x44 DUP3 ADD MSTORE PUSH1 0x64 SWAP1 REVERT JUMPDEST SWAP3 SWAP2 SWAP1 POP CALLVALUE PUSH2 0x4BB JUMPI PUSH1 0x20 CALLDATASIZE PUSH1 0x3 NOT ADD SLT PUSH2 0x4BB JUMPI CALLDATALOAD DUP4 MSTORE PUSH1 0x1 PUSH1 0x20 SWAP1 DUP2 MSTORE SWAP3 KECCAK256 PUSH1 0x2 ADD SLOAD PUSH1 0xFF AND ISZERO ISZERO DUP2 MSTORE RETURN JUMPDEST DUP4 DUP1 REVERT JUMPDEST PUSH1 0x4 CALLDATALOAD SWAP1 PUSH1 0x1 PUSH1 0x1 PUSH1 0xA0 SHL SUB DUP3 AND DUP3 SUB PUSH2 0x4D5 JUMPI JUMP JUMPDEST PUSH1 0x0 DUP1 REVERT JUMPDEST PUSH1 0x1 PUSH1 0x1 PUSH1 0xA0 SHL SUB PUSH1 0x0 SLOAD AND CALLER SUB PUSH2 0x4EE JUMPI JUMP JUMPDEST PUSH1 0x24 PUSH1 0x40 MLOAD PUSH32 0x118CDAA700000000000000000000000000000000000000000000000000000000 DUP2 MSTORE CALLER PUSH1 0x4 DUP3 ADD MSTORE REVERT INVALID LOG2 PUSH5 0x6970667358 0x22 SLT KECCAK256 0x2B 0xEE DUP10 CALLDATASIZE PUSH1 0x49 0xAA SWAP11 0x26 CALLDATASIZE TSTORE 0x26 0xE2 LT 0xB2 CODECOPY PC SWAP9 SWAP6 STOP PUSH18 0xDECF7EB97CBEEDC85AB30D64736F6C634300 ADDMOD XOR STOP CALLER "
        },
        "methodIdentifiers": {
          "isPaused(bytes32)": "241b71bb",
          "owner()": "8da5cb5b",
          "pause(address,bytes32)": "98097581",
          "raisedAmount(bytes32)": "70ded48a",
          "renounceOwnership()": "715018a6",
          "start(address)": "dd0b281e",
          "tipStreamer(bytes32,uint256)": "3b52301d",
          "transferOwnership(address)": "f2fde38b"
        }
      }
    }
  }
}