{
  "contracts/Thurbe.sol": {
    "Thurbe": {
      "abi": [
        {
          "inputs": [
            {
              "internalType": "address",
              "name": "thurbeToken",
              "type": "address"
            }
          ],
          "stateMutability": "nonpayable",
          "type": "constructor"
        },
        {
          "inputs": [],
          "name": "AccessControlBadConfirmation",
          "type": "error"
        },
        {
          "inputs": [
            {
              "internalType": "address",
              "name": "account",
              "type": "address"
            },
            {
              "internalType": "bytes32",
              "name": "neededRole",
              "type": "bytes32"
            }
          ],
          "name": "AccessControlUnauthorizedAccount",
          "type": "error"
        },
        {
          "inputs": [],
          "name": "EnforcedPause",
          "type": "error"
        },
        {
          "inputs": [],
          "name": "ExpectedPause",
          "type": "error"
        },
        {
          "anonymous": false,
          "inputs": [
            {
              "indexed": false,
              "internalType": "address",
              "name": "streamer",
              "type": "address"
            },
            {
              "indexed": false,
              "internalType": "uint256",
              "name": "amount",
              "type": "uint256"
            }
          ],
          "name": "ClaimedTfuel",
          "type": "event"
        },
        {
          "anonymous": false,
          "inputs": [
            {
              "indexed": false,
              "internalType": "address",
              "name": "streamer",
              "type": "address"
            },
            {
              "indexed": false,
              "internalType": "uint256",
              "name": "amount",
              "type": "uint256"
            }
          ],
          "name": "ClaimedThurbe",
          "type": "event"
        },
        {
          "anonymous": false,
          "inputs": [
            {
              "indexed": false,
              "internalType": "address",
              "name": "account",
              "type": "address"
            }
          ],
          "name": "Paused",
          "type": "event"
        },
        {
          "anonymous": false,
          "inputs": [
            {
              "indexed": true,
              "internalType": "bytes32",
              "name": "role",
              "type": "bytes32"
            },
            {
              "indexed": true,
              "internalType": "bytes32",
              "name": "previousAdminRole",
              "type": "bytes32"
            },
            {
              "indexed": true,
              "internalType": "bytes32",
              "name": "newAdminRole",
              "type": "bytes32"
            }
          ],
          "name": "RoleAdminChanged",
          "type": "event"
        },
        {
          "anonymous": false,
          "inputs": [
            {
              "indexed": true,
              "internalType": "bytes32",
              "name": "role",
              "type": "bytes32"
            },
            {
              "indexed": true,
              "internalType": "address",
              "name": "account",
              "type": "address"
            },
            {
              "indexed": true,
              "internalType": "address",
              "name": "sender",
              "type": "address"
            }
          ],
          "name": "RoleGranted",
          "type": "event"
        },
        {
          "anonymous": false,
          "inputs": [
            {
              "indexed": true,
              "internalType": "bytes32",
              "name": "role",
              "type": "bytes32"
            },
            {
              "indexed": true,
              "internalType": "address",
              "name": "account",
              "type": "address"
            },
            {
              "indexed": true,
              "internalType": "address",
              "name": "sender",
              "type": "address"
            }
          ],
          "name": "RoleRevoked",
          "type": "event"
        },
        {
          "anonymous": false,
          "inputs": [
            {
              "indexed": false,
              "internalType": "address",
              "name": "streamer",
              "type": "address"
            },
            {
              "indexed": false,
              "internalType": "address",
              "name": "cardId",
              "type": "address"
            }
          ],
          "name": "StreamCreated",
          "type": "event"
        },
        {
          "anonymous": false,
          "inputs": [
            {
              "indexed": false,
              "internalType": "bytes32",
              "name": "streamId",
              "type": "bytes32"
            }
          ],
          "name": "StreamEnded",
          "type": "event"
        },
        {
          "anonymous": false,
          "inputs": [
            {
              "indexed": false,
              "internalType": "bytes32",
              "name": "streamId",
              "type": "bytes32"
            }
          ],
          "name": "StreamPaused",
          "type": "event"
        },
        {
          "anonymous": false,
          "inputs": [
            {
              "indexed": false,
              "internalType": "bytes32",
              "name": "streamId",
              "type": "bytes32"
            }
          ],
          "name": "StreamResumed",
          "type": "event"
        },
        {
          "anonymous": false,
          "inputs": [
            {
              "indexed": false,
              "internalType": "bytes32",
              "name": "streamId",
              "type": "bytes32"
            }
          ],
          "name": "StreamTipClaimed",
          "type": "event"
        },
        {
          "anonymous": false,
          "inputs": [
            {
              "indexed": false,
              "internalType": "bytes32",
              "name": "streamId",
              "type": "bytes32"
            },
            {
              "indexed": false,
              "internalType": "bytes32",
              "name": "tipId",
              "type": "bytes32"
            }
          ],
          "name": "StreamTipEnded",
          "type": "event"
        },
        {
          "anonymous": false,
          "inputs": [
            {
              "indexed": false,
              "internalType": "address",
              "name": "streamer",
              "type": "address"
            }
          ],
          "name": "StreamerCreated",
          "type": "event"
        },
        {
          "anonymous": false,
          "inputs": [
            {
              "indexed": false,
              "internalType": "bytes32",
              "name": "streamId",
              "type": "bytes32"
            },
            {
              "indexed": false,
              "internalType": "bytes32",
              "name": "tipId",
              "type": "bytes32"
            }
          ],
          "name": "TipCreated",
          "type": "event"
        },
        {
          "anonymous": false,
          "inputs": [
            {
              "indexed": false,
              "internalType": "bytes32",
              "name": "streamId",
              "type": "bytes32"
            },
            {
              "indexed": false,
              "internalType": "address",
              "name": "viewer",
              "type": "address"
            },
            {
              "indexed": false,
              "internalType": "uint256",
              "name": "amount",
              "type": "uint256"
            }
          ],
          "name": "Tipped",
          "type": "event"
        },
        {
          "anonymous": false,
          "inputs": [
            {
              "indexed": false,
              "internalType": "address",
              "name": "account",
              "type": "address"
            }
          ],
          "name": "Unpaused",
          "type": "event"
        },
        {
          "anonymous": false,
          "inputs": [
            {
              "indexed": false,
              "internalType": "address",
              "name": "streamer",
              "type": "address"
            },
            {
              "indexed": false,
              "internalType": "address",
              "name": "cardId",
              "type": "address"
            }
          ],
          "name": "VideoCreated",
          "type": "event"
        },
        {
          "inputs": [],
          "name": "DEFAULT_ADMIN_ROLE",
          "outputs": [
            {
              "internalType": "bytes32",
              "name": "",
              "type": "bytes32"
            }
          ],
          "stateMutability": "view",
          "type": "function"
        },
        {
          "inputs": [],
          "name": "claimAll",
          "outputs": [],
          "stateMutability": "nonpayable",
          "type": "function"
        },
        {
          "inputs": [
            {
              "internalType": "uint256",
              "name": "amount",
              "type": "uint256"
            }
          ],
          "name": "claimTfuel",
          "outputs": [],
          "stateMutability": "nonpayable",
          "type": "function"
        },
        {
          "inputs": [
            {
              "internalType": "uint256",
              "name": "amount",
              "type": "uint256"
            }
          ],
          "name": "claimThurbe",
          "outputs": [],
          "stateMutability": "nonpayable",
          "type": "function"
        },
        {
          "inputs": [
            {
              "internalType": "string",
              "name": "cardBaseURI",
              "type": "string"
            },
            {
              "internalType": "string",
              "name": "name",
              "type": "string"
            },
            {
              "internalType": "string",
              "name": "symbol",
              "type": "string"
            },
            {
              "internalType": "uint256",
              "name": "mintPrice",
              "type": "uint256"
            },
            {
              "internalType": "string",
              "name": "cardExlusiveBaseURI",
              "type": "string"
            }
          ],
          "name": "create",
          "outputs": [],
          "stateMutability": "nonpayable",
          "type": "function"
        },
        {
          "inputs": [
            {
              "internalType": "address",
              "name": "streamer",
              "type": "address"
            },
            {
              "internalType": "bool",
              "name": "exclusive",
              "type": "bool"
            }
          ],
          "name": "getCardId",
          "outputs": [
            {
              "internalType": "address",
              "name": "",
              "type": "address"
            }
          ],
          "stateMutability": "view",
          "type": "function"
        },
        {
          "inputs": [
            {
              "internalType": "bytes32",
              "name": "role",
              "type": "bytes32"
            }
          ],
          "name": "getRoleAdmin",
          "outputs": [
            {
              "internalType": "bytes32",
              "name": "",
              "type": "bytes32"
            }
          ],
          "stateMutability": "view",
          "type": "function"
        },
        {
          "inputs": [
            {
              "internalType": "bytes32",
              "name": "streamId",
              "type": "bytes32"
            }
          ],
          "name": "getStream",
          "outputs": [
            {
              "components": [
                {
                  "internalType": "address",
                  "name": "streamer",
                  "type": "address"
                },
                {
                  "internalType": "bytes32",
                  "name": "tipId",
                  "type": "bytes32"
                },
                {
                  "internalType": "address",
                  "name": "cardId",
                  "type": "address"
                }
              ],
              "internalType": "struct Data.Stream",
              "name": "",
              "type": "tuple"
            }
          ],
          "stateMutability": "view",
          "type": "function"
        },
        {
          "inputs": [
            {
              "internalType": "address",
              "name": "streamer",
              "type": "address"
            }
          ],
          "name": "getStreamer",
          "outputs": [
            {
              "components": [
                {
                  "internalType": "uint256",
                  "name": "totalUnClaimedTfuel",
                  "type": "uint256"
                },
                {
                  "internalType": "uint256",
                  "name": "totalClaimedTfuel",
                  "type": "uint256"
                },
                {
                  "internalType": "uint256",
                  "name": "totalUnClaimedThurbe",
                  "type": "uint256"
                },
                {
                  "internalType": "uint256",
                  "name": "totalClaimedThurbe",
                  "type": "uint256"
                },
                {
                  "internalType": "uint256",
                  "name": "createdAt",
                  "type": "uint256"
                }
              ],
              "internalType": "struct Data.Streamer",
              "name": "",
              "type": "tuple"
            }
          ],
          "stateMutability": "view",
          "type": "function"
        },
        {
          "inputs": [
            {
              "internalType": "bytes32",
              "name": "videoId",
              "type": "bytes32"
            }
          ],
          "name": "getVideo",
          "outputs": [
            {
              "components": [
                {
                  "internalType": "address",
                  "name": "streamer",
                  "type": "address"
                },
                {
                  "internalType": "bytes32",
                  "name": "tipId",
                  "type": "bytes32"
                },
                {
                  "internalType": "address",
                  "name": "cardId",
                  "type": "address"
                }
              ],
              "internalType": "struct Data.Video",
              "name": "",
              "type": "tuple"
            }
          ],
          "stateMutability": "view",
          "type": "function"
        },
        {
          "inputs": [
            {
              "internalType": "bytes32",
              "name": "role",
              "type": "bytes32"
            },
            {
              "internalType": "address",
              "name": "account",
              "type": "address"
            }
          ],
          "name": "grantRole",
          "outputs": [],
          "stateMutability": "nonpayable",
          "type": "function"
        },
        {
          "inputs": [
            {
              "internalType": "bytes32",
              "name": "role",
              "type": "bytes32"
            },
            {
              "internalType": "address",
              "name": "account",
              "type": "address"
            }
          ],
          "name": "hasRole",
          "outputs": [
            {
              "internalType": "bool",
              "name": "",
              "type": "bool"
            }
          ],
          "stateMutability": "view",
          "type": "function"
        },
        {
          "inputs": [
            {
              "internalType": "address",
              "name": "streamer",
              "type": "address"
            },
            {
              "internalType": "address",
              "name": "to",
              "type": "address"
            },
            {
              "internalType": "bool",
              "name": "exclusive",
              "type": "bool"
            }
          ],
          "name": "mintCard",
          "outputs": [],
          "stateMutability": "payable",
          "type": "function"
        },
        {
          "inputs": [],
          "name": "pause",
          "outputs": [],
          "stateMutability": "nonpayable",
          "type": "function"
        },
        {
          "inputs": [
            {
              "internalType": "bytes32",
              "name": "streamId",
              "type": "bytes32"
            }
          ],
          "name": "pauseTip",
          "outputs": [],
          "stateMutability": "nonpayable",
          "type": "function"
        },
        {
          "inputs": [],
          "name": "paused",
          "outputs": [
            {
              "internalType": "bool",
              "name": "",
              "type": "bool"
            }
          ],
          "stateMutability": "view",
          "type": "function"
        },
        {
          "inputs": [
            {
              "internalType": "bytes32",
              "name": "role",
              "type": "bytes32"
            },
            {
              "internalType": "address",
              "name": "callerConfirmation",
              "type": "address"
            }
          ],
          "name": "renounceRole",
          "outputs": [],
          "stateMutability": "nonpayable",
          "type": "function"
        },
        {
          "inputs": [
            {
              "internalType": "bytes32",
              "name": "role",
              "type": "bytes32"
            },
            {
              "internalType": "address",
              "name": "account",
              "type": "address"
            }
          ],
          "name": "revokeRole",
          "outputs": [],
          "stateMutability": "nonpayable",
          "type": "function"
        },
        {
          "inputs": [
            {
              "internalType": "bytes32",
              "name": "streamId",
              "type": "bytes32"
            },
            {
              "internalType": "bool",
              "name": "exclusive",
              "type": "bool"
            },
            {
              "internalType": "bool",
              "name": "tips",
              "type": "bool"
            }
          ],
          "name": "startStream",
          "outputs": [],
          "stateMutability": "nonpayable",
          "type": "function"
        },
        {
          "inputs": [
            {
              "internalType": "bytes4",
              "name": "interfaceId",
              "type": "bytes4"
            }
          ],
          "name": "supportsInterface",
          "outputs": [
            {
              "internalType": "bool",
              "name": "",
              "type": "bool"
            }
          ],
          "stateMutability": "view",
          "type": "function"
        },
        {
          "inputs": [
            {
              "internalType": "bytes32",
              "name": "streamId",
              "type": "bytes32"
            },
            {
              "internalType": "uint256",
              "name": "amount",
              "type": "uint256"
            }
          ],
          "name": "tipStream",
          "outputs": [],
          "stateMutability": "nonpayable",
          "type": "function"
        },
        {
          "inputs": [
            {
              "internalType": "bytes32",
              "name": "videoId",
              "type": "bytes32"
            },
            {
              "internalType": "uint256",
              "name": "amount",
              "type": "uint256"
            }
          ],
          "name": "tipVideo",
          "outputs": [],
          "stateMutability": "nonpayable",
          "type": "function"
        },
        {
          "inputs": [],
          "name": "unPause",
          "outputs": [],
          "stateMutability": "nonpayable",
          "type": "function"
        },
        {
          "inputs": [
            {
              "internalType": "bytes32",
              "name": "videoId",
              "type": "bytes32"
            },
            {
              "internalType": "bool",
              "name": "exclusive",
              "type": "bool"
            },
            {
              "internalType": "bool",
              "name": "tips",
              "type": "bool"
            }
          ],
          "name": "uploadVideo",
          "outputs": [],
          "stateMutability": "nonpayable",
          "type": "function"
        }
      ],
      "evm": {
        "bytecode": {
          "linkReferences": {},
          "object": "6080346200016457601f62005c0c38819003918201601f19168301926001600160401b03929091838511838610176200014e5781602092849260409788528339810103126200016457516001600160a01b038082169291839003620001645760ff19600154166001558351916137c49283810193818510838611176200014e5762001e1d823930845260208160009503019084f08015620001445760018054610100600160a81b03191660089290921b610100600160a81b031691909117905584519061062b8083019182118383101762000130576020918391620055e1833930815203019083f091821562000125575060018060a01b031991168160025416176002556200010e3362000169565b50600654161760065551611c229081620001fb8239f35b8451903d90823e3d90fd5b634e487b7160e01b85526041600452602485fd5b85513d85823e3d90fd5b634e487b7160e01b600052604160045260246000fd5b600080fd5b6001600160a01b031660008181527fad3228b676f7d3cd4284a5443f17f1962b36e491b30a40b2405849e597ba5fb5602052604081205490919060ff16620001f657818052816020526040822081835260205260408220600160ff1982541617905533917f2f8788117e7eff1d82e926ec794901d17c78024a50270940304540a733656f0d8180a4600190565b509056fe6080604081815260048036101561001557600080fd5b600092833560e01c90816301ffc9a7146115e2575080631290abe8146115ae578063248a9ca3146115855780632f2ff15d1461155c57806336568abe146114fc57806347a6ef08146113f557806355cb9b5c146112805780635c975abb1461125c578063636a5d23146111fe5780637253c4db14610ffd5780637756cd5814610de25780638456cb5914610d8857806391d1485414610d435780639ef287a414610c4e578063a217fddf14610c33578063b53230f414610a02578063c497eebb1461087d578063cd7f8591146107cb578063d1058e591461062d578063d547741f146105ef578063dbb779ed146104e1578063dcc1616d14610271578063eb1dbbdd146101b05763f7b188a51461012b57600080fd5b346101ac57826003193601126101ac5761014361195a565b6001549060ff821615610185575060ff1916600155513381527f5db9ee0a495bf2e6ff9c91a7834c1ba4fdd244a5e8aa4e537bd38aeae4b073aa90602090a180f35b82517f8dfc202b000000000000000000000000000000000000000000000000000000008152fd5b8280fd5b50346101ac5760203660031901126101ac57356101cb611aed565b33835260056020528183206101e382825410156118c2565b8380838015610267575b8280929181923390f11561025b57907f0827dacd90918f1f37f20d339547c89c897889cf6a581de7c2394ae65e4d21e29260018361022f84610255965461190d565b81550161023d83825461189f565b90555133815260208101919091529081906040820190565b0390a180f35b505051903d90823e3d90fd5b6108fc91506101ed565b50346101ac576003199160a0368401126104d55767ffffffffffffffff9282358481116104dd576102a59036908501611773565b92856024358681116104d9576102be9036908401611773565b916044358781116101ac576102d69036908301611773565b966084359081116101ac576102ee9036908301611773565b93338352602096600588528287852001546104d557865161030e81611735565b84815283898083018781528a8401888152606085019189835260056080870194428652338c52528c8a2095518655516001860155516002850155516003840155519101556103a5886001600160a01b03926001548a888682518097819682957f97e68eb60000000000000000000000000000000000000000000000000000000084528d33908501526024840152604483019061191a565b039360081c165af180156104cb579261041596949261043c928b9997956104ae575b5060015460081c16956104258a519c8d998a9889977f032b1ff9000000000000000000000000000000000000000000000000000000008952339089015260a0602489015260a488019061191a565b908487830301604488015261191a565b91606435606486015284830301608485015261191a565b03925af19283156104a4577ffbb783f21f0b5e85632eb4c5b42c22d1208c89609fa8c42fd48ecf827cb9586493610477575b5051338152a180f35b61049690833d851161049d575b61048e8183611751565b81019061181d565b503861046e565b503d610484565b81513d86823e3d90fd5b6104c4908a3d8c1161049d5761048e8183611751565b50386103c7565b88513d87823e3d90fd5b8380fd5b5080fd5b8580fd5b50346101ac5760203660031901126101ac578035906104fe611aed565b338452600560205282842090610561602084600285019361052282865410156118c2565b6001600160a01b03600654169089895180968195829463a9059cbb60e01b845233908401602090939291936001600160a01b0360408201951681520152565b03925af180156105e557927f2d9a1bdd4eb5e4a9cf6d460ad9f50107b4ce07174c163778be49a66ca7e18080959260039261025596956105b6575b506105a885825461190d565b90550161023d83825461189f565b6105d79060203d6020116105de575b6105cf8183611751565b81019061183c565b503861059c565b503d6105c5565b85513d88823e3d90fd5b5090346101ac57806003193601126101ac5761062991356106246001610613611681565b9383875286602052862001546119b2565b611a77565b5080f35b50346101ac57826003193601126101ac57338352602060058152828420805490610655611aed565b338652600583528486209161066d81845410156118c2565b86808280156107c1575b8280929181923390f1156105e5576106e1816001856106ba7f0827dacd90918f1f37f20d339547c89c897889cf6a581de7c2394ae65e4d21e2956002985461190d565b8155016106c882825461189f565b9055875133815260208101919091529081906040820190565b0390a10154916106ef611aed565b33855260058252838520916107508185600286019461071182875410156118c2565b6001600160a01b0360065416908a8a5180968195829463a9059cbb60e01b845233908401602090939291936001600160a01b0360408201951681520152565b03925af180156107b757926003926102559695927f2d9a1bdd4eb5e4a9cf6d460ad9f50107b4ce07174c163778be49a66ca7e180809895610799575b50506105a885825461190d565b816107af92903d106105de576105cf8183611751565b50388061078c565b86513d89823e3d90fd5b6108fc9150610677565b5090346101ac5760203660031901126101ac578060a0936001600160a01b036107f2611697565b826080855161080081611735565b8281528260208201528287820152826060820152015216815260056020522081519161082b83611735565b8154938484526001830154602085019081526080600285015492848701938452600386015495606088019687520154950194855282519586525160208601525190840152516060830152516080820152f35b5090346101ac5761088d366116ad565b91610896611aed565b6001600160a01b03806006541694825180966323b872dd60e01b82526020978891818b816108e68c30338b85016040919493929460608201956001600160a01b0380921683521660208201520152565b03925af180156109f8576109db575b50838752808652866109088482206117e9565b918783019061091982511515611854565b84600254169151823b156104d557604484928389519586948593633b52301d60e01b85528401528c60248401525af180156109d1576109b3575b50507f0151faccd240317074531046f03541fa6730271998b121127da727645d6a371d956102559392600592511688525260028187200161099585825461189f565b90555191825233602083015260408201929092529081906060820190565b6109bf909493946116ef565b6109cd578638939293610953565b8680fd5b85513d84823e3d90fd5b6109f190873d89116105de576105cf8183611751565b50386108f5565b84513d8a823e3d90fd5b509060603660031901126101ac57610a18611697565b90610a21611681565b92604435938415158503610c2e57859415610bcd576001600160a01b0360208160015460081c1691602486518094819363f82568f960e01b83528a16888301525afa908115610bc3578691610ba4575b50935b6001600160a01b039084517fa7f93ebd0000000000000000000000000000000000000000000000000000000081526020818681868b165afa908115610b9a578891610b64575b5034106109cd57811686526005602052838620610ad834825461189f565b905560015460081c16803b156104dd5783517f3fd39fa10000000000000000000000000000000000000000000000000000000081526001600160a01b03958616938101938452949091166020830152849184919082908490829060400103925af1908115610b5b5750610b485750f35b610b51906116ef565b610b585780f35b80fd5b513d84823e3d90fd5b90506020813d602011610b92575b81610b7f60209383611751565b81010312610b8e575138610aba565b8780fd5b3d9150610b72565b86513d8a823e3d90fd5b610bbd915060203d60201161049d5761048e8183611751565b38610a71565b84513d88823e3d90fd5b6001600160a01b0360208160015460081c1691602486518094819363ceafb18d60e01b83528a16888301525afa908115610bc3578691610c0f575b5093610a74565b610c28915060203d60201161049d5761048e8183611751565b38610c08565b600080fd5b5050346104d957816003193601126104d95751908152602090f35b5090346101ac5760203660031901126101ac5782823592610c6d611aed565b83825260036020526020610c828484206117e9565b0190610c9082511515611854565b6001600160a01b03600254169151823b156104d55784517f9809758100000000000000000000000000000000000000000000000000000000815233928101928352602083019190915291839183919082908490829060400103925af18015610d3957610d25575b507fa2a74c5cb3c53c766fbc5dee93f5efb7537191362c474fe948c73eb8402cb5196020848451908152a180f35b610d2e906116ef565b6101ac578238610cf7565b83513d84823e3d90fd5b50346101ac57816003193601126101ac576001600160a01b0382602094610d68611681565b93358152808652209116600052825260ff81600020541690519015158152f35b5050346104d957816003193601126104d95760207f62e78cea01bee320cd4e420270b5ea74000d11b0c9f74754ebdbfc544b05a25891610dc661195a565b610dce611aed565b600160ff198154161760015551338152a180f35b5090346101ac57610df2366116c3565b919390610dfd611aed565b15610f9f57602460206001600160a01b0360015460081c1685519283809263f82568f960e01b825233878301525afa908115610bc3578691610f80575b50905b6001600160a01b03808316918215610f3d5750858752600360205284872054166104dd577fb6ec0c1de71a7d0de3b9c620825a32b99343a5b857aeb567152407c2fd78392491610ef5610f1492865190610e9682611719565b3382528960208301528782015287895260036020528689206001600160a01b0360406002828551169373ffffffffffffffffffffffffffffffffffffffff19948582541617815560208601516001820155019301511690825416179055565b84513381526001600160a01b0390911660208201529081906040820190565b0390a1610f1f578280f35b600190610f2b83611b23565b92845260036020528320015538808280f35b606490602087519162461bcd60e51b8352820152601a60248201527f496e636c75736976652063617264206e6f7420637265617465640000000000006044820152fd5b610f99915060203d60201161049d5761048e8183611751565b38610e3a565b602460206001600160a01b0360015460081c1685519283809263ceafb18d60e01b825233878301525afa908115610bc3578691610fde575b5090610e3d565b610ff7915060203d60201161049d5761048e8183611751565b38610fd7565b50346101ac5761100c366116c3565b90611018949294611aed565b156111a157602460206001600160a01b0360015460081c1684519283809263f82568f960e01b825233898301525afa908115611197578691611178575b505b6001600160a01b0380821690811561113557868852600360205284882054166109cd577f99bdb3b69a4967125cd3125ed7837d0518fb19e0bc15f01ff01c613b9fa53e9091610ef561110d928651906110af82611719565b3382528a602083015287820152888a5287602052868a206001600160a01b0360406002828551169373ffffffffffffffffffffffffffffffffffffffff19948582541617815560208601516001820155019301511690825416179055565b0390a1611118578380f35b60019161112484611b23565b938552602052832001553880808380f35b606486602087519162461bcd60e51b8352820152601060248201527f43617264206e6f742063726561746564000000000000000000000000000000006044820152fd5b611191915060203d60201161049d5761048e8183611751565b38611055565b83513d88823e3d90fd5b602460206001600160a01b0360015460081c1684519283809263ceafb18d60e01b825233898301525afa9081156111975786916111df575b50611057565b6111f8915060203d60201161049d5761048e8183611751565b386111d9565b50346101ac5760203660031901126101ac576112318260609461125a936112236117ca565b5080358252602052206117e9565b91518092604090816001600160a01b039182815116855260208101516020860152015116910152565bf35b5050346104d957816003193601126104d95760209060ff6001541690519015158152f35b509190346104d957611291366116ad565b9161129a611aed565b60065481516323b872dd60e01b8152338782019081523060208083019190915260408201879052926001600160a01b039291849183918290036060019082908b9087165af180156113ca576113d8575b50838652600382526112fd8387206117e9565b968288019061130e82511515611854565b8260025416915190823b156113d45790604489928388519586948593633b52301d60e01b85528401528b60248401525af180156113ca5761138c575b5061025592916005917f0151faccd240317074531046f03541fa6730271998b121127da727645d6a371d9798511688525260028187200161099585825461189f565b916005917f0151faccd240317074531046f03541fa6730271998b121127da727645d6a371d976113bf61025596956116ef565b97509150919261134a565b84513d89823e3d90fd5b8880fd5b6113ee90833d85116105de576105cf8183611751565b50386112ea565b50346101ac57816003193601126101ac5761140e611697565b6024359081151582036114f8576020911561148f5760246001600160a01b03918260015460081c168651958694859363f82568f960e01b855216908301525afa90811561025b57906001600160a01b039160209491611472575b50915b5191168152f35b6114899150843d861161049d5761048e8183611751565b38611468565b60246001600160a01b03918260015460081c168651958694859363ceafb18d60e01b855216908301525afa90811561025b57906001600160a01b0391602094916114db575b509161146b565b6114f29150843d861161049d5761048e8183611751565b386114d4565b8480fd5b509190346104d957806003193601126104d957611517611681565b90336001600160a01b038316036115345750610629919235611a77565b8390517f6697b232000000000000000000000000000000000000000000000000000000008152fd5b5090346101ac57806003193601126101ac5761062991356115806001610613611681565b6119f8565b50346101ac5760203660031901126101ac57816020936001923581528085522001549051908152f35b50346101ac5760203660031901126101ac576112318260609461125a936115d36117ca565b503581526003602052206117e9565b925050346101ac5760203660031901126101ac57357fffffffff0000000000000000000000000000000000000000000000000000000081168091036101ac57602092507f7965db0b000000000000000000000000000000000000000000000000000000008114908115611657575b5015158152f35b7f01ffc9a70000000000000000000000000000000000000000000000000000000091501438611650565b602435906001600160a01b0382168203610c2e57565b600435906001600160a01b0382168203610c2e57565b6040906003190112610c2e576004359060243590565b6060906003190112610c2e57600435906024358015158103610c2e57906044358015158103610c2e5790565b67ffffffffffffffff811161170357604052565b634e487b7160e01b600052604160045260246000fd5b6060810190811067ffffffffffffffff82111761170357604052565b60a0810190811067ffffffffffffffff82111761170357604052565b90601f8019910116810190811067ffffffffffffffff82111761170357604052565b81601f82011215610c2e5780359067ffffffffffffffff821161170357604051926117a8601f8401601f191660200185611751565b82845260208383010111610c2e57816000926020809301838601378301015290565b604051906117d782611719565b60006040838281528260208201520152565b906040516117f681611719565b6040819360026001600160a01b039182815416855260018101546020860152015416910152565b90816020910312610c2e57516001600160a01b0381168103610c2e5790565b90816020910312610c2e57518015158103610c2e5790565b1561185b57565b606460405162461bcd60e51b815260206004820152600d60248201527f4e6f2073747265616d20746970000000000000000000000000000000000000006044820152fd5b919082018092116118ac57565b634e487b7160e01b600052601160045260246000fd5b156118c957565b606460405162461bcd60e51b815260206004820152600c60248201527f496e73756666696369656e7400000000000000000000000000000000000000006044820152fd5b919082039182116118ac57565b919082519283825260005b848110611946575050826000602080949584010152601f8019910116010190565b602081830181015184830182015201611925565b3360009081527fad3228b676f7d3cd4284a5443f17f1962b36e491b30a40b2405849e597ba5fb5602052604081205460ff16156119945750565b6044906040519063e2517d3f60e01b82523360048301526024820152fd5b80600052600060205260406000203360005260205260ff60406000205416156119d85750565b60405163e2517d3f60e01b81523360048201526024810191909152604490fd5b90600091808352826020526001600160a01b036040842092169182845260205260ff60408420541615600014611a7257808352826020526040832082845260205260408320600160ff198254161790557f2f8788117e7eff1d82e926ec794901d17c78024a50270940304540a733656f0d339380a4600190565b505090565b90600091808352826020526001600160a01b036040842092169182845260205260ff604084205416600014611a725780835282602052604083208284526020526040832060ff1981541690557ff6391f5c32d9c69d2a47ea670b442974b53935d1edc7fd64eb21e047a839171b339380a4600190565b60ff60015416611af957565b60046040517fd93c0665000000000000000000000000000000000000000000000000000000008152fd5b60009060206001600160a01b03600254166024604051809581937fdd0b281e0000000000000000000000000000000000000000000000000000000083523360048401525af1918215611be057600092611bab575b5060407f236fd1951ac6aca14ad8c0126104dbb231554bef74d9eb1ea9b3a14781edde5f918151908152836020820152a190565b9091506020813d602011611bd8575b81611bc760209383611751565b81010312610c2e5751906040611b77565b3d9150611bba565b6040513d6000823e3d90fdfea26469706673582212204e7d4d483baa38d726a711c5639c629bfd200c67636d2d6d4cba72ba0629ee0764736f6c634300081800336080346100bb57601f6137c438819003918201601f19168301916001600160401b038311848410176100c0578084926020946040528339810103126100bb57516001600160a01b0390818116908190036100bb5780156100a257600080546001600160a01b03198116831782556040519316907f8be0079c531659141344cd1fd0a4f28419497f9722a3daafe3b4186f6b6457e09080a36136ed90816100d78239f35b604051631e4fbdf760e01b815260006004820152602490fd5b600080fd5b634e487b7160e01b600052604160045260246000fdfe604060808152600490813610156200001657600080fd5b600091823560e01c908163032b1ff9146200041d578382633fd39fa1146200035b57508163715018a614620002ed5781638da5cb5b14620002c557816397e68eb614620001bf578163ceafb18d1462000181578163f2fde38b14620000c6575063f82568f9146200008657600080fd5b34620000c2576020366003190112620000c257602091816001600160a01b039182620000b162000578565b168152600285522054169051908152f35b5080fd5b9050346200017d5760203660031901126200017d57620000e562000578565b90620000f062000653565b6001600160a01b038092169283156200014e5750506000548273ffffffffffffffffffffffffffffffffffffffff19821617600055167f8be0079c531659141344cd1fd0a4f28419497f9722a3daafe3b4186f6b6457e0600080a380f35b908460249251917f1e4fbdf7000000000000000000000000000000000000000000000000000000008352820152fd5b8280fd5b505034620000c2576020366003190112620000c257602091816001600160a01b039182620001ae62000578565b168152600185522054169051908152f35b919050346200017d57806003193601126200017d57620001de62000578565b67ffffffffffffffff92602435848111620002c15762000202903690830162000594565b6200020c62000653565b6001600160a01b03809316948587526001602052838588205416620002bd578451926117ed908185019285841090841117620002aa5750918562000263928594620006998639308152816020820152019062000611565b039085f08015620002a0579382916020951693815260018552208273ffffffffffffffffffffffffffffffffffffffff1982541617905551908152f35b82513d86823e3d90fd5b886041602492634e487b7160e01b835252fd5b8680fd5b8580fd5b505034620000c25781600319360112620000c2576001600160a01b0360209254169051908152f35b833462000358578060031936011262000358576200030a62000653565b60006001600160a01b03815473ffffffffffffffffffffffffffffffffffffffff1981168355167f8be0079c531659141344cd1fd0a4f28419497f9722a3daafe3b4186f6b6457e08280a380f35b80fd5b9291503462000419578160031936011262000419576200037a62000578565b602435906001600160a01b0390818316809303620002c1576200039c62000653565b16803b15620004155760248592855196879384927f6a627842000000000000000000000000000000000000000000000000000000008452878401525af18015620002a057620003e9578380f35b67ffffffffffffffff8311620004025750523880808380f35b836041602492634e487b7160e01b835252fd5b8480fd5b5050fd5b919050346200017d5760a03660031901126200017d576200043d62000578565b67ffffffffffffffff92602435848111620002c15762000461903690830162000594565b93604435818111620002bd576200047c903690840162000594565b608435828111620005745762000496903690850162000594565b906001600160a01b0380951696878952600260205285878a20541662000570578651946118329081870195878710908711176200055d5750859492620004fb620005209593620005099362001e86893930865260a0602087015260a086019062000611565b908482038a86015262000611565b916064356060820152608081840391015262000611565b039085f08015620002a0579382916020951693815260028552208273ffffffffffffffffffffffffffffffffffffffff1982541617905551908152f35b8a6041602492634e487b7160e01b835252fd5b8880fd5b8780fd5b600435906001600160a01b03821682036200058f57565b600080fd5b81601f820112156200058f5780359067ffffffffffffffff92838311620005fb5760405193601f8401601f19908116603f0116850190811185821017620005fb57604052828452602083830101116200058f57816000926020809301838601378301015290565b634e487b7160e01b600052604160045260246000fd5b919082519283825260005b8481106200063e575050826000602080949584010152601f8019910116010190565b6020818301810151848301820152016200061c565b6001600160a01b036000541633036200066857565b60246040517f118cdaa7000000000000000000000000000000000000000000000000000000008152336004820152fdfe6080604052346200051e57620017ed803803806200001d8162000543565b9283398101906040818303126200051e5780516001600160a01b0390818116908190036200051e576020838101516001600160401b03948582116200051e570194601f918183880112156200051e5786518681116200033957601f19976200008b8286018a16840162000543565b938285528383830101116200051e57829060005b8381106200050957505060009184010152620000ba62000523565b93600d85526c125b98db1d5cda5d9950d85c99609a1b82860152620000de62000523565b9560039687815262494e4360e81b84820152865189811162000339576000546001988982811c92168015620004fe575b8783101462000318578189849311620004a8575b508690898311600114620004445760009262000438575b5050600019828b1b1c191690881b176000555b80519089821162000339578754908882811c921680156200042d575b8683101462000318578188849311620003d7575b508590888311600114620003745760009262000368575b5050600019828a1b1c191690871b1786555b81156200034f57600680546001600160a01b031981168417909155167f8be0079c531659141344cd1fd0a4f28419497f9722a3daafe3b4186f6b6457e0600080a3815195861162000339576008548481811c911680156200032e575b828210146200031857838111620002cc575b50809286116001146200025e57508495509084929160009562000252575b50501b92600019911b1c1916176008555b60405161128390816200056a8239f35b01519350388062000231565b93929585908116600860005285600020956000905b89838310620002b1575050501062000296575b50505050811b0160085562000242565b01519060f884600019921b161c191690553880808062000286565b85870151895590970196948501948893509081019062000273565b6008600052816000208480890160051c820192848a106200030e575b0160051c019085905b8281106200030157505062000213565b60008155018590620002f1565b92508192620002e8565b634e487b7160e01b600052602260045260246000fd5b90607f169062000201565b634e487b7160e01b600052604160045260246000fd5b604051631e4fbdf760e01b815260006004820152602490fd5b01519050388062000193565b908c8a94169184600052876000209260005b89828210620003c05750508411620003a7575b505050811b018655620001a5565b0151600019838c1b60f8161c1916905538808062000399565b8385015186558d9790950194938401930162000386565b90915088600052856000208880850160051c82019288861062000423575b918b91869594930160051c01915b828110620004135750506200017c565b600081558594508b910162000403565b92508192620003f5565b91607f169162000168565b01519050388062000139565b908d8b94169160008052886000209260005b8a82821062000491575050841162000478575b505050811b016000556200014c565b0151600019838d1b60f8161c1916905538808062000469565b8385015186558e9790950194938401930162000456565b90915060008052866000208980850160051c820192898610620004f4575b918c91869594930160051c01915b828110620004e457505062000122565b600081558594508c9101620004d4565b92508192620004c6565b91607f16916200010e565b8181018301518682018401528492016200009f565b600080fd5b60408051919082016001600160401b038111838210176200033957604052565b6040519190601f01601f191682016001600160401b03811183821017620003395760405256fe6080604081815260048036101561001557600080fd5b600092833560e01c90816301ffc9a714610af25750806306fdde0314610a41578063081812fc14610a08578063095ea7b31461091557806323b872dd146108fd57806342842e0e146108ae57806342966c68146107855780636352211e146107555780636a627842146105f957806370a082311461058b578063715018a6146105305780638da5cb5b1461050857806395d89b4114610429578063a22cb4651461036f578063a7f93ebd14610354578063b88d4fde146102cb578063c87b56dd146101ea578063e985e9c5146101985763f2fde38b146100f457600080fd5b346101945760203660031901126101945761010d610c02565b90610116611209565b6001600160a01b03809216928315610165575050600654826001600160a01b0319821617600655167f8be0079c531659141344cd1fd0a4f28419497f9722a3daafe3b4186f6b6457e08380a380f35b908460249251917f1e4fbdf7000000000000000000000000000000000000000000000000000000008352820152fd5b8280fd5b5050346101e657806003193601126101e65760ff816020936101b8610c02565b6101c0610c1d565b6001600160a01b0391821683526005875283832091168252855220549151911615158152f35b5080fd5b50903461019457602091826003193601126102c7573583526009825280832081519384918181549061021b82610cbc565b928386526001928860018216918260001461029d57505060011461025f575b858861025b8961024c848a0385610c68565b51928284938452830190610bc2565b0390f35b87945081939291528383205b828410610285575050508201018161024c61025b3861023a565b8054848a01860152889550879490930192810161026b565b60ff19168882015294151560051b8701909401945085935061024c925061025b915038905061023a565b8380fd5b509034610194576080366003190112610194576102e6610c02565b6102ee610c1d565b846064359467ffffffffffffffff86116101e657366023870112156101e6578501359461032661031d87610ca0565b95519586610c68565b85855236602487830101116101e6578561035196602460209301838801378501015260443591611039565b80f35b5050346101e657816003193601126101e65751908152602090f35b509034610194578060031936011261019457610389610c02565b9060243591821515809303610425576001600160a01b03169283156103f75750338452600560205280842083855260205280842060ff1981541660ff8416179055519081527f17307eab39ab6107e8899845ad3d59bd9653f200f220920489ca2b5937696c3160203392a380f35b8360249251917f5b08ba18000000000000000000000000000000000000000000000000000000008352820152fd5b8480fd5b82843461050557806003193601126105055781519182826001936001549461045086610cbc565b91828552602096876001821691826000146104de575050600114610482575b50505061025b929161024c910385610c68565b9190869350600183527fb10e2d527612073b26eecdfd717e6a320cf44b4afac2b0732d9fcbe2b7fa0cf65b8284106104c6575050508201018161024c61025b61046f565b8054848a0186015288955087949093019281016104ad565b60ff19168782015293151560051b8601909301935084925061024c915061025b905061046f565b80fd5b5050346101e657816003193601126101e6576020906001600160a01b03600654169051908152f35b8334610505578060031936011261050557610549611209565b806001600160a01b036006546001600160a01b03198116600655167f8be0079c531659141344cd1fd0a4f28419497f9722a3daafe3b4186f6b6457e08280a380f35b509134610505576020366003190112610505576001600160a01b036105ae610c02565b169283156105cb5750806020938392526003845220549051908152f35b9060249251917f89c62b64000000000000000000000000000000000000000000000000000000008352820152fd5b50823461050557602092836003193601126101e657610616610c02565b61061e611209565b6007546001600160a01b0380921691821561073f57818552600287528385205416918215159283610707575b818652600388528486206001815401905582865260028852848620826001600160a01b03198254161790557fddf252ad1be2c89b69c2b068fc378daa952ba7f163c4a11628f55a4df523b3ef8680a46106d9576106b1906009856007548552528220610ee2565b60075460001981146106c65760010160075580f35b506011602492634e487b7160e01b835252fd5b6024935051917f73c6ac6e000000000000000000000000000000000000000000000000000000008352820152fd5b61072883600052600460205260406000206001600160a01b03198154169055565b80865260038852848620805460001901905561064a565b60248686865191633250574960e11b8352820152fd5b50913461050557602036600319011261050557506001600160a01b0361077d602093356111ce565b915191168152f35b50903461019457602090816003193601126102c7578235916107a5611209565b82855260098152848281206107ba8154610cbc565b80610872575b50508390526002815282856001600160a01b0384822054166002811594851561083a575b848452528482206001600160a01b031981541690557fddf252ad1be2c89b69c2b068fc378daa952ba7f163c4a11628f55a4df523b3ef8280a4610825578380f35b602493505191637e27328960e01b8352820152fd5b61085b85600052600460205260406000206001600160a01b03198154169055565b8284526003815286842080546000190190556107e4565b82601f821160011461088a575050555b8438806107c0565b90918082526108a7601f868420940160051c840160018501610ecb565b5555610882565b509190346101e6576108bf36610c33565b91835193602085019085821067ffffffffffffffff8311176108ea5761035196975052858452611039565b60248760418a634e487b7160e01b835252fd5b83346105055761035161090f36610c33565b91610cf6565b50903461019457806003193601126101945761092f610c02565b9160243561093c816111ce565b331515806109f5575b806109cd575b61099e5781906001600160a01b03809616958691167f8c5be1e5ebec7d5bd14f71427d1e84f3dd0314c0f7b2291e5b200ac8c7c3b9258880a484526020528220906001600160a01b031982541617905580f35b83517fa9fbf51f0000000000000000000000000000000000000000000000000000000081523381850152602490fd5b506001600160a01b0381168652600560205283862033875260205260ff84872054161561094b565b50336001600160a01b0382161415610945565b50346101945760203660031901126101945781602093826001600160a01b039335610a32816111ce565b50825285522054169051908152f35b82843461050557806003193601126105055781519182828354610a6381610cbc565b90818452602095600191876001821691826000146104de575050600114610a975750505061025b929161024c910385610c68565b91908693508280527f290decd9548b62a8d60345a988386fc84ba6bc95484008f6362f93160ef3e5635b828410610ada575050508201018161024c61025b61046f565b8054848a018601528895508794909301928101610ac1565b9250503461019457602036600319011261019457357fffffffff00000000000000000000000000000000000000000000000000000000811680910361019457602092507f80ac58cd000000000000000000000000000000000000000000000000000000008114908115610b98575b8115610b6e575b5015158152f35b7f01ffc9a70000000000000000000000000000000000000000000000000000000091501438610b67565b7f5b5e139f0000000000000000000000000000000000000000000000000000000081149150610b60565b919082519283825260005b848110610bee575050826000602080949584010152601f8019910116010190565b602081830181015184830182015201610bcd565b600435906001600160a01b0382168203610c1857565b600080fd5b602435906001600160a01b0382168203610c1857565b6060906003190112610c18576001600160a01b03906004358281168103610c1857916024359081168103610c18579060443590565b90601f8019910116810190811067ffffffffffffffff821117610c8a57604052565b634e487b7160e01b600052604160045260246000fd5b67ffffffffffffffff8111610c8a57601f01601f191660200190565b90600182811c92168015610cec575b6020831014610cd657565b634e487b7160e01b600052602260045260246000fd5b91607f1691610ccb565b90916001600160a01b03809316928315610eb357600092828452826020956002875260409684888820541696879133151580610e04575b509060027fddf252ad1be2c89b69c2b068fc378daa952ba7f163c4a11628f55a4df523b3ef9284610dcc575b858352600381528b83206001815401905586835252898120846001600160a01b031982541617905580a41692838303610d925750505050565b6064945051927f64283d7b000000000000000000000000000000000000000000000000000000008452600484015260248301526044820152fd5b610ded87600052600460205260406000206001600160a01b03198154169055565b848352600381528b83208054600019019055610d59565b91939450915080610e72575b15610e2057859291879138610d2d565b878688610e3d576024915190637e27328960e01b82526004820152fd5b60449151907f177e802f0000000000000000000000000000000000000000000000000000000082523360048301526024820152fd5b503387148015610e97575b80610e105750858252600481523385898420541614610e10565b5086825260058152878220338352815260ff8883205416610e7d565b6024604051633250574960e11b815260006004820152fd5b818110610ed6575050565b60008155600101610ecb565b906008821461103557610ef6600854610cbc565b9167ffffffffffffffff8311610c8a57610f108154610cbc565b601f8111610ff8575b50600092601f8111600114610f555780919293600091610f49575b508160011b916000199060031b1c1916179055565b90506008015438610f34565b8184526020808520601f19831695909181905b878210610fbf57505082600194959610610f86575b5050811b019055565b7ff3f7a9fe364faab93b216da50a3214154f22a0a2b415b23a84c8169e8b636ee3015460001960f88460031b161c191690553880610f7d565b82938192937ff3f7a9fe364faab93b216da50a3214154f22a0a2b415b23a84c8169e8b636ee30154815560018091019401920190610f68565b61102590826000526020600020601f860160051c8101916020871061102b575b601f0160051c0190610ecb565b38610f19565b9091508190611018565b9050565b611044838383610cf6565b813b611051575b50505050565b6001600160a01b03949192939480931693604051937f150b7a020000000000000000000000000000000000000000000000000000000092838652336004870152166024850152604484015260806064840152826110b46020966084830190610bc2565b039285816000958187895af1849181611176575b50611127575050503d60001461111f573d6110e281610ca0565b906110f06040519283610c68565b81528091843d92013e5b8051928361111a5760248360405190633250574960e11b82526004820152fd5b019050fd5b5060606110fa565b9092507fffffffff00000000000000000000000000000000000000000000000000000000919450160361115e57503880808061104b565b60249060405190633250574960e11b82526004820152fd5b9091508681813d83116111c7575b61118e8183610c68565b8101031261042557517fffffffff00000000000000000000000000000000000000000000000000000000811681036104255790386110c8565b503d611184565b8060005260026020526001600160a01b03604060002054169081156111f1575090565b60249060405190637e27328960e01b82526004820152fd5b6001600160a01b0360065416330361121d57565b60246040517f118cdaa7000000000000000000000000000000000000000000000000000000008152336004820152fdfea2646970667358221220bd53b3265229f1221b52eb2d09624447592b834aea407137417fce63f044c68c64736f6c634300081800336080604052346200050d5762001832803803806200001d8162000512565b92833981019060a0818303126200050d5780516001600160a01b0380821693918490036200050d5760208381015190946001600160401b039490918581116200050d57846200006e91830162000538565b9360408201518681116200050d57816200008a91840162000538565b9160608101519160808201518881116200050d57620000aa920162000538565b92855194878611620004f7576000938454966001988989811c99168015620004ec575b8c8a1014620003ef5781908c601f9a8b811162000496575b50508c908d8b84116001146200042e5750889262000422575b5050600019600383901b1c191690891b1785555b8051908982116200040e5788548981811c9116801562000403575b8c821014620003ef57908b828a85941162000399575b50508b908983116001146200033257879262000326575b5050600019600383901b1c191690881b1787555b81156200030d57600680546001600160a01b031981168417909155167f8be0079c531659141344cd1fd0a4f28419497f9722a3daafe3b4186f6b6457e08480a36008558151948511620002f9576009548481811c91168015620002ee575b87821014620002da5783811162000291575b5085928511600114620002285793945084929190836200021c575b50501b916000199060031b1c1916176009555b6040516112879081620005ab8239f35b015192503880620001f9565b6009815285812093958591601f198316915b888383106200027657505050106200025c575b505050811b016009556200020c565b015160001960f88460031b161c191690553880806200024d565b8587015188559096019594850194879350908101906200023a565b600982528682208480880160051c820192898910620002d0575b0160051c019085905b828110620002c4575050620001de565b838155018590620002b4565b92508192620002ab565b634e487b7160e01b82526022600452602482fd5b90607f1690620001cc565b634e487b7160e01b81526041600452602490fd5b604051631e4fbdf760e01b815260048101859052602490fd5b0151905038806200015a565b8a88528c88208b94509190601f198416898f5b8282106200037f575050841162000365575b505050811b0187556200016e565b015160001960f88460031b161c1916905538808062000357565b8484015186558e9790950194938401939081019062000345565b909192508a8852898289209181860160051c8301938610620003e5575b918c91869594930160051c01915b828110620003d657508d915062000143565b8981558594508c9101620003c4565b92508192620003b6565b634e487b7160e01b87526022600452602487fd5b90607f16906200012d565b634e487b7160e01b86526041600452602486fd5b015190503880620000fe565b91908c9450601f1984168a8052838b20938b905b8282106200047c575050841162000462575b505050811b01855562000112565b015160001960f88460031b161c1916905538808062000454565b8484015186558f9790950194938401939081019062000442565b909192508880528a828a209181860160051c8301938610620004e2575b918d91869594930160051c01915b828110620004d357508e9150620000e5565b8a81558594508d9101620004c1565b92508192620004b3565b98607f1698620000cd565b634e487b7160e01b600052604160045260246000fd5b600080fd5b6040519190601f01601f191682016001600160401b03811183821017620004f757604052565b919080601f840112156200050d5782516001600160401b038111620004f7576020906200056e601f8201601f1916830162000512565b928184528282870101116200050d5760005b8181106200059657508260009394955001015290565b85810183015184820184015282016200058056fe6080604081815260048036101561001557600080fd5b600092833560e01c90816301ffc9a714610af65750806306fdde0314610a45578063081812fc14610a0c578063095ea7b31461091957806323b872dd1461090157806342842e0e146108b257806342966c68146107895780636352211e146107595780636a627842146105fd57806370a082311461058f578063715018a6146105345780638da5cb5b1461050c57806395d89b411461042d578063a22cb46514610373578063a7f93ebd14610354578063b88d4fde146102cb578063c87b56dd146101ea578063e985e9c5146101985763f2fde38b146100f457600080fd5b346101945760203660031901126101945761010d610c06565b9061011661120d565b6001600160a01b03809216928315610165575050600654826001600160a01b0319821617600655167f8be0079c531659141344cd1fd0a4f28419497f9722a3daafe3b4186f6b6457e08380a380f35b908460249251917f1e4fbdf7000000000000000000000000000000000000000000000000000000008352820152fd5b8280fd5b5050346101e657806003193601126101e65760ff816020936101b8610c06565b6101c0610c21565b6001600160a01b0391821683526005875283832091168252855220549151911615158152f35b5080fd5b50903461019457602091826003193601126102c757358352600a825280832081519384918181549061021b82610cc0565b928386526001928860018216918260001461029d57505060011461025f575b858861025b8961024c848a0385610c6c565b51928284938452830190610bc6565b0390f35b87945081939291528383205b828410610285575050508201018161024c61025b3861023a565b8054848a01860152889550879490930192810161026b565b60ff19168882015294151560051b8701909401945085935061024c925061025b915038905061023a565b8380fd5b509034610194576080366003190112610194576102e6610c06565b6102ee610c21565b846064359467ffffffffffffffff86116101e657366023870112156101e6578501359461032661031d87610ca4565b95519586610c6c565b85855236602487830101116101e657856103519660246020930183880137850101526044359161103d565b80f35b5050346101e657816003193601126101e6576020906008549051908152f35b50903461019457806003193601126101945761038d610c06565b9060243591821515809303610429576001600160a01b03169283156103fb5750338452600560205280842083855260205280842060ff1981541660ff8416179055519081527f17307eab39ab6107e8899845ad3d59bd9653f200f220920489ca2b5937696c3160203392a380f35b8360249251917f5b08ba18000000000000000000000000000000000000000000000000000000008352820152fd5b8480fd5b82843461050957806003193601126105095781519182826001936001549461045486610cc0565b91828552602096876001821691826000146104e2575050600114610486575b50505061025b929161024c910385610c6c565b9190869350600183527fb10e2d527612073b26eecdfd717e6a320cf44b4afac2b0732d9fcbe2b7fa0cf65b8284106104ca575050508201018161024c61025b610473565b8054848a0186015288955087949093019281016104b1565b60ff19168782015293151560051b8601909301935084925061024c915061025b9050610473565b80fd5b5050346101e657816003193601126101e6576020906001600160a01b03600654169051908152f35b833461050957806003193601126105095761054d61120d565b806001600160a01b036006546001600160a01b03198116600655167f8be0079c531659141344cd1fd0a4f28419497f9722a3daafe3b4186f6b6457e08280a380f35b509134610509576020366003190112610509576001600160a01b036105b2610c06565b169283156105cf5750806020938392526003845220549051908152f35b9060249251917f89c62b64000000000000000000000000000000000000000000000000000000008352820152fd5b50823461050957602092836003193601126101e65761061a610c06565b61062261120d565b6007546001600160a01b038092169182156107435781855260028752838520541691821515928361070b575b818652600388528486206001815401905582865260028852848620826001600160a01b03198254161790557fddf252ad1be2c89b69c2b068fc378daa952ba7f163c4a11628f55a4df523b3ef8680a46106dd576106b590600a856007548552528220610ee6565b60075460001981146106ca5760010160075580f35b506011602492634e487b7160e01b835252fd5b6024935051917f73c6ac6e000000000000000000000000000000000000000000000000000000008352820152fd5b61072c83600052600460205260406000206001600160a01b03198154169055565b80865260038852848620805460001901905561064e565b60248686865191633250574960e11b8352820152fd5b50913461050957602036600319011261050957506001600160a01b03610781602093356111d2565b915191168152f35b50903461019457602090816003193601126102c7578235916107a961120d565b828552600a8152848281206107be8154610cc0565b80610876575b50508390526002815282856001600160a01b0384822054166002811594851561083e575b848452528482206001600160a01b031981541690557fddf252ad1be2c89b69c2b068fc378daa952ba7f163c4a11628f55a4df523b3ef8280a4610829578380f35b602493505191637e27328960e01b8352820152fd5b61085f85600052600460205260406000206001600160a01b03198154169055565b8284526003815286842080546000190190556107e8565b82601f821160011461088e575050555b8438806107c4565b90918082526108ab601f868420940160051c840160018501610ecf565b5555610886565b509190346101e6576108c336610c37565b91835193602085019085821067ffffffffffffffff8311176108ee576103519697505285845261103d565b60248760418a634e487b7160e01b835252fd5b83346105095761035161091336610c37565b91610cfa565b509034610194578060031936011261019457610933610c06565b91602435610940816111d2565b331515806109f9575b806109d1575b6109a25781906001600160a01b03809616958691167f8c5be1e5ebec7d5bd14f71427d1e84f3dd0314c0f7b2291e5b200ac8c7c3b9258880a484526020528220906001600160a01b031982541617905580f35b83517fa9fbf51f0000000000000000000000000000000000000000000000000000000081523381850152602490fd5b506001600160a01b0381168652600560205283862033875260205260ff84872054161561094f565b50336001600160a01b0382161415610949565b50346101945760203660031901126101945781602093826001600160a01b039335610a36816111d2565b50825285522054169051908152f35b82843461050957806003193601126105095781519182828354610a6781610cc0565b90818452602095600191876001821691826000146104e2575050600114610a9b5750505061025b929161024c910385610c6c565b91908693508280527f290decd9548b62a8d60345a988386fc84ba6bc95484008f6362f93160ef3e5635b828410610ade575050508201018161024c61025b610473565b8054848a018601528895508794909301928101610ac5565b9250503461019457602036600319011261019457357fffffffff00000000000000000000000000000000000000000000000000000000811680910361019457602092507f80ac58cd000000000000000000000000000000000000000000000000000000008114908115610b9c575b8115610b72575b5015158152f35b7f01ffc9a70000000000000000000000000000000000000000000000000000000091501438610b6b565b7f5b5e139f0000000000000000000000000000000000000000000000000000000081149150610b64565b919082519283825260005b848110610bf2575050826000602080949584010152601f8019910116010190565b602081830181015184830182015201610bd1565b600435906001600160a01b0382168203610c1c57565b600080fd5b602435906001600160a01b0382168203610c1c57565b6060906003190112610c1c576001600160a01b03906004358281168103610c1c57916024359081168103610c1c579060443590565b90601f8019910116810190811067ffffffffffffffff821117610c8e57604052565b634e487b7160e01b600052604160045260246000fd5b67ffffffffffffffff8111610c8e57601f01601f191660200190565b90600182811c92168015610cf0575b6020831014610cda57565b634e487b7160e01b600052602260045260246000fd5b91607f1691610ccf565b90916001600160a01b03809316928315610eb757600092828452826020956002875260409684888820541696879133151580610e08575b509060027fddf252ad1be2c89b69c2b068fc378daa952ba7f163c4a11628f55a4df523b3ef9284610dd0575b858352600381528b83206001815401905586835252898120846001600160a01b031982541617905580a41692838303610d965750505050565b6064945051927f64283d7b000000000000000000000000000000000000000000000000000000008452600484015260248301526044820152fd5b610df187600052600460205260406000206001600160a01b03198154169055565b848352600381528b83208054600019019055610d5d565b91939450915080610e76575b15610e2457859291879138610d31565b878688610e41576024915190637e27328960e01b82526004820152fd5b60449151907f177e802f0000000000000000000000000000000000000000000000000000000082523360048301526024820152fd5b503387148015610e9b575b80610e145750858252600481523385898420541614610e14565b5086825260058152878220338352815260ff8883205416610e81565b6024604051633250574960e11b815260006004820152fd5b818110610eda575050565b60008155600101610ecf565b906009821461103957610efa600954610cc0565b9167ffffffffffffffff8311610c8e57610f148154610cc0565b601f8111610ffc575b50600092601f8111600114610f595780919293600091610f4d575b508160011b916000199060031b1c1916179055565b90506009015438610f38565b8184526020808520601f19831695909181905b878210610fc357505082600194959610610f8a575b5050811b019055565b7f6e1540171b6c0c960b71a7020d9f60077f6af931a8bbf590da0223dacf75c7af015460001960f88460031b161c191690553880610f81565b82938192937f6e1540171b6c0c960b71a7020d9f60077f6af931a8bbf590da0223dacf75c7af0154815560018091019401920190610f6c565b61102990826000526020600020601f860160051c8101916020871061102f575b601f0160051c0190610ecf565b38610f1d565b909150819061101c565b9050565b611048838383610cfa565b813b611055575b50505050565b6001600160a01b03949192939480931693604051937f150b7a020000000000000000000000000000000000000000000000000000000092838652336004870152166024850152604484015260806064840152826110b86020966084830190610bc6565b039285816000958187895af184918161117a575b5061112b575050503d600014611123573d6110e681610ca4565b906110f46040519283610c6c565b81528091843d92013e5b8051928361111e5760248360405190633250574960e11b82526004820152fd5b019050fd5b5060606110fe565b9092507fffffffff00000000000000000000000000000000000000000000000000000000919450160361116257503880808061104f565b60249060405190633250574960e11b82526004820152fd5b9091508681813d83116111cb575b6111928183610c6c565b8101031261042957517fffffffff00000000000000000000000000000000000000000000000000000000811681036104295790386110cc565b503d611188565b8060005260026020526001600160a01b03604060002054169081156111f5575090565b60249060405190637e27328960e01b82526004820152fd5b6001600160a01b0360065416330361122157565b60246040517f118cdaa7000000000000000000000000000000000000000000000000000000008152336004820152fdfea2646970667358221220b85f90f74920f70261e60fd524b51edf1622b983208926b441a3a2aca275a44464736f6c63430008180033a2646970667358221220331256f4534d20ec30a583b63bb46f3d6c3aac3c1e7ad60f89256620548a0df264736f6c634300081800336080346100bb57601f61062b38819003918201601f19168301916001600160401b038311848410176100c0578084926020946040528339810103126100bb57516001600160a01b0390818116908190036100bb5780156100a257600080546001600160a01b03198116831782556040519316907f8be0079c531659141344cd1fd0a4f28419497f9722a3daafe3b4186f6b6457e09080a361055490816100d78239f35b604051631e4fbdf760e01b815260006004820152602490fd5b600080fd5b634e487b7160e01b600052604160045260246000fdfe6080604081815260048036101561001557600080fd5b600092833560e01c908163241b71bb1461048d575080633b52301d146103ed57806370ded48a146103c4578063715018a61461035e5780638da5cb5b14610334578063980975811461024e578063dd0b281e1461012a5763f2fde38b1461007b57600080fd5b34610126576020366003190112610126576100946104bf565b9061009d6104da565b6001600160a01b038092169283156100f757505082548273ffffffffffffffffffffffffffffffffffffffff198216178455167f8be0079c531659141344cd1fd0a4f28419497f9722a3daafe3b4186f6b6457e08380a380f35b908460249251917f1e4fbdf7000000000000000000000000000000000000000000000000000000008352820152fd5b8280fd5b50913461024b57602036600319011261024b576101456104bf565b61014d6104da565b825167ffffffffffffffff9360608201858111838210176102385781526001600160a01b0380931692838352602083019185835280840194868652815160208101917feeeeeeeeeeeeeeeeeeeeeeeeeeeeeeeeeeeeeeee000000000000000000000000835283820152426060820152606081526080810198818a10908a1117610225576020995090829189600297969594525190209687815260018a522092511673ffffffffffffffffffffffffffffffffffffffff19835416178255516001820155019051151560ff801983541691161790558152f35b60248860418c634e487b7160e01b835252fd5b602485604189634e487b7160e01b835252fd5b80fd5b5090346101265780600319360112610126576102686104bf565b6102706104da565b60243584526001602052818420906001600160a01b03808354169116036102f1576002019182549160ff83166102ae57505060ff1916600117905580f35b906020606492519162461bcd60e51b8352820152601b60248201527f446174612e5469702077617320616c72656164792070617573656400000000006044820152fd5b606483602084519162461bcd60e51b8352820152600960248201527f4e6f74206f776e657200000000000000000000000000000000000000000000006044820152fd5b50503461035a578160031936011261035a576001600160a01b0360209254169051908152f35b5080fd5b833461024b578060031936011261024b576103776104da565b806001600160a01b03815473ffffffffffffffffffffffffffffffffffffffff1981168355167f8be0079c531659141344cd1fd0a4f28419497f9722a3daafe3b4186f6b6457e08280a380f35b503461012657602036600319011261012657816020936001923581528285522001549051908152f35b5090346101265780600319360112610126576104076104da565b8135835260016020528083209060ff60028301541661044b5750600101805491602435830180931161043857505580f35b836011602492634e487b7160e01b835252fd5b5162461bcd60e51b8152602081840152601260248201527f446174612e5469702069732070617573656400000000000000000000000000006044820152606490fd5b92919050346104bb5760203660031901126104bb573583526001602090815292206002015460ff1615158152f35b8380fd5b600435906001600160a01b03821682036104d557565b600080fd5b6001600160a01b036000541633036104ee57565b60246040517f118cdaa7000000000000000000000000000000000000000000000000000000008152336004820152fdfea26469706673582212202bee89366049aa9a26365d26e210b2395898950071decf7eb97cbeedc85ab30d64736f6c63430008180033",
          "opcodes": "PUSH1 0x80 CALLVALUE PUSH3 0x164 JUMPI PUSH1 0x1F PUSH3 0x5C0C CODESIZE DUP2 SWAP1 SUB SWAP2 DUP3 ADD PUSH1 0x1F NOT AND DUP4 ADD SWAP3 PUSH1 0x1 PUSH1 0x1 PUSH1 0x40 SHL SUB SWAP3 SWAP1 SWAP2 DUP4 DUP6 GT DUP4 DUP7 LT OR PUSH3 0x14E JUMPI DUP2 PUSH1 0x20 SWAP3 DUP5 SWAP3 PUSH1 0x40 SWAP8 DUP9 MSTORE DUP4 CODECOPY DUP2 ADD SUB SLT PUSH3 0x164 JUMPI MLOAD PUSH1 0x1 PUSH1 0x1 PUSH1 0xA0 SHL SUB DUP1 DUP3 AND SWAP3 SWAP2 DUP4 SWAP1 SUB PUSH3 0x164 JUMPI PUSH1 0xFF NOT PUSH1 0x1 SLOAD AND PUSH1 0x1 SSTORE DUP4 MLOAD SWAP2 PUSH2 0x37C4 SWAP3 DUP4 DUP2 ADD SWAP4 DUP2 DUP6 LT DUP4 DUP7 GT OR PUSH3 0x14E JUMPI PUSH3 0x1E1D DUP3 CODECOPY ADDRESS DUP5 MSTORE PUSH1 0x20 DUP2 PUSH1 0x0 SWAP6 SUB ADD SWAP1 DUP5 CREATE DUP1 ISZERO PUSH3 0x144 JUMPI PUSH1 0x1 DUP1 SLOAD PUSH2 0x100 PUSH1 0x1 PUSH1 0xA8 SHL SUB NOT AND PUSH1 0x8 SWAP3 SWAP1 SWAP3 SHL PUSH2 0x100 PUSH1 0x1 PUSH1 0xA8 SHL SUB AND SWAP2 SWAP1 SWAP2 OR SWAP1 SSTORE DUP5 MLOAD SWAP1 PUSH2 0x62B DUP1 DUP4 ADD SWAP2 DUP3 GT DUP4 DUP4 LT OR PUSH3 0x130 JUMPI PUSH1 0x20 SWAP2 DUP4 SWAP2 PUSH3 0x55E1 DUP4 CODECOPY ADDRESS DUP2 MSTORE SUB ADD SWAP1 DUP4 CREATE SWAP2 DUP3 ISZERO PUSH3 0x125 JUMPI POP PUSH1 0x1 DUP1 PUSH1 0xA0 SHL SUB NOT SWAP2 AND DUP2 PUSH1 0x2 SLOAD AND OR PUSH1 0x2 SSTORE PUSH3 0x10E CALLER PUSH3 0x169 JUMP JUMPDEST POP PUSH1 0x6 SLOAD AND OR PUSH1 0x6 SSTORE MLOAD PUSH2 0x1C22 SWAP1 DUP2 PUSH3 0x1FB DUP3 CODECOPY RETURN JUMPDEST DUP5 MLOAD SWAP1 RETURNDATASIZE SWAP1 DUP3 RETURNDATACOPY RETURNDATASIZE SWAP1 REVERT JUMPDEST PUSH4 0x4E487B71 PUSH1 0xE0 SHL DUP6 MSTORE PUSH1 0x41 PUSH1 0x4 MSTORE PUSH1 0x24 DUP6 REVERT JUMPDEST DUP6 MLOAD RETURNDATASIZE DUP6 DUP3 RETURNDATACOPY RETURNDATASIZE SWAP1 REVERT JUMPDEST PUSH4 0x4E487B71 PUSH1 0xE0 SHL PUSH1 0x0 MSTORE PUSH1 0x41 PUSH1 0x4 MSTORE PUSH1 0x24 PUSH1 0x0 REVERT JUMPDEST PUSH1 0x0 DUP1 REVERT JUMPDEST PUSH1 0x1 PUSH1 0x1 PUSH1 0xA0 SHL SUB AND PUSH1 0x0 DUP2 DUP2 MSTORE PUSH32 0xAD3228B676F7D3CD4284A5443F17F1962B36E491B30A40B2405849E597BA5FB5 PUSH1 0x20 MSTORE PUSH1 0x40 DUP2 KECCAK256 SLOAD SWAP1 SWAP2 SWAP1 PUSH1 0xFF AND PUSH3 0x1F6 JUMPI DUP2 DUP1 MSTORE DUP2 PUSH1 0x20 MSTORE PUSH1 0x40 DUP3 KECCAK256 DUP2 DUP4 MSTORE PUSH1 0x20 MSTORE PUSH1 0x40 DUP3 KECCAK256 PUSH1 0x1 PUSH1 0xFF NOT DUP3 SLOAD AND OR SWAP1 SSTORE CALLER SWAP2 PUSH32 0x2F8788117E7EFF1D82E926EC794901D17C78024A50270940304540A733656F0D DUP2 DUP1 LOG4 PUSH1 0x1 SWAP1 JUMP JUMPDEST POP SWAP1 JUMP INVALID PUSH1 0x80 PUSH1 0x40 DUP2 DUP2 MSTORE PUSH1 0x4 DUP1 CALLDATASIZE LT ISZERO PUSH2 0x15 JUMPI PUSH1 0x0 DUP1 REVERT JUMPDEST PUSH1 0x0 SWAP3 DUP4 CALLDATALOAD PUSH1 0xE0 SHR SWAP1 DUP2 PUSH4 0x1FFC9A7 EQ PUSH2 0x15E2 JUMPI POP DUP1 PUSH4 0x1290ABE8 EQ PUSH2 0x15AE JUMPI DUP1 PUSH4 0x248A9CA3 EQ PUSH2 0x1585 JUMPI DUP1 PUSH4 0x2F2FF15D EQ PUSH2 0x155C JUMPI DUP1 PUSH4 0x36568ABE EQ PUSH2 0x14FC JUMPI DUP1 PUSH4 0x47A6EF08 EQ PUSH2 0x13F5 JUMPI DUP1 PUSH4 0x55CB9B5C EQ PUSH2 0x1280 JUMPI DUP1 PUSH4 0x5C975ABB EQ PUSH2 0x125C JUMPI DUP1 PUSH4 0x636A5D23 EQ PUSH2 0x11FE JUMPI DUP1 PUSH4 0x7253C4DB EQ PUSH2 0xFFD JUMPI DUP1 PUSH4 0x7756CD58 EQ PUSH2 0xDE2 JUMPI DUP1 PUSH4 0x8456CB59 EQ PUSH2 0xD88 JUMPI DUP1 PUSH4 0x91D14854 EQ PUSH2 0xD43 JUMPI DUP1 PUSH4 0x9EF287A4 EQ PUSH2 0xC4E JUMPI DUP1 PUSH4 0xA217FDDF EQ PUSH2 0xC33 JUMPI DUP1 PUSH4 0xB53230F4 EQ PUSH2 0xA02 JUMPI DUP1 PUSH4 0xC497EEBB EQ PUSH2 0x87D JUMPI DUP1 PUSH4 0xCD7F8591 EQ PUSH2 0x7CB JUMPI DUP1 PUSH4 0xD1058E59 EQ PUSH2 0x62D JUMPI DUP1 PUSH4 0xD547741F EQ PUSH2 0x5EF JUMPI DUP1 PUSH4 0xDBB779ED EQ PUSH2 0x4E1 JUMPI DUP1 PUSH4 0xDCC1616D EQ PUSH2 0x271 JUMPI DUP1 PUSH4 0xEB1DBBDD EQ PUSH2 0x1B0 JUMPI PUSH4 0xF7B188A5 EQ PUSH2 0x12B JUMPI PUSH1 0x0 DUP1 REVERT JUMPDEST CALLVALUE PUSH2 0x1AC JUMPI DUP3 PUSH1 0x3 NOT CALLDATASIZE ADD SLT PUSH2 0x1AC JUMPI PUSH2 0x143 PUSH2 0x195A JUMP JUMPDEST PUSH1 0x1 SLOAD SWAP1 PUSH1 0xFF DUP3 AND ISZERO PUSH2 0x185 JUMPI POP PUSH1 0xFF NOT AND PUSH1 0x1 SSTORE MLOAD CALLER DUP2 MSTORE PUSH32 0x5DB9EE0A495BF2E6FF9C91A7834C1BA4FDD244A5E8AA4E537BD38AEAE4B073AA SWAP1 PUSH1 0x20 SWAP1 LOG1 DUP1 RETURN JUMPDEST DUP3 MLOAD PUSH32 0x8DFC202B00000000000000000000000000000000000000000000000000000000 DUP2 MSTORE REVERT JUMPDEST DUP3 DUP1 REVERT JUMPDEST POP CALLVALUE PUSH2 0x1AC JUMPI PUSH1 0x20 CALLDATASIZE PUSH1 0x3 NOT ADD SLT PUSH2 0x1AC JUMPI CALLDATALOAD PUSH2 0x1CB PUSH2 0x1AED JUMP JUMPDEST CALLER DUP4 MSTORE PUSH1 0x5 PUSH1 0x20 MSTORE DUP2 DUP4 KECCAK256 PUSH2 0x1E3 DUP3 DUP3 SLOAD LT ISZERO PUSH2 0x18C2 JUMP JUMPDEST DUP4 DUP1 DUP4 DUP1 ISZERO PUSH2 0x267 JUMPI JUMPDEST DUP3 DUP1 SWAP3 SWAP2 DUP2 SWAP3 CALLER SWAP1 CALL ISZERO PUSH2 0x25B JUMPI SWAP1 PUSH32 0x827DACD90918F1F37F20D339547C89C897889CF6A581DE7C2394AE65E4D21E2 SWAP3 PUSH1 0x1 DUP4 PUSH2 0x22F DUP5 PUSH2 0x255 SWAP7 SLOAD PUSH2 0x190D JUMP JUMPDEST DUP2 SSTORE ADD PUSH2 0x23D DUP4 DUP3 SLOAD PUSH2 0x189F JUMP JUMPDEST SWAP1 SSTORE MLOAD CALLER DUP2 MSTORE PUSH1 0x20 DUP2 ADD SWAP2 SWAP1 SWAP2 MSTORE SWAP1 DUP2 SWAP1 PUSH1 0x40 DUP3 ADD SWAP1 JUMP JUMPDEST SUB SWAP1 LOG1 DUP1 RETURN JUMPDEST POP POP MLOAD SWAP1 RETURNDATASIZE SWAP1 DUP3 RETURNDATACOPY RETURNDATASIZE SWAP1 REVERT JUMPDEST PUSH2 0x8FC SWAP2 POP PUSH2 0x1ED JUMP JUMPDEST POP CALLVALUE PUSH2 0x1AC JUMPI PUSH1 0x3 NOT SWAP2 PUSH1 0xA0 CALLDATASIZE DUP5 ADD SLT PUSH2 0x4D5 JUMPI PUSH8 0xFFFFFFFFFFFFFFFF SWAP3 DUP3 CALLDATALOAD DUP5 DUP2 GT PUSH2 0x4DD JUMPI PUSH2 0x2A5 SWAP1 CALLDATASIZE SWAP1 DUP6 ADD PUSH2 0x1773 JUMP JUMPDEST SWAP3 DUP6 PUSH1 0x24 CALLDATALOAD DUP7 DUP2 GT PUSH2 0x4D9 JUMPI PUSH2 0x2BE SWAP1 CALLDATASIZE SWAP1 DUP5 ADD PUSH2 0x1773 JUMP JUMPDEST SWAP2 PUSH1 0x44 CALLDATALOAD DUP8 DUP2 GT PUSH2 0x1AC JUMPI PUSH2 0x2D6 SWAP1 CALLDATASIZE SWAP1 DUP4 ADD PUSH2 0x1773 JUMP JUMPDEST SWAP7 PUSH1 0x84 CALLDATALOAD SWAP1 DUP2 GT PUSH2 0x1AC JUMPI PUSH2 0x2EE SWAP1 CALLDATASIZE SWAP1 DUP4 ADD PUSH2 0x1773 JUMP JUMPDEST SWAP4 CALLER DUP4 MSTORE PUSH1 0x20 SWAP7 PUSH1 0x5 DUP9 MSTORE DUP3 DUP8 DUP6 KECCAK256 ADD SLOAD PUSH2 0x4D5 JUMPI DUP7 MLOAD PUSH2 0x30E DUP2 PUSH2 0x1735 JUMP JUMPDEST DUP5 DUP2 MSTORE DUP4 DUP10 DUP1 DUP4 ADD DUP8 DUP2 MSTORE DUP11 DUP5 ADD DUP9 DUP2 MSTORE PUSH1 0x60 DUP6 ADD SWAP2 DUP10 DUP4 MSTORE PUSH1 0x5 PUSH1 0x80 DUP8 ADD SWAP5 TIMESTAMP DUP7 MSTORE CALLER DUP13 MSTORE MSTORE DUP13 DUP11 KECCAK256 SWAP6 MLOAD DUP7 SSTORE MLOAD PUSH1 0x1 DUP7 ADD SSTORE MLOAD PUSH1 0x2 DUP6 ADD SSTORE MLOAD PUSH1 0x3 DUP5 ADD SSTORE MLOAD SWAP2 ADD SSTORE PUSH2 0x3A5 DUP9 PUSH1 0x1 PUSH1 0x1 PUSH1 0xA0 SHL SUB SWAP3 PUSH1 0x1 SLOAD DUP11 DUP9 DUP7 DUP3 MLOAD DUP1 SWAP8 DUP2 SWAP7 DUP3 SWAP6 PUSH32 0x97E68EB600000000000000000000000000000000000000000000000000000000 DUP5 MSTORE DUP14 CALLER SWAP1 DUP6 ADD MSTORE PUSH1 0x24 DUP5 ADD MSTORE PUSH1 0x44 DUP4 ADD SWAP1 PUSH2 0x191A JUMP JUMPDEST SUB SWAP4 PUSH1 0x8 SHR AND GAS CALL DUP1 ISZERO PUSH2 0x4CB JUMPI SWAP3 PUSH2 0x415 SWAP7 SWAP5 SWAP3 PUSH2 0x43C SWAP3 DUP12 SWAP10 SWAP8 SWAP6 PUSH2 0x4AE JUMPI JUMPDEST POP PUSH1 0x1 SLOAD PUSH1 0x8 SHR AND SWAP6 PUSH2 0x425 DUP11 MLOAD SWAP13 DUP14 SWAP10 DUP11 SWAP9 DUP10 SWAP8 PUSH32 0x32B1FF900000000000000000000000000000000000000000000000000000000 DUP10 MSTORE CALLER SWAP1 DUP10 ADD MSTORE PUSH1 0xA0 PUSH1 0x24 DUP10 ADD MSTORE PUSH1 0xA4 DUP9 ADD SWAP1 PUSH2 0x191A JUMP JUMPDEST SWAP1 DUP5 DUP8 DUP4 SUB ADD PUSH1 0x44 DUP9 ADD MSTORE PUSH2 0x191A JUMP JUMPDEST SWAP2 PUSH1 0x64 CALLDATALOAD PUSH1 0x64 DUP7 ADD MSTORE DUP5 DUP4 SUB ADD PUSH1 0x84 DUP6 ADD MSTORE PUSH2 0x191A JUMP JUMPDEST SUB SWAP3 GAS CALL SWAP3 DUP4 ISZERO PUSH2 0x4A4 JUMPI PUSH32 0xFBB783F21F0B5E85632EB4C5B42C22D1208C89609FA8C42FD48ECF827CB95864 SWAP4 PUSH2 0x477 JUMPI JUMPDEST POP MLOAD CALLER DUP2 MSTORE LOG1 DUP1 RETURN JUMPDEST PUSH2 0x496 SWAP1 DUP4 RETURNDATASIZE DUP6 GT PUSH2 0x49D JUMPI JUMPDEST PUSH2 0x48E DUP2 DUP4 PUSH2 0x1751 JUMP JUMPDEST DUP2 ADD SWAP1 PUSH2 0x181D JUMP JUMPDEST POP CODESIZE PUSH2 0x46E JUMP JUMPDEST POP RETURNDATASIZE PUSH2 0x484 JUMP JUMPDEST DUP2 MLOAD RETURNDATASIZE DUP7 DUP3 RETURNDATACOPY RETURNDATASIZE SWAP1 REVERT JUMPDEST PUSH2 0x4C4 SWAP1 DUP11 RETURNDATASIZE DUP13 GT PUSH2 0x49D JUMPI PUSH2 0x48E DUP2 DUP4 PUSH2 0x1751 JUMP JUMPDEST POP CODESIZE PUSH2 0x3C7 JUMP JUMPDEST DUP9 MLOAD RETURNDATASIZE DUP8 DUP3 RETURNDATACOPY RETURNDATASIZE SWAP1 REVERT JUMPDEST DUP4 DUP1 REVERT JUMPDEST POP DUP1 REVERT JUMPDEST DUP6 DUP1 REVERT JUMPDEST POP CALLVALUE PUSH2 0x1AC JUMPI PUSH1 0x20 CALLDATASIZE PUSH1 0x3 NOT ADD SLT PUSH2 0x1AC JUMPI DUP1 CALLDATALOAD SWAP1 PUSH2 0x4FE PUSH2 0x1AED JUMP JUMPDEST CALLER DUP5 MSTORE PUSH1 0x5 PUSH1 0x20 MSTORE DUP3 DUP5 KECCAK256 SWAP1 PUSH2 0x561 PUSH1 0x20 DUP5 PUSH1 0x2 DUP6 ADD SWAP4 PUSH2 0x522 DUP3 DUP7 SLOAD LT ISZERO PUSH2 0x18C2 JUMP JUMPDEST PUSH1 0x1 PUSH1 0x1 PUSH1 0xA0 SHL SUB PUSH1 0x6 SLOAD AND SWAP1 DUP10 DUP10 MLOAD DUP1 SWAP7 DUP2 SWAP6 DUP3 SWAP5 PUSH4 0xA9059CBB PUSH1 0xE0 SHL DUP5 MSTORE CALLER SWAP1 DUP5 ADD PUSH1 0x20 SWAP1 SWAP4 SWAP3 SWAP2 SWAP4 PUSH1 0x1 PUSH1 0x1 PUSH1 0xA0 SHL SUB PUSH1 0x40 DUP3 ADD SWAP6 AND DUP2 MSTORE ADD MSTORE JUMP JUMPDEST SUB SWAP3 GAS CALL DUP1 ISZERO PUSH2 0x5E5 JUMPI SWAP3 PUSH32 0x2D9A1BDD4EB5E4A9CF6D460AD9F50107B4CE07174C163778BE49A66CA7E18080 SWAP6 SWAP3 PUSH1 0x3 SWAP3 PUSH2 0x255 SWAP7 SWAP6 PUSH2 0x5B6 JUMPI JUMPDEST POP PUSH2 0x5A8 DUP6 DUP3 SLOAD PUSH2 0x190D JUMP JUMPDEST SWAP1 SSTORE ADD PUSH2 0x23D DUP4 DUP3 SLOAD PUSH2 0x189F JUMP JUMPDEST PUSH2 0x5D7 SWAP1 PUSH1 0x20 RETURNDATASIZE PUSH1 0x20 GT PUSH2 0x5DE JUMPI JUMPDEST PUSH2 0x5CF DUP2 DUP4 PUSH2 0x1751 JUMP JUMPDEST DUP2 ADD SWAP1 PUSH2 0x183C JUMP JUMPDEST POP CODESIZE PUSH2 0x59C JUMP JUMPDEST POP RETURNDATASIZE PUSH2 0x5C5 JUMP JUMPDEST DUP6 MLOAD RETURNDATASIZE DUP9 DUP3 RETURNDATACOPY RETURNDATASIZE SWAP1 REVERT JUMPDEST POP SWAP1 CALLVALUE PUSH2 0x1AC JUMPI DUP1 PUSH1 0x3 NOT CALLDATASIZE ADD SLT PUSH2 0x1AC JUMPI PUSH2 0x629 SWAP2 CALLDATALOAD PUSH2 0x624 PUSH1 0x1 PUSH2 0x613 PUSH2 0x1681 JUMP JUMPDEST SWAP4 DUP4 DUP8 MSTORE DUP7 PUSH1 0x20 MSTORE DUP7 KECCAK256 ADD SLOAD PUSH2 0x19B2 JUMP JUMPDEST PUSH2 0x1A77 JUMP JUMPDEST POP DUP1 RETURN JUMPDEST POP CALLVALUE PUSH2 0x1AC JUMPI DUP3 PUSH1 0x3 NOT CALLDATASIZE ADD SLT PUSH2 0x1AC JUMPI CALLER DUP4 MSTORE PUSH1 0x20 PUSH1 0x5 DUP2 MSTORE DUP3 DUP5 KECCAK256 DUP1 SLOAD SWAP1 PUSH2 0x655 PUSH2 0x1AED JUMP JUMPDEST CALLER DUP7 MSTORE PUSH1 0x5 DUP4 MSTORE DUP5 DUP7 KECCAK256 SWAP2 PUSH2 0x66D DUP2 DUP5 SLOAD LT ISZERO PUSH2 0x18C2 JUMP JUMPDEST DUP7 DUP1 DUP3 DUP1 ISZERO PUSH2 0x7C1 JUMPI JUMPDEST DUP3 DUP1 SWAP3 SWAP2 DUP2 SWAP3 CALLER SWAP1 CALL ISZERO PUSH2 0x5E5 JUMPI PUSH2 0x6E1 DUP2 PUSH1 0x1 DUP6 PUSH2 0x6BA PUSH32 0x827DACD90918F1F37F20D339547C89C897889CF6A581DE7C2394AE65E4D21E2 SWAP6 PUSH1 0x2 SWAP9 SLOAD PUSH2 0x190D JUMP JUMPDEST DUP2 SSTORE ADD PUSH2 0x6C8 DUP3 DUP3 SLOAD PUSH2 0x189F JUMP JUMPDEST SWAP1 SSTORE DUP8 MLOAD CALLER DUP2 MSTORE PUSH1 0x20 DUP2 ADD SWAP2 SWAP1 SWAP2 MSTORE SWAP1 DUP2 SWAP1 PUSH1 0x40 DUP3 ADD SWAP1 JUMP JUMPDEST SUB SWAP1 LOG1 ADD SLOAD SWAP2 PUSH2 0x6EF PUSH2 0x1AED JUMP JUMPDEST CALLER DUP6 MSTORE PUSH1 0x5 DUP3 MSTORE DUP4 DUP6 KECCAK256 SWAP2 PUSH2 0x750 DUP2 DUP6 PUSH1 0x2 DUP7 ADD SWAP5 PUSH2 0x711 DUP3 DUP8 SLOAD LT ISZERO PUSH2 0x18C2 JUMP JUMPDEST PUSH1 0x1 PUSH1 0x1 PUSH1 0xA0 SHL SUB PUSH1 0x6 SLOAD AND SWAP1 DUP11 DUP11 MLOAD DUP1 SWAP7 DUP2 SWAP6 DUP3 SWAP5 PUSH4 0xA9059CBB PUSH1 0xE0 SHL DUP5 MSTORE CALLER SWAP1 DUP5 ADD PUSH1 0x20 SWAP1 SWAP4 SWAP3 SWAP2 SWAP4 PUSH1 0x1 PUSH1 0x1 PUSH1 0xA0 SHL SUB PUSH1 0x40 DUP3 ADD SWAP6 AND DUP2 MSTORE ADD MSTORE JUMP JUMPDEST SUB SWAP3 GAS CALL DUP1 ISZERO PUSH2 0x7B7 JUMPI SWAP3 PUSH1 0x3 SWAP3 PUSH2 0x255 SWAP7 SWAP6 SWAP3 PUSH32 0x2D9A1BDD4EB5E4A9CF6D460AD9F50107B4CE07174C163778BE49A66CA7E18080 SWAP9 SWAP6 PUSH2 0x799 JUMPI JUMPDEST POP POP PUSH2 0x5A8 DUP6 DUP3 SLOAD PUSH2 0x190D JUMP JUMPDEST DUP2 PUSH2 0x7AF SWAP3 SWAP1 RETURNDATASIZE LT PUSH2 0x5DE JUMPI PUSH2 0x5CF DUP2 DUP4 PUSH2 0x1751 JUMP JUMPDEST POP CODESIZE DUP1 PUSH2 0x78C JUMP JUMPDEST DUP7 MLOAD RETURNDATASIZE DUP10 DUP3 RETURNDATACOPY RETURNDATASIZE SWAP1 REVERT JUMPDEST PUSH2 0x8FC SWAP2 POP PUSH2 0x677 JUMP JUMPDEST POP SWAP1 CALLVALUE PUSH2 0x1AC JUMPI PUSH1 0x20 CALLDATASIZE PUSH1 0x3 NOT ADD SLT PUSH2 0x1AC JUMPI DUP1 PUSH1 0xA0 SWAP4 PUSH1 0x1 PUSH1 0x1 PUSH1 0xA0 SHL SUB PUSH2 0x7F2 PUSH2 0x1697 JUMP JUMPDEST DUP3 PUSH1 0x80 DUP6 MLOAD PUSH2 0x800 DUP2 PUSH2 0x1735 JUMP JUMPDEST DUP3 DUP2 MSTORE DUP3 PUSH1 0x20 DUP3 ADD MSTORE DUP3 DUP8 DUP3 ADD MSTORE DUP3 PUSH1 0x60 DUP3 ADD MSTORE ADD MSTORE AND DUP2 MSTORE PUSH1 0x5 PUSH1 0x20 MSTORE KECCAK256 DUP2 MLOAD SWAP2 PUSH2 0x82B DUP4 PUSH2 0x1735 JUMP JUMPDEST DUP2 SLOAD SWAP4 DUP5 DUP5 MSTORE PUSH1 0x1 DUP4 ADD SLOAD PUSH1 0x20 DUP6 ADD SWAP1 DUP2 MSTORE PUSH1 0x80 PUSH1 0x2 DUP6 ADD SLOAD SWAP3 DUP5 DUP8 ADD SWAP4 DUP5 MSTORE PUSH1 0x3 DUP7 ADD SLOAD SWAP6 PUSH1 0x60 DUP9 ADD SWAP7 DUP8 MSTORE ADD SLOAD SWAP6 ADD SWAP5 DUP6 MSTORE DUP3 MLOAD SWAP6 DUP7 MSTORE MLOAD PUSH1 0x20 DUP7 ADD MSTORE MLOAD SWAP1 DUP5 ADD MSTORE MLOAD PUSH1 0x60 DUP4 ADD MSTORE MLOAD PUSH1 0x80 DUP3 ADD MSTORE RETURN JUMPDEST POP SWAP1 CALLVALUE PUSH2 0x1AC JUMPI PUSH2 0x88D CALLDATASIZE PUSH2 0x16AD JUMP JUMPDEST SWAP2 PUSH2 0x896 PUSH2 0x1AED JUMP JUMPDEST PUSH1 0x1 PUSH1 0x1 PUSH1 0xA0 SHL SUB DUP1 PUSH1 0x6 SLOAD AND SWAP5 DUP3 MLOAD DUP1 SWAP7 PUSH4 0x23B872DD PUSH1 0xE0 SHL DUP3 MSTORE PUSH1 0x20 SWAP8 DUP9 SWAP2 DUP2 DUP12 DUP2 PUSH2 0x8E6 DUP13 ADDRESS CALLER DUP12 DUP6 ADD PUSH1 0x40 SWAP2 SWAP5 SWAP4 SWAP3 SWAP5 PUSH1 0x60 DUP3 ADD SWAP6 PUSH1 0x1 PUSH1 0x1 PUSH1 0xA0 SHL SUB DUP1 SWAP3 AND DUP4 MSTORE AND PUSH1 0x20 DUP3 ADD MSTORE ADD MSTORE JUMP JUMPDEST SUB SWAP3 GAS CALL DUP1 ISZERO PUSH2 0x9F8 JUMPI PUSH2 0x9DB JUMPI JUMPDEST POP DUP4 DUP8 MSTORE DUP1 DUP7 MSTORE DUP7 PUSH2 0x908 DUP5 DUP3 KECCAK256 PUSH2 0x17E9 JUMP JUMPDEST SWAP2 DUP8 DUP4 ADD SWAP1 PUSH2 0x919 DUP3 MLOAD ISZERO ISZERO PUSH2 0x1854 JUMP JUMPDEST DUP5 PUSH1 0x2 SLOAD AND SWAP2 MLOAD DUP3 EXTCODESIZE ISZERO PUSH2 0x4D5 JUMPI PUSH1 0x44 DUP5 SWAP3 DUP4 DUP10 MLOAD SWAP6 DUP7 SWAP5 DUP6 SWAP4 PUSH4 0x3B52301D PUSH1 0xE0 SHL DUP6 MSTORE DUP5 ADD MSTORE DUP13 PUSH1 0x24 DUP5 ADD MSTORE GAS CALL DUP1 ISZERO PUSH2 0x9D1 JUMPI PUSH2 0x9B3 JUMPI JUMPDEST POP POP PUSH32 0x151FACCD240317074531046F03541FA6730271998B121127DA727645D6A371D SWAP6 PUSH2 0x255 SWAP4 SWAP3 PUSH1 0x5 SWAP3 MLOAD AND DUP9 MSTORE MSTORE PUSH1 0x2 DUP2 DUP8 KECCAK256 ADD PUSH2 0x995 DUP6 DUP3 SLOAD PUSH2 0x189F JUMP JUMPDEST SWAP1 SSTORE MLOAD SWAP2 DUP3 MSTORE CALLER PUSH1 0x20 DUP4 ADD MSTORE PUSH1 0x40 DUP3 ADD SWAP3 SWAP1 SWAP3 MSTORE SWAP1 DUP2 SWAP1 PUSH1 0x60 DUP3 ADD SWAP1 JUMP JUMPDEST PUSH2 0x9BF SWAP1 SWAP5 SWAP4 SWAP5 PUSH2 0x16EF JUMP JUMPDEST PUSH2 0x9CD JUMPI DUP7 CODESIZE SWAP4 SWAP3 SWAP4 PUSH2 0x953 JUMP JUMPDEST DUP7 DUP1 REVERT JUMPDEST DUP6 MLOAD RETURNDATASIZE DUP5 DUP3 RETURNDATACOPY RETURNDATASIZE SWAP1 REVERT JUMPDEST PUSH2 0x9F1 SWAP1 DUP8 RETURNDATASIZE DUP10 GT PUSH2 0x5DE JUMPI PUSH2 0x5CF DUP2 DUP4 PUSH2 0x1751 JUMP JUMPDEST POP CODESIZE PUSH2 0x8F5 JUMP JUMPDEST DUP5 MLOAD RETURNDATASIZE DUP11 DUP3 RETURNDATACOPY RETURNDATASIZE SWAP1 REVERT JUMPDEST POP SWAP1 PUSH1 0x60 CALLDATASIZE PUSH1 0x3 NOT ADD SLT PUSH2 0x1AC JUMPI PUSH2 0xA18 PUSH2 0x1697 JUMP JUMPDEST SWAP1 PUSH2 0xA21 PUSH2 0x1681 JUMP JUMPDEST SWAP3 PUSH1 0x44 CALLDATALOAD SWAP4 DUP5 ISZERO ISZERO DUP6 SUB PUSH2 0xC2E JUMPI DUP6 SWAP5 ISZERO PUSH2 0xBCD JUMPI PUSH1 0x1 PUSH1 0x1 PUSH1 0xA0 SHL SUB PUSH1 0x20 DUP2 PUSH1 0x1 SLOAD PUSH1 0x8 SHR AND SWAP2 PUSH1 0x24 DUP7 MLOAD DUP1 SWAP5 DUP2 SWAP4 PUSH4 0xF82568F9 PUSH1 0xE0 SHL DUP4 MSTORE DUP11 AND DUP9 DUP4 ADD MSTORE GAS STATICCALL SWAP1 DUP2 ISZERO PUSH2 0xBC3 JUMPI DUP7 SWAP2 PUSH2 0xBA4 JUMPI JUMPDEST POP SWAP4 JUMPDEST PUSH1 0x1 PUSH1 0x1 PUSH1 0xA0 SHL SUB SWAP1 DUP5 MLOAD PUSH32 0xA7F93EBD00000000000000000000000000000000000000000000000000000000 DUP2 MSTORE PUSH1 0x20 DUP2 DUP7 DUP2 DUP7 DUP12 AND GAS STATICCALL SWAP1 DUP2 ISZERO PUSH2 0xB9A JUMPI DUP9 SWAP2 PUSH2 0xB64 JUMPI JUMPDEST POP CALLVALUE LT PUSH2 0x9CD JUMPI DUP2 AND DUP7 MSTORE PUSH1 0x5 PUSH1 0x20 MSTORE DUP4 DUP7 KECCAK256 PUSH2 0xAD8 CALLVALUE DUP3 SLOAD PUSH2 0x189F JUMP JUMPDEST SWAP1 SSTORE PUSH1 0x1 SLOAD PUSH1 0x8 SHR AND DUP1 EXTCODESIZE ISZERO PUSH2 0x4DD JUMPI DUP4 MLOAD PUSH32 0x3FD39FA100000000000000000000000000000000000000000000000000000000 DUP2 MSTORE PUSH1 0x1 PUSH1 0x1 PUSH1 0xA0 SHL SUB SWAP6 DUP7 AND SWAP4 DUP2 ADD SWAP4 DUP5 MSTORE SWAP5 SWAP1 SWAP2 AND PUSH1 0x20 DUP4 ADD MSTORE DUP5 SWAP2 DUP5 SWAP2 SWAP1 DUP3 SWAP1 DUP5 SWAP1 DUP3 SWAP1 PUSH1 0x40 ADD SUB SWAP3 GAS CALL SWAP1 DUP2 ISZERO PUSH2 0xB5B JUMPI POP PUSH2 0xB48 JUMPI POP RETURN JUMPDEST PUSH2 0xB51 SWAP1 PUSH2 0x16EF JUMP JUMPDEST PUSH2 0xB58 JUMPI DUP1 RETURN JUMPDEST DUP1 REVERT JUMPDEST MLOAD RETURNDATASIZE DUP5 DUP3 RETURNDATACOPY RETURNDATASIZE SWAP1 REVERT JUMPDEST SWAP1 POP PUSH1 0x20 DUP2 RETURNDATASIZE PUSH1 0x20 GT PUSH2 0xB92 JUMPI JUMPDEST DUP2 PUSH2 0xB7F PUSH1 0x20 SWAP4 DUP4 PUSH2 0x1751 JUMP JUMPDEST DUP2 ADD SUB SLT PUSH2 0xB8E JUMPI MLOAD CODESIZE PUSH2 0xABA JUMP JUMPDEST DUP8 DUP1 REVERT JUMPDEST RETURNDATASIZE SWAP2 POP PUSH2 0xB72 JUMP JUMPDEST DUP7 MLOAD RETURNDATASIZE DUP11 DUP3 RETURNDATACOPY RETURNDATASIZE SWAP1 REVERT JUMPDEST PUSH2 0xBBD SWAP2 POP PUSH1 0x20 RETURNDATASIZE PUSH1 0x20 GT PUSH2 0x49D JUMPI PUSH2 0x48E DUP2 DUP4 PUSH2 0x1751 JUMP JUMPDEST CODESIZE PUSH2 0xA71 JUMP JUMPDEST DUP5 MLOAD RETURNDATASIZE DUP9 DUP3 RETURNDATACOPY RETURNDATASIZE SWAP1 REVERT JUMPDEST PUSH1 0x1 PUSH1 0x1 PUSH1 0xA0 SHL SUB PUSH1 0x20 DUP2 PUSH1 0x1 SLOAD PUSH1 0x8 SHR AND SWAP2 PUSH1 0x24 DUP7 MLOAD DUP1 SWAP5 DUP2 SWAP4 PUSH4 0xCEAFB18D PUSH1 0xE0 SHL DUP4 MSTORE DUP11 AND DUP9 DUP4 ADD MSTORE GAS STATICCALL SWAP1 DUP2 ISZERO PUSH2 0xBC3 JUMPI DUP7 SWAP2 PUSH2 0xC0F JUMPI JUMPDEST POP SWAP4 PUSH2 0xA74 JUMP JUMPDEST PUSH2 0xC28 SWAP2 POP PUSH1 0x20 RETURNDATASIZE PUSH1 0x20 GT PUSH2 0x49D JUMPI PUSH2 0x48E DUP2 DUP4 PUSH2 0x1751 JUMP JUMPDEST CODESIZE PUSH2 0xC08 JUMP JUMPDEST PUSH1 0x0 DUP1 REVERT JUMPDEST POP POP CALLVALUE PUSH2 0x4D9 JUMPI DUP2 PUSH1 0x3 NOT CALLDATASIZE ADD SLT PUSH2 0x4D9 JUMPI MLOAD SWAP1 DUP2 MSTORE PUSH1 0x20 SWAP1 RETURN JUMPDEST POP SWAP1 CALLVALUE PUSH2 0x1AC JUMPI PUSH1 0x20 CALLDATASIZE PUSH1 0x3 NOT ADD SLT PUSH2 0x1AC JUMPI DUP3 DUP3 CALLDATALOAD SWAP3 PUSH2 0xC6D PUSH2 0x1AED JUMP JUMPDEST DUP4 DUP3 MSTORE PUSH1 0x3 PUSH1 0x20 MSTORE PUSH1 0x20 PUSH2 0xC82 DUP5 DUP5 KECCAK256 PUSH2 0x17E9 JUMP JUMPDEST ADD SWAP1 PUSH2 0xC90 DUP3 MLOAD ISZERO ISZERO PUSH2 0x1854 JUMP JUMPDEST PUSH1 0x1 PUSH1 0x1 PUSH1 0xA0 SHL SUB PUSH1 0x2 SLOAD AND SWAP2 MLOAD DUP3 EXTCODESIZE ISZERO PUSH2 0x4D5 JUMPI DUP5 MLOAD PUSH32 0x9809758100000000000000000000000000000000000000000000000000000000 DUP2 MSTORE CALLER SWAP3 DUP2 ADD SWAP3 DUP4 MSTORE PUSH1 0x20 DUP4 ADD SWAP2 SWAP1 SWAP2 MSTORE SWAP2 DUP4 SWAP2 DUP4 SWAP2 SWAP1 DUP3 SWAP1 DUP5 SWAP1 DUP3 SWAP1 PUSH1 0x40 ADD SUB SWAP3 GAS CALL DUP1 ISZERO PUSH2 0xD39 JUMPI PUSH2 0xD25 JUMPI JUMPDEST POP PUSH32 0xA2A74C5CB3C53C766FBC5DEE93F5EFB7537191362C474FE948C73EB8402CB519 PUSH1 0x20 DUP5 DUP5 MLOAD SWAP1 DUP2 MSTORE LOG1 DUP1 RETURN JUMPDEST PUSH2 0xD2E SWAP1 PUSH2 0x16EF JUMP JUMPDEST PUSH2 0x1AC JUMPI DUP3 CODESIZE PUSH2 0xCF7 JUMP JUMPDEST DUP4 MLOAD RETURNDATASIZE DUP5 DUP3 RETURNDATACOPY RETURNDATASIZE SWAP1 REVERT JUMPDEST POP CALLVALUE PUSH2 0x1AC JUMPI DUP2 PUSH1 0x3 NOT CALLDATASIZE ADD SLT PUSH2 0x1AC JUMPI PUSH1 0x1 PUSH1 0x1 PUSH1 0xA0 SHL SUB DUP3 PUSH1 0x20 SWAP5 PUSH2 0xD68 PUSH2 0x1681 JUMP JUMPDEST SWAP4 CALLDATALOAD DUP2 MSTORE DUP1 DUP7 MSTORE KECCAK256 SWAP2 AND PUSH1 0x0 MSTORE DUP3 MSTORE PUSH1 0xFF DUP2 PUSH1 0x0 KECCAK256 SLOAD AND SWAP1 MLOAD SWAP1 ISZERO ISZERO DUP2 MSTORE RETURN JUMPDEST POP POP CALLVALUE PUSH2 0x4D9 JUMPI DUP2 PUSH1 0x3 NOT CALLDATASIZE ADD SLT PUSH2 0x4D9 JUMPI PUSH1 0x20 PUSH32 0x62E78CEA01BEE320CD4E420270B5EA74000D11B0C9F74754EBDBFC544B05A258 SWAP2 PUSH2 0xDC6 PUSH2 0x195A JUMP JUMPDEST PUSH2 0xDCE PUSH2 0x1AED JUMP JUMPDEST PUSH1 0x1 PUSH1 0xFF NOT DUP2 SLOAD AND OR PUSH1 0x1 SSTORE MLOAD CALLER DUP2 MSTORE LOG1 DUP1 RETURN JUMPDEST POP SWAP1 CALLVALUE PUSH2 0x1AC JUMPI PUSH2 0xDF2 CALLDATASIZE PUSH2 0x16C3 JUMP JUMPDEST SWAP2 SWAP4 SWAP1 PUSH2 0xDFD PUSH2 0x1AED JUMP JUMPDEST ISZERO PUSH2 0xF9F JUMPI PUSH1 0x24 PUSH1 0x20 PUSH1 0x1 PUSH1 0x1 PUSH1 0xA0 SHL SUB PUSH1 0x1 SLOAD PUSH1 0x8 SHR AND DUP6 MLOAD SWAP3 DUP4 DUP1 SWAP3 PUSH4 0xF82568F9 PUSH1 0xE0 SHL DUP3 MSTORE CALLER DUP8 DUP4 ADD MSTORE GAS STATICCALL SWAP1 DUP2 ISZERO PUSH2 0xBC3 JUMPI DUP7 SWAP2 PUSH2 0xF80 JUMPI JUMPDEST POP SWAP1 JUMPDEST PUSH1 0x1 PUSH1 0x1 PUSH1 0xA0 SHL SUB DUP1 DUP4 AND SWAP2 DUP3 ISZERO PUSH2 0xF3D JUMPI POP DUP6 DUP8 MSTORE PUSH1 0x3 PUSH1 0x20 MSTORE DUP5 DUP8 KECCAK256 SLOAD AND PUSH2 0x4DD JUMPI PUSH32 0xB6EC0C1DE71A7D0DE3B9C620825A32B99343A5B857AEB567152407C2FD783924 SWAP2 PUSH2 0xEF5 PUSH2 0xF14 SWAP3 DUP7 MLOAD SWAP1 PUSH2 0xE96 DUP3 PUSH2 0x1719 JUMP JUMPDEST CALLER DUP3 MSTORE DUP10 PUSH1 0x20 DUP4 ADD MSTORE DUP8 DUP3 ADD MSTORE DUP8 DUP10 MSTORE PUSH1 0x3 PUSH1 0x20 MSTORE DUP7 DUP10 KECCAK256 PUSH1 0x1 PUSH1 0x1 PUSH1 0xA0 SHL SUB PUSH1 0x40 PUSH1 0x2 DUP3 DUP6 MLOAD AND SWAP4 PUSH20 0xFFFFFFFFFFFFFFFFFFFFFFFFFFFFFFFFFFFFFFFF NOT SWAP5 DUP6 DUP3 SLOAD AND OR DUP2 SSTORE PUSH1 0x20 DUP7 ADD MLOAD PUSH1 0x1 DUP3 ADD SSTORE ADD SWAP4 ADD MLOAD AND SWAP1 DUP3 SLOAD AND OR SWAP1 SSTORE JUMP JUMPDEST DUP5 MLOAD CALLER DUP2 MSTORE PUSH1 0x1 PUSH1 0x1 PUSH1 0xA0 SHL SUB SWAP1 SWAP2 AND PUSH1 0x20 DUP3 ADD MSTORE SWAP1 DUP2 SWAP1 PUSH1 0x40 DUP3 ADD SWAP1 JUMP JUMPDEST SUB SWAP1 LOG1 PUSH2 0xF1F JUMPI DUP3 DUP1 RETURN JUMPDEST PUSH1 0x1 SWAP1 PUSH2 0xF2B DUP4 PUSH2 0x1B23 JUMP JUMPDEST SWAP3 DUP5 MSTORE PUSH1 0x3 PUSH1 0x20 MSTORE DUP4 KECCAK256 ADD SSTORE CODESIZE DUP1 DUP3 DUP1 RETURN JUMPDEST PUSH1 0x64 SWAP1 PUSH1 0x20 DUP8 MLOAD SWAP2 PUSH3 0x461BCD PUSH1 0xE5 SHL DUP4 MSTORE DUP3 ADD MSTORE PUSH1 0x1A PUSH1 0x24 DUP3 ADD MSTORE PUSH32 0x496E636C75736976652063617264206E6F742063726561746564000000000000 PUSH1 0x44 DUP3 ADD MSTORE REVERT JUMPDEST PUSH2 0xF99 SWAP2 POP PUSH1 0x20 RETURNDATASIZE PUSH1 0x20 GT PUSH2 0x49D JUMPI PUSH2 0x48E DUP2 DUP4 PUSH2 0x1751 JUMP JUMPDEST CODESIZE PUSH2 0xE3A JUMP JUMPDEST PUSH1 0x24 PUSH1 0x20 PUSH1 0x1 PUSH1 0x1 PUSH1 0xA0 SHL SUB PUSH1 0x1 SLOAD PUSH1 0x8 SHR AND DUP6 MLOAD SWAP3 DUP4 DUP1 SWAP3 PUSH4 0xCEAFB18D PUSH1 0xE0 SHL DUP3 MSTORE CALLER DUP8 DUP4 ADD MSTORE GAS STATICCALL SWAP1 DUP2 ISZERO PUSH2 0xBC3 JUMPI DUP7 SWAP2 PUSH2 0xFDE JUMPI JUMPDEST POP SWAP1 PUSH2 0xE3D JUMP JUMPDEST PUSH2 0xFF7 SWAP2 POP PUSH1 0x20 RETURNDATASIZE PUSH1 0x20 GT PUSH2 0x49D JUMPI PUSH2 0x48E DUP2 DUP4 PUSH2 0x1751 JUMP JUMPDEST CODESIZE PUSH2 0xFD7 JUMP JUMPDEST POP CALLVALUE PUSH2 0x1AC JUMPI PUSH2 0x100C CALLDATASIZE PUSH2 0x16C3 JUMP JUMPDEST SWAP1 PUSH2 0x1018 SWAP5 SWAP3 SWAP5 PUSH2 0x1AED JUMP JUMPDEST ISZERO PUSH2 0x11A1 JUMPI PUSH1 0x24 PUSH1 0x20 PUSH1 0x1 PUSH1 0x1 PUSH1 0xA0 SHL SUB PUSH1 0x1 SLOAD PUSH1 0x8 SHR AND DUP5 MLOAD SWAP3 DUP4 DUP1 SWAP3 PUSH4 0xF82568F9 PUSH1 0xE0 SHL DUP3 MSTORE CALLER DUP10 DUP4 ADD MSTORE GAS STATICCALL SWAP1 DUP2 ISZERO PUSH2 0x1197 JUMPI DUP7 SWAP2 PUSH2 0x1178 JUMPI JUMPDEST POP JUMPDEST PUSH1 0x1 PUSH1 0x1 PUSH1 0xA0 SHL SUB DUP1 DUP3 AND SWAP1 DUP2 ISZERO PUSH2 0x1135 JUMPI DUP7 DUP9 MSTORE PUSH1 0x3 PUSH1 0x20 MSTORE DUP5 DUP9 KECCAK256 SLOAD AND PUSH2 0x9CD JUMPI PUSH32 0x99BDB3B69A4967125CD3125ED7837D0518FB19E0BC15F01FF01C613B9FA53E90 SWAP2 PUSH2 0xEF5 PUSH2 0x110D SWAP3 DUP7 MLOAD SWAP1 PUSH2 0x10AF DUP3 PUSH2 0x1719 JUMP JUMPDEST CALLER DUP3 MSTORE DUP11 PUSH1 0x20 DUP4 ADD MSTORE DUP8 DUP3 ADD MSTORE DUP9 DUP11 MSTORE DUP8 PUSH1 0x20 MSTORE DUP7 DUP11 KECCAK256 PUSH1 0x1 PUSH1 0x1 PUSH1 0xA0 SHL SUB PUSH1 0x40 PUSH1 0x2 DUP3 DUP6 MLOAD AND SWAP4 PUSH20 0xFFFFFFFFFFFFFFFFFFFFFFFFFFFFFFFFFFFFFFFF NOT SWAP5 DUP6 DUP3 SLOAD AND OR DUP2 SSTORE PUSH1 0x20 DUP7 ADD MLOAD PUSH1 0x1 DUP3 ADD SSTORE ADD SWAP4 ADD MLOAD AND SWAP1 DUP3 SLOAD AND OR SWAP1 SSTORE JUMP JUMPDEST SUB SWAP1 LOG1 PUSH2 0x1118 JUMPI DUP4 DUP1 RETURN JUMPDEST PUSH1 0x1 SWAP2 PUSH2 0x1124 DUP5 PUSH2 0x1B23 JUMP JUMPDEST SWAP4 DUP6 MSTORE PUSH1 0x20 MSTORE DUP4 KECCAK256 ADD SSTORE CODESIZE DUP1 DUP1 DUP4 DUP1 RETURN JUMPDEST PUSH1 0x64 DUP7 PUSH1 0x20 DUP8 MLOAD SWAP2 PUSH3 0x461BCD PUSH1 0xE5 SHL DUP4 MSTORE DUP3 ADD MSTORE PUSH1 0x10 PUSH1 0x24 DUP3 ADD MSTORE PUSH32 0x43617264206E6F74206372656174656400000000000000000000000000000000 PUSH1 0x44 DUP3 ADD MSTORE REVERT JUMPDEST PUSH2 0x1191 SWAP2 POP PUSH1 0x20 RETURNDATASIZE PUSH1 0x20 GT PUSH2 0x49D JUMPI PUSH2 0x48E DUP2 DUP4 PUSH2 0x1751 JUMP JUMPDEST CODESIZE PUSH2 0x1055 JUMP JUMPDEST DUP4 MLOAD RETURNDATASIZE DUP9 DUP3 RETURNDATACOPY RETURNDATASIZE SWAP1 REVERT JUMPDEST PUSH1 0x24 PUSH1 0x20 PUSH1 0x1 PUSH1 0x1 PUSH1 0xA0 SHL SUB PUSH1 0x1 SLOAD PUSH1 0x8 SHR AND DUP5 MLOAD SWAP3 DUP4 DUP1 SWAP3 PUSH4 0xCEAFB18D PUSH1 0xE0 SHL DUP3 MSTORE CALLER DUP10 DUP4 ADD MSTORE GAS STATICCALL SWAP1 DUP2 ISZERO PUSH2 0x1197 JUMPI DUP7 SWAP2 PUSH2 0x11DF JUMPI JUMPDEST POP PUSH2 0x1057 JUMP JUMPDEST PUSH2 0x11F8 SWAP2 POP PUSH1 0x20 RETURNDATASIZE PUSH1 0x20 GT PUSH2 0x49D JUMPI PUSH2 0x48E DUP2 DUP4 PUSH2 0x1751 JUMP JUMPDEST CODESIZE PUSH2 0x11D9 JUMP JUMPDEST POP CALLVALUE PUSH2 0x1AC JUMPI PUSH1 0x20 CALLDATASIZE PUSH1 0x3 NOT ADD SLT PUSH2 0x1AC JUMPI PUSH2 0x1231 DUP3 PUSH1 0x60 SWAP5 PUSH2 0x125A SWAP4 PUSH2 0x1223 PUSH2 0x17CA JUMP JUMPDEST POP DUP1 CALLDATALOAD DUP3 MSTORE PUSH1 0x20 MSTORE KECCAK256 PUSH2 0x17E9 JUMP JUMPDEST SWAP2 MLOAD DUP1 SWAP3 PUSH1 0x40 SWAP1 DUP2 PUSH1 0x1 PUSH1 0x1 PUSH1 0xA0 SHL SUB SWAP2 DUP3 DUP2 MLOAD AND DUP6 MSTORE PUSH1 0x20 DUP2 ADD MLOAD PUSH1 0x20 DUP7 ADD MSTORE ADD MLOAD AND SWAP2 ADD MSTORE JUMP JUMPDEST RETURN JUMPDEST POP POP CALLVALUE PUSH2 0x4D9 JUMPI DUP2 PUSH1 0x3 NOT CALLDATASIZE ADD SLT PUSH2 0x4D9 JUMPI PUSH1 0x20 SWAP1 PUSH1 0xFF PUSH1 0x1 SLOAD AND SWAP1 MLOAD SWAP1 ISZERO ISZERO DUP2 MSTORE RETURN JUMPDEST POP SWAP2 SWAP1 CALLVALUE PUSH2 0x4D9 JUMPI PUSH2 0x1291 CALLDATASIZE PUSH2 0x16AD JUMP JUMPDEST SWAP2 PUSH2 0x129A PUSH2 0x1AED JUMP JUMPDEST PUSH1 0x6 SLOAD DUP2 MLOAD PUSH4 0x23B872DD PUSH1 0xE0 SHL DUP2 MSTORE CALLER DUP8 DUP3 ADD SWAP1 DUP2 MSTORE ADDRESS PUSH1 0x20 DUP1 DUP4 ADD SWAP2 SWAP1 SWAP2 MSTORE PUSH1 0x40 DUP3 ADD DUP8 SWAP1 MSTORE SWAP3 PUSH1 0x1 PUSH1 0x1 PUSH1 0xA0 SHL SUB SWAP3 SWAP2 DUP5 SWAP2 DUP4 SWAP2 DUP3 SWAP1 SUB PUSH1 0x60 ADD SWAP1 DUP3 SWAP1 DUP12 SWAP1 DUP8 AND GAS CALL DUP1 ISZERO PUSH2 0x13CA JUMPI PUSH2 0x13D8 JUMPI JUMPDEST POP DUP4 DUP7 MSTORE PUSH1 0x3 DUP3 MSTORE PUSH2 0x12FD DUP4 DUP8 KECCAK256 PUSH2 0x17E9 JUMP JUMPDEST SWAP7 DUP3 DUP9 ADD SWAP1 PUSH2 0x130E DUP3 MLOAD ISZERO ISZERO PUSH2 0x1854 JUMP JUMPDEST DUP3 PUSH1 0x2 SLOAD AND SWAP2 MLOAD SWAP1 DUP3 EXTCODESIZE ISZERO PUSH2 0x13D4 JUMPI SWAP1 PUSH1 0x44 DUP10 SWAP3 DUP4 DUP9 MLOAD SWAP6 DUP7 SWAP5 DUP6 SWAP4 PUSH4 0x3B52301D PUSH1 0xE0 SHL DUP6 MSTORE DUP5 ADD MSTORE DUP12 PUSH1 0x24 DUP5 ADD MSTORE GAS CALL DUP1 ISZERO PUSH2 0x13CA JUMPI PUSH2 0x138C JUMPI JUMPDEST POP PUSH2 0x255 SWAP3 SWAP2 PUSH1 0x5 SWAP2 PUSH32 0x151FACCD240317074531046F03541FA6730271998B121127DA727645D6A371D SWAP8 SWAP9 MLOAD AND DUP9 MSTORE MSTORE PUSH1 0x2 DUP2 DUP8 KECCAK256 ADD PUSH2 0x995 DUP6 DUP3 SLOAD PUSH2 0x189F JUMP JUMPDEST SWAP2 PUSH1 0x5 SWAP2 PUSH32 0x151FACCD240317074531046F03541FA6730271998B121127DA727645D6A371D SWAP8 PUSH2 0x13BF PUSH2 0x255 SWAP7 SWAP6 PUSH2 0x16EF JUMP JUMPDEST SWAP8 POP SWAP2 POP SWAP2 SWAP3 PUSH2 0x134A JUMP JUMPDEST DUP5 MLOAD RETURNDATASIZE DUP10 DUP3 RETURNDATACOPY RETURNDATASIZE SWAP1 REVERT JUMPDEST DUP9 DUP1 REVERT JUMPDEST PUSH2 0x13EE SWAP1 DUP4 RETURNDATASIZE DUP6 GT PUSH2 0x5DE JUMPI PUSH2 0x5CF DUP2 DUP4 PUSH2 0x1751 JUMP JUMPDEST POP CODESIZE PUSH2 0x12EA JUMP JUMPDEST POP CALLVALUE PUSH2 0x1AC JUMPI DUP2 PUSH1 0x3 NOT CALLDATASIZE ADD SLT PUSH2 0x1AC JUMPI PUSH2 0x140E PUSH2 0x1697 JUMP JUMPDEST PUSH1 0x24 CALLDATALOAD SWAP1 DUP2 ISZERO ISZERO DUP3 SUB PUSH2 0x14F8 JUMPI PUSH1 0x20 SWAP2 ISZERO PUSH2 0x148F JUMPI PUSH1 0x24 PUSH1 0x1 PUSH1 0x1 PUSH1 0xA0 SHL SUB SWAP2 DUP3 PUSH1 0x1 SLOAD PUSH1 0x8 SHR AND DUP7 MLOAD SWAP6 DUP7 SWAP5 DUP6 SWAP4 PUSH4 0xF82568F9 PUSH1 0xE0 SHL DUP6 MSTORE AND SWAP1 DUP4 ADD MSTORE GAS STATICCALL SWAP1 DUP2 ISZERO PUSH2 0x25B JUMPI SWAP1 PUSH1 0x1 PUSH1 0x1 PUSH1 0xA0 SHL SUB SWAP2 PUSH1 0x20 SWAP5 SWAP2 PUSH2 0x1472 JUMPI JUMPDEST POP SWAP2 JUMPDEST MLOAD SWAP2 AND DUP2 MSTORE RETURN JUMPDEST PUSH2 0x1489 SWAP2 POP DUP5 RETURNDATASIZE DUP7 GT PUSH2 0x49D JUMPI PUSH2 0x48E DUP2 DUP4 PUSH2 0x1751 JUMP JUMPDEST CODESIZE PUSH2 0x1468 JUMP JUMPDEST PUSH1 0x24 PUSH1 0x1 PUSH1 0x1 PUSH1 0xA0 SHL SUB SWAP2 DUP3 PUSH1 0x1 SLOAD PUSH1 0x8 SHR AND DUP7 MLOAD SWAP6 DUP7 SWAP5 DUP6 SWAP4 PUSH4 0xCEAFB18D PUSH1 0xE0 SHL DUP6 MSTORE AND SWAP1 DUP4 ADD MSTORE GAS STATICCALL SWAP1 DUP2 ISZERO PUSH2 0x25B JUMPI SWAP1 PUSH1 0x1 PUSH1 0x1 PUSH1 0xA0 SHL SUB SWAP2 PUSH1 0x20 SWAP5 SWAP2 PUSH2 0x14DB JUMPI JUMPDEST POP SWAP2 PUSH2 0x146B JUMP JUMPDEST PUSH2 0x14F2 SWAP2 POP DUP5 RETURNDATASIZE DUP7 GT PUSH2 0x49D JUMPI PUSH2 0x48E DUP2 DUP4 PUSH2 0x1751 JUMP JUMPDEST CODESIZE PUSH2 0x14D4 JUMP JUMPDEST DUP5 DUP1 REVERT JUMPDEST POP SWAP2 SWAP1 CALLVALUE PUSH2 0x4D9 JUMPI DUP1 PUSH1 0x3 NOT CALLDATASIZE ADD SLT PUSH2 0x4D9 JUMPI PUSH2 0x1517 PUSH2 0x1681 JUMP JUMPDEST SWAP1 CALLER PUSH1 0x1 PUSH1 0x1 PUSH1 0xA0 SHL SUB DUP4 AND SUB PUSH2 0x1534 JUMPI POP PUSH2 0x629 SWAP2 SWAP3 CALLDATALOAD PUSH2 0x1A77 JUMP JUMPDEST DUP4 SWAP1 MLOAD PUSH32 0x6697B23200000000000000000000000000000000000000000000000000000000 DUP2 MSTORE REVERT JUMPDEST POP SWAP1 CALLVALUE PUSH2 0x1AC JUMPI DUP1 PUSH1 0x3 NOT CALLDATASIZE ADD SLT PUSH2 0x1AC JUMPI PUSH2 0x629 SWAP2 CALLDATALOAD PUSH2 0x1580 PUSH1 0x1 PUSH2 0x613 PUSH2 0x1681 JUMP JUMPDEST PUSH2 0x19F8 JUMP JUMPDEST POP CALLVALUE PUSH2 0x1AC JUMPI PUSH1 0x20 CALLDATASIZE PUSH1 0x3 NOT ADD SLT PUSH2 0x1AC JUMPI DUP2 PUSH1 0x20 SWAP4 PUSH1 0x1 SWAP3 CALLDATALOAD DUP2 MSTORE DUP1 DUP6 MSTORE KECCAK256 ADD SLOAD SWAP1 MLOAD SWAP1 DUP2 MSTORE RETURN JUMPDEST POP CALLVALUE PUSH2 0x1AC JUMPI PUSH1 0x20 CALLDATASIZE PUSH1 0x3 NOT ADD SLT PUSH2 0x1AC JUMPI PUSH2 0x1231 DUP3 PUSH1 0x60 SWAP5 PUSH2 0x125A SWAP4 PUSH2 0x15D3 PUSH2 0x17CA JUMP JUMPDEST POP CALLDATALOAD DUP2 MSTORE PUSH1 0x3 PUSH1 0x20 MSTORE KECCAK256 PUSH2 0x17E9 JUMP JUMPDEST SWAP3 POP POP CALLVALUE PUSH2 0x1AC JUMPI PUSH1 0x20 CALLDATASIZE PUSH1 0x3 NOT ADD SLT PUSH2 0x1AC JUMPI CALLDATALOAD PUSH32 0xFFFFFFFF00000000000000000000000000000000000000000000000000000000 DUP2 AND DUP1 SWAP2 SUB PUSH2 0x1AC JUMPI PUSH1 0x20 SWAP3 POP PUSH32 0x7965DB0B00000000000000000000000000000000000000000000000000000000 DUP2 EQ SWAP1 DUP2 ISZERO PUSH2 0x1657 JUMPI JUMPDEST POP ISZERO ISZERO DUP2 MSTORE RETURN JUMPDEST PUSH32 0x1FFC9A700000000000000000000000000000000000000000000000000000000 SWAP2 POP EQ CODESIZE PUSH2 0x1650 JUMP JUMPDEST PUSH1 0x24 CALLDATALOAD SWAP1 PUSH1 0x1 PUSH1 0x1 PUSH1 0xA0 SHL SUB DUP3 AND DUP3 SUB PUSH2 0xC2E JUMPI JUMP JUMPDEST PUSH1 0x4 CALLDATALOAD SWAP1 PUSH1 0x1 PUSH1 0x1 PUSH1 0xA0 SHL SUB DUP3 AND DUP3 SUB PUSH2 0xC2E JUMPI JUMP JUMPDEST PUSH1 0x40 SWAP1 PUSH1 0x3 NOT ADD SLT PUSH2 0xC2E JUMPI PUSH1 0x4 CALLDATALOAD SWAP1 PUSH1 0x24 CALLDATALOAD SWAP1 JUMP JUMPDEST PUSH1 0x60 SWAP1 PUSH1 0x3 NOT ADD SLT PUSH2 0xC2E JUMPI PUSH1 0x4 CALLDATALOAD SWAP1 PUSH1 0x24 CALLDATALOAD DUP1 ISZERO ISZERO DUP2 SUB PUSH2 0xC2E JUMPI SWAP1 PUSH1 0x44 CALLDATALOAD DUP1 ISZERO ISZERO DUP2 SUB PUSH2 0xC2E JUMPI SWAP1 JUMP JUMPDEST PUSH8 0xFFFFFFFFFFFFFFFF DUP2 GT PUSH2 0x1703 JUMPI PUSH1 0x40 MSTORE JUMP JUMPDEST PUSH4 0x4E487B71 PUSH1 0xE0 SHL PUSH1 0x0 MSTORE PUSH1 0x41 PUSH1 0x4 MSTORE PUSH1 0x24 PUSH1 0x0 REVERT JUMPDEST PUSH1 0x60 DUP2 ADD SWAP1 DUP2 LT PUSH8 0xFFFFFFFFFFFFFFFF DUP3 GT OR PUSH2 0x1703 JUMPI PUSH1 0x40 MSTORE JUMP JUMPDEST PUSH1 0xA0 DUP2 ADD SWAP1 DUP2 LT PUSH8 0xFFFFFFFFFFFFFFFF DUP3 GT OR PUSH2 0x1703 JUMPI PUSH1 0x40 MSTORE JUMP JUMPDEST SWAP1 PUSH1 0x1F DUP1 NOT SWAP2 ADD AND DUP2 ADD SWAP1 DUP2 LT PUSH8 0xFFFFFFFFFFFFFFFF DUP3 GT OR PUSH2 0x1703 JUMPI PUSH1 0x40 MSTORE JUMP JUMPDEST DUP2 PUSH1 0x1F DUP3 ADD SLT ISZERO PUSH2 0xC2E JUMPI DUP1 CALLDATALOAD SWAP1 PUSH8 0xFFFFFFFFFFFFFFFF DUP3 GT PUSH2 0x1703 JUMPI PUSH1 0x40 MLOAD SWAP3 PUSH2 0x17A8 PUSH1 0x1F DUP5 ADD PUSH1 0x1F NOT AND PUSH1 0x20 ADD DUP6 PUSH2 0x1751 JUMP JUMPDEST DUP3 DUP5 MSTORE PUSH1 0x20 DUP4 DUP4 ADD ADD GT PUSH2 0xC2E JUMPI DUP2 PUSH1 0x0 SWAP3 PUSH1 0x20 DUP1 SWAP4 ADD DUP4 DUP7 ADD CALLDATACOPY DUP4 ADD ADD MSTORE SWAP1 JUMP JUMPDEST PUSH1 0x40 MLOAD SWAP1 PUSH2 0x17D7 DUP3 PUSH2 0x1719 JUMP JUMPDEST PUSH1 0x0 PUSH1 0x40 DUP4 DUP3 DUP2 MSTORE DUP3 PUSH1 0x20 DUP3 ADD MSTORE ADD MSTORE JUMP JUMPDEST SWAP1 PUSH1 0x40 MLOAD PUSH2 0x17F6 DUP2 PUSH2 0x1719 JUMP JUMPDEST PUSH1 0x40 DUP2 SWAP4 PUSH1 0x2 PUSH1 0x1 PUSH1 0x1 PUSH1 0xA0 SHL SUB SWAP2 DUP3 DUP2 SLOAD AND DUP6 MSTORE PUSH1 0x1 DUP2 ADD SLOAD PUSH1 0x20 DUP7 ADD MSTORE ADD SLOAD AND SWAP2 ADD MSTORE JUMP JUMPDEST SWAP1 DUP2 PUSH1 0x20 SWAP2 SUB SLT PUSH2 0xC2E JUMPI MLOAD PUSH1 0x1 PUSH1 0x1 PUSH1 0xA0 SHL SUB DUP2 AND DUP2 SUB PUSH2 0xC2E JUMPI SWAP1 JUMP JUMPDEST SWAP1 DUP2 PUSH1 0x20 SWAP2 SUB SLT PUSH2 0xC2E JUMPI MLOAD DUP1 ISZERO ISZERO DUP2 SUB PUSH2 0xC2E JUMPI SWAP1 JUMP JUMPDEST ISZERO PUSH2 0x185B JUMPI JUMP JUMPDEST PUSH1 0x64 PUSH1 0x40 MLOAD PUSH3 0x461BCD PUSH1 0xE5 SHL DUP2 MSTORE PUSH1 0x20 PUSH1 0x4 DUP3 ADD MSTORE PUSH1 0xD PUSH1 0x24 DUP3 ADD MSTORE PUSH32 0x4E6F2073747265616D2074697000000000000000000000000000000000000000 PUSH1 0x44 DUP3 ADD MSTORE REVERT JUMPDEST SWAP2 SWAP1 DUP3 ADD DUP1 SWAP3 GT PUSH2 0x18AC JUMPI JUMP JUMPDEST PUSH4 0x4E487B71 PUSH1 0xE0 SHL PUSH1 0x0 MSTORE PUSH1 0x11 PUSH1 0x4 MSTORE PUSH1 0x24 PUSH1 0x0 REVERT JUMPDEST ISZERO PUSH2 0x18C9 JUMPI JUMP JUMPDEST PUSH1 0x64 PUSH1 0x40 MLOAD PUSH3 0x461BCD PUSH1 0xE5 SHL DUP2 MSTORE PUSH1 0x20 PUSH1 0x4 DUP3 ADD MSTORE PUSH1 0xC PUSH1 0x24 DUP3 ADD MSTORE PUSH32 0x496E73756666696369656E740000000000000000000000000000000000000000 PUSH1 0x44 DUP3 ADD MSTORE REVERT JUMPDEST SWAP2 SWAP1 DUP3 SUB SWAP2 DUP3 GT PUSH2 0x18AC JUMPI JUMP JUMPDEST SWAP2 SWAP1 DUP3 MLOAD SWAP3 DUP4 DUP3 MSTORE PUSH1 0x0 JUMPDEST DUP5 DUP2 LT PUSH2 0x1946 JUMPI POP POP DUP3 PUSH1 0x0 PUSH1 0x20 DUP1 SWAP5 SWAP6 DUP5 ADD ADD MSTORE PUSH1 0x1F DUP1 NOT SWAP2 ADD AND ADD ADD SWAP1 JUMP JUMPDEST PUSH1 0x20 DUP2 DUP4 ADD DUP2 ADD MLOAD DUP5 DUP4 ADD DUP3 ADD MSTORE ADD PUSH2 0x1925 JUMP JUMPDEST CALLER PUSH1 0x0 SWAP1 DUP2 MSTORE PUSH32 0xAD3228B676F7D3CD4284A5443F17F1962B36E491B30A40B2405849E597BA5FB5 PUSH1 0x20 MSTORE PUSH1 0x40 DUP2 KECCAK256 SLOAD PUSH1 0xFF AND ISZERO PUSH2 0x1994 JUMPI POP JUMP JUMPDEST PUSH1 0x44 SWAP1 PUSH1 0x40 MLOAD SWAP1 PUSH4 0xE2517D3F PUSH1 0xE0 SHL DUP3 MSTORE CALLER PUSH1 0x4 DUP4 ADD MSTORE PUSH1 0x24 DUP3 ADD MSTORE REVERT JUMPDEST DUP1 PUSH1 0x0 MSTORE PUSH1 0x0 PUSH1 0x20 MSTORE PUSH1 0x40 PUSH1 0x0 KECCAK256 CALLER PUSH1 0x0 MSTORE PUSH1 0x20 MSTORE PUSH1 0xFF PUSH1 0x40 PUSH1 0x0 KECCAK256 SLOAD AND ISZERO PUSH2 0x19D8 JUMPI POP JUMP JUMPDEST PUSH1 0x40 MLOAD PUSH4 0xE2517D3F PUSH1 0xE0 SHL DUP2 MSTORE CALLER PUSH1 0x4 DUP3 ADD MSTORE PUSH1 0x24 DUP2 ADD SWAP2 SWAP1 SWAP2 MSTORE PUSH1 0x44 SWAP1 REVERT JUMPDEST SWAP1 PUSH1 0x0 SWAP2 DUP1 DUP4 MSTORE DUP3 PUSH1 0x20 MSTORE PUSH1 0x1 PUSH1 0x1 PUSH1 0xA0 SHL SUB PUSH1 0x40 DUP5 KECCAK256 SWAP3 AND SWAP2 DUP3 DUP5 MSTORE PUSH1 0x20 MSTORE PUSH1 0xFF PUSH1 0x40 DUP5 KECCAK256 SLOAD AND ISZERO PUSH1 0x0 EQ PUSH2 0x1A72 JUMPI DUP1 DUP4 MSTORE DUP3 PUSH1 0x20 MSTORE PUSH1 0x40 DUP4 KECCAK256 DUP3 DUP5 MSTORE PUSH1 0x20 MSTORE PUSH1 0x40 DUP4 KECCAK256 PUSH1 0x1 PUSH1 0xFF NOT DUP3 SLOAD AND OR SWAP1 SSTORE PUSH32 0x2F8788117E7EFF1D82E926EC794901D17C78024A50270940304540A733656F0D CALLER SWAP4 DUP1 LOG4 PUSH1 0x1 SWAP1 JUMP JUMPDEST POP POP SWAP1 JUMP JUMPDEST SWAP1 PUSH1 0x0 SWAP2 DUP1 DUP4 MSTORE DUP3 PUSH1 0x20 MSTORE PUSH1 0x1 PUSH1 0x1 PUSH1 0xA0 SHL SUB PUSH1 0x40 DUP5 KECCAK256 SWAP3 AND SWAP2 DUP3 DUP5 MSTORE PUSH1 0x20 MSTORE PUSH1 0xFF PUSH1 0x40 DUP5 KECCAK256 SLOAD AND PUSH1 0x0 EQ PUSH2 0x1A72 JUMPI DUP1 DUP4 MSTORE DUP3 PUSH1 0x20 MSTORE PUSH1 0x40 DUP4 KECCAK256 DUP3 DUP5 MSTORE PUSH1 0x20 MSTORE PUSH1 0x40 DUP4 KECCAK256 PUSH1 0xFF NOT DUP2 SLOAD AND SWAP1 SSTORE PUSH32 0xF6391F5C32D9C69D2A47EA670B442974B53935D1EDC7FD64EB21E047A839171B CALLER SWAP4 DUP1 LOG4 PUSH1 0x1 SWAP1 JUMP JUMPDEST PUSH1 0xFF PUSH1 0x1 SLOAD AND PUSH2 0x1AF9 JUMPI JUMP JUMPDEST PUSH1 0x4 PUSH1 0x40 MLOAD PUSH32 0xD93C066500000000000000000000000000000000000000000000000000000000 DUP2 MSTORE REVERT JUMPDEST PUSH1 0x0 SWAP1 PUSH1 0x20 PUSH1 0x1 PUSH1 0x1 PUSH1 0xA0 SHL SUB PUSH1 0x2 SLOAD AND PUSH1 0x24 PUSH1 0x40 MLOAD DUP1 SWAP6 DUP2 SWAP4 PUSH32 0xDD0B281E00000000000000000000000000000000000000000000000000000000 DUP4 MSTORE CALLER PUSH1 0x4 DUP5 ADD MSTORE GAS CALL SWAP2 DUP3 ISZERO PUSH2 0x1BE0 JUMPI PUSH1 0x0 SWAP3 PUSH2 0x1BAB JUMPI JUMPDEST POP PUSH1 0x40 PUSH32 0x236FD1951AC6ACA14AD8C0126104DBB231554BEF74D9EB1EA9B3A14781EDDE5F SWAP2 DUP2 MLOAD SWAP1 DUP2 MSTORE DUP4 PUSH1 0x20 DUP3 ADD MSTORE LOG1 SWAP1 JUMP JUMPDEST SWAP1 SWAP2 POP PUSH1 0x20 DUP2 RETURNDATASIZE PUSH1 0x20 GT PUSH2 0x1BD8 JUMPI JUMPDEST DUP2 PUSH2 0x1BC7 PUSH1 0x20 SWAP4 DUP4 PUSH2 0x1751 JUMP JUMPDEST DUP2 ADD SUB SLT PUSH2 0xC2E JUMPI MLOAD SWAP1 PUSH1 0x40 PUSH2 0x1B77 JUMP JUMPDEST RETURNDATASIZE SWAP2 POP PUSH2 0x1BBA JUMP JUMPDEST PUSH1 0x40 MLOAD RETURNDATASIZE PUSH1 0x0 DUP3 RETURNDATACOPY RETURNDATASIZE SWAP1 REVERT INVALID LOG2 PUSH5 0x6970667358 0x22 SLT KECCAK256 0x4E PUSH30 0x4D483BAA38D726A711C5639C629BFD200C67636D2D6D4CBA72BA0629EE07 PUSH5 0x736F6C6343 STOP ADDMOD XOR STOP CALLER PUSH1 0x80 CALLVALUE PUSH2 0xBB JUMPI PUSH1 0x1F PUSH2 0x37C4 CODESIZE DUP2 SWAP1 SUB SWAP2 DUP3 ADD PUSH1 0x1F NOT AND DUP4 ADD SWAP2 PUSH1 0x1 PUSH1 0x1 PUSH1 0x40 SHL SUB DUP4 GT DUP5 DUP5 LT OR PUSH2 0xC0 JUMPI DUP1 DUP5 SWAP3 PUSH1 0x20 SWAP5 PUSH1 0x40 MSTORE DUP4 CODECOPY DUP2 ADD SUB SLT PUSH2 0xBB JUMPI MLOAD PUSH1 0x1 PUSH1 0x1 PUSH1 0xA0 SHL SUB SWAP1 DUP2 DUP2 AND SWAP1 DUP2 SWAP1 SUB PUSH2 0xBB JUMPI DUP1 ISZERO PUSH2 0xA2 JUMPI PUSH1 0x0 DUP1 SLOAD PUSH1 0x1 PUSH1 0x1 PUSH1 0xA0 SHL SUB NOT DUP2 AND DUP4 OR DUP3 SSTORE PUSH1 0x40 MLOAD SWAP4 AND SWAP1 PUSH32 0x8BE0079C531659141344CD1FD0A4F28419497F9722A3DAAFE3B4186F6B6457E0 SWAP1 DUP1 LOG3 PUSH2 0x36ED SWAP1 DUP2 PUSH2 0xD7 DUP3 CODECOPY RETURN JUMPDEST PUSH1 0x40 MLOAD PUSH4 0x1E4FBDF7 PUSH1 0xE0 SHL DUP2 MSTORE PUSH1 0x0 PUSH1 0x4 DUP3 ADD MSTORE PUSH1 0x24 SWAP1 REVERT JUMPDEST PUSH1 0x0 DUP1 REVERT JUMPDEST PUSH4 0x4E487B71 PUSH1 0xE0 SHL PUSH1 0x0 MSTORE PUSH1 0x41 PUSH1 0x4 MSTORE PUSH1 0x24 PUSH1 0x0 REVERT INVALID PUSH1 0x40 PUSH1 0x80 DUP2 MSTORE PUSH1 0x4 SWAP1 DUP2 CALLDATASIZE LT ISZERO PUSH3 0x16 JUMPI PUSH1 0x0 DUP1 REVERT JUMPDEST PUSH1 0x0 SWAP2 DUP3 CALLDATALOAD PUSH1 0xE0 SHR SWAP1 DUP2 PUSH4 0x32B1FF9 EQ PUSH3 0x41D JUMPI DUP4 DUP3 PUSH4 0x3FD39FA1 EQ PUSH3 0x35B JUMPI POP DUP2 PUSH4 0x715018A6 EQ PUSH3 0x2ED JUMPI DUP2 PUSH4 0x8DA5CB5B EQ PUSH3 0x2C5 JUMPI DUP2 PUSH4 0x97E68EB6 EQ PUSH3 0x1BF JUMPI DUP2 PUSH4 0xCEAFB18D EQ PUSH3 0x181 JUMPI DUP2 PUSH4 0xF2FDE38B EQ PUSH3 0xC6 JUMPI POP PUSH4 0xF82568F9 EQ PUSH3 0x86 JUMPI PUSH1 0x0 DUP1 REVERT JUMPDEST CALLVALUE PUSH3 0xC2 JUMPI PUSH1 0x20 CALLDATASIZE PUSH1 0x3 NOT ADD SLT PUSH3 0xC2 JUMPI PUSH1 0x20 SWAP2 DUP2 PUSH1 0x1 PUSH1 0x1 PUSH1 0xA0 SHL SUB SWAP2 DUP3 PUSH3 0xB1 PUSH3 0x578 JUMP JUMPDEST AND DUP2 MSTORE PUSH1 0x2 DUP6 MSTORE KECCAK256 SLOAD AND SWAP1 MLOAD SWAP1 DUP2 MSTORE RETURN JUMPDEST POP DUP1 REVERT JUMPDEST SWAP1 POP CALLVALUE PUSH3 0x17D JUMPI PUSH1 0x20 CALLDATASIZE PUSH1 0x3 NOT ADD SLT PUSH3 0x17D JUMPI PUSH3 0xE5 PUSH3 0x578 JUMP JUMPDEST SWAP1 PUSH3 0xF0 PUSH3 0x653 JUMP JUMPDEST PUSH1 0x1 PUSH1 0x1 PUSH1 0xA0 SHL SUB DUP1 SWAP3 AND SWAP3 DUP4 ISZERO PUSH3 0x14E JUMPI POP POP PUSH1 0x0 SLOAD DUP3 PUSH20 0xFFFFFFFFFFFFFFFFFFFFFFFFFFFFFFFFFFFFFFFF NOT DUP3 AND OR PUSH1 0x0 SSTORE AND PUSH32 0x8BE0079C531659141344CD1FD0A4F28419497F9722A3DAAFE3B4186F6B6457E0 PUSH1 0x0 DUP1 LOG3 DUP1 RETURN JUMPDEST SWAP1 DUP5 PUSH1 0x24 SWAP3 MLOAD SWAP2 PUSH32 0x1E4FBDF700000000000000000000000000000000000000000000000000000000 DUP4 MSTORE DUP3 ADD MSTORE REVERT JUMPDEST DUP3 DUP1 REVERT JUMPDEST POP POP CALLVALUE PUSH3 0xC2 JUMPI PUSH1 0x20 CALLDATASIZE PUSH1 0x3 NOT ADD SLT PUSH3 0xC2 JUMPI PUSH1 0x20 SWAP2 DUP2 PUSH1 0x1 PUSH1 0x1 PUSH1 0xA0 SHL SUB SWAP2 DUP3 PUSH3 0x1AE PUSH3 0x578 JUMP JUMPDEST AND DUP2 MSTORE PUSH1 0x1 DUP6 MSTORE KECCAK256 SLOAD AND SWAP1 MLOAD SWAP1 DUP2 MSTORE RETURN JUMPDEST SWAP2 SWAP1 POP CALLVALUE PUSH3 0x17D JUMPI DUP1 PUSH1 0x3 NOT CALLDATASIZE ADD SLT PUSH3 0x17D JUMPI PUSH3 0x1DE PUSH3 0x578 JUMP JUMPDEST PUSH8 0xFFFFFFFFFFFFFFFF SWAP3 PUSH1 0x24 CALLDATALOAD DUP5 DUP2 GT PUSH3 0x2C1 JUMPI PUSH3 0x202 SWAP1 CALLDATASIZE SWAP1 DUP4 ADD PUSH3 0x594 JUMP JUMPDEST PUSH3 0x20C PUSH3 0x653 JUMP JUMPDEST PUSH1 0x1 PUSH1 0x1 PUSH1 0xA0 SHL SUB DUP1 SWAP4 AND SWAP5 DUP6 DUP8 MSTORE PUSH1 0x1 PUSH1 0x20 MSTORE DUP4 DUP6 DUP9 KECCAK256 SLOAD AND PUSH3 0x2BD JUMPI DUP5 MLOAD SWAP3 PUSH2 0x17ED SWAP1 DUP2 DUP6 ADD SWAP3 DUP6 DUP5 LT SWAP1 DUP5 GT OR PUSH3 0x2AA JUMPI POP SWAP2 DUP6 PUSH3 0x263 SWAP3 DUP6 SWAP5 PUSH3 0x699 DUP7 CODECOPY ADDRESS DUP2 MSTORE DUP2 PUSH1 0x20 DUP3 ADD MSTORE ADD SWAP1 PUSH3 0x611 JUMP JUMPDEST SUB SWAP1 DUP6 CREATE DUP1 ISZERO PUSH3 0x2A0 JUMPI SWAP4 DUP3 SWAP2 PUSH1 0x20 SWAP6 AND SWAP4 DUP2 MSTORE PUSH1 0x1 DUP6 MSTORE KECCAK256 DUP3 PUSH20 0xFFFFFFFFFFFFFFFFFFFFFFFFFFFFFFFFFFFFFFFF NOT DUP3 SLOAD AND OR SWAP1 SSTORE MLOAD SWAP1 DUP2 MSTORE RETURN JUMPDEST DUP3 MLOAD RETURNDATASIZE DUP7 DUP3 RETURNDATACOPY RETURNDATASIZE SWAP1 REVERT JUMPDEST DUP9 PUSH1 0x41 PUSH1 0x24 SWAP3 PUSH4 0x4E487B71 PUSH1 0xE0 SHL DUP4 MSTORE MSTORE REVERT JUMPDEST DUP7 DUP1 REVERT JUMPDEST DUP6 DUP1 REVERT JUMPDEST POP POP CALLVALUE PUSH3 0xC2 JUMPI DUP2 PUSH1 0x3 NOT CALLDATASIZE ADD SLT PUSH3 0xC2 JUMPI PUSH1 0x1 PUSH1 0x1 PUSH1 0xA0 SHL SUB PUSH1 0x20 SWAP3 SLOAD AND SWAP1 MLOAD SWAP1 DUP2 MSTORE RETURN JUMPDEST DUP4 CALLVALUE PUSH3 0x358 JUMPI DUP1 PUSH1 0x3 NOT CALLDATASIZE ADD SLT PUSH3 0x358 JUMPI PUSH3 0x30A PUSH3 0x653 JUMP JUMPDEST PUSH1 0x0 PUSH1 0x1 PUSH1 0x1 PUSH1 0xA0 SHL SUB DUP2 SLOAD PUSH20 0xFFFFFFFFFFFFFFFFFFFFFFFFFFFFFFFFFFFFFFFF NOT DUP2 AND DUP4 SSTORE AND PUSH32 0x8BE0079C531659141344CD1FD0A4F28419497F9722A3DAAFE3B4186F6B6457E0 DUP3 DUP1 LOG3 DUP1 RETURN JUMPDEST DUP1 REVERT JUMPDEST SWAP3 SWAP2 POP CALLVALUE PUSH3 0x419 JUMPI DUP2 PUSH1 0x3 NOT CALLDATASIZE ADD SLT PUSH3 0x419 JUMPI PUSH3 0x37A PUSH3 0x578 JUMP JUMPDEST PUSH1 0x24 CALLDATALOAD SWAP1 PUSH1 0x1 PUSH1 0x1 PUSH1 0xA0 SHL SUB SWAP1 DUP2 DUP4 AND DUP1 SWAP4 SUB PUSH3 0x2C1 JUMPI PUSH3 0x39C PUSH3 0x653 JUMP JUMPDEST AND DUP1 EXTCODESIZE ISZERO PUSH3 0x415 JUMPI PUSH1 0x24 DUP6 SWAP3 DUP6 MLOAD SWAP7 DUP8 SWAP4 DUP5 SWAP3 PUSH32 0x6A62784200000000000000000000000000000000000000000000000000000000 DUP5 MSTORE DUP8 DUP5 ADD MSTORE GAS CALL DUP1 ISZERO PUSH3 0x2A0 JUMPI PUSH3 0x3E9 JUMPI DUP4 DUP1 RETURN JUMPDEST PUSH8 0xFFFFFFFFFFFFFFFF DUP4 GT PUSH3 0x402 JUMPI POP MSTORE CODESIZE DUP1 DUP1 DUP4 DUP1 RETURN JUMPDEST DUP4 PUSH1 0x41 PUSH1 0x24 SWAP3 PUSH4 0x4E487B71 PUSH1 0xE0 SHL DUP4 MSTORE MSTORE REVERT JUMPDEST DUP5 DUP1 REVERT JUMPDEST POP POP REVERT JUMPDEST SWAP2 SWAP1 POP CALLVALUE PUSH3 0x17D JUMPI PUSH1 0xA0 CALLDATASIZE PUSH1 0x3 NOT ADD SLT PUSH3 0x17D JUMPI PUSH3 0x43D PUSH3 0x578 JUMP JUMPDEST PUSH8 0xFFFFFFFFFFFFFFFF SWAP3 PUSH1 0x24 CALLDATALOAD DUP5 DUP2 GT PUSH3 0x2C1 JUMPI PUSH3 0x461 SWAP1 CALLDATASIZE SWAP1 DUP4 ADD PUSH3 0x594 JUMP JUMPDEST SWAP4 PUSH1 0x44 CALLDATALOAD DUP2 DUP2 GT PUSH3 0x2BD JUMPI PUSH3 0x47C SWAP1 CALLDATASIZE SWAP1 DUP5 ADD PUSH3 0x594 JUMP JUMPDEST PUSH1 0x84 CALLDATALOAD DUP3 DUP2 GT PUSH3 0x574 JUMPI PUSH3 0x496 SWAP1 CALLDATASIZE SWAP1 DUP6 ADD PUSH3 0x594 JUMP JUMPDEST SWAP1 PUSH1 0x1 PUSH1 0x1 PUSH1 0xA0 SHL SUB DUP1 SWAP6 AND SWAP7 DUP8 DUP10 MSTORE PUSH1 0x2 PUSH1 0x20 MSTORE DUP6 DUP8 DUP11 KECCAK256 SLOAD AND PUSH3 0x570 JUMPI DUP7 MLOAD SWAP5 PUSH2 0x1832 SWAP1 DUP2 DUP8 ADD SWAP6 DUP8 DUP8 LT SWAP1 DUP8 GT OR PUSH3 0x55D JUMPI POP DUP6 SWAP5 SWAP3 PUSH3 0x4FB PUSH3 0x520 SWAP6 SWAP4 PUSH3 0x509 SWAP4 PUSH3 0x1E86 DUP10 CODECOPY ADDRESS DUP7 MSTORE PUSH1 0xA0 PUSH1 0x20 DUP8 ADD MSTORE PUSH1 0xA0 DUP7 ADD SWAP1 PUSH3 0x611 JUMP JUMPDEST SWAP1 DUP5 DUP3 SUB DUP11 DUP7 ADD MSTORE PUSH3 0x611 JUMP JUMPDEST SWAP2 PUSH1 0x64 CALLDATALOAD PUSH1 0x60 DUP3 ADD MSTORE PUSH1 0x80 DUP2 DUP5 SUB SWAP2 ADD MSTORE PUSH3 0x611 JUMP JUMPDEST SUB SWAP1 DUP6 CREATE DUP1 ISZERO PUSH3 0x2A0 JUMPI SWAP4 DUP3 SWAP2 PUSH1 0x20 SWAP6 AND SWAP4 DUP2 MSTORE PUSH1 0x2 DUP6 MSTORE KECCAK256 DUP3 PUSH20 0xFFFFFFFFFFFFFFFFFFFFFFFFFFFFFFFFFFFFFFFF NOT DUP3 SLOAD AND OR SWAP1 SSTORE MLOAD SWAP1 DUP2 MSTORE RETURN JUMPDEST DUP11 PUSH1 0x41 PUSH1 0x24 SWAP3 PUSH4 0x4E487B71 PUSH1 0xE0 SHL DUP4 MSTORE MSTORE REVERT JUMPDEST DUP9 DUP1 REVERT JUMPDEST DUP8 DUP1 REVERT JUMPDEST PUSH1 0x4 CALLDATALOAD SWAP1 PUSH1 0x1 PUSH1 0x1 PUSH1 0xA0 SHL SUB DUP3 AND DUP3 SUB PUSH3 0x58F JUMPI JUMP JUMPDEST PUSH1 0x0 DUP1 REVERT JUMPDEST DUP2 PUSH1 0x1F DUP3 ADD SLT ISZERO PUSH3 0x58F JUMPI DUP1 CALLDATALOAD SWAP1 PUSH8 0xFFFFFFFFFFFFFFFF SWAP3 DUP4 DUP4 GT PUSH3 0x5FB JUMPI PUSH1 0x40 MLOAD SWAP4 PUSH1 0x1F DUP5 ADD PUSH1 0x1F NOT SWAP1 DUP2 AND PUSH1 0x3F ADD AND DUP6 ADD SWAP1 DUP2 GT DUP6 DUP3 LT OR PUSH3 0x5FB JUMPI PUSH1 0x40 MSTORE DUP3 DUP5 MSTORE PUSH1 0x20 DUP4 DUP4 ADD ADD GT PUSH3 0x58F JUMPI DUP2 PUSH1 0x0 SWAP3 PUSH1 0x20 DUP1 SWAP4 ADD DUP4 DUP7 ADD CALLDATACOPY DUP4 ADD ADD MSTORE SWAP1 JUMP JUMPDEST PUSH4 0x4E487B71 PUSH1 0xE0 SHL PUSH1 0x0 MSTORE PUSH1 0x41 PUSH1 0x4 MSTORE PUSH1 0x24 PUSH1 0x0 REVERT JUMPDEST SWAP2 SWAP1 DUP3 MLOAD SWAP3 DUP4 DUP3 MSTORE PUSH1 0x0 JUMPDEST DUP5 DUP2 LT PUSH3 0x63E JUMPI POP POP DUP3 PUSH1 0x0 PUSH1 0x20 DUP1 SWAP5 SWAP6 DUP5 ADD ADD MSTORE PUSH1 0x1F DUP1 NOT SWAP2 ADD AND ADD ADD SWAP1 JUMP JUMPDEST PUSH1 0x20 DUP2 DUP4 ADD DUP2 ADD MLOAD DUP5 DUP4 ADD DUP3 ADD MSTORE ADD PUSH3 0x61C JUMP JUMPDEST PUSH1 0x1 PUSH1 0x1 PUSH1 0xA0 SHL SUB PUSH1 0x0 SLOAD AND CALLER SUB PUSH3 0x668 JUMPI JUMP JUMPDEST PUSH1 0x24 PUSH1 0x40 MLOAD PUSH32 0x118CDAA700000000000000000000000000000000000000000000000000000000 DUP2 MSTORE CALLER PUSH1 0x4 DUP3 ADD MSTORE REVERT INVALID PUSH1 0x80 PUSH1 0x40 MSTORE CALLVALUE PUSH3 0x51E JUMPI PUSH3 0x17ED DUP1 CODESIZE SUB DUP1 PUSH3 0x1D DUP2 PUSH3 0x543 JUMP JUMPDEST SWAP3 DUP4 CODECOPY DUP2 ADD SWAP1 PUSH1 0x40 DUP2 DUP4 SUB SLT PUSH3 0x51E JUMPI DUP1 MLOAD PUSH1 0x1 PUSH1 0x1 PUSH1 0xA0 SHL SUB SWAP1 DUP2 DUP2 AND SWAP1 DUP2 SWAP1 SUB PUSH3 0x51E JUMPI PUSH1 0x20 DUP4 DUP2 ADD MLOAD PUSH1 0x1 PUSH1 0x1 PUSH1 0x40 SHL SUB SWAP5 DUP6 DUP3 GT PUSH3 0x51E JUMPI ADD SWAP5 PUSH1 0x1F SWAP2 DUP2 DUP4 DUP9 ADD SLT ISZERO PUSH3 0x51E JUMPI DUP7 MLOAD DUP7 DUP2 GT PUSH3 0x339 JUMPI PUSH1 0x1F NOT SWAP8 PUSH3 0x8B DUP3 DUP7 ADD DUP11 AND DUP5 ADD PUSH3 0x543 JUMP JUMPDEST SWAP4 DUP3 DUP6 MSTORE DUP4 DUP4 DUP4 ADD ADD GT PUSH3 0x51E JUMPI DUP3 SWAP1 PUSH1 0x0 JUMPDEST DUP4 DUP2 LT PUSH3 0x509 JUMPI POP POP PUSH1 0x0 SWAP2 DUP5 ADD ADD MSTORE PUSH3 0xBA PUSH3 0x523 JUMP JUMPDEST SWAP4 PUSH1 0xD DUP6 MSTORE PUSH13 0x125B98DB1D5CDA5D9950D85C99 PUSH1 0x9A SHL DUP3 DUP7 ADD MSTORE PUSH3 0xDE PUSH3 0x523 JUMP JUMPDEST SWAP6 PUSH1 0x3 SWAP7 DUP8 DUP2 MSTORE PUSH3 0x494E43 PUSH1 0xE8 SHL DUP5 DUP3 ADD MSTORE DUP7 MLOAD DUP10 DUP2 GT PUSH3 0x339 JUMPI PUSH1 0x0 SLOAD PUSH1 0x1 SWAP9 DUP10 DUP3 DUP2 SHR SWAP3 AND DUP1 ISZERO PUSH3 0x4FE JUMPI JUMPDEST DUP8 DUP4 LT EQ PUSH3 0x318 JUMPI DUP2 DUP10 DUP5 SWAP4 GT PUSH3 0x4A8 JUMPI JUMPDEST POP DUP7 SWAP1 DUP10 DUP4 GT PUSH1 0x1 EQ PUSH3 0x444 JUMPI PUSH1 0x0 SWAP3 PUSH3 0x438 JUMPI JUMPDEST POP POP PUSH1 0x0 NOT DUP3 DUP12 SHL SHR NOT AND SWAP1 DUP9 SHL OR PUSH1 0x0 SSTORE JUMPDEST DUP1 MLOAD SWAP1 DUP10 DUP3 GT PUSH3 0x339 JUMPI DUP8 SLOAD SWAP1 DUP9 DUP3 DUP2 SHR SWAP3 AND DUP1 ISZERO PUSH3 0x42D JUMPI JUMPDEST DUP7 DUP4 LT EQ PUSH3 0x318 JUMPI DUP2 DUP9 DUP5 SWAP4 GT PUSH3 0x3D7 JUMPI JUMPDEST POP DUP6 SWAP1 DUP9 DUP4 GT PUSH1 0x1 EQ PUSH3 0x374 JUMPI PUSH1 0x0 SWAP3 PUSH3 0x368 JUMPI JUMPDEST POP POP PUSH1 0x0 NOT DUP3 DUP11 SHL SHR NOT AND SWAP1 DUP8 SHL OR DUP7 SSTORE JUMPDEST DUP2 ISZERO PUSH3 0x34F JUMPI PUSH1 0x6 DUP1 SLOAD PUSH1 0x1 PUSH1 0x1 PUSH1 0xA0 SHL SUB NOT DUP2 AND DUP5 OR SWAP1 SWAP2 SSTORE AND PUSH32 0x8BE0079C531659141344CD1FD0A4F28419497F9722A3DAAFE3B4186F6B6457E0 PUSH1 0x0 DUP1 LOG3 DUP2 MLOAD SWAP6 DUP7 GT PUSH3 0x339 JUMPI PUSH1 0x8 SLOAD DUP5 DUP2 DUP2 SHR SWAP2 AND DUP1 ISZERO PUSH3 0x32E JUMPI JUMPDEST DUP3 DUP3 LT EQ PUSH3 0x318 JUMPI DUP4 DUP2 GT PUSH3 0x2CC JUMPI JUMPDEST POP DUP1 SWAP3 DUP7 GT PUSH1 0x1 EQ PUSH3 0x25E JUMPI POP DUP5 SWAP6 POP SWAP1 DUP5 SWAP3 SWAP2 PUSH1 0x0 SWAP6 PUSH3 0x252 JUMPI JUMPDEST POP POP SHL SWAP3 PUSH1 0x0 NOT SWAP2 SHL SHR NOT AND OR PUSH1 0x8 SSTORE JUMPDEST PUSH1 0x40 MLOAD PUSH2 0x1283 SWAP1 DUP2 PUSH3 0x56A DUP3 CODECOPY RETURN JUMPDEST ADD MLOAD SWAP4 POP CODESIZE DUP1 PUSH3 0x231 JUMP JUMPDEST SWAP4 SWAP3 SWAP6 DUP6 SWAP1 DUP2 AND PUSH1 0x8 PUSH1 0x0 MSTORE DUP6 PUSH1 0x0 KECCAK256 SWAP6 PUSH1 0x0 SWAP1 JUMPDEST DUP10 DUP4 DUP4 LT PUSH3 0x2B1 JUMPI POP POP POP LT PUSH3 0x296 JUMPI JUMPDEST POP POP POP POP DUP2 SHL ADD PUSH1 0x8 SSTORE PUSH3 0x242 JUMP JUMPDEST ADD MLOAD SWAP1 PUSH1 0xF8 DUP5 PUSH1 0x0 NOT SWAP3 SHL AND SHR NOT AND SWAP1 SSTORE CODESIZE DUP1 DUP1 DUP1 PUSH3 0x286 JUMP JUMPDEST DUP6 DUP8 ADD MLOAD DUP10 SSTORE SWAP1 SWAP8 ADD SWAP7 SWAP5 DUP6 ADD SWAP5 DUP9 SWAP4 POP SWAP1 DUP2 ADD SWAP1 PUSH3 0x273 JUMP JUMPDEST PUSH1 0x8 PUSH1 0x0 MSTORE DUP2 PUSH1 0x0 KECCAK256 DUP5 DUP1 DUP10 ADD PUSH1 0x5 SHR DUP3 ADD SWAP3 DUP5 DUP11 LT PUSH3 0x30E JUMPI JUMPDEST ADD PUSH1 0x5 SHR ADD SWAP1 DUP6 SWAP1 JUMPDEST DUP3 DUP2 LT PUSH3 0x301 JUMPI POP POP PUSH3 0x213 JUMP JUMPDEST PUSH1 0x0 DUP2 SSTORE ADD DUP6 SWAP1 PUSH3 0x2F1 JUMP JUMPDEST SWAP3 POP DUP2 SWAP3 PUSH3 0x2E8 JUMP JUMPDEST PUSH4 0x4E487B71 PUSH1 0xE0 SHL PUSH1 0x0 MSTORE PUSH1 0x22 PUSH1 0x4 MSTORE PUSH1 0x24 PUSH1 0x0 REVERT JUMPDEST SWAP1 PUSH1 0x7F AND SWAP1 PUSH3 0x201 JUMP JUMPDEST PUSH4 0x4E487B71 PUSH1 0xE0 SHL PUSH1 0x0 MSTORE PUSH1 0x41 PUSH1 0x4 MSTORE PUSH1 0x24 PUSH1 0x0 REVERT JUMPDEST PUSH1 0x40 MLOAD PUSH4 0x1E4FBDF7 PUSH1 0xE0 SHL DUP2 MSTORE PUSH1 0x0 PUSH1 0x4 DUP3 ADD MSTORE PUSH1 0x24 SWAP1 REVERT JUMPDEST ADD MLOAD SWAP1 POP CODESIZE DUP1 PUSH3 0x193 JUMP JUMPDEST SWAP1 DUP13 DUP11 SWAP5 AND SWAP2 DUP5 PUSH1 0x0 MSTORE DUP8 PUSH1 0x0 KECCAK256 SWAP3 PUSH1 0x0 JUMPDEST DUP10 DUP3 DUP3 LT PUSH3 0x3C0 JUMPI POP POP DUP5 GT PUSH3 0x3A7 JUMPI JUMPDEST POP POP POP DUP2 SHL ADD DUP7 SSTORE PUSH3 0x1A5 JUMP JUMPDEST ADD MLOAD PUSH1 0x0 NOT DUP4 DUP13 SHL PUSH1 0xF8 AND SHR NOT AND SWAP1 SSTORE CODESIZE DUP1 DUP1 PUSH3 0x399 JUMP JUMPDEST DUP4 DUP6 ADD MLOAD DUP7 SSTORE DUP14 SWAP8 SWAP1 SWAP6 ADD SWAP5 SWAP4 DUP5 ADD SWAP4 ADD PUSH3 0x386 JUMP JUMPDEST SWAP1 SWAP2 POP DUP9 PUSH1 0x0 MSTORE DUP6 PUSH1 0x0 KECCAK256 DUP9 DUP1 DUP6 ADD PUSH1 0x5 SHR DUP3 ADD SWAP3 DUP9 DUP7 LT PUSH3 0x423 JUMPI JUMPDEST SWAP2 DUP12 SWAP2 DUP7 SWAP6 SWAP5 SWAP4 ADD PUSH1 0x5 SHR ADD SWAP2 JUMPDEST DUP3 DUP2 LT PUSH3 0x413 JUMPI POP POP PUSH3 0x17C JUMP JUMPDEST PUSH1 0x0 DUP2 SSTORE DUP6 SWAP5 POP DUP12 SWAP2 ADD PUSH3 0x403 JUMP JUMPDEST SWAP3 POP DUP2 SWAP3 PUSH3 0x3F5 JUMP JUMPDEST SWAP2 PUSH1 0x7F AND SWAP2 PUSH3 0x168 JUMP JUMPDEST ADD MLOAD SWAP1 POP CODESIZE DUP1 PUSH3 0x139 JUMP JUMPDEST SWAP1 DUP14 DUP12 SWAP5 AND SWAP2 PUSH1 0x0 DUP1 MSTORE DUP9 PUSH1 0x0 KECCAK256 SWAP3 PUSH1 0x0 JUMPDEST DUP11 DUP3 DUP3 LT PUSH3 0x491 JUMPI POP POP DUP5 GT PUSH3 0x478 JUMPI JUMPDEST POP POP POP DUP2 SHL ADD PUSH1 0x0 SSTORE PUSH3 0x14C JUMP JUMPDEST ADD MLOAD PUSH1 0x0 NOT DUP4 DUP14 SHL PUSH1 0xF8 AND SHR NOT AND SWAP1 SSTORE CODESIZE DUP1 DUP1 PUSH3 0x469 JUMP JUMPDEST DUP4 DUP6 ADD MLOAD DUP7 SSTORE DUP15 SWAP8 SWAP1 SWAP6 ADD SWAP5 SWAP4 DUP5 ADD SWAP4 ADD PUSH3 0x456 JUMP JUMPDEST SWAP1 SWAP2 POP PUSH1 0x0 DUP1 MSTORE DUP7 PUSH1 0x0 KECCAK256 DUP10 DUP1 DUP6 ADD PUSH1 0x5 SHR DUP3 ADD SWAP3 DUP10 DUP7 LT PUSH3 0x4F4 JUMPI JUMPDEST SWAP2 DUP13 SWAP2 DUP7 SWAP6 SWAP5 SWAP4 ADD PUSH1 0x5 SHR ADD SWAP2 JUMPDEST DUP3 DUP2 LT PUSH3 0x4E4 JUMPI POP POP PUSH3 0x122 JUMP JUMPDEST PUSH1 0x0 DUP2 SSTORE DUP6 SWAP5 POP DUP13 SWAP2 ADD PUSH3 0x4D4 JUMP JUMPDEST SWAP3 POP DUP2 SWAP3 PUSH3 0x4C6 JUMP JUMPDEST SWAP2 PUSH1 0x7F AND SWAP2 PUSH3 0x10E JUMP JUMPDEST DUP2 DUP2 ADD DUP4 ADD MLOAD DUP7 DUP3 ADD DUP5 ADD MSTORE DUP5 SWAP3 ADD PUSH3 0x9F JUMP JUMPDEST PUSH1 0x0 DUP1 REVERT JUMPDEST PUSH1 0x40 DUP1 MLOAD SWAP2 SWAP1 DUP3 ADD PUSH1 0x1 PUSH1 0x1 PUSH1 0x40 SHL SUB DUP2 GT DUP4 DUP3 LT OR PUSH3 0x339 JUMPI PUSH1 0x40 MSTORE JUMP JUMPDEST PUSH1 0x40 MLOAD SWAP2 SWAP1 PUSH1 0x1F ADD PUSH1 0x1F NOT AND DUP3 ADD PUSH1 0x1 PUSH1 0x1 PUSH1 0x40 SHL SUB DUP2 GT DUP4 DUP3 LT OR PUSH3 0x339 JUMPI PUSH1 0x40 MSTORE JUMP INVALID PUSH1 0x80 PUSH1 0x40 DUP2 DUP2 MSTORE PUSH1 0x4 DUP1 CALLDATASIZE LT ISZERO PUSH2 0x15 JUMPI PUSH1 0x0 DUP1 REVERT JUMPDEST PUSH1 0x0 SWAP3 DUP4 CALLDATALOAD PUSH1 0xE0 SHR SWAP1 DUP2 PUSH4 0x1FFC9A7 EQ PUSH2 0xAF2 JUMPI POP DUP1 PUSH4 0x6FDDE03 EQ PUSH2 0xA41 JUMPI DUP1 PUSH4 0x81812FC EQ PUSH2 0xA08 JUMPI DUP1 PUSH4 0x95EA7B3 EQ PUSH2 0x915 JUMPI DUP1 PUSH4 0x23B872DD EQ PUSH2 0x8FD JUMPI DUP1 PUSH4 0x42842E0E EQ PUSH2 0x8AE JUMPI DUP1 PUSH4 0x42966C68 EQ PUSH2 0x785 JUMPI DUP1 PUSH4 0x6352211E EQ PUSH2 0x755 JUMPI DUP1 PUSH4 0x6A627842 EQ PUSH2 0x5F9 JUMPI DUP1 PUSH4 0x70A08231 EQ PUSH2 0x58B JUMPI DUP1 PUSH4 0x715018A6 EQ PUSH2 0x530 JUMPI DUP1 PUSH4 0x8DA5CB5B EQ PUSH2 0x508 JUMPI DUP1 PUSH4 0x95D89B41 EQ PUSH2 0x429 JUMPI DUP1 PUSH4 0xA22CB465 EQ PUSH2 0x36F JUMPI DUP1 PUSH4 0xA7F93EBD EQ PUSH2 0x354 JUMPI DUP1 PUSH4 0xB88D4FDE EQ PUSH2 0x2CB JUMPI DUP1 PUSH4 0xC87B56DD EQ PUSH2 0x1EA JUMPI DUP1 PUSH4 0xE985E9C5 EQ PUSH2 0x198 JUMPI PUSH4 0xF2FDE38B EQ PUSH2 0xF4 JUMPI PUSH1 0x0 DUP1 REVERT JUMPDEST CALLVALUE PUSH2 0x194 JUMPI PUSH1 0x20 CALLDATASIZE PUSH1 0x3 NOT ADD SLT PUSH2 0x194 JUMPI PUSH2 0x10D PUSH2 0xC02 JUMP JUMPDEST SWAP1 PUSH2 0x116 PUSH2 0x1209 JUMP JUMPDEST PUSH1 0x1 PUSH1 0x1 PUSH1 0xA0 SHL SUB DUP1 SWAP3 AND SWAP3 DUP4 ISZERO PUSH2 0x165 JUMPI POP POP PUSH1 0x6 SLOAD DUP3 PUSH1 0x1 PUSH1 0x1 PUSH1 0xA0 SHL SUB NOT DUP3 AND OR PUSH1 0x6 SSTORE AND PUSH32 0x8BE0079C531659141344CD1FD0A4F28419497F9722A3DAAFE3B4186F6B6457E0 DUP4 DUP1 LOG3 DUP1 RETURN JUMPDEST SWAP1 DUP5 PUSH1 0x24 SWAP3 MLOAD SWAP2 PUSH32 0x1E4FBDF700000000000000000000000000000000000000000000000000000000 DUP4 MSTORE DUP3 ADD MSTORE REVERT JUMPDEST DUP3 DUP1 REVERT JUMPDEST POP POP CALLVALUE PUSH2 0x1E6 JUMPI DUP1 PUSH1 0x3 NOT CALLDATASIZE ADD SLT PUSH2 0x1E6 JUMPI PUSH1 0xFF DUP2 PUSH1 0x20 SWAP4 PUSH2 0x1B8 PUSH2 0xC02 JUMP JUMPDEST PUSH2 0x1C0 PUSH2 0xC1D JUMP JUMPDEST PUSH1 0x1 PUSH1 0x1 PUSH1 0xA0 SHL SUB SWAP2 DUP3 AND DUP4 MSTORE PUSH1 0x5 DUP8 MSTORE DUP4 DUP4 KECCAK256 SWAP2 AND DUP3 MSTORE DUP6 MSTORE KECCAK256 SLOAD SWAP2 MLOAD SWAP2 AND ISZERO ISZERO DUP2 MSTORE RETURN JUMPDEST POP DUP1 REVERT JUMPDEST POP SWAP1 CALLVALUE PUSH2 0x194 JUMPI PUSH1 0x20 SWAP2 DUP3 PUSH1 0x3 NOT CALLDATASIZE ADD SLT PUSH2 0x2C7 JUMPI CALLDATALOAD DUP4 MSTORE PUSH1 0x9 DUP3 MSTORE DUP1 DUP4 KECCAK256 DUP2 MLOAD SWAP4 DUP5 SWAP2 DUP2 DUP2 SLOAD SWAP1 PUSH2 0x21B DUP3 PUSH2 0xCBC JUMP JUMPDEST SWAP3 DUP4 DUP7 MSTORE PUSH1 0x1 SWAP3 DUP9 PUSH1 0x1 DUP3 AND SWAP2 DUP3 PUSH1 0x0 EQ PUSH2 0x29D JUMPI POP POP PUSH1 0x1 EQ PUSH2 0x25F JUMPI JUMPDEST DUP6 DUP9 PUSH2 0x25B DUP10 PUSH2 0x24C DUP5 DUP11 SUB DUP6 PUSH2 0xC68 JUMP JUMPDEST MLOAD SWAP3 DUP3 DUP5 SWAP4 DUP5 MSTORE DUP4 ADD SWAP1 PUSH2 0xBC2 JUMP JUMPDEST SUB SWAP1 RETURN JUMPDEST DUP8 SWAP5 POP DUP2 SWAP4 SWAP3 SWAP2 MSTORE DUP4 DUP4 KECCAK256 JUMPDEST DUP3 DUP5 LT PUSH2 0x285 JUMPI POP POP POP DUP3 ADD ADD DUP2 PUSH2 0x24C PUSH2 0x25B CODESIZE PUSH2 0x23A JUMP JUMPDEST DUP1 SLOAD DUP5 DUP11 ADD DUP7 ADD MSTORE DUP9 SWAP6 POP DUP8 SWAP5 SWAP1 SWAP4 ADD SWAP3 DUP2 ADD PUSH2 0x26B JUMP JUMPDEST PUSH1 0xFF NOT AND DUP9 DUP3 ADD MSTORE SWAP5 ISZERO ISZERO PUSH1 0x5 SHL DUP8 ADD SWAP1 SWAP5 ADD SWAP5 POP DUP6 SWAP4 POP PUSH2 0x24C SWAP3 POP PUSH2 0x25B SWAP2 POP CODESIZE SWAP1 POP PUSH2 0x23A JUMP JUMPDEST DUP4 DUP1 REVERT JUMPDEST POP SWAP1 CALLVALUE PUSH2 0x194 JUMPI PUSH1 0x80 CALLDATASIZE PUSH1 0x3 NOT ADD SLT PUSH2 0x194 JUMPI PUSH2 0x2E6 PUSH2 0xC02 JUMP JUMPDEST PUSH2 0x2EE PUSH2 0xC1D JUMP JUMPDEST DUP5 PUSH1 0x64 CALLDATALOAD SWAP5 PUSH8 0xFFFFFFFFFFFFFFFF DUP7 GT PUSH2 0x1E6 JUMPI CALLDATASIZE PUSH1 0x23 DUP8 ADD SLT ISZERO PUSH2 0x1E6 JUMPI DUP6 ADD CALLDATALOAD SWAP5 PUSH2 0x326 PUSH2 0x31D DUP8 PUSH2 0xCA0 JUMP JUMPDEST SWAP6 MLOAD SWAP6 DUP7 PUSH2 0xC68 JUMP JUMPDEST DUP6 DUP6 MSTORE CALLDATASIZE PUSH1 0x24 DUP8 DUP4 ADD ADD GT PUSH2 0x1E6 JUMPI DUP6 PUSH2 0x351 SWAP7 PUSH1 0x24 PUSH1 0x20 SWAP4 ADD DUP4 DUP9 ADD CALLDATACOPY DUP6 ADD ADD MSTORE PUSH1 0x44 CALLDATALOAD SWAP2 PUSH2 0x1039 JUMP JUMPDEST DUP1 RETURN JUMPDEST POP POP CALLVALUE PUSH2 0x1E6 JUMPI DUP2 PUSH1 0x3 NOT CALLDATASIZE ADD SLT PUSH2 0x1E6 JUMPI MLOAD SWAP1 DUP2 MSTORE PUSH1 0x20 SWAP1 RETURN JUMPDEST POP SWAP1 CALLVALUE PUSH2 0x194 JUMPI DUP1 PUSH1 0x3 NOT CALLDATASIZE ADD SLT PUSH2 0x194 JUMPI PUSH2 0x389 PUSH2 0xC02 JUMP JUMPDEST SWAP1 PUSH1 0x24 CALLDATALOAD SWAP2 DUP3 ISZERO ISZERO DUP1 SWAP4 SUB PUSH2 0x425 JUMPI PUSH1 0x1 PUSH1 0x1 PUSH1 0xA0 SHL SUB AND SWAP3 DUP4 ISZERO PUSH2 0x3F7 JUMPI POP CALLER DUP5 MSTORE PUSH1 0x5 PUSH1 0x20 MSTORE DUP1 DUP5 KECCAK256 DUP4 DUP6 MSTORE PUSH1 0x20 MSTORE DUP1 DUP5 KECCAK256 PUSH1 0xFF NOT DUP2 SLOAD AND PUSH1 0xFF DUP5 AND OR SWAP1 SSTORE MLOAD SWAP1 DUP2 MSTORE PUSH32 0x17307EAB39AB6107E8899845AD3D59BD9653F200F220920489CA2B5937696C31 PUSH1 0x20 CALLER SWAP3 LOG3 DUP1 RETURN JUMPDEST DUP4 PUSH1 0x24 SWAP3 MLOAD SWAP2 PUSH32 0x5B08BA1800000000000000000000000000000000000000000000000000000000 DUP4 MSTORE DUP3 ADD MSTORE REVERT JUMPDEST DUP5 DUP1 REVERT JUMPDEST DUP3 DUP5 CALLVALUE PUSH2 0x505 JUMPI DUP1 PUSH1 0x3 NOT CALLDATASIZE ADD SLT PUSH2 0x505 JUMPI DUP2 MLOAD SWAP2 DUP3 DUP3 PUSH1 0x1 SWAP4 PUSH1 0x1 SLOAD SWAP5 PUSH2 0x450 DUP7 PUSH2 0xCBC JUMP JUMPDEST SWAP2 DUP3 DUP6 MSTORE PUSH1 0x20 SWAP7 DUP8 PUSH1 0x1 DUP3 AND SWAP2 DUP3 PUSH1 0x0 EQ PUSH2 0x4DE JUMPI POP POP PUSH1 0x1 EQ PUSH2 0x482 JUMPI JUMPDEST POP POP POP PUSH2 0x25B SWAP3 SWAP2 PUSH2 0x24C SWAP2 SUB DUP6 PUSH2 0xC68 JUMP JUMPDEST SWAP2 SWAP1 DUP7 SWAP4 POP PUSH1 0x1 DUP4 MSTORE PUSH32 0xB10E2D527612073B26EECDFD717E6A320CF44B4AFAC2B0732D9FCBE2B7FA0CF6 JUMPDEST DUP3 DUP5 LT PUSH2 0x4C6 JUMPI POP POP POP DUP3 ADD ADD DUP2 PUSH2 0x24C PUSH2 0x25B PUSH2 0x46F JUMP JUMPDEST DUP1 SLOAD DUP5 DUP11 ADD DUP7 ADD MSTORE DUP9 SWAP6 POP DUP8 SWAP5 SWAP1 SWAP4 ADD SWAP3 DUP2 ADD PUSH2 0x4AD JUMP JUMPDEST PUSH1 0xFF NOT AND DUP8 DUP3 ADD MSTORE SWAP4 ISZERO ISZERO PUSH1 0x5 SHL DUP7 ADD SWAP1 SWAP4 ADD SWAP4 POP DUP5 SWAP3 POP PUSH2 0x24C SWAP2 POP PUSH2 0x25B SWAP1 POP PUSH2 0x46F JUMP JUMPDEST DUP1 REVERT JUMPDEST POP POP CALLVALUE PUSH2 0x1E6 JUMPI DUP2 PUSH1 0x3 NOT CALLDATASIZE ADD SLT PUSH2 0x1E6 JUMPI PUSH1 0x20 SWAP1 PUSH1 0x1 PUSH1 0x1 PUSH1 0xA0 SHL SUB PUSH1 0x6 SLOAD AND SWAP1 MLOAD SWAP1 DUP2 MSTORE RETURN JUMPDEST DUP4 CALLVALUE PUSH2 0x505 JUMPI DUP1 PUSH1 0x3 NOT CALLDATASIZE ADD SLT PUSH2 0x505 JUMPI PUSH2 0x549 PUSH2 0x1209 JUMP JUMPDEST DUP1 PUSH1 0x1 PUSH1 0x1 PUSH1 0xA0 SHL SUB PUSH1 0x6 SLOAD PUSH1 0x1 PUSH1 0x1 PUSH1 0xA0 SHL SUB NOT DUP2 AND PUSH1 0x6 SSTORE AND PUSH32 0x8BE0079C531659141344CD1FD0A4F28419497F9722A3DAAFE3B4186F6B6457E0 DUP3 DUP1 LOG3 DUP1 RETURN JUMPDEST POP SWAP2 CALLVALUE PUSH2 0x505 JUMPI PUSH1 0x20 CALLDATASIZE PUSH1 0x3 NOT ADD SLT PUSH2 0x505 JUMPI PUSH1 0x1 PUSH1 0x1 PUSH1 0xA0 SHL SUB PUSH2 0x5AE PUSH2 0xC02 JUMP JUMPDEST AND SWAP3 DUP4 ISZERO PUSH2 0x5CB JUMPI POP DUP1 PUSH1 0x20 SWAP4 DUP4 SWAP3 MSTORE PUSH1 0x3 DUP5 MSTORE KECCAK256 SLOAD SWAP1 MLOAD SWAP1 DUP2 MSTORE RETURN JUMPDEST SWAP1 PUSH1 0x24 SWAP3 MLOAD SWAP2 PUSH32 0x89C62B6400000000000000000000000000000000000000000000000000000000 DUP4 MSTORE DUP3 ADD MSTORE REVERT JUMPDEST POP DUP3 CALLVALUE PUSH2 0x505 JUMPI PUSH1 0x20 SWAP3 DUP4 PUSH1 0x3 NOT CALLDATASIZE ADD SLT PUSH2 0x1E6 JUMPI PUSH2 0x616 PUSH2 0xC02 JUMP JUMPDEST PUSH2 0x61E PUSH2 0x1209 JUMP JUMPDEST PUSH1 0x7 SLOAD PUSH1 0x1 PUSH1 0x1 PUSH1 0xA0 SHL SUB DUP1 SWAP3 AND SWAP2 DUP3 ISZERO PUSH2 0x73F JUMPI DUP2 DUP6 MSTORE PUSH1 0x2 DUP8 MSTORE DUP4 DUP6 KECCAK256 SLOAD AND SWAP2 DUP3 ISZERO ISZERO SWAP3 DUP4 PUSH2 0x707 JUMPI JUMPDEST DUP2 DUP7 MSTORE PUSH1 0x3 DUP9 MSTORE DUP5 DUP7 KECCAK256 PUSH1 0x1 DUP2 SLOAD ADD SWAP1 SSTORE DUP3 DUP7 MSTORE PUSH1 0x2 DUP9 MSTORE DUP5 DUP7 KECCAK256 DUP3 PUSH1 0x1 PUSH1 0x1 PUSH1 0xA0 SHL SUB NOT DUP3 SLOAD AND OR SWAP1 SSTORE PUSH32 0xDDF252AD1BE2C89B69C2B068FC378DAA952BA7F163C4A11628F55A4DF523B3EF DUP7 DUP1 LOG4 PUSH2 0x6D9 JUMPI PUSH2 0x6B1 SWAP1 PUSH1 0x9 DUP6 PUSH1 0x7 SLOAD DUP6 MSTORE MSTORE DUP3 KECCAK256 PUSH2 0xEE2 JUMP JUMPDEST PUSH1 0x7 SLOAD PUSH1 0x0 NOT DUP2 EQ PUSH2 0x6C6 JUMPI PUSH1 0x1 ADD PUSH1 0x7 SSTORE DUP1 RETURN JUMPDEST POP PUSH1 0x11 PUSH1 0x24 SWAP3 PUSH4 0x4E487B71 PUSH1 0xE0 SHL DUP4 MSTORE MSTORE REVERT JUMPDEST PUSH1 0x24 SWAP4 POP MLOAD SWAP2 PUSH32 0x73C6AC6E00000000000000000000000000000000000000000000000000000000 DUP4 MSTORE DUP3 ADD MSTORE REVERT JUMPDEST PUSH2 0x728 DUP4 PUSH1 0x0 MSTORE PUSH1 0x4 PUSH1 0x20 MSTORE PUSH1 0x40 PUSH1 0x0 KECCAK256 PUSH1 0x1 PUSH1 0x1 PUSH1 0xA0 SHL SUB NOT DUP2 SLOAD AND SWAP1 SSTORE JUMP JUMPDEST DUP1 DUP7 MSTORE PUSH1 0x3 DUP9 MSTORE DUP5 DUP7 KECCAK256 DUP1 SLOAD PUSH1 0x0 NOT ADD SWAP1 SSTORE PUSH2 0x64A JUMP JUMPDEST PUSH1 0x24 DUP7 DUP7 DUP7 MLOAD SWAP2 PUSH4 0x32505749 PUSH1 0xE1 SHL DUP4 MSTORE DUP3 ADD MSTORE REVERT JUMPDEST POP SWAP2 CALLVALUE PUSH2 0x505 JUMPI PUSH1 0x20 CALLDATASIZE PUSH1 0x3 NOT ADD SLT PUSH2 0x505 JUMPI POP PUSH1 0x1 PUSH1 0x1 PUSH1 0xA0 SHL SUB PUSH2 0x77D PUSH1 0x20 SWAP4 CALLDATALOAD PUSH2 0x11CE JUMP JUMPDEST SWAP2 MLOAD SWAP2 AND DUP2 MSTORE RETURN JUMPDEST POP SWAP1 CALLVALUE PUSH2 0x194 JUMPI PUSH1 0x20 SWAP1 DUP2 PUSH1 0x3 NOT CALLDATASIZE ADD SLT PUSH2 0x2C7 JUMPI DUP3 CALLDATALOAD SWAP2 PUSH2 0x7A5 PUSH2 0x1209 JUMP JUMPDEST DUP3 DUP6 MSTORE PUSH1 0x9 DUP2 MSTORE DUP5 DUP3 DUP2 KECCAK256 PUSH2 0x7BA DUP2 SLOAD PUSH2 0xCBC JUMP JUMPDEST DUP1 PUSH2 0x872 JUMPI JUMPDEST POP POP DUP4 SWAP1 MSTORE PUSH1 0x2 DUP2 MSTORE DUP3 DUP6 PUSH1 0x1 PUSH1 0x1 PUSH1 0xA0 SHL SUB DUP5 DUP3 KECCAK256 SLOAD AND PUSH1 0x2 DUP2 ISZERO SWAP5 DUP6 ISZERO PUSH2 0x83A JUMPI JUMPDEST DUP5 DUP5 MSTORE MSTORE DUP5 DUP3 KECCAK256 PUSH1 0x1 PUSH1 0x1 PUSH1 0xA0 SHL SUB NOT DUP2 SLOAD AND SWAP1 SSTORE PUSH32 0xDDF252AD1BE2C89B69C2B068FC378DAA952BA7F163C4A11628F55A4DF523B3EF DUP3 DUP1 LOG4 PUSH2 0x825 JUMPI DUP4 DUP1 RETURN JUMPDEST PUSH1 0x24 SWAP4 POP MLOAD SWAP2 PUSH4 0x7E273289 PUSH1 0xE0 SHL DUP4 MSTORE DUP3 ADD MSTORE REVERT JUMPDEST PUSH2 0x85B DUP6 PUSH1 0x0 MSTORE PUSH1 0x4 PUSH1 0x20 MSTORE PUSH1 0x40 PUSH1 0x0 KECCAK256 PUSH1 0x1 PUSH1 0x1 PUSH1 0xA0 SHL SUB NOT DUP2 SLOAD AND SWAP1 SSTORE JUMP JUMPDEST DUP3 DUP5 MSTORE PUSH1 0x3 DUP2 MSTORE DUP7 DUP5 KECCAK256 DUP1 SLOAD PUSH1 0x0 NOT ADD SWAP1 SSTORE PUSH2 0x7E4 JUMP JUMPDEST DUP3 PUSH1 0x1F DUP3 GT PUSH1 0x1 EQ PUSH2 0x88A JUMPI POP POP SSTORE JUMPDEST DUP5 CODESIZE DUP1 PUSH2 0x7C0 JUMP JUMPDEST SWAP1 SWAP2 DUP1 DUP3 MSTORE PUSH2 0x8A7 PUSH1 0x1F DUP7 DUP5 KECCAK256 SWAP5 ADD PUSH1 0x5 SHR DUP5 ADD PUSH1 0x1 DUP6 ADD PUSH2 0xECB JUMP JUMPDEST SSTORE SSTORE PUSH2 0x882 JUMP JUMPDEST POP SWAP2 SWAP1 CALLVALUE PUSH2 0x1E6 JUMPI PUSH2 0x8BF CALLDATASIZE PUSH2 0xC33 JUMP JUMPDEST SWAP2 DUP4 MLOAD SWAP4 PUSH1 0x20 DUP6 ADD SWAP1 DUP6 DUP3 LT PUSH8 0xFFFFFFFFFFFFFFFF DUP4 GT OR PUSH2 0x8EA JUMPI PUSH2 0x351 SWAP7 SWAP8 POP MSTORE DUP6 DUP5 MSTORE PUSH2 0x1039 JUMP JUMPDEST PUSH1 0x24 DUP8 PUSH1 0x41 DUP11 PUSH4 0x4E487B71 PUSH1 0xE0 SHL DUP4 MSTORE MSTORE REVERT JUMPDEST DUP4 CALLVALUE PUSH2 0x505 JUMPI PUSH2 0x351 PUSH2 0x90F CALLDATASIZE PUSH2 0xC33 JUMP JUMPDEST SWAP2 PUSH2 0xCF6 JUMP JUMPDEST POP SWAP1 CALLVALUE PUSH2 0x194 JUMPI DUP1 PUSH1 0x3 NOT CALLDATASIZE ADD SLT PUSH2 0x194 JUMPI PUSH2 0x92F PUSH2 0xC02 JUMP JUMPDEST SWAP2 PUSH1 0x24 CALLDATALOAD PUSH2 0x93C DUP2 PUSH2 0x11CE JUMP JUMPDEST CALLER ISZERO ISZERO DUP1 PUSH2 0x9F5 JUMPI JUMPDEST DUP1 PUSH2 0x9CD JUMPI JUMPDEST PUSH2 0x99E JUMPI DUP2 SWAP1 PUSH1 0x1 PUSH1 0x1 PUSH1 0xA0 SHL SUB DUP1 SWAP7 AND SWAP6 DUP7 SWAP2 AND PUSH32 0x8C5BE1E5EBEC7D5BD14F71427D1E84F3DD0314C0F7B2291E5B200AC8C7C3B925 DUP9 DUP1 LOG4 DUP5 MSTORE PUSH1 0x20 MSTORE DUP3 KECCAK256 SWAP1 PUSH1 0x1 PUSH1 0x1 PUSH1 0xA0 SHL SUB NOT DUP3 SLOAD AND OR SWAP1 SSTORE DUP1 RETURN JUMPDEST DUP4 MLOAD PUSH32 0xA9FBF51F00000000000000000000000000000000000000000000000000000000 DUP2 MSTORE CALLER DUP2 DUP6 ADD MSTORE PUSH1 0x24 SWAP1 REVERT JUMPDEST POP PUSH1 0x1 PUSH1 0x1 PUSH1 0xA0 SHL SUB DUP2 AND DUP7 MSTORE PUSH1 0x5 PUSH1 0x20 MSTORE DUP4 DUP7 KECCAK256 CALLER DUP8 MSTORE PUSH1 0x20 MSTORE PUSH1 0xFF DUP5 DUP8 KECCAK256 SLOAD AND ISZERO PUSH2 0x94B JUMP JUMPDEST POP CALLER PUSH1 0x1 PUSH1 0x1 PUSH1 0xA0 SHL SUB DUP3 AND EQ ISZERO PUSH2 0x945 JUMP JUMPDEST POP CALLVALUE PUSH2 0x194 JUMPI PUSH1 0x20 CALLDATASIZE PUSH1 0x3 NOT ADD SLT PUSH2 0x194 JUMPI DUP2 PUSH1 0x20 SWAP4 DUP3 PUSH1 0x1 PUSH1 0x1 PUSH1 0xA0 SHL SUB SWAP4 CALLDATALOAD PUSH2 0xA32 DUP2 PUSH2 0x11CE JUMP JUMPDEST POP DUP3 MSTORE DUP6 MSTORE KECCAK256 SLOAD AND SWAP1 MLOAD SWAP1 DUP2 MSTORE RETURN JUMPDEST DUP3 DUP5 CALLVALUE PUSH2 0x505 JUMPI DUP1 PUSH1 0x3 NOT CALLDATASIZE ADD SLT PUSH2 0x505 JUMPI DUP2 MLOAD SWAP2 DUP3 DUP3 DUP4 SLOAD PUSH2 0xA63 DUP2 PUSH2 0xCBC JUMP JUMPDEST SWAP1 DUP2 DUP5 MSTORE PUSH1 0x20 SWAP6 PUSH1 0x1 SWAP2 DUP8 PUSH1 0x1 DUP3 AND SWAP2 DUP3 PUSH1 0x0 EQ PUSH2 0x4DE JUMPI POP POP PUSH1 0x1 EQ PUSH2 0xA97 JUMPI POP POP POP PUSH2 0x25B SWAP3 SWAP2 PUSH2 0x24C SWAP2 SUB DUP6 PUSH2 0xC68 JUMP JUMPDEST SWAP2 SWAP1 DUP7 SWAP4 POP DUP3 DUP1 MSTORE PUSH32 0x290DECD9548B62A8D60345A988386FC84BA6BC95484008F6362F93160EF3E563 JUMPDEST DUP3 DUP5 LT PUSH2 0xADA JUMPI POP POP POP DUP3 ADD ADD DUP2 PUSH2 0x24C PUSH2 0x25B PUSH2 0x46F JUMP JUMPDEST DUP1 SLOAD DUP5 DUP11 ADD DUP7 ADD MSTORE DUP9 SWAP6 POP DUP8 SWAP5 SWAP1 SWAP4 ADD SWAP3 DUP2 ADD PUSH2 0xAC1 JUMP JUMPDEST SWAP3 POP POP CALLVALUE PUSH2 0x194 JUMPI PUSH1 0x20 CALLDATASIZE PUSH1 0x3 NOT ADD SLT PUSH2 0x194 JUMPI CALLDATALOAD PUSH32 0xFFFFFFFF00000000000000000000000000000000000000000000000000000000 DUP2 AND DUP1 SWAP2 SUB PUSH2 0x194 JUMPI PUSH1 0x20 SWAP3 POP PUSH32 0x80AC58CD00000000000000000000000000000000000000000000000000000000 DUP2 EQ SWAP1 DUP2 ISZERO PUSH2 0xB98 JUMPI JUMPDEST DUP2 ISZERO PUSH2 0xB6E JUMPI JUMPDEST POP ISZERO ISZERO DUP2 MSTORE RETURN JUMPDEST PUSH32 0x1FFC9A700000000000000000000000000000000000000000000000000000000 SWAP2 POP EQ CODESIZE PUSH2 0xB67 JUMP JUMPDEST PUSH32 0x5B5E139F00000000000000000000000000000000000000000000000000000000 DUP2 EQ SWAP2 POP PUSH2 0xB60 JUMP JUMPDEST SWAP2 SWAP1 DUP3 MLOAD SWAP3 DUP4 DUP3 MSTORE PUSH1 0x0 JUMPDEST DUP5 DUP2 LT PUSH2 0xBEE JUMPI POP POP DUP3 PUSH1 0x0 PUSH1 0x20 DUP1 SWAP5 SWAP6 DUP5 ADD ADD MSTORE PUSH1 0x1F DUP1 NOT SWAP2 ADD AND ADD ADD SWAP1 JUMP JUMPDEST PUSH1 0x20 DUP2 DUP4 ADD DUP2 ADD MLOAD DUP5 DUP4 ADD DUP3 ADD MSTORE ADD PUSH2 0xBCD JUMP JUMPDEST PUSH1 0x4 CALLDATALOAD SWAP1 PUSH1 0x1 PUSH1 0x1 PUSH1 0xA0 SHL SUB DUP3 AND DUP3 SUB PUSH2 0xC18 JUMPI JUMP JUMPDEST PUSH1 0x0 DUP1 REVERT JUMPDEST PUSH1 0x24 CALLDATALOAD SWAP1 PUSH1 0x1 PUSH1 0x1 PUSH1 0xA0 SHL SUB DUP3 AND DUP3 SUB PUSH2 0xC18 JUMPI JUMP JUMPDEST PUSH1 0x60 SWAP1 PUSH1 0x3 NOT ADD SLT PUSH2 0xC18 JUMPI PUSH1 0x1 PUSH1 0x1 PUSH1 0xA0 SHL SUB SWAP1 PUSH1 0x4 CALLDATALOAD DUP3 DUP2 AND DUP2 SUB PUSH2 0xC18 JUMPI SWAP2 PUSH1 0x24 CALLDATALOAD SWAP1 DUP2 AND DUP2 SUB PUSH2 0xC18 JUMPI SWAP1 PUSH1 0x44 CALLDATALOAD SWAP1 JUMP JUMPDEST SWAP1 PUSH1 0x1F DUP1 NOT SWAP2 ADD AND DUP2 ADD SWAP1 DUP2 LT PUSH8 0xFFFFFFFFFFFFFFFF DUP3 GT OR PUSH2 0xC8A JUMPI PUSH1 0x40 MSTORE JUMP JUMPDEST PUSH4 0x4E487B71 PUSH1 0xE0 SHL PUSH1 0x0 MSTORE PUSH1 0x41 PUSH1 0x4 MSTORE PUSH1 0x24 PUSH1 0x0 REVERT JUMPDEST PUSH8 0xFFFFFFFFFFFFFFFF DUP2 GT PUSH2 0xC8A JUMPI PUSH1 0x1F ADD PUSH1 0x1F NOT AND PUSH1 0x20 ADD SWAP1 JUMP JUMPDEST SWAP1 PUSH1 0x1 DUP3 DUP2 SHR SWAP3 AND DUP1 ISZERO PUSH2 0xCEC JUMPI JUMPDEST PUSH1 0x20 DUP4 LT EQ PUSH2 0xCD6 JUMPI JUMP JUMPDEST PUSH4 0x4E487B71 PUSH1 0xE0 SHL PUSH1 0x0 MSTORE PUSH1 0x22 PUSH1 0x4 MSTORE PUSH1 0x24 PUSH1 0x0 REVERT JUMPDEST SWAP2 PUSH1 0x7F AND SWAP2 PUSH2 0xCCB JUMP JUMPDEST SWAP1 SWAP2 PUSH1 0x1 PUSH1 0x1 PUSH1 0xA0 SHL SUB DUP1 SWAP4 AND SWAP3 DUP4 ISZERO PUSH2 0xEB3 JUMPI PUSH1 0x0 SWAP3 DUP3 DUP5 MSTORE DUP3 PUSH1 0x20 SWAP6 PUSH1 0x2 DUP8 MSTORE PUSH1 0x40 SWAP7 DUP5 DUP9 DUP9 KECCAK256 SLOAD AND SWAP7 DUP8 SWAP2 CALLER ISZERO ISZERO DUP1 PUSH2 0xE04 JUMPI JUMPDEST POP SWAP1 PUSH1 0x2 PUSH32 0xDDF252AD1BE2C89B69C2B068FC378DAA952BA7F163C4A11628F55A4DF523B3EF SWAP3 DUP5 PUSH2 0xDCC JUMPI JUMPDEST DUP6 DUP4 MSTORE PUSH1 0x3 DUP2 MSTORE DUP12 DUP4 KECCAK256 PUSH1 0x1 DUP2 SLOAD ADD SWAP1 SSTORE DUP7 DUP4 MSTORE MSTORE DUP10 DUP2 KECCAK256 DUP5 PUSH1 0x1 PUSH1 0x1 PUSH1 0xA0 SHL SUB NOT DUP3 SLOAD AND OR SWAP1 SSTORE DUP1 LOG4 AND SWAP3 DUP4 DUP4 SUB PUSH2 0xD92 JUMPI POP POP POP POP JUMP JUMPDEST PUSH1 0x64 SWAP5 POP MLOAD SWAP3 PUSH32 0x64283D7B00000000000000000000000000000000000000000000000000000000 DUP5 MSTORE PUSH1 0x4 DUP5 ADD MSTORE PUSH1 0x24 DUP4 ADD MSTORE PUSH1 0x44 DUP3 ADD MSTORE REVERT JUMPDEST PUSH2 0xDED DUP8 PUSH1 0x0 MSTORE PUSH1 0x4 PUSH1 0x20 MSTORE PUSH1 0x40 PUSH1 0x0 KECCAK256 PUSH1 0x1 PUSH1 0x1 PUSH1 0xA0 SHL SUB NOT DUP2 SLOAD AND SWAP1 SSTORE JUMP JUMPDEST DUP5 DUP4 MSTORE PUSH1 0x3 DUP2 MSTORE DUP12 DUP4 KECCAK256 DUP1 SLOAD PUSH1 0x0 NOT ADD SWAP1 SSTORE PUSH2 0xD59 JUMP JUMPDEST SWAP2 SWAP4 SWAP5 POP SWAP2 POP DUP1 PUSH2 0xE72 JUMPI JUMPDEST ISZERO PUSH2 0xE20 JUMPI DUP6 SWAP3 SWAP2 DUP8 SWAP2 CODESIZE PUSH2 0xD2D JUMP JUMPDEST DUP8 DUP7 DUP9 PUSH2 0xE3D JUMPI PUSH1 0x24 SWAP2 MLOAD SWAP1 PUSH4 0x7E273289 PUSH1 0xE0 SHL DUP3 MSTORE PUSH1 0x4 DUP3 ADD MSTORE REVERT JUMPDEST PUSH1 0x44 SWAP2 MLOAD SWAP1 PUSH32 0x177E802F00000000000000000000000000000000000000000000000000000000 DUP3 MSTORE CALLER PUSH1 0x4 DUP4 ADD MSTORE PUSH1 0x24 DUP3 ADD MSTORE REVERT JUMPDEST POP CALLER DUP8 EQ DUP1 ISZERO PUSH2 0xE97 JUMPI JUMPDEST DUP1 PUSH2 0xE10 JUMPI POP DUP6 DUP3 MSTORE PUSH1 0x4 DUP2 MSTORE CALLER DUP6 DUP10 DUP5 KECCAK256 SLOAD AND EQ PUSH2 0xE10 JUMP JUMPDEST POP DUP7 DUP3 MSTORE PUSH1 0x5 DUP2 MSTORE DUP8 DUP3 KECCAK256 CALLER DUP4 MSTORE DUP2 MSTORE PUSH1 0xFF DUP9 DUP4 KECCAK256 SLOAD AND PUSH2 0xE7D JUMP JUMPDEST PUSH1 0x24 PUSH1 0x40 MLOAD PUSH4 0x32505749 PUSH1 0xE1 SHL DUP2 MSTORE PUSH1 0x0 PUSH1 0x4 DUP3 ADD MSTORE REVERT JUMPDEST DUP2 DUP2 LT PUSH2 0xED6 JUMPI POP POP JUMP JUMPDEST PUSH1 0x0 DUP2 SSTORE PUSH1 0x1 ADD PUSH2 0xECB JUMP JUMPDEST SWAP1 PUSH1 0x8 DUP3 EQ PUSH2 0x1035 JUMPI PUSH2 0xEF6 PUSH1 0x8 SLOAD PUSH2 0xCBC JUMP JUMPDEST SWAP2 PUSH8 0xFFFFFFFFFFFFFFFF DUP4 GT PUSH2 0xC8A JUMPI PUSH2 0xF10 DUP2 SLOAD PUSH2 0xCBC JUMP JUMPDEST PUSH1 0x1F DUP2 GT PUSH2 0xFF8 JUMPI JUMPDEST POP PUSH1 0x0 SWAP3 PUSH1 0x1F DUP2 GT PUSH1 0x1 EQ PUSH2 0xF55 JUMPI DUP1 SWAP2 SWAP3 SWAP4 PUSH1 0x0 SWAP2 PUSH2 0xF49 JUMPI JUMPDEST POP DUP2 PUSH1 0x1 SHL SWAP2 PUSH1 0x0 NOT SWAP1 PUSH1 0x3 SHL SHR NOT AND OR SWAP1 SSTORE JUMP JUMPDEST SWAP1 POP PUSH1 0x8 ADD SLOAD CODESIZE PUSH2 0xF34 JUMP JUMPDEST DUP2 DUP5 MSTORE PUSH1 0x20 DUP1 DUP6 KECCAK256 PUSH1 0x1F NOT DUP4 AND SWAP6 SWAP1 SWAP2 DUP2 SWAP1 JUMPDEST DUP8 DUP3 LT PUSH2 0xFBF JUMPI POP POP DUP3 PUSH1 0x1 SWAP5 SWAP6 SWAP7 LT PUSH2 0xF86 JUMPI JUMPDEST POP POP DUP2 SHL ADD SWAP1 SSTORE JUMP JUMPDEST PUSH32 0xF3F7A9FE364FAAB93B216DA50A3214154F22A0A2B415B23A84C8169E8B636EE3 ADD SLOAD PUSH1 0x0 NOT PUSH1 0xF8 DUP5 PUSH1 0x3 SHL AND SHR NOT AND SWAP1 SSTORE CODESIZE DUP1 PUSH2 0xF7D JUMP JUMPDEST DUP3 SWAP4 DUP2 SWAP3 SWAP4 PUSH32 0xF3F7A9FE364FAAB93B216DA50A3214154F22A0A2B415B23A84C8169E8B636EE3 ADD SLOAD DUP2 SSTORE PUSH1 0x1 DUP1 SWAP2 ADD SWAP5 ADD SWAP3 ADD SWAP1 PUSH2 0xF68 JUMP JUMPDEST PUSH2 0x1025 SWAP1 DUP3 PUSH1 0x0 MSTORE PUSH1 0x20 PUSH1 0x0 KECCAK256 PUSH1 0x1F DUP7 ADD PUSH1 0x5 SHR DUP2 ADD SWAP2 PUSH1 0x20 DUP8 LT PUSH2 0x102B JUMPI JUMPDEST PUSH1 0x1F ADD PUSH1 0x5 SHR ADD SWAP1 PUSH2 0xECB JUMP JUMPDEST CODESIZE PUSH2 0xF19 JUMP JUMPDEST SWAP1 SWAP2 POP DUP2 SWAP1 PUSH2 0x1018 JUMP JUMPDEST SWAP1 POP JUMP JUMPDEST PUSH2 0x1044 DUP4 DUP4 DUP4 PUSH2 0xCF6 JUMP JUMPDEST DUP2 EXTCODESIZE PUSH2 0x1051 JUMPI JUMPDEST POP POP POP POP JUMP JUMPDEST PUSH1 0x1 PUSH1 0x1 PUSH1 0xA0 SHL SUB SWAP5 SWAP2 SWAP3 SWAP4 SWAP5 DUP1 SWAP4 AND SWAP4 PUSH1 0x40 MLOAD SWAP4 PUSH32 0x150B7A0200000000000000000000000000000000000000000000000000000000 SWAP3 DUP4 DUP7 MSTORE CALLER PUSH1 0x4 DUP8 ADD MSTORE AND PUSH1 0x24 DUP6 ADD MSTORE PUSH1 0x44 DUP5 ADD MSTORE PUSH1 0x80 PUSH1 0x64 DUP5 ADD MSTORE DUP3 PUSH2 0x10B4 PUSH1 0x20 SWAP7 PUSH1 0x84 DUP4 ADD SWAP1 PUSH2 0xBC2 JUMP JUMPDEST SUB SWAP3 DUP6 DUP2 PUSH1 0x0 SWAP6 DUP2 DUP8 DUP10 GAS CALL DUP5 SWAP2 DUP2 PUSH2 0x1176 JUMPI JUMPDEST POP PUSH2 0x1127 JUMPI POP POP POP RETURNDATASIZE PUSH1 0x0 EQ PUSH2 0x111F JUMPI RETURNDATASIZE PUSH2 0x10E2 DUP2 PUSH2 0xCA0 JUMP JUMPDEST SWAP1 PUSH2 0x10F0 PUSH1 0x40 MLOAD SWAP3 DUP4 PUSH2 0xC68 JUMP JUMPDEST DUP2 MSTORE DUP1 SWAP2 DUP5 RETURNDATASIZE SWAP3 ADD RETURNDATACOPY JUMPDEST DUP1 MLOAD SWAP3 DUP4 PUSH2 0x111A JUMPI PUSH1 0x24 DUP4 PUSH1 0x40 MLOAD SWAP1 PUSH4 0x32505749 PUSH1 0xE1 SHL DUP3 MSTORE PUSH1 0x4 DUP3 ADD MSTORE REVERT JUMPDEST ADD SWAP1 POP REVERT JUMPDEST POP PUSH1 0x60 PUSH2 0x10FA JUMP JUMPDEST SWAP1 SWAP3 POP PUSH32 0xFFFFFFFF00000000000000000000000000000000000000000000000000000000 SWAP2 SWAP5 POP AND SUB PUSH2 0x115E JUMPI POP CODESIZE DUP1 DUP1 DUP1 PUSH2 0x104B JUMP JUMPDEST PUSH1 0x24 SWAP1 PUSH1 0x40 MLOAD SWAP1 PUSH4 0x32505749 PUSH1 0xE1 SHL DUP3 MSTORE PUSH1 0x4 DUP3 ADD MSTORE REVERT JUMPDEST SWAP1 SWAP2 POP DUP7 DUP2 DUP2 RETURNDATASIZE DUP4 GT PUSH2 0x11C7 JUMPI JUMPDEST PUSH2 0x118E DUP2 DUP4 PUSH2 0xC68 JUMP JUMPDEST DUP2 ADD SUB SLT PUSH2 0x425 JUMPI MLOAD PUSH32 0xFFFFFFFF00000000000000000000000000000000000000000000000000000000 DUP2 AND DUP2 SUB PUSH2 0x425 JUMPI SWAP1 CODESIZE PUSH2 0x10C8 JUMP JUMPDEST POP RETURNDATASIZE PUSH2 0x1184 JUMP JUMPDEST DUP1 PUSH1 0x0 MSTORE PUSH1 0x2 PUSH1 0x20 MSTORE PUSH1 0x1 PUSH1 0x1 PUSH1 0xA0 SHL SUB PUSH1 0x40 PUSH1 0x0 KECCAK256 SLOAD AND SWAP1 DUP2 ISZERO PUSH2 0x11F1 JUMPI POP SWAP1 JUMP JUMPDEST PUSH1 0x24 SWAP1 PUSH1 0x40 MLOAD SWAP1 PUSH4 0x7E273289 PUSH1 0xE0 SHL DUP3 MSTORE PUSH1 0x4 DUP3 ADD MSTORE REVERT JUMPDEST PUSH1 0x1 PUSH1 0x1 PUSH1 0xA0 SHL SUB PUSH1 0x6 SLOAD AND CALLER SUB PUSH2 0x121D JUMPI JUMP JUMPDEST PUSH1 0x24 PUSH1 0x40 MLOAD PUSH32 0x118CDAA700000000000000000000000000000000000000000000000000000000 DUP2 MSTORE CALLER PUSH1 0x4 DUP3 ADD MSTORE REVERT INVALID LOG2 PUSH5 0x6970667358 0x22 SLT KECCAK256 0xBD MSTORE8 0xB3 0x26 MSTORE 0x29 CALL 0x22 SHL MSTORE 0xEB 0x2D MULMOD PUSH3 0x444759 0x2B DUP4 BLOBBASEFEE 0xEA BLOCKHASH PUSH18 0x37417FCE63F044C68C64736F6C6343000818 STOP CALLER PUSH1 0x80 PUSH1 0x40 MSTORE CALLVALUE PUSH3 0x50D JUMPI PUSH3 0x1832 DUP1 CODESIZE SUB DUP1 PUSH3 0x1D DUP2 PUSH3 0x512 JUMP JUMPDEST SWAP3 DUP4 CODECOPY DUP2 ADD SWAP1 PUSH1 0xA0 DUP2 DUP4 SUB SLT PUSH3 0x50D JUMPI DUP1 MLOAD PUSH1 0x1 PUSH1 0x1 PUSH1 0xA0 SHL SUB DUP1 DUP3 AND SWAP4 SWAP2 DUP5 SWAP1 SUB PUSH3 0x50D JUMPI PUSH1 0x20 DUP4 DUP2 ADD MLOAD SWAP1 SWAP5 PUSH1 0x1 PUSH1 0x1 PUSH1 0x40 SHL SUB SWAP5 SWAP1 SWAP2 DUP6 DUP2 GT PUSH3 0x50D JUMPI DUP5 PUSH3 0x6E SWAP2 DUP4 ADD PUSH3 0x538 JUMP JUMPDEST SWAP4 PUSH1 0x40 DUP3 ADD MLOAD DUP7 DUP2 GT PUSH3 0x50D JUMPI DUP2 PUSH3 0x8A SWAP2 DUP5 ADD PUSH3 0x538 JUMP JUMPDEST SWAP2 PUSH1 0x60 DUP2 ADD MLOAD SWAP2 PUSH1 0x80 DUP3 ADD MLOAD DUP9 DUP2 GT PUSH3 0x50D JUMPI PUSH3 0xAA SWAP3 ADD PUSH3 0x538 JUMP JUMPDEST SWAP3 DUP6 MLOAD SWAP5 DUP8 DUP7 GT PUSH3 0x4F7 JUMPI PUSH1 0x0 SWAP4 DUP5 SLOAD SWAP7 PUSH1 0x1 SWAP9 DUP10 DUP10 DUP2 SHR SWAP10 AND DUP1 ISZERO PUSH3 0x4EC JUMPI JUMPDEST DUP13 DUP11 LT EQ PUSH3 0x3EF JUMPI DUP2 SWAP1 DUP13 PUSH1 0x1F SWAP11 DUP12 DUP2 GT PUSH3 0x496 JUMPI JUMPDEST POP POP DUP13 SWAP1 DUP14 DUP12 DUP5 GT PUSH1 0x1 EQ PUSH3 0x42E JUMPI POP DUP9 SWAP3 PUSH3 0x422 JUMPI JUMPDEST POP POP PUSH1 0x0 NOT PUSH1 0x3 DUP4 SWAP1 SHL SHR NOT AND SWAP1 DUP10 SHL OR DUP6 SSTORE JUMPDEST DUP1 MLOAD SWAP1 DUP10 DUP3 GT PUSH3 0x40E JUMPI DUP9 SLOAD DUP10 DUP2 DUP2 SHR SWAP2 AND DUP1 ISZERO PUSH3 0x403 JUMPI JUMPDEST DUP13 DUP3 LT EQ PUSH3 0x3EF JUMPI SWAP1 DUP12 DUP3 DUP11 DUP6 SWAP5 GT PUSH3 0x399 JUMPI JUMPDEST POP POP DUP12 SWAP1 DUP10 DUP4 GT PUSH1 0x1 EQ PUSH3 0x332 JUMPI DUP8 SWAP3 PUSH3 0x326 JUMPI JUMPDEST POP POP PUSH1 0x0 NOT PUSH1 0x3 DUP4 SWAP1 SHL SHR NOT AND SWAP1 DUP9 SHL OR DUP8 SSTORE JUMPDEST DUP2 ISZERO PUSH3 0x30D JUMPI PUSH1 0x6 DUP1 SLOAD PUSH1 0x1 PUSH1 0x1 PUSH1 0xA0 SHL SUB NOT DUP2 AND DUP5 OR SWAP1 SWAP2 SSTORE AND PUSH32 0x8BE0079C531659141344CD1FD0A4F28419497F9722A3DAAFE3B4186F6B6457E0 DUP5 DUP1 LOG3 PUSH1 0x8 SSTORE DUP2 MLOAD SWAP5 DUP6 GT PUSH3 0x2F9 JUMPI PUSH1 0x9 SLOAD DUP5 DUP2 DUP2 SHR SWAP2 AND DUP1 ISZERO PUSH3 0x2EE JUMPI JUMPDEST DUP8 DUP3 LT EQ PUSH3 0x2DA JUMPI DUP4 DUP2 GT PUSH3 0x291 JUMPI JUMPDEST POP DUP6 SWAP3 DUP6 GT PUSH1 0x1 EQ PUSH3 0x228 JUMPI SWAP4 SWAP5 POP DUP5 SWAP3 SWAP2 SWAP1 DUP4 PUSH3 0x21C JUMPI JUMPDEST POP POP SHL SWAP2 PUSH1 0x0 NOT SWAP1 PUSH1 0x3 SHL SHR NOT AND OR PUSH1 0x9 SSTORE JUMPDEST PUSH1 0x40 MLOAD PUSH2 0x1287 SWAP1 DUP2 PUSH3 0x5AB DUP3 CODECOPY RETURN JUMPDEST ADD MLOAD SWAP3 POP CODESIZE DUP1 PUSH3 0x1F9 JUMP JUMPDEST PUSH1 0x9 DUP2 MSTORE DUP6 DUP2 KECCAK256 SWAP4 SWAP6 DUP6 SWAP2 PUSH1 0x1F NOT DUP4 AND SWAP2 JUMPDEST DUP9 DUP4 DUP4 LT PUSH3 0x276 JUMPI POP POP POP LT PUSH3 0x25C JUMPI JUMPDEST POP POP POP DUP2 SHL ADD PUSH1 0x9 SSTORE PUSH3 0x20C JUMP JUMPDEST ADD MLOAD PUSH1 0x0 NOT PUSH1 0xF8 DUP5 PUSH1 0x3 SHL AND SHR NOT AND SWAP1 SSTORE CODESIZE DUP1 DUP1 PUSH3 0x24D JUMP JUMPDEST DUP6 DUP8 ADD MLOAD DUP9 SSTORE SWAP1 SWAP7 ADD SWAP6 SWAP5 DUP6 ADD SWAP5 DUP8 SWAP4 POP SWAP1 DUP2 ADD SWAP1 PUSH3 0x23A JUMP JUMPDEST PUSH1 0x9 DUP3 MSTORE DUP7 DUP3 KECCAK256 DUP5 DUP1 DUP9 ADD PUSH1 0x5 SHR DUP3 ADD SWAP3 DUP10 DUP10 LT PUSH3 0x2D0 JUMPI JUMPDEST ADD PUSH1 0x5 SHR ADD SWAP1 DUP6 SWAP1 JUMPDEST DUP3 DUP2 LT PUSH3 0x2C4 JUMPI POP POP PUSH3 0x1DE JUMP JUMPDEST DUP4 DUP2 SSTORE ADD DUP6 SWAP1 PUSH3 0x2B4 JUMP JUMPDEST SWAP3 POP DUP2 SWAP3 PUSH3 0x2AB JUMP JUMPDEST PUSH4 0x4E487B71 PUSH1 0xE0 SHL DUP3 MSTORE PUSH1 0x22 PUSH1 0x4 MSTORE PUSH1 0x24 DUP3 REVERT JUMPDEST SWAP1 PUSH1 0x7F AND SWAP1 PUSH3 0x1CC JUMP JUMPDEST PUSH4 0x4E487B71 PUSH1 0xE0 SHL DUP2 MSTORE PUSH1 0x41 PUSH1 0x4 MSTORE PUSH1 0x24 SWAP1 REVERT JUMPDEST PUSH1 0x40 MLOAD PUSH4 0x1E4FBDF7 PUSH1 0xE0 SHL DUP2 MSTORE PUSH1 0x4 DUP2 ADD DUP6 SWAP1 MSTORE PUSH1 0x24 SWAP1 REVERT JUMPDEST ADD MLOAD SWAP1 POP CODESIZE DUP1 PUSH3 0x15A JUMP JUMPDEST DUP11 DUP9 MSTORE DUP13 DUP9 KECCAK256 DUP12 SWAP5 POP SWAP2 SWAP1 PUSH1 0x1F NOT DUP5 AND DUP10 DUP16 JUMPDEST DUP3 DUP3 LT PUSH3 0x37F JUMPI POP POP DUP5 GT PUSH3 0x365 JUMPI JUMPDEST POP POP POP DUP2 SHL ADD DUP8 SSTORE PUSH3 0x16E JUMP JUMPDEST ADD MLOAD PUSH1 0x0 NOT PUSH1 0xF8 DUP5 PUSH1 0x3 SHL AND SHR NOT AND SWAP1 SSTORE CODESIZE DUP1 DUP1 PUSH3 0x357 JUMP JUMPDEST DUP5 DUP5 ADD MLOAD DUP7 SSTORE DUP15 SWAP8 SWAP1 SWAP6 ADD SWAP5 SWAP4 DUP5 ADD SWAP4 SWAP1 DUP2 ADD SWAP1 PUSH3 0x345 JUMP JUMPDEST SWAP1 SWAP2 SWAP3 POP DUP11 DUP9 MSTORE DUP10 DUP3 DUP10 KECCAK256 SWAP2 DUP2 DUP7 ADD PUSH1 0x5 SHR DUP4 ADD SWAP4 DUP7 LT PUSH3 0x3E5 JUMPI JUMPDEST SWAP2 DUP13 SWAP2 DUP7 SWAP6 SWAP5 SWAP4 ADD PUSH1 0x5 SHR ADD SWAP2 JUMPDEST DUP3 DUP2 LT PUSH3 0x3D6 JUMPI POP DUP14 SWAP2 POP PUSH3 0x143 JUMP JUMPDEST DUP10 DUP2 SSTORE DUP6 SWAP5 POP DUP13 SWAP2 ADD PUSH3 0x3C4 JUMP JUMPDEST SWAP3 POP DUP2 SWAP3 PUSH3 0x3B6 JUMP JUMPDEST PUSH4 0x4E487B71 PUSH1 0xE0 SHL DUP8 MSTORE PUSH1 0x22 PUSH1 0x4 MSTORE PUSH1 0x24 DUP8 REVERT JUMPDEST SWAP1 PUSH1 0x7F AND SWAP1 PUSH3 0x12D JUMP JUMPDEST PUSH4 0x4E487B71 PUSH1 0xE0 SHL DUP7 MSTORE PUSH1 0x41 PUSH1 0x4 MSTORE PUSH1 0x24 DUP7 REVERT JUMPDEST ADD MLOAD SWAP1 POP CODESIZE DUP1 PUSH3 0xFE JUMP JUMPDEST SWAP2 SWAP1 DUP13 SWAP5 POP PUSH1 0x1F NOT DUP5 AND DUP11 DUP1 MSTORE DUP4 DUP12 KECCAK256 SWAP4 DUP12 SWAP1 JUMPDEST DUP3 DUP3 LT PUSH3 0x47C JUMPI POP POP DUP5 GT PUSH3 0x462 JUMPI JUMPDEST POP POP POP DUP2 SHL ADD DUP6 SSTORE PUSH3 0x112 JUMP JUMPDEST ADD MLOAD PUSH1 0x0 NOT PUSH1 0xF8 DUP5 PUSH1 0x3 SHL AND SHR NOT AND SWAP1 SSTORE CODESIZE DUP1 DUP1 PUSH3 0x454 JUMP JUMPDEST DUP5 DUP5 ADD MLOAD DUP7 SSTORE DUP16 SWAP8 SWAP1 SWAP6 ADD SWAP5 SWAP4 DUP5 ADD SWAP4 SWAP1 DUP2 ADD SWAP1 PUSH3 0x442 JUMP JUMPDEST SWAP1 SWAP2 SWAP3 POP DUP9 DUP1 MSTORE DUP11 DUP3 DUP11 KECCAK256 SWAP2 DUP2 DUP7 ADD PUSH1 0x5 SHR DUP4 ADD SWAP4 DUP7 LT PUSH3 0x4E2 JUMPI JUMPDEST SWAP2 DUP14 SWAP2 DUP7 SWAP6 SWAP5 SWAP4 ADD PUSH1 0x5 SHR ADD SWAP2 JUMPDEST DUP3 DUP2 LT PUSH3 0x4D3 JUMPI POP DUP15 SWAP2 POP PUSH3 0xE5 JUMP JUMPDEST DUP11 DUP2 SSTORE DUP6 SWAP5 POP DUP14 SWAP2 ADD PUSH3 0x4C1 JUMP JUMPDEST SWAP3 POP DUP2 SWAP3 PUSH3 0x4B3 JUMP JUMPDEST SWAP9 PUSH1 0x7F AND SWAP9 PUSH3 0xCD JUMP JUMPDEST PUSH4 0x4E487B71 PUSH1 0xE0 SHL PUSH1 0x0 MSTORE PUSH1 0x41 PUSH1 0x4 MSTORE PUSH1 0x24 PUSH1 0x0 REVERT JUMPDEST PUSH1 0x0 DUP1 REVERT JUMPDEST PUSH1 0x40 MLOAD SWAP2 SWAP1 PUSH1 0x1F ADD PUSH1 0x1F NOT AND DUP3 ADD PUSH1 0x1 PUSH1 0x1 PUSH1 0x40 SHL SUB DUP2 GT DUP4 DUP3 LT OR PUSH3 0x4F7 JUMPI PUSH1 0x40 MSTORE JUMP JUMPDEST SWAP2 SWAP1 DUP1 PUSH1 0x1F DUP5 ADD SLT ISZERO PUSH3 0x50D JUMPI DUP3 MLOAD PUSH1 0x1 PUSH1 0x1 PUSH1 0x40 SHL SUB DUP2 GT PUSH3 0x4F7 JUMPI PUSH1 0x20 SWAP1 PUSH3 0x56E PUSH1 0x1F DUP3 ADD PUSH1 0x1F NOT AND DUP4 ADD PUSH3 0x512 JUMP JUMPDEST SWAP3 DUP2 DUP5 MSTORE DUP3 DUP3 DUP8 ADD ADD GT PUSH3 0x50D JUMPI PUSH1 0x0 JUMPDEST DUP2 DUP2 LT PUSH3 0x596 JUMPI POP DUP3 PUSH1 0x0 SWAP4 SWAP5 SWAP6 POP ADD ADD MSTORE SWAP1 JUMP JUMPDEST DUP6 DUP2 ADD DUP4 ADD MLOAD DUP5 DUP3 ADD DUP5 ADD MSTORE DUP3 ADD PUSH3 0x580 JUMP INVALID PUSH1 0x80 PUSH1 0x40 DUP2 DUP2 MSTORE PUSH1 0x4 DUP1 CALLDATASIZE LT ISZERO PUSH2 0x15 JUMPI PUSH1 0x0 DUP1 REVERT JUMPDEST PUSH1 0x0 SWAP3 DUP4 CALLDATALOAD PUSH1 0xE0 SHR SWAP1 DUP2 PUSH4 0x1FFC9A7 EQ PUSH2 0xAF6 JUMPI POP DUP1 PUSH4 0x6FDDE03 EQ PUSH2 0xA45 JUMPI DUP1 PUSH4 0x81812FC EQ PUSH2 0xA0C JUMPI DUP1 PUSH4 0x95EA7B3 EQ PUSH2 0x919 JUMPI DUP1 PUSH4 0x23B872DD EQ PUSH2 0x901 JUMPI DUP1 PUSH4 0x42842E0E EQ PUSH2 0x8B2 JUMPI DUP1 PUSH4 0x42966C68 EQ PUSH2 0x789 JUMPI DUP1 PUSH4 0x6352211E EQ PUSH2 0x759 JUMPI DUP1 PUSH4 0x6A627842 EQ PUSH2 0x5FD JUMPI DUP1 PUSH4 0x70A08231 EQ PUSH2 0x58F JUMPI DUP1 PUSH4 0x715018A6 EQ PUSH2 0x534 JUMPI DUP1 PUSH4 0x8DA5CB5B EQ PUSH2 0x50C JUMPI DUP1 PUSH4 0x95D89B41 EQ PUSH2 0x42D JUMPI DUP1 PUSH4 0xA22CB465 EQ PUSH2 0x373 JUMPI DUP1 PUSH4 0xA7F93EBD EQ PUSH2 0x354 JUMPI DUP1 PUSH4 0xB88D4FDE EQ PUSH2 0x2CB JUMPI DUP1 PUSH4 0xC87B56DD EQ PUSH2 0x1EA JUMPI DUP1 PUSH4 0xE985E9C5 EQ PUSH2 0x198 JUMPI PUSH4 0xF2FDE38B EQ PUSH2 0xF4 JUMPI PUSH1 0x0 DUP1 REVERT JUMPDEST CALLVALUE PUSH2 0x194 JUMPI PUSH1 0x20 CALLDATASIZE PUSH1 0x3 NOT ADD SLT PUSH2 0x194 JUMPI PUSH2 0x10D PUSH2 0xC06 JUMP JUMPDEST SWAP1 PUSH2 0x116 PUSH2 0x120D JUMP JUMPDEST PUSH1 0x1 PUSH1 0x1 PUSH1 0xA0 SHL SUB DUP1 SWAP3 AND SWAP3 DUP4 ISZERO PUSH2 0x165 JUMPI POP POP PUSH1 0x6 SLOAD DUP3 PUSH1 0x1 PUSH1 0x1 PUSH1 0xA0 SHL SUB NOT DUP3 AND OR PUSH1 0x6 SSTORE AND PUSH32 0x8BE0079C531659141344CD1FD0A4F28419497F9722A3DAAFE3B4186F6B6457E0 DUP4 DUP1 LOG3 DUP1 RETURN JUMPDEST SWAP1 DUP5 PUSH1 0x24 SWAP3 MLOAD SWAP2 PUSH32 0x1E4FBDF700000000000000000000000000000000000000000000000000000000 DUP4 MSTORE DUP3 ADD MSTORE REVERT JUMPDEST DUP3 DUP1 REVERT JUMPDEST POP POP CALLVALUE PUSH2 0x1E6 JUMPI DUP1 PUSH1 0x3 NOT CALLDATASIZE ADD SLT PUSH2 0x1E6 JUMPI PUSH1 0xFF DUP2 PUSH1 0x20 SWAP4 PUSH2 0x1B8 PUSH2 0xC06 JUMP JUMPDEST PUSH2 0x1C0 PUSH2 0xC21 JUMP JUMPDEST PUSH1 0x1 PUSH1 0x1 PUSH1 0xA0 SHL SUB SWAP2 DUP3 AND DUP4 MSTORE PUSH1 0x5 DUP8 MSTORE DUP4 DUP4 KECCAK256 SWAP2 AND DUP3 MSTORE DUP6 MSTORE KECCAK256 SLOAD SWAP2 MLOAD SWAP2 AND ISZERO ISZERO DUP2 MSTORE RETURN JUMPDEST POP DUP1 REVERT JUMPDEST POP SWAP1 CALLVALUE PUSH2 0x194 JUMPI PUSH1 0x20 SWAP2 DUP3 PUSH1 0x3 NOT CALLDATASIZE ADD SLT PUSH2 0x2C7 JUMPI CALLDATALOAD DUP4 MSTORE PUSH1 0xA DUP3 MSTORE DUP1 DUP4 KECCAK256 DUP2 MLOAD SWAP4 DUP5 SWAP2 DUP2 DUP2 SLOAD SWAP1 PUSH2 0x21B DUP3 PUSH2 0xCC0 JUMP JUMPDEST SWAP3 DUP4 DUP7 MSTORE PUSH1 0x1 SWAP3 DUP9 PUSH1 0x1 DUP3 AND SWAP2 DUP3 PUSH1 0x0 EQ PUSH2 0x29D JUMPI POP POP PUSH1 0x1 EQ PUSH2 0x25F JUMPI JUMPDEST DUP6 DUP9 PUSH2 0x25B DUP10 PUSH2 0x24C DUP5 DUP11 SUB DUP6 PUSH2 0xC6C JUMP JUMPDEST MLOAD SWAP3 DUP3 DUP5 SWAP4 DUP5 MSTORE DUP4 ADD SWAP1 PUSH2 0xBC6 JUMP JUMPDEST SUB SWAP1 RETURN JUMPDEST DUP8 SWAP5 POP DUP2 SWAP4 SWAP3 SWAP2 MSTORE DUP4 DUP4 KECCAK256 JUMPDEST DUP3 DUP5 LT PUSH2 0x285 JUMPI POP POP POP DUP3 ADD ADD DUP2 PUSH2 0x24C PUSH2 0x25B CODESIZE PUSH2 0x23A JUMP JUMPDEST DUP1 SLOAD DUP5 DUP11 ADD DUP7 ADD MSTORE DUP9 SWAP6 POP DUP8 SWAP5 SWAP1 SWAP4 ADD SWAP3 DUP2 ADD PUSH2 0x26B JUMP JUMPDEST PUSH1 0xFF NOT AND DUP9 DUP3 ADD MSTORE SWAP5 ISZERO ISZERO PUSH1 0x5 SHL DUP8 ADD SWAP1 SWAP5 ADD SWAP5 POP DUP6 SWAP4 POP PUSH2 0x24C SWAP3 POP PUSH2 0x25B SWAP2 POP CODESIZE SWAP1 POP PUSH2 0x23A JUMP JUMPDEST DUP4 DUP1 REVERT JUMPDEST POP SWAP1 CALLVALUE PUSH2 0x194 JUMPI PUSH1 0x80 CALLDATASIZE PUSH1 0x3 NOT ADD SLT PUSH2 0x194 JUMPI PUSH2 0x2E6 PUSH2 0xC06 JUMP JUMPDEST PUSH2 0x2EE PUSH2 0xC21 JUMP JUMPDEST DUP5 PUSH1 0x64 CALLDATALOAD SWAP5 PUSH8 0xFFFFFFFFFFFFFFFF DUP7 GT PUSH2 0x1E6 JUMPI CALLDATASIZE PUSH1 0x23 DUP8 ADD SLT ISZERO PUSH2 0x1E6 JUMPI DUP6 ADD CALLDATALOAD SWAP5 PUSH2 0x326 PUSH2 0x31D DUP8 PUSH2 0xCA4 JUMP JUMPDEST SWAP6 MLOAD SWAP6 DUP7 PUSH2 0xC6C JUMP JUMPDEST DUP6 DUP6 MSTORE CALLDATASIZE PUSH1 0x24 DUP8 DUP4 ADD ADD GT PUSH2 0x1E6 JUMPI DUP6 PUSH2 0x351 SWAP7 PUSH1 0x24 PUSH1 0x20 SWAP4 ADD DUP4 DUP9 ADD CALLDATACOPY DUP6 ADD ADD MSTORE PUSH1 0x44 CALLDATALOAD SWAP2 PUSH2 0x103D JUMP JUMPDEST DUP1 RETURN JUMPDEST POP POP CALLVALUE PUSH2 0x1E6 JUMPI DUP2 PUSH1 0x3 NOT CALLDATASIZE ADD SLT PUSH2 0x1E6 JUMPI PUSH1 0x20 SWAP1 PUSH1 0x8 SLOAD SWAP1 MLOAD SWAP1 DUP2 MSTORE RETURN JUMPDEST POP SWAP1 CALLVALUE PUSH2 0x194 JUMPI DUP1 PUSH1 0x3 NOT CALLDATASIZE ADD SLT PUSH2 0x194 JUMPI PUSH2 0x38D PUSH2 0xC06 JUMP JUMPDEST SWAP1 PUSH1 0x24 CALLDATALOAD SWAP2 DUP3 ISZERO ISZERO DUP1 SWAP4 SUB PUSH2 0x429 JUMPI PUSH1 0x1 PUSH1 0x1 PUSH1 0xA0 SHL SUB AND SWAP3 DUP4 ISZERO PUSH2 0x3FB JUMPI POP CALLER DUP5 MSTORE PUSH1 0x5 PUSH1 0x20 MSTORE DUP1 DUP5 KECCAK256 DUP4 DUP6 MSTORE PUSH1 0x20 MSTORE DUP1 DUP5 KECCAK256 PUSH1 0xFF NOT DUP2 SLOAD AND PUSH1 0xFF DUP5 AND OR SWAP1 SSTORE MLOAD SWAP1 DUP2 MSTORE PUSH32 0x17307EAB39AB6107E8899845AD3D59BD9653F200F220920489CA2B5937696C31 PUSH1 0x20 CALLER SWAP3 LOG3 DUP1 RETURN JUMPDEST DUP4 PUSH1 0x24 SWAP3 MLOAD SWAP2 PUSH32 0x5B08BA1800000000000000000000000000000000000000000000000000000000 DUP4 MSTORE DUP3 ADD MSTORE REVERT JUMPDEST DUP5 DUP1 REVERT JUMPDEST DUP3 DUP5 CALLVALUE PUSH2 0x509 JUMPI DUP1 PUSH1 0x3 NOT CALLDATASIZE ADD SLT PUSH2 0x509 JUMPI DUP2 MLOAD SWAP2 DUP3 DUP3 PUSH1 0x1 SWAP4 PUSH1 0x1 SLOAD SWAP5 PUSH2 0x454 DUP7 PUSH2 0xCC0 JUMP JUMPDEST SWAP2 DUP3 DUP6 MSTORE PUSH1 0x20 SWAP7 DUP8 PUSH1 0x1 DUP3 AND SWAP2 DUP3 PUSH1 0x0 EQ PUSH2 0x4E2 JUMPI POP POP PUSH1 0x1 EQ PUSH2 0x486 JUMPI JUMPDEST POP POP POP PUSH2 0x25B SWAP3 SWAP2 PUSH2 0x24C SWAP2 SUB DUP6 PUSH2 0xC6C JUMP JUMPDEST SWAP2 SWAP1 DUP7 SWAP4 POP PUSH1 0x1 DUP4 MSTORE PUSH32 0xB10E2D527612073B26EECDFD717E6A320CF44B4AFAC2B0732D9FCBE2B7FA0CF6 JUMPDEST DUP3 DUP5 LT PUSH2 0x4CA JUMPI POP POP POP DUP3 ADD ADD DUP2 PUSH2 0x24C PUSH2 0x25B PUSH2 0x473 JUMP JUMPDEST DUP1 SLOAD DUP5 DUP11 ADD DUP7 ADD MSTORE DUP9 SWAP6 POP DUP8 SWAP5 SWAP1 SWAP4 ADD SWAP3 DUP2 ADD PUSH2 0x4B1 JUMP JUMPDEST PUSH1 0xFF NOT AND DUP8 DUP3 ADD MSTORE SWAP4 ISZERO ISZERO PUSH1 0x5 SHL DUP7 ADD SWAP1 SWAP4 ADD SWAP4 POP DUP5 SWAP3 POP PUSH2 0x24C SWAP2 POP PUSH2 0x25B SWAP1 POP PUSH2 0x473 JUMP JUMPDEST DUP1 REVERT JUMPDEST POP POP CALLVALUE PUSH2 0x1E6 JUMPI DUP2 PUSH1 0x3 NOT CALLDATASIZE ADD SLT PUSH2 0x1E6 JUMPI PUSH1 0x20 SWAP1 PUSH1 0x1 PUSH1 0x1 PUSH1 0xA0 SHL SUB PUSH1 0x6 SLOAD AND SWAP1 MLOAD SWAP1 DUP2 MSTORE RETURN JUMPDEST DUP4 CALLVALUE PUSH2 0x509 JUMPI DUP1 PUSH1 0x3 NOT CALLDATASIZE ADD SLT PUSH2 0x509 JUMPI PUSH2 0x54D PUSH2 0x120D JUMP JUMPDEST DUP1 PUSH1 0x1 PUSH1 0x1 PUSH1 0xA0 SHL SUB PUSH1 0x6 SLOAD PUSH1 0x1 PUSH1 0x1 PUSH1 0xA0 SHL SUB NOT DUP2 AND PUSH1 0x6 SSTORE AND PUSH32 0x8BE0079C531659141344CD1FD0A4F28419497F9722A3DAAFE3B4186F6B6457E0 DUP3 DUP1 LOG3 DUP1 RETURN JUMPDEST POP SWAP2 CALLVALUE PUSH2 0x509 JUMPI PUSH1 0x20 CALLDATASIZE PUSH1 0x3 NOT ADD SLT PUSH2 0x509 JUMPI PUSH1 0x1 PUSH1 0x1 PUSH1 0xA0 SHL SUB PUSH2 0x5B2 PUSH2 0xC06 JUMP JUMPDEST AND SWAP3 DUP4 ISZERO PUSH2 0x5CF JUMPI POP DUP1 PUSH1 0x20 SWAP4 DUP4 SWAP3 MSTORE PUSH1 0x3 DUP5 MSTORE KECCAK256 SLOAD SWAP1 MLOAD SWAP1 DUP2 MSTORE RETURN JUMPDEST SWAP1 PUSH1 0x24 SWAP3 MLOAD SWAP2 PUSH32 0x89C62B6400000000000000000000000000000000000000000000000000000000 DUP4 MSTORE DUP3 ADD MSTORE REVERT JUMPDEST POP DUP3 CALLVALUE PUSH2 0x509 JUMPI PUSH1 0x20 SWAP3 DUP4 PUSH1 0x3 NOT CALLDATASIZE ADD SLT PUSH2 0x1E6 JUMPI PUSH2 0x61A PUSH2 0xC06 JUMP JUMPDEST PUSH2 0x622 PUSH2 0x120D JUMP JUMPDEST PUSH1 0x7 SLOAD PUSH1 0x1 PUSH1 0x1 PUSH1 0xA0 SHL SUB DUP1 SWAP3 AND SWAP2 DUP3 ISZERO PUSH2 0x743 JUMPI DUP2 DUP6 MSTORE PUSH1 0x2 DUP8 MSTORE DUP4 DUP6 KECCAK256 SLOAD AND SWAP2 DUP3 ISZERO ISZERO SWAP3 DUP4 PUSH2 0x70B JUMPI JUMPDEST DUP2 DUP7 MSTORE PUSH1 0x3 DUP9 MSTORE DUP5 DUP7 KECCAK256 PUSH1 0x1 DUP2 SLOAD ADD SWAP1 SSTORE DUP3 DUP7 MSTORE PUSH1 0x2 DUP9 MSTORE DUP5 DUP7 KECCAK256 DUP3 PUSH1 0x1 PUSH1 0x1 PUSH1 0xA0 SHL SUB NOT DUP3 SLOAD AND OR SWAP1 SSTORE PUSH32 0xDDF252AD1BE2C89B69C2B068FC378DAA952BA7F163C4A11628F55A4DF523B3EF DUP7 DUP1 LOG4 PUSH2 0x6DD JUMPI PUSH2 0x6B5 SWAP1 PUSH1 0xA DUP6 PUSH1 0x7 SLOAD DUP6 MSTORE MSTORE DUP3 KECCAK256 PUSH2 0xEE6 JUMP JUMPDEST PUSH1 0x7 SLOAD PUSH1 0x0 NOT DUP2 EQ PUSH2 0x6CA JUMPI PUSH1 0x1 ADD PUSH1 0x7 SSTORE DUP1 RETURN JUMPDEST POP PUSH1 0x11 PUSH1 0x24 SWAP3 PUSH4 0x4E487B71 PUSH1 0xE0 SHL DUP4 MSTORE MSTORE REVERT JUMPDEST PUSH1 0x24 SWAP4 POP MLOAD SWAP2 PUSH32 0x73C6AC6E00000000000000000000000000000000000000000000000000000000 DUP4 MSTORE DUP3 ADD MSTORE REVERT JUMPDEST PUSH2 0x72C DUP4 PUSH1 0x0 MSTORE PUSH1 0x4 PUSH1 0x20 MSTORE PUSH1 0x40 PUSH1 0x0 KECCAK256 PUSH1 0x1 PUSH1 0x1 PUSH1 0xA0 SHL SUB NOT DUP2 SLOAD AND SWAP1 SSTORE JUMP JUMPDEST DUP1 DUP7 MSTORE PUSH1 0x3 DUP9 MSTORE DUP5 DUP7 KECCAK256 DUP1 SLOAD PUSH1 0x0 NOT ADD SWAP1 SSTORE PUSH2 0x64E JUMP JUMPDEST PUSH1 0x24 DUP7 DUP7 DUP7 MLOAD SWAP2 PUSH4 0x32505749 PUSH1 0xE1 SHL DUP4 MSTORE DUP3 ADD MSTORE REVERT JUMPDEST POP SWAP2 CALLVALUE PUSH2 0x509 JUMPI PUSH1 0x20 CALLDATASIZE PUSH1 0x3 NOT ADD SLT PUSH2 0x509 JUMPI POP PUSH1 0x1 PUSH1 0x1 PUSH1 0xA0 SHL SUB PUSH2 0x781 PUSH1 0x20 SWAP4 CALLDATALOAD PUSH2 0x11D2 JUMP JUMPDEST SWAP2 MLOAD SWAP2 AND DUP2 MSTORE RETURN JUMPDEST POP SWAP1 CALLVALUE PUSH2 0x194 JUMPI PUSH1 0x20 SWAP1 DUP2 PUSH1 0x3 NOT CALLDATASIZE ADD SLT PUSH2 0x2C7 JUMPI DUP3 CALLDATALOAD SWAP2 PUSH2 0x7A9 PUSH2 0x120D JUMP JUMPDEST DUP3 DUP6 MSTORE PUSH1 0xA DUP2 MSTORE DUP5 DUP3 DUP2 KECCAK256 PUSH2 0x7BE DUP2 SLOAD PUSH2 0xCC0 JUMP JUMPDEST DUP1 PUSH2 0x876 JUMPI JUMPDEST POP POP DUP4 SWAP1 MSTORE PUSH1 0x2 DUP2 MSTORE DUP3 DUP6 PUSH1 0x1 PUSH1 0x1 PUSH1 0xA0 SHL SUB DUP5 DUP3 KECCAK256 SLOAD AND PUSH1 0x2 DUP2 ISZERO SWAP5 DUP6 ISZERO PUSH2 0x83E JUMPI JUMPDEST DUP5 DUP5 MSTORE MSTORE DUP5 DUP3 KECCAK256 PUSH1 0x1 PUSH1 0x1 PUSH1 0xA0 SHL SUB NOT DUP2 SLOAD AND SWAP1 SSTORE PUSH32 0xDDF252AD1BE2C89B69C2B068FC378DAA952BA7F163C4A11628F55A4DF523B3EF DUP3 DUP1 LOG4 PUSH2 0x829 JUMPI DUP4 DUP1 RETURN JUMPDEST PUSH1 0x24 SWAP4 POP MLOAD SWAP2 PUSH4 0x7E273289 PUSH1 0xE0 SHL DUP4 MSTORE DUP3 ADD MSTORE REVERT JUMPDEST PUSH2 0x85F DUP6 PUSH1 0x0 MSTORE PUSH1 0x4 PUSH1 0x20 MSTORE PUSH1 0x40 PUSH1 0x0 KECCAK256 PUSH1 0x1 PUSH1 0x1 PUSH1 0xA0 SHL SUB NOT DUP2 SLOAD AND SWAP1 SSTORE JUMP JUMPDEST DUP3 DUP5 MSTORE PUSH1 0x3 DUP2 MSTORE DUP7 DUP5 KECCAK256 DUP1 SLOAD PUSH1 0x0 NOT ADD SWAP1 SSTORE PUSH2 0x7E8 JUMP JUMPDEST DUP3 PUSH1 0x1F DUP3 GT PUSH1 0x1 EQ PUSH2 0x88E JUMPI POP POP SSTORE JUMPDEST DUP5 CODESIZE DUP1 PUSH2 0x7C4 JUMP JUMPDEST SWAP1 SWAP2 DUP1 DUP3 MSTORE PUSH2 0x8AB PUSH1 0x1F DUP7 DUP5 KECCAK256 SWAP5 ADD PUSH1 0x5 SHR DUP5 ADD PUSH1 0x1 DUP6 ADD PUSH2 0xECF JUMP JUMPDEST SSTORE SSTORE PUSH2 0x886 JUMP JUMPDEST POP SWAP2 SWAP1 CALLVALUE PUSH2 0x1E6 JUMPI PUSH2 0x8C3 CALLDATASIZE PUSH2 0xC37 JUMP JUMPDEST SWAP2 DUP4 MLOAD SWAP4 PUSH1 0x20 DUP6 ADD SWAP1 DUP6 DUP3 LT PUSH8 0xFFFFFFFFFFFFFFFF DUP4 GT OR PUSH2 0x8EE JUMPI PUSH2 0x351 SWAP7 SWAP8 POP MSTORE DUP6 DUP5 MSTORE PUSH2 0x103D JUMP JUMPDEST PUSH1 0x24 DUP8 PUSH1 0x41 DUP11 PUSH4 0x4E487B71 PUSH1 0xE0 SHL DUP4 MSTORE MSTORE REVERT JUMPDEST DUP4 CALLVALUE PUSH2 0x509 JUMPI PUSH2 0x351 PUSH2 0x913 CALLDATASIZE PUSH2 0xC37 JUMP JUMPDEST SWAP2 PUSH2 0xCFA JUMP JUMPDEST POP SWAP1 CALLVALUE PUSH2 0x194 JUMPI DUP1 PUSH1 0x3 NOT CALLDATASIZE ADD SLT PUSH2 0x194 JUMPI PUSH2 0x933 PUSH2 0xC06 JUMP JUMPDEST SWAP2 PUSH1 0x24 CALLDATALOAD PUSH2 0x940 DUP2 PUSH2 0x11D2 JUMP JUMPDEST CALLER ISZERO ISZERO DUP1 PUSH2 0x9F9 JUMPI JUMPDEST DUP1 PUSH2 0x9D1 JUMPI JUMPDEST PUSH2 0x9A2 JUMPI DUP2 SWAP1 PUSH1 0x1 PUSH1 0x1 PUSH1 0xA0 SHL SUB DUP1 SWAP7 AND SWAP6 DUP7 SWAP2 AND PUSH32 0x8C5BE1E5EBEC7D5BD14F71427D1E84F3DD0314C0F7B2291E5B200AC8C7C3B925 DUP9 DUP1 LOG4 DUP5 MSTORE PUSH1 0x20 MSTORE DUP3 KECCAK256 SWAP1 PUSH1 0x1 PUSH1 0x1 PUSH1 0xA0 SHL SUB NOT DUP3 SLOAD AND OR SWAP1 SSTORE DUP1 RETURN JUMPDEST DUP4 MLOAD PUSH32 0xA9FBF51F00000000000000000000000000000000000000000000000000000000 DUP2 MSTORE CALLER DUP2 DUP6 ADD MSTORE PUSH1 0x24 SWAP1 REVERT JUMPDEST POP PUSH1 0x1 PUSH1 0x1 PUSH1 0xA0 SHL SUB DUP2 AND DUP7 MSTORE PUSH1 0x5 PUSH1 0x20 MSTORE DUP4 DUP7 KECCAK256 CALLER DUP8 MSTORE PUSH1 0x20 MSTORE PUSH1 0xFF DUP5 DUP8 KECCAK256 SLOAD AND ISZERO PUSH2 0x94F JUMP JUMPDEST POP CALLER PUSH1 0x1 PUSH1 0x1 PUSH1 0xA0 SHL SUB DUP3 AND EQ ISZERO PUSH2 0x949 JUMP JUMPDEST POP CALLVALUE PUSH2 0x194 JUMPI PUSH1 0x20 CALLDATASIZE PUSH1 0x3 NOT ADD SLT PUSH2 0x194 JUMPI DUP2 PUSH1 0x20 SWAP4 DUP3 PUSH1 0x1 PUSH1 0x1 PUSH1 0xA0 SHL SUB SWAP4 CALLDATALOAD PUSH2 0xA36 DUP2 PUSH2 0x11D2 JUMP JUMPDEST POP DUP3 MSTORE DUP6 MSTORE KECCAK256 SLOAD AND SWAP1 MLOAD SWAP1 DUP2 MSTORE RETURN JUMPDEST DUP3 DUP5 CALLVALUE PUSH2 0x509 JUMPI DUP1 PUSH1 0x3 NOT CALLDATASIZE ADD SLT PUSH2 0x509 JUMPI DUP2 MLOAD SWAP2 DUP3 DUP3 DUP4 SLOAD PUSH2 0xA67 DUP2 PUSH2 0xCC0 JUMP JUMPDEST SWAP1 DUP2 DUP5 MSTORE PUSH1 0x20 SWAP6 PUSH1 0x1 SWAP2 DUP8 PUSH1 0x1 DUP3 AND SWAP2 DUP3 PUSH1 0x0 EQ PUSH2 0x4E2 JUMPI POP POP PUSH1 0x1 EQ PUSH2 0xA9B JUMPI POP POP POP PUSH2 0x25B SWAP3 SWAP2 PUSH2 0x24C SWAP2 SUB DUP6 PUSH2 0xC6C JUMP JUMPDEST SWAP2 SWAP1 DUP7 SWAP4 POP DUP3 DUP1 MSTORE PUSH32 0x290DECD9548B62A8D60345A988386FC84BA6BC95484008F6362F93160EF3E563 JUMPDEST DUP3 DUP5 LT PUSH2 0xADE JUMPI POP POP POP DUP3 ADD ADD DUP2 PUSH2 0x24C PUSH2 0x25B PUSH2 0x473 JUMP JUMPDEST DUP1 SLOAD DUP5 DUP11 ADD DUP7 ADD MSTORE DUP9 SWAP6 POP DUP8 SWAP5 SWAP1 SWAP4 ADD SWAP3 DUP2 ADD PUSH2 0xAC5 JUMP JUMPDEST SWAP3 POP POP CALLVALUE PUSH2 0x194 JUMPI PUSH1 0x20 CALLDATASIZE PUSH1 0x3 NOT ADD SLT PUSH2 0x194 JUMPI CALLDATALOAD PUSH32 0xFFFFFFFF00000000000000000000000000000000000000000000000000000000 DUP2 AND DUP1 SWAP2 SUB PUSH2 0x194 JUMPI PUSH1 0x20 SWAP3 POP PUSH32 0x80AC58CD00000000000000000000000000000000000000000000000000000000 DUP2 EQ SWAP1 DUP2 ISZERO PUSH2 0xB9C JUMPI JUMPDEST DUP2 ISZERO PUSH2 0xB72 JUMPI JUMPDEST POP ISZERO ISZERO DUP2 MSTORE RETURN JUMPDEST PUSH32 0x1FFC9A700000000000000000000000000000000000000000000000000000000 SWAP2 POP EQ CODESIZE PUSH2 0xB6B JUMP JUMPDEST PUSH32 0x5B5E139F00000000000000000000000000000000000000000000000000000000 DUP2 EQ SWAP2 POP PUSH2 0xB64 JUMP JUMPDEST SWAP2 SWAP1 DUP3 MLOAD SWAP3 DUP4 DUP3 MSTORE PUSH1 0x0 JUMPDEST DUP5 DUP2 LT PUSH2 0xBF2 JUMPI POP POP DUP3 PUSH1 0x0 PUSH1 0x20 DUP1 SWAP5 SWAP6 DUP5 ADD ADD MSTORE PUSH1 0x1F DUP1 NOT SWAP2 ADD AND ADD ADD SWAP1 JUMP JUMPDEST PUSH1 0x20 DUP2 DUP4 ADD DUP2 ADD MLOAD DUP5 DUP4 ADD DUP3 ADD MSTORE ADD PUSH2 0xBD1 JUMP JUMPDEST PUSH1 0x4 CALLDATALOAD SWAP1 PUSH1 0x1 PUSH1 0x1 PUSH1 0xA0 SHL SUB DUP3 AND DUP3 SUB PUSH2 0xC1C JUMPI JUMP JUMPDEST PUSH1 0x0 DUP1 REVERT JUMPDEST PUSH1 0x24 CALLDATALOAD SWAP1 PUSH1 0x1 PUSH1 0x1 PUSH1 0xA0 SHL SUB DUP3 AND DUP3 SUB PUSH2 0xC1C JUMPI JUMP JUMPDEST PUSH1 0x60 SWAP1 PUSH1 0x3 NOT ADD SLT PUSH2 0xC1C JUMPI PUSH1 0x1 PUSH1 0x1 PUSH1 0xA0 SHL SUB SWAP1 PUSH1 0x4 CALLDATALOAD DUP3 DUP2 AND DUP2 SUB PUSH2 0xC1C JUMPI SWAP2 PUSH1 0x24 CALLDATALOAD SWAP1 DUP2 AND DUP2 SUB PUSH2 0xC1C JUMPI SWAP1 PUSH1 0x44 CALLDATALOAD SWAP1 JUMP JUMPDEST SWAP1 PUSH1 0x1F DUP1 NOT SWAP2 ADD AND DUP2 ADD SWAP1 DUP2 LT PUSH8 0xFFFFFFFFFFFFFFFF DUP3 GT OR PUSH2 0xC8E JUMPI PUSH1 0x40 MSTORE JUMP JUMPDEST PUSH4 0x4E487B71 PUSH1 0xE0 SHL PUSH1 0x0 MSTORE PUSH1 0x41 PUSH1 0x4 MSTORE PUSH1 0x24 PUSH1 0x0 REVERT JUMPDEST PUSH8 0xFFFFFFFFFFFFFFFF DUP2 GT PUSH2 0xC8E JUMPI PUSH1 0x1F ADD PUSH1 0x1F NOT AND PUSH1 0x20 ADD SWAP1 JUMP JUMPDEST SWAP1 PUSH1 0x1 DUP3 DUP2 SHR SWAP3 AND DUP1 ISZERO PUSH2 0xCF0 JUMPI JUMPDEST PUSH1 0x20 DUP4 LT EQ PUSH2 0xCDA JUMPI JUMP JUMPDEST PUSH4 0x4E487B71 PUSH1 0xE0 SHL PUSH1 0x0 MSTORE PUSH1 0x22 PUSH1 0x4 MSTORE PUSH1 0x24 PUSH1 0x0 REVERT JUMPDEST SWAP2 PUSH1 0x7F AND SWAP2 PUSH2 0xCCF JUMP JUMPDEST SWAP1 SWAP2 PUSH1 0x1 PUSH1 0x1 PUSH1 0xA0 SHL SUB DUP1 SWAP4 AND SWAP3 DUP4 ISZERO PUSH2 0xEB7 JUMPI PUSH1 0x0 SWAP3 DUP3 DUP5 MSTORE DUP3 PUSH1 0x20 SWAP6 PUSH1 0x2 DUP8 MSTORE PUSH1 0x40 SWAP7 DUP5 DUP9 DUP9 KECCAK256 SLOAD AND SWAP7 DUP8 SWAP2 CALLER ISZERO ISZERO DUP1 PUSH2 0xE08 JUMPI JUMPDEST POP SWAP1 PUSH1 0x2 PUSH32 0xDDF252AD1BE2C89B69C2B068FC378DAA952BA7F163C4A11628F55A4DF523B3EF SWAP3 DUP5 PUSH2 0xDD0 JUMPI JUMPDEST DUP6 DUP4 MSTORE PUSH1 0x3 DUP2 MSTORE DUP12 DUP4 KECCAK256 PUSH1 0x1 DUP2 SLOAD ADD SWAP1 SSTORE DUP7 DUP4 MSTORE MSTORE DUP10 DUP2 KECCAK256 DUP5 PUSH1 0x1 PUSH1 0x1 PUSH1 0xA0 SHL SUB NOT DUP3 SLOAD AND OR SWAP1 SSTORE DUP1 LOG4 AND SWAP3 DUP4 DUP4 SUB PUSH2 0xD96 JUMPI POP POP POP POP JUMP JUMPDEST PUSH1 0x64 SWAP5 POP MLOAD SWAP3 PUSH32 0x64283D7B00000000000000000000000000000000000000000000000000000000 DUP5 MSTORE PUSH1 0x4 DUP5 ADD MSTORE PUSH1 0x24 DUP4 ADD MSTORE PUSH1 0x44 DUP3 ADD MSTORE REVERT JUMPDEST PUSH2 0xDF1 DUP8 PUSH1 0x0 MSTORE PUSH1 0x4 PUSH1 0x20 MSTORE PUSH1 0x40 PUSH1 0x0 KECCAK256 PUSH1 0x1 PUSH1 0x1 PUSH1 0xA0 SHL SUB NOT DUP2 SLOAD AND SWAP1 SSTORE JUMP JUMPDEST DUP5 DUP4 MSTORE PUSH1 0x3 DUP2 MSTORE DUP12 DUP4 KECCAK256 DUP1 SLOAD PUSH1 0x0 NOT ADD SWAP1 SSTORE PUSH2 0xD5D JUMP JUMPDEST SWAP2 SWAP4 SWAP5 POP SWAP2 POP DUP1 PUSH2 0xE76 JUMPI JUMPDEST ISZERO PUSH2 0xE24 JUMPI DUP6 SWAP3 SWAP2 DUP8 SWAP2 CODESIZE PUSH2 0xD31 JUMP JUMPDEST DUP8 DUP7 DUP9 PUSH2 0xE41 JUMPI PUSH1 0x24 SWAP2 MLOAD SWAP1 PUSH4 0x7E273289 PUSH1 0xE0 SHL DUP3 MSTORE PUSH1 0x4 DUP3 ADD MSTORE REVERT JUMPDEST PUSH1 0x44 SWAP2 MLOAD SWAP1 PUSH32 0x177E802F00000000000000000000000000000000000000000000000000000000 DUP3 MSTORE CALLER PUSH1 0x4 DUP4 ADD MSTORE PUSH1 0x24 DUP3 ADD MSTORE REVERT JUMPDEST POP CALLER DUP8 EQ DUP1 ISZERO PUSH2 0xE9B JUMPI JUMPDEST DUP1 PUSH2 0xE14 JUMPI POP DUP6 DUP3 MSTORE PUSH1 0x4 DUP2 MSTORE CALLER DUP6 DUP10 DUP5 KECCAK256 SLOAD AND EQ PUSH2 0xE14 JUMP JUMPDEST POP DUP7 DUP3 MSTORE PUSH1 0x5 DUP2 MSTORE DUP8 DUP3 KECCAK256 CALLER DUP4 MSTORE DUP2 MSTORE PUSH1 0xFF DUP9 DUP4 KECCAK256 SLOAD AND PUSH2 0xE81 JUMP JUMPDEST PUSH1 0x24 PUSH1 0x40 MLOAD PUSH4 0x32505749 PUSH1 0xE1 SHL DUP2 MSTORE PUSH1 0x0 PUSH1 0x4 DUP3 ADD MSTORE REVERT JUMPDEST DUP2 DUP2 LT PUSH2 0xEDA JUMPI POP POP JUMP JUMPDEST PUSH1 0x0 DUP2 SSTORE PUSH1 0x1 ADD PUSH2 0xECF JUMP JUMPDEST SWAP1 PUSH1 0x9 DUP3 EQ PUSH2 0x1039 JUMPI PUSH2 0xEFA PUSH1 0x9 SLOAD PUSH2 0xCC0 JUMP JUMPDEST SWAP2 PUSH8 0xFFFFFFFFFFFFFFFF DUP4 GT PUSH2 0xC8E JUMPI PUSH2 0xF14 DUP2 SLOAD PUSH2 0xCC0 JUMP JUMPDEST PUSH1 0x1F DUP2 GT PUSH2 0xFFC JUMPI JUMPDEST POP PUSH1 0x0 SWAP3 PUSH1 0x1F DUP2 GT PUSH1 0x1 EQ PUSH2 0xF59 JUMPI DUP1 SWAP2 SWAP3 SWAP4 PUSH1 0x0 SWAP2 PUSH2 0xF4D JUMPI JUMPDEST POP DUP2 PUSH1 0x1 SHL SWAP2 PUSH1 0x0 NOT SWAP1 PUSH1 0x3 SHL SHR NOT AND OR SWAP1 SSTORE JUMP JUMPDEST SWAP1 POP PUSH1 0x9 ADD SLOAD CODESIZE PUSH2 0xF38 JUMP JUMPDEST DUP2 DUP5 MSTORE PUSH1 0x20 DUP1 DUP6 KECCAK256 PUSH1 0x1F NOT DUP4 AND SWAP6 SWAP1 SWAP2 DUP2 SWAP1 JUMPDEST DUP8 DUP3 LT PUSH2 0xFC3 JUMPI POP POP DUP3 PUSH1 0x1 SWAP5 SWAP6 SWAP7 LT PUSH2 0xF8A JUMPI JUMPDEST POP POP DUP2 SHL ADD SWAP1 SSTORE JUMP JUMPDEST PUSH32 0x6E1540171B6C0C960B71A7020D9F60077F6AF931A8BBF590DA0223DACF75C7AF ADD SLOAD PUSH1 0x0 NOT PUSH1 0xF8 DUP5 PUSH1 0x3 SHL AND SHR NOT AND SWAP1 SSTORE CODESIZE DUP1 PUSH2 0xF81 JUMP JUMPDEST DUP3 SWAP4 DUP2 SWAP3 SWAP4 PUSH32 0x6E1540171B6C0C960B71A7020D9F60077F6AF931A8BBF590DA0223DACF75C7AF ADD SLOAD DUP2 SSTORE PUSH1 0x1 DUP1 SWAP2 ADD SWAP5 ADD SWAP3 ADD SWAP1 PUSH2 0xF6C JUMP JUMPDEST PUSH2 0x1029 SWAP1 DUP3 PUSH1 0x0 MSTORE PUSH1 0x20 PUSH1 0x0 KECCAK256 PUSH1 0x1F DUP7 ADD PUSH1 0x5 SHR DUP2 ADD SWAP2 PUSH1 0x20 DUP8 LT PUSH2 0x102F JUMPI JUMPDEST PUSH1 0x1F ADD PUSH1 0x5 SHR ADD SWAP1 PUSH2 0xECF JUMP JUMPDEST CODESIZE PUSH2 0xF1D JUMP JUMPDEST SWAP1 SWAP2 POP DUP2 SWAP1 PUSH2 0x101C JUMP JUMPDEST SWAP1 POP JUMP JUMPDEST PUSH2 0x1048 DUP4 DUP4 DUP4 PUSH2 0xCFA JUMP JUMPDEST DUP2 EXTCODESIZE PUSH2 0x1055 JUMPI JUMPDEST POP POP POP POP JUMP JUMPDEST PUSH1 0x1 PUSH1 0x1 PUSH1 0xA0 SHL SUB SWAP5 SWAP2 SWAP3 SWAP4 SWAP5 DUP1 SWAP4 AND SWAP4 PUSH1 0x40 MLOAD SWAP4 PUSH32 0x150B7A0200000000000000000000000000000000000000000000000000000000 SWAP3 DUP4 DUP7 MSTORE CALLER PUSH1 0x4 DUP8 ADD MSTORE AND PUSH1 0x24 DUP6 ADD MSTORE PUSH1 0x44 DUP5 ADD MSTORE PUSH1 0x80 PUSH1 0x64 DUP5 ADD MSTORE DUP3 PUSH2 0x10B8 PUSH1 0x20 SWAP7 PUSH1 0x84 DUP4 ADD SWAP1 PUSH2 0xBC6 JUMP JUMPDEST SUB SWAP3 DUP6 DUP2 PUSH1 0x0 SWAP6 DUP2 DUP8 DUP10 GAS CALL DUP5 SWAP2 DUP2 PUSH2 0x117A JUMPI JUMPDEST POP PUSH2 0x112B JUMPI POP POP POP RETURNDATASIZE PUSH1 0x0 EQ PUSH2 0x1123 JUMPI RETURNDATASIZE PUSH2 0x10E6 DUP2 PUSH2 0xCA4 JUMP JUMPDEST SWAP1 PUSH2 0x10F4 PUSH1 0x40 MLOAD SWAP3 DUP4 PUSH2 0xC6C JUMP JUMPDEST DUP2 MSTORE DUP1 SWAP2 DUP5 RETURNDATASIZE SWAP3 ADD RETURNDATACOPY JUMPDEST DUP1 MLOAD SWAP3 DUP4 PUSH2 0x111E JUMPI PUSH1 0x24 DUP4 PUSH1 0x40 MLOAD SWAP1 PUSH4 0x32505749 PUSH1 0xE1 SHL DUP3 MSTORE PUSH1 0x4 DUP3 ADD MSTORE REVERT JUMPDEST ADD SWAP1 POP REVERT JUMPDEST POP PUSH1 0x60 PUSH2 0x10FE JUMP JUMPDEST SWAP1 SWAP3 POP PUSH32 0xFFFFFFFF00000000000000000000000000000000000000000000000000000000 SWAP2 SWAP5 POP AND SUB PUSH2 0x1162 JUMPI POP CODESIZE DUP1 DUP1 DUP1 PUSH2 0x104F JUMP JUMPDEST PUSH1 0x24 SWAP1 PUSH1 0x40 MLOAD SWAP1 PUSH4 0x32505749 PUSH1 0xE1 SHL DUP3 MSTORE PUSH1 0x4 DUP3 ADD MSTORE REVERT JUMPDEST SWAP1 SWAP2 POP DUP7 DUP2 DUP2 RETURNDATASIZE DUP4 GT PUSH2 0x11CB JUMPI JUMPDEST PUSH2 0x1192 DUP2 DUP4 PUSH2 0xC6C JUMP JUMPDEST DUP2 ADD SUB SLT PUSH2 0x429 JUMPI MLOAD PUSH32 0xFFFFFFFF00000000000000000000000000000000000000000000000000000000 DUP2 AND DUP2 SUB PUSH2 0x429 JUMPI SWAP1 CODESIZE PUSH2 0x10CC JUMP JUMPDEST POP RETURNDATASIZE PUSH2 0x1188 JUMP JUMPDEST DUP1 PUSH1 0x0 MSTORE PUSH1 0x2 PUSH1 0x20 MSTORE PUSH1 0x1 PUSH1 0x1 PUSH1 0xA0 SHL SUB PUSH1 0x40 PUSH1 0x0 KECCAK256 SLOAD AND SWAP1 DUP2 ISZERO PUSH2 0x11F5 JUMPI POP SWAP1 JUMP JUMPDEST PUSH1 0x24 SWAP1 PUSH1 0x40 MLOAD SWAP1 PUSH4 0x7E273289 PUSH1 0xE0 SHL DUP3 MSTORE PUSH1 0x4 DUP3 ADD MSTORE REVERT JUMPDEST PUSH1 0x1 PUSH1 0x1 PUSH1 0xA0 SHL SUB PUSH1 0x6 SLOAD AND CALLER SUB PUSH2 0x1221 JUMPI JUMP JUMPDEST PUSH1 0x24 PUSH1 0x40 MLOAD PUSH32 0x118CDAA700000000000000000000000000000000000000000000000000000000 DUP2 MSTORE CALLER PUSH1 0x4 DUP3 ADD MSTORE REVERT INVALID LOG2 PUSH5 0x6970667358 0x22 SLT KECCAK256 0xB8 PUSH0 SWAP1 0xF7 BLOBHASH KECCAK256 0xF7 MUL PUSH2 0xE60F 0xD5 0x24 0xB5 0x1E 0xDF AND 0x22 0xB9 DUP4 KECCAK256 DUP10 0x26 0xB4 COINBASE LOG3 LOG2 0xAC LOG2 PUSH22 0xA44464736F6C63430008180033A26469706673582212 KECCAK256 CALLER SLT JUMP DELEGATECALL MSTORE8 0x4D KECCAK256 0xEC ADDRESS 0xA5 DUP4 0xB6 EXTCODESIZE 0xB4 PUSH16 0x3D6C3AAC3C1E7AD60F89256620548A0D CALLCODE PUSH5 0x736F6C6343 STOP ADDMOD XOR STOP CALLER PUSH1 0x80 CALLVALUE PUSH2 0xBB JUMPI PUSH1 0x1F PUSH2 0x62B CODESIZE DUP2 SWAP1 SUB SWAP2 DUP3 ADD PUSH1 0x1F NOT AND DUP4 ADD SWAP2 PUSH1 0x1 PUSH1 0x1 PUSH1 0x40 SHL SUB DUP4 GT DUP5 DUP5 LT OR PUSH2 0xC0 JUMPI DUP1 DUP5 SWAP3 PUSH1 0x20 SWAP5 PUSH1 0x40 MSTORE DUP4 CODECOPY DUP2 ADD SUB SLT PUSH2 0xBB JUMPI MLOAD PUSH1 0x1 PUSH1 0x1 PUSH1 0xA0 SHL SUB SWAP1 DUP2 DUP2 AND SWAP1 DUP2 SWAP1 SUB PUSH2 0xBB JUMPI DUP1 ISZERO PUSH2 0xA2 JUMPI PUSH1 0x0 DUP1 SLOAD PUSH1 0x1 PUSH1 0x1 PUSH1 0xA0 SHL SUB NOT DUP2 AND DUP4 OR DUP3 SSTORE PUSH1 0x40 MLOAD SWAP4 AND SWAP1 PUSH32 0x8BE0079C531659141344CD1FD0A4F28419497F9722A3DAAFE3B4186F6B6457E0 SWAP1 DUP1 LOG3 PUSH2 0x554 SWAP1 DUP2 PUSH2 0xD7 DUP3 CODECOPY RETURN JUMPDEST PUSH1 0x40 MLOAD PUSH4 0x1E4FBDF7 PUSH1 0xE0 SHL DUP2 MSTORE PUSH1 0x0 PUSH1 0x4 DUP3 ADD MSTORE PUSH1 0x24 SWAP1 REVERT JUMPDEST PUSH1 0x0 DUP1 REVERT JUMPDEST PUSH4 0x4E487B71 PUSH1 0xE0 SHL PUSH1 0x0 MSTORE PUSH1 0x41 PUSH1 0x4 MSTORE PUSH1 0x24 PUSH1 0x0 REVERT INVALID PUSH1 0x80 PUSH1 0x40 DUP2 DUP2 MSTORE PUSH1 0x4 DUP1 CALLDATASIZE LT ISZERO PUSH2 0x15 JUMPI PUSH1 0x0 DUP1 REVERT JUMPDEST PUSH1 0x0 SWAP3 DUP4 CALLDATALOAD PUSH1 0xE0 SHR SWAP1 DUP2 PUSH4 0x241B71BB EQ PUSH2 0x48D JUMPI POP DUP1 PUSH4 0x3B52301D EQ PUSH2 0x3ED JUMPI DUP1 PUSH4 0x70DED48A EQ PUSH2 0x3C4 JUMPI DUP1 PUSH4 0x715018A6 EQ PUSH2 0x35E JUMPI DUP1 PUSH4 0x8DA5CB5B EQ PUSH2 0x334 JUMPI DUP1 PUSH4 0x98097581 EQ PUSH2 0x24E JUMPI DUP1 PUSH4 0xDD0B281E EQ PUSH2 0x12A JUMPI PUSH4 0xF2FDE38B EQ PUSH2 0x7B JUMPI PUSH1 0x0 DUP1 REVERT JUMPDEST CALLVALUE PUSH2 0x126 JUMPI PUSH1 0x20 CALLDATASIZE PUSH1 0x3 NOT ADD SLT PUSH2 0x126 JUMPI PUSH2 0x94 PUSH2 0x4BF JUMP JUMPDEST SWAP1 PUSH2 0x9D PUSH2 0x4DA JUMP JUMPDEST PUSH1 0x1 PUSH1 0x1 PUSH1 0xA0 SHL SUB DUP1 SWAP3 AND SWAP3 DUP4 ISZERO PUSH2 0xF7 JUMPI POP POP DUP3 SLOAD DUP3 PUSH20 0xFFFFFFFFFFFFFFFFFFFFFFFFFFFFFFFFFFFFFFFF NOT DUP3 AND OR DUP5 SSTORE AND PUSH32 0x8BE0079C531659141344CD1FD0A4F28419497F9722A3DAAFE3B4186F6B6457E0 DUP4 DUP1 LOG3 DUP1 RETURN JUMPDEST SWAP1 DUP5 PUSH1 0x24 SWAP3 MLOAD SWAP2 PUSH32 0x1E4FBDF700000000000000000000000000000000000000000000000000000000 DUP4 MSTORE DUP3 ADD MSTORE REVERT JUMPDEST DUP3 DUP1 REVERT JUMPDEST POP SWAP2 CALLVALUE PUSH2 0x24B JUMPI PUSH1 0x20 CALLDATASIZE PUSH1 0x3 NOT ADD SLT PUSH2 0x24B JUMPI PUSH2 0x145 PUSH2 0x4BF JUMP JUMPDEST PUSH2 0x14D PUSH2 0x4DA JUMP JUMPDEST DUP3 MLOAD PUSH8 0xFFFFFFFFFFFFFFFF SWAP4 PUSH1 0x60 DUP3 ADD DUP6 DUP2 GT DUP4 DUP3 LT OR PUSH2 0x238 JUMPI DUP2 MSTORE PUSH1 0x1 PUSH1 0x1 PUSH1 0xA0 SHL SUB DUP1 SWAP4 AND SWAP3 DUP4 DUP4 MSTORE PUSH1 0x20 DUP4 ADD SWAP2 DUP6 DUP4 MSTORE DUP1 DUP5 ADD SWAP5 DUP7 DUP7 MSTORE DUP2 MLOAD PUSH1 0x20 DUP2 ADD SWAP2 PUSH32 0xEEEEEEEEEEEEEEEEEEEEEEEEEEEEEEEEEEEEEEEE000000000000000000000000 DUP4 MSTORE DUP4 DUP3 ADD MSTORE TIMESTAMP PUSH1 0x60 DUP3 ADD MSTORE PUSH1 0x60 DUP2 MSTORE PUSH1 0x80 DUP2 ADD SWAP9 DUP2 DUP11 LT SWAP1 DUP11 GT OR PUSH2 0x225 JUMPI PUSH1 0x20 SWAP10 POP SWAP1 DUP3 SWAP2 DUP10 PUSH1 0x2 SWAP8 SWAP7 SWAP6 SWAP5 MSTORE MLOAD SWAP1 KECCAK256 SWAP7 DUP8 DUP2 MSTORE PUSH1 0x1 DUP11 MSTORE KECCAK256 SWAP3 MLOAD AND PUSH20 0xFFFFFFFFFFFFFFFFFFFFFFFFFFFFFFFFFFFFFFFF NOT DUP4 SLOAD AND OR DUP3 SSTORE MLOAD PUSH1 0x1 DUP3 ADD SSTORE ADD SWAP1 MLOAD ISZERO ISZERO PUSH1 0xFF DUP1 NOT DUP4 SLOAD AND SWAP2 AND OR SWAP1 SSTORE DUP2 MSTORE RETURN JUMPDEST PUSH1 0x24 DUP9 PUSH1 0x41 DUP13 PUSH4 0x4E487B71 PUSH1 0xE0 SHL DUP4 MSTORE MSTORE REVERT JUMPDEST PUSH1 0x24 DUP6 PUSH1 0x41 DUP10 PUSH4 0x4E487B71 PUSH1 0xE0 SHL DUP4 MSTORE MSTORE REVERT JUMPDEST DUP1 REVERT JUMPDEST POP SWAP1 CALLVALUE PUSH2 0x126 JUMPI DUP1 PUSH1 0x3 NOT CALLDATASIZE ADD SLT PUSH2 0x126 JUMPI PUSH2 0x268 PUSH2 0x4BF JUMP JUMPDEST PUSH2 0x270 PUSH2 0x4DA JUMP JUMPDEST PUSH1 0x24 CALLDATALOAD DUP5 MSTORE PUSH1 0x1 PUSH1 0x20 MSTORE DUP2 DUP5 KECCAK256 SWAP1 PUSH1 0x1 PUSH1 0x1 PUSH1 0xA0 SHL SUB DUP1 DUP4 SLOAD AND SWAP2 AND SUB PUSH2 0x2F1 JUMPI PUSH1 0x2 ADD SWAP2 DUP3 SLOAD SWAP2 PUSH1 0xFF DUP4 AND PUSH2 0x2AE JUMPI POP POP PUSH1 0xFF NOT AND PUSH1 0x1 OR SWAP1 SSTORE DUP1 RETURN JUMPDEST SWAP1 PUSH1 0x20 PUSH1 0x64 SWAP3 MLOAD SWAP2 PUSH3 0x461BCD PUSH1 0xE5 SHL DUP4 MSTORE DUP3 ADD MSTORE PUSH1 0x1B PUSH1 0x24 DUP3 ADD MSTORE PUSH32 0x446174612E5469702077617320616C7265616479207061757365640000000000 PUSH1 0x44 DUP3 ADD MSTORE REVERT JUMPDEST PUSH1 0x64 DUP4 PUSH1 0x20 DUP5 MLOAD SWAP2 PUSH3 0x461BCD PUSH1 0xE5 SHL DUP4 MSTORE DUP3 ADD MSTORE PUSH1 0x9 PUSH1 0x24 DUP3 ADD MSTORE PUSH32 0x4E6F74206F776E65720000000000000000000000000000000000000000000000 PUSH1 0x44 DUP3 ADD MSTORE REVERT JUMPDEST POP POP CALLVALUE PUSH2 0x35A JUMPI DUP2 PUSH1 0x3 NOT CALLDATASIZE ADD SLT PUSH2 0x35A JUMPI PUSH1 0x1 PUSH1 0x1 PUSH1 0xA0 SHL SUB PUSH1 0x20 SWAP3 SLOAD AND SWAP1 MLOAD SWAP1 DUP2 MSTORE RETURN JUMPDEST POP DUP1 REVERT JUMPDEST DUP4 CALLVALUE PUSH2 0x24B JUMPI DUP1 PUSH1 0x3 NOT CALLDATASIZE ADD SLT PUSH2 0x24B JUMPI PUSH2 0x377 PUSH2 0x4DA JUMP JUMPDEST DUP1 PUSH1 0x1 PUSH1 0x1 PUSH1 0xA0 SHL SUB DUP2 SLOAD PUSH20 0xFFFFFFFFFFFFFFFFFFFFFFFFFFFFFFFFFFFFFFFF NOT DUP2 AND DUP4 SSTORE AND PUSH32 0x8BE0079C531659141344CD1FD0A4F28419497F9722A3DAAFE3B4186F6B6457E0 DUP3 DUP1 LOG3 DUP1 RETURN JUMPDEST POP CALLVALUE PUSH2 0x126 JUMPI PUSH1 0x20 CALLDATASIZE PUSH1 0x3 NOT ADD SLT PUSH2 0x126 JUMPI DUP2 PUSH1 0x20 SWAP4 PUSH1 0x1 SWAP3 CALLDATALOAD DUP2 MSTORE DUP3 DUP6 MSTORE KECCAK256 ADD SLOAD SWAP1 MLOAD SWAP1 DUP2 MSTORE RETURN JUMPDEST POP SWAP1 CALLVALUE PUSH2 0x126 JUMPI DUP1 PUSH1 0x3 NOT CALLDATASIZE ADD SLT PUSH2 0x126 JUMPI PUSH2 0x407 PUSH2 0x4DA JUMP JUMPDEST DUP2 CALLDATALOAD DUP4 MSTORE PUSH1 0x1 PUSH1 0x20 MSTORE DUP1 DUP4 KECCAK256 SWAP1 PUSH1 0xFF PUSH1 0x2 DUP4 ADD SLOAD AND PUSH2 0x44B JUMPI POP PUSH1 0x1 ADD DUP1 SLOAD SWAP2 PUSH1 0x24 CALLDATALOAD DUP4 ADD DUP1 SWAP4 GT PUSH2 0x438 JUMPI POP SSTORE DUP1 RETURN JUMPDEST DUP4 PUSH1 0x11 PUSH1 0x24 SWAP3 PUSH4 0x4E487B71 PUSH1 0xE0 SHL DUP4 MSTORE MSTORE REVERT JUMPDEST MLOAD PUSH3 0x461BCD PUSH1 0xE5 SHL DUP2 MSTORE PUSH1 0x20 DUP2 DUP5 ADD MSTORE PUSH1 0x12 PUSH1 0x24 DUP3 ADD MSTORE PUSH32 0x446174612E546970206973207061757365640000000000000000000000000000 PUSH1 0x44 DUP3 ADD MSTORE PUSH1 0x64 SWAP1 REVERT JUMPDEST SWAP3 SWAP2 SWAP1 POP CALLVALUE PUSH2 0x4BB JUMPI PUSH1 0x20 CALLDATASIZE PUSH1 0x3 NOT ADD SLT PUSH2 0x4BB JUMPI CALLDATALOAD DUP4 MSTORE PUSH1 0x1 PUSH1 0x20 SWAP1 DUP2 MSTORE SWAP3 KECCAK256 PUSH1 0x2 ADD SLOAD PUSH1 0xFF AND ISZERO ISZERO DUP2 MSTORE RETURN JUMPDEST DUP4 DUP1 REVERT JUMPDEST PUSH1 0x4 CALLDATALOAD SWAP1 PUSH1 0x1 PUSH1 0x1 PUSH1 0xA0 SHL SUB DUP3 AND DUP3 SUB PUSH2 0x4D5 JUMPI JUMP JUMPDEST PUSH1 0x0 DUP1 REVERT JUMPDEST PUSH1 0x1 PUSH1 0x1 PUSH1 0xA0 SHL SUB PUSH1 0x0 SLOAD AND CALLER SUB PUSH2 0x4EE JUMPI JUMP JUMPDEST PUSH1 0x24 PUSH1 0x40 MLOAD PUSH32 0x118CDAA700000000000000000000000000000000000000000000000000000000 DUP2 MSTORE CALLER PUSH1 0x4 DUP3 ADD MSTORE REVERT INVALID LOG2 PUSH5 0x6970667358 0x22 SLT KECCAK256 0x2B 0xEE DUP10 CALLDATASIZE PUSH1 0x49 0xAA SWAP11 0x26 CALLDATASIZE TSTORE 0x26 0xE2 LT 0xB2 CODECOPY PC SWAP9 SWAP6 STOP PUSH18 0xDECF7EB97CBEEDC85AB30D64736F6C634300 ADDMOD XOR STOP CALLER "
        },
        "methodIdentifiers": {
          "DEFAULT_ADMIN_ROLE()": "a217fddf",
          "claimAll()": "d1058e59",
          "claimTfuel(uint256)": "eb1dbbdd",
          "claimThurbe(uint256)": "dbb779ed",
          "create(string,string,string,uint256,string)": "dcc1616d",
          "getCardId(address,bool)": "47a6ef08",
          "getRoleAdmin(bytes32)": "248a9ca3",
          "getStream(bytes32)": "1290abe8",
          "getStreamer(address)": "cd7f8591",
          "getVideo(bytes32)": "636a5d23",
          "grantRole(bytes32,address)": "2f2ff15d",
          "hasRole(bytes32,address)": "91d14854",
          "mintCard(address,address,bool)": "b53230f4",
          "pause()": "8456cb59",
          "pauseTip(bytes32)": "9ef287a4",
          "paused()": "5c975abb",
          "renounceRole(bytes32,address)": "36568abe",
          "revokeRole(bytes32,address)": "d547741f",
          "startStream(bytes32,bool,bool)": "7756cd58",
          "supportsInterface(bytes4)": "01ffc9a7",
          "tipStream(bytes32,uint256)": "55cb9b5c",
          "tipVideo(bytes32,uint256)": "c497eebb",
          "unPause()": "f7b188a5",
          "uploadVideo(bytes32,bool,bool)": "7253c4db"
        }
      }
    }
  }
}