{
  "_format": "hh-sol-artifact-1",
  "contractName": "Thurbe",
  "sourceName": "contracts/Thurbe.sol",
  "abi": [
    {
      "inputs": [
        {
          "internalType": "address",
          "name": "thurbeToken",
          "type": "address"
        }
      ],
      "stateMutability": "nonpayable",
      "type": "constructor"
    },
    {
      "inputs": [],
      "name": "AccessControlBadConfirmation",
      "type": "error"
    },
    {
      "inputs": [
        {
          "internalType": "address",
          "name": "account",
          "type": "address"
        },
        {
          "internalType": "bytes32",
          "name": "neededRole",
          "type": "bytes32"
        }
      ],
      "name": "AccessControlUnauthorizedAccount",
      "type": "error"
    },
    {
      "inputs": [],
      "name": "EnforcedPause",
      "type": "error"
    },
    {
      "inputs": [],
      "name": "ExpectedPause",
      "type": "error"
    },
    {
      "anonymous": false,
      "inputs": [
        {
          "indexed": false,
          "internalType": "address",
          "name": "streamer",
          "type": "address"
        },
        {
          "indexed": false,
          "internalType": "uint256",
          "name": "amount",
          "type": "uint256"
        }
      ],
      "name": "ClaimedTfuel",
      "type": "event"
    },
    {
      "anonymous": false,
      "inputs": [
        {
          "indexed": false,
          "internalType": "address",
          "name": "streamer",
          "type": "address"
        },
        {
          "indexed": false,
          "internalType": "uint256",
          "name": "amount",
          "type": "uint256"
        }
      ],
      "name": "ClaimedThurbe",
      "type": "event"
    },
    {
      "anonymous": false,
      "inputs": [
        {
          "indexed": false,
          "internalType": "address",
          "name": "account",
          "type": "address"
        }
      ],
      "name": "Paused",
      "type": "event"
    },
    {
      "anonymous": false,
      "inputs": [
        {
          "indexed": true,
          "internalType": "bytes32",
          "name": "role",
          "type": "bytes32"
        },
        {
          "indexed": true,
          "internalType": "bytes32",
          "name": "previousAdminRole",
          "type": "bytes32"
        },
        {
          "indexed": true,
          "internalType": "bytes32",
          "name": "newAdminRole",
          "type": "bytes32"
        }
      ],
      "name": "RoleAdminChanged",
      "type": "event"
    },
    {
      "anonymous": false,
      "inputs": [
        {
          "indexed": true,
          "internalType": "bytes32",
          "name": "role",
          "type": "bytes32"
        },
        {
          "indexed": true,
          "internalType": "address",
          "name": "account",
          "type": "address"
        },
        {
          "indexed": true,
          "internalType": "address",
          "name": "sender",
          "type": "address"
        }
      ],
      "name": "RoleGranted",
      "type": "event"
    },
    {
      "anonymous": false,
      "inputs": [
        {
          "indexed": true,
          "internalType": "bytes32",
          "name": "role",
          "type": "bytes32"
        },
        {
          "indexed": true,
          "internalType": "address",
          "name": "account",
          "type": "address"
        },
        {
          "indexed": true,
          "internalType": "address",
          "name": "sender",
          "type": "address"
        }
      ],
      "name": "RoleRevoked",
      "type": "event"
    },
    {
      "anonymous": false,
      "inputs": [
        {
          "indexed": false,
          "internalType": "address",
          "name": "streamer",
          "type": "address"
        },
        {
          "indexed": false,
          "internalType": "address",
          "name": "cardId",
          "type": "address"
        }
      ],
      "name": "StreamCreated",
      "type": "event"
    },
    {
      "anonymous": false,
      "inputs": [
        {
          "indexed": false,
          "internalType": "bytes32",
          "name": "streamId",
          "type": "bytes32"
        }
      ],
      "name": "StreamEnded",
      "type": "event"
    },
    {
      "anonymous": false,
      "inputs": [
        {
          "indexed": false,
          "internalType": "bytes32",
          "name": "streamId",
          "type": "bytes32"
        }
      ],
      "name": "StreamPaused",
      "type": "event"
    },
    {
      "anonymous": false,
      "inputs": [
        {
          "indexed": false,
          "internalType": "bytes32",
          "name": "streamId",
          "type": "bytes32"
        }
      ],
      "name": "StreamResumed",
      "type": "event"
    },
    {
      "anonymous": false,
      "inputs": [
        {
          "indexed": false,
          "internalType": "bytes32",
          "name": "streamId",
          "type": "bytes32"
        }
      ],
      "name": "StreamTipClaimed",
      "type": "event"
    },
    {
      "anonymous": false,
      "inputs": [
        {
          "indexed": false,
          "internalType": "bytes32",
          "name": "streamId",
          "type": "bytes32"
        },
        {
          "indexed": false,
          "internalType": "bytes32",
          "name": "tipId",
          "type": "bytes32"
        }
      ],
      "name": "StreamTipEnded",
      "type": "event"
    },
    {
      "anonymous": false,
      "inputs": [
        {
          "indexed": false,
          "internalType": "address",
          "name": "streamer",
          "type": "address"
        }
      ],
      "name": "StreamerCreated",
      "type": "event"
    },
    {
      "anonymous": false,
      "inputs": [
        {
          "indexed": false,
          "internalType": "bytes32",
          "name": "streamId",
          "type": "bytes32"
        },
        {
          "indexed": false,
          "internalType": "bytes32",
          "name": "tipId",
          "type": "bytes32"
        }
      ],
      "name": "TipCreated",
      "type": "event"
    },
    {
      "anonymous": false,
      "inputs": [
        {
          "indexed": false,
          "internalType": "bytes32",
          "name": "streamId",
          "type": "bytes32"
        },
        {
          "indexed": false,
          "internalType": "address",
          "name": "viewer",
          "type": "address"
        },
        {
          "indexed": false,
          "internalType": "uint256",
          "name": "amount",
          "type": "uint256"
        }
      ],
      "name": "Tipped",
      "type": "event"
    },
    {
      "anonymous": false,
      "inputs": [
        {
          "indexed": false,
          "internalType": "address",
          "name": "account",
          "type": "address"
        }
      ],
      "name": "Unpaused",
      "type": "event"
    },
    {
      "anonymous": false,
      "inputs": [
        {
          "indexed": false,
          "internalType": "address",
          "name": "streamer",
          "type": "address"
        },
        {
          "indexed": false,
          "internalType": "address",
          "name": "cardId",
          "type": "address"
        }
      ],
      "name": "VideoCreated",
      "type": "event"
    },
    {
      "inputs": [],
      "name": "DEFAULT_ADMIN_ROLE",
      "outputs": [
        {
          "internalType": "bytes32",
          "name": "",
          "type": "bytes32"
        }
      ],
      "stateMutability": "view",
      "type": "function"
    },
    {
      "inputs": [
        {
          "internalType": "uint256",
          "name": "amount",
          "type": "uint256"
        }
      ],
      "name": "claimEarnigs",
      "outputs": [],
      "stateMutability": "nonpayable",
      "type": "function"
    },
    {
      "inputs": [
        {
          "internalType": "uint256",
          "name": "amount",
          "type": "uint256"
        }
      ],
      "name": "claimTips",
      "outputs": [],
      "stateMutability": "nonpayable",
      "type": "function"
    },
    {
      "inputs": [
        {
          "internalType": "string",
          "name": "cardBaseURI",
          "type": "string"
        },
        {
          "internalType": "string",
          "name": "name",
          "type": "string"
        },
        {
          "internalType": "string",
          "name": "symbol",
          "type": "string"
        },
        {
          "internalType": "uint256",
          "name": "mintPrice",
          "type": "uint256"
        },
        {
          "internalType": "string",
          "name": "cardExlusiveBaseURI",
          "type": "string"
        }
      ],
      "name": "create",
      "outputs": [],
      "stateMutability": "nonpayable",
      "type": "function"
    },
    {
      "inputs": [
        {
          "internalType": "bytes32",
          "name": "streamId",
          "type": "bytes32"
        }
      ],
      "name": "endStream",
      "outputs": [],
      "stateMutability": "nonpayable",
      "type": "function"
    },
    {
      "inputs": [
        {
          "internalType": "address",
          "name": "streamer",
          "type": "address"
        },
        {
          "internalType": "bool",
          "name": "exclusive",
          "type": "bool"
        }
      ],
      "name": "getCardId",
      "outputs": [
        {
          "internalType": "address",
          "name": "",
          "type": "address"
        }
      ],
      "stateMutability": "view",
      "type": "function"
    },
    {
      "inputs": [
        {
          "internalType": "bytes32",
          "name": "role",
          "type": "bytes32"
        }
      ],
      "name": "getRoleAdmin",
      "outputs": [
        {
          "internalType": "bytes32",
          "name": "",
          "type": "bytes32"
        }
      ],
      "stateMutability": "view",
      "type": "function"
    },
    {
      "inputs": [
        {
          "internalType": "bytes32",
          "name": "role",
          "type": "bytes32"
        },
        {
          "internalType": "address",
          "name": "account",
          "type": "address"
        }
      ],
      "name": "grantRole",
      "outputs": [],
      "stateMutability": "nonpayable",
      "type": "function"
    },
    {
      "inputs": [
        {
          "internalType": "bytes32",
          "name": "role",
          "type": "bytes32"
        },
        {
          "internalType": "address",
          "name": "account",
          "type": "address"
        }
      ],
      "name": "hasRole",
      "outputs": [
        {
          "internalType": "bool",
          "name": "",
          "type": "bool"
        }
      ],
      "stateMutability": "view",
      "type": "function"
    },
    {
      "inputs": [
        {
          "internalType": "address",
          "name": "streamer",
          "type": "address"
        },
        {
          "internalType": "address",
          "name": "to",
          "type": "address"
        },
        {
          "internalType": "bool",
          "name": "exclusive",
          "type": "bool"
        }
      ],
      "name": "mintCard",
      "outputs": [],
      "stateMutability": "payable",
      "type": "function"
    },
    {
      "inputs": [],
      "name": "pause",
      "outputs": [],
      "stateMutability": "nonpayable",
      "type": "function"
    },
    {
      "inputs": [
        {
          "internalType": "bytes32",
          "name": "streamId",
          "type": "bytes32"
        }
      ],
      "name": "pauseTip",
      "outputs": [],
      "stateMutability": "nonpayable",
      "type": "function"
    },
    {
      "inputs": [],
      "name": "paused",
      "outputs": [
        {
          "internalType": "bool",
          "name": "",
          "type": "bool"
        }
      ],
      "stateMutability": "view",
      "type": "function"
    },
    {
      "inputs": [
        {
          "internalType": "bytes32",
          "name": "role",
          "type": "bytes32"
        },
        {
          "internalType": "address",
          "name": "callerConfirmation",
          "type": "address"
        }
      ],
      "name": "renounceRole",
      "outputs": [],
      "stateMutability": "nonpayable",
      "type": "function"
    },
    {
      "inputs": [
        {
          "internalType": "bytes32",
          "name": "role",
          "type": "bytes32"
        },
        {
          "internalType": "address",
          "name": "account",
          "type": "address"
        }
      ],
      "name": "revokeRole",
      "outputs": [],
      "stateMutability": "nonpayable",
      "type": "function"
    },
    {
      "inputs": [
        {
          "internalType": "bytes32",
          "name": "streamId",
          "type": "bytes32"
        },
        {
          "internalType": "bool",
          "name": "exclusive",
          "type": "bool"
        },
        {
          "internalType": "bool",
          "name": "tips",
          "type": "bool"
        }
      ],
      "name": "startStream",
      "outputs": [],
      "stateMutability": "nonpayable",
      "type": "function"
    },
    {
      "inputs": [
        {
          "internalType": "bytes4",
          "name": "interfaceId",
          "type": "bytes4"
        }
      ],
      "name": "supportsInterface",
      "outputs": [
        {
          "internalType": "bool",
          "name": "",
          "type": "bool"
        }
      ],
      "stateMutability": "view",
      "type": "function"
    },
    {
      "inputs": [
        {
          "internalType": "bytes32",
          "name": "streamId",
          "type": "bytes32"
        },
        {
          "internalType": "uint256",
          "name": "amount",
          "type": "uint256"
        }
      ],
      "name": "tipStream",
      "outputs": [],
      "stateMutability": "nonpayable",
      "type": "function"
    },
    {
      "inputs": [
        {
          "internalType": "bytes32",
          "name": "videoId",
          "type": "bytes32"
        },
        {
          "internalType": "uint256",
          "name": "amount",
          "type": "uint256"
        }
      ],
      "name": "tipVideo",
      "outputs": [],
      "stateMutability": "nonpayable",
      "type": "function"
    },
    {
      "inputs": [],
      "name": "unPause",
      "outputs": [],
      "stateMutability": "nonpayable",
      "type": "function"
    },
    {
      "inputs": [
        {
          "internalType": "bytes32",
          "name": "videoId",
          "type": "bytes32"
        },
        {
          "internalType": "bool",
          "name": "exclusive",
          "type": "bool"
        },
        {
          "internalType": "bool",
          "name": "tips",
          "type": "bool"
        }
      ],
      "name": "uploadVideo",
      "outputs": [],
      "stateMutability": "nonpayable",
      "type": "function"
    }
  ],
  "bytecode": "0x6080346200016457601f62005c3238819003918201601f19168301926001600160401b03929091838511838610176200014e5781602092849260409788528339810103126200016457516001600160a01b038082169291839003620001645760ff19600154166001558351916137c49283810193818510838611176200014e5762001e43823930845260208160009503019084f08015620001445760018054610100600160a81b03191660089290921b610100600160a81b031691909117905584519061062b808301918211838310176200013057602091839162005607833930815203019083f091821562000125575060018060a01b031991168160025416176002556200010e3362000169565b50600654161760065551611c489081620001fb8239f35b8451903d90823e3d90fd5b634e487b7160e01b85526041600452602485fd5b85513d85823e3d90fd5b634e487b7160e01b600052604160045260246000fd5b600080fd5b6001600160a01b031660008181527fad3228b676f7d3cd4284a5443f17f1962b36e491b30a40b2405849e597ba5fb5602052604081205490919060ff16620001f657818052816020526040822081835260205260408220600160ff1982541617905533917f2f8788117e7eff1d82e926ec794901d17c78024a50270940304540a733656f0d8180a4600190565b509056fe6080604081815260048036101561001557600080fd5b600092833560e01c90816301ffc9a71461165b575080630c7daccf146115c457806313c21e3314611495578063248a9ca31461146c5780632f2ff15d1461144357806336568abe146113e357806347a6ef08146112d457806355cb9b5c146111295780635c975abb146111055780637253c4db14610eed5780637756cd5814610c6d5780638456cb5914610c1357806391d1485414610bce5780639ef287a414610ac4578063a217fddf14610aa9578063b53230f414610878578063c497eebb146106d4578063d547741f14610696578063dcc1616d1461042a578063f569faa21461018f5763f7b188a51461010a57600080fd5b3461018b578260031936011261018b576101226119b6565b6001549060ff821615610164575060ff1916600155513381527f5db9ee0a495bf2e6ff9c91a7834c1ba4fdd244a5e8aa4e537bd38aeae4b073aa90602090a180f35b82517f8dfc202b000000000000000000000000000000000000000000000000000000008152fd5b8280fd5b50903461018b57602090816003193601126102db578235906101af611980565b81855260038352808520936001600160a01b03903382875416036103e8576002860195865460ff8160a01c16156103a65760a81c60ff1661036457906001889392015491821515806102df575b61026d575b505050508375010000000000000000000000000000000000000000007fffffffffffffffffffff0000ffffffffffffffffffffffffffffffffffffffff7fa495dc2b6ff3d395ca942b7a0de72382800b242f3e91cca0da454957e51d316996541617905551908152a180f35b6002541691823b156102db578451639809758160e01b815233928101928352602083019190915291839183919082908490829060400103925af180156102d1576102b9575b8080610201565b6102c29061179a565b6102cd5784386102b2565b8480fd5b83513d84823e3d90fd5b8380fd5b5060248782600254168751928380927f241b71bb00000000000000000000000000000000000000000000000000000000825288888301525afa90811561035a57859161032d575b50156101fc565b61034d9150883d8a11610353575b61034581836117ca565b8101906118be565b38610326565b503d61033b565b86513d87823e3d90fd5b6064828786519162461bcd60e51b8352820152601960248201527f53747265616d2068617320616c726561647920656e6465642e000000000000006044820152fd5b6064838887519162461bcd60e51b8352820152601660248201527f53747265616d206973206e6f74206f6e676f696e672e000000000000000000006044820152fd5b6064908584519162461bcd60e51b8352820152600960248201527f4e6f74206f776e657200000000000000000000000000000000000000000000006044820152fd5b503461018b576003199160a0368401126102db5767ffffffffffffffff9282358481116106925761045e90369085016117ec565b928560243586811161068e5761047790369084016117ec565b9160443587811161018b5761048f90369083016117ec565b9660843590811161018b576104a790369083016117ec565b93338352602096600588528287852001546102db5786516104c781611768565b84815283898083018781528a8401888152606085019189835260056080870194428652338c52528c8a20955186555160018601555160028501555160038401555191015561055e886001600160a01b03926001548a888682518097819682957f97e68eb60000000000000000000000000000000000000000000000000000000084528d339085015260248401526044830190611940565b039360081c165af1801561068457926105ce9694926105f5928b999795610667575b5060015460081c16956105de8a519c8d998a9889977f032b1ff9000000000000000000000000000000000000000000000000000000008952339089015260a0602489015260a4880190611940565b9084878303016044880152611940565b916064356064860152848303016084850152611940565b03925af192831561065d577ffbb783f21f0b5e85632eb4c5b42c22d1208c89609fa8c42fd48ecf827cb9586493610630575b5051338152a180f35b61064f90833d8511610656575b61064781836117ca565b8101906118d6565b5038610627565b503d61063d565b81513d86823e3d90fd5b61067d908a3d8c116106565761064781836117ca565b5038610580565b88513d87823e3d90fd5b5080fd5b8580fd5b50903461018b578060031936011261018b576106d091356106cb60016106ba6116fa565b938387528660205286200154611a0e565b611ad3565b5080f35b50903461018b576106e436611726565b916106ed611980565b6001600160a01b03806006541694825180966323b872dd60e01b82526020978891818b8161073d8c30338b85016040919493929460608201956001600160a01b0380921683521660208201520152565b03925af1801561086e57610851575b5083875280865286838120845192610763846117ae565b84825416845261078960018301548660028c8801958387520154168887015215156118f5565b84600254169151823b156102db57604484928389519586948593633b52301d60e01b85528401528c60248401525af1801561084757610829575b50507f0151faccd240317074531046f03541fa6730271998b121127da727645d6a371d95610823939260059251168852526002818720016108058582546118b1565b90555191825233602083015260408201929092529081906060820190565b0390a180f35b6108359094939461179a565b6108435786389392936107c3565b8680fd5b85513d84823e3d90fd5b61086790873d89116103535761034581836117ca565b503861074c565b84513d8a823e3d90fd5b5090606036600319011261018b5761088e611710565b906108976116fa565b92604435938415158503610aa457859415610a43576001600160a01b0360208160015460081c1691602486518094819363f82568f960e01b83528a16888301525afa908115610a39578691610a1a575b50935b6001600160a01b039084517fa7f93ebd0000000000000000000000000000000000000000000000000000000081526020818681868b165afa908115610a105788916109da575b5034106108435781168652600560205283862061094e3482546118b1565b905560015460081c16803b156106925783517f3fd39fa10000000000000000000000000000000000000000000000000000000081526001600160a01b03958616938101938452949091166020830152849184919082908490829060400103925af19081156109d157506109be5750f35b6109c79061179a565b6109ce5780f35b80fd5b513d84823e3d90fd5b90506020813d602011610a08575b816109f5602093836117ca565b81010312610a04575138610930565b8780fd5b3d91506109e8565b86513d8a823e3d90fd5b610a33915060203d6020116106565761064781836117ca565b386108e7565b84513d88823e3d90fd5b6001600160a01b0360208160015460081c1691602486518094819363ceafb18d60e01b83528a16888301525afa908115610a39578691610a85575b50936108ea565b610a9e915060203d6020116106565761064781836117ca565b38610a7e565b600080fd5b50503461068e578160031936011261068e5751908152602090f35b50903461018b57602036600319011261018b5782823592610ae3611980565b8382526003602052828220908351610afa81611768565b610b466001600160a01b0391828554168152600185015490608060ff60026020840198858a5201548681168b850152818160a01c161515606085015260a81c16151591015215156118f5565b600254169151823b156102db578451639809758160e01b815233928101928352602083019190915291839183919082908490829060400103925af180156102d157610bba575b507fa2a74c5cb3c53c766fbc5dee93f5efb7537191362c474fe948c73eb8402cb5196020848451908152a180f35b610bc39061179a565b61018b578238610b8c565b503461018b578160031936011261018b576001600160a01b0382602094610bf36116fa565b93358152808652209116600052825260ff81600020541690519015158152f35b50503461068e578160031936011261068e5760207f62e78cea01bee320cd4e420270b5ea74000d11b0c9f74754ebdbfc544b05a25891610c516119b6565b610c59611980565b600160ff198154161760015551338152a180f35b50903461018b57610c7d3661173c565b919390610c88611980565b15610e9057602460206001600160a01b0360015460081c1685519283809263f82568f960e01b825233878301525afa908115610a39578691610e71575b505b6001600160a01b0391828216908115610e2e57509086929186845260036020528286852054166102db577fb6ec0c1de71a7d0de3b9c620825a32b99343a5b857aeb567152407c2fd7839249387610e059460028951610d2581611768565b338152602081018581528b8201968752838c60608401978089526080850197818952815260036020522092511673ffffffffffffffffffffffffffffffffffffffff19835416178255516001820155019351167fffffffffffffffffffff0000000000000000000000000000000000000000000075ff00000000000000000000000000000000000000000074ff000000000000000000000000000000000000000086549551151560a01b169351151560a81b1693161717179055845191829133839060209093929360408301946001600160a01b03809216845216910152565b0390a1610e10578280f35b600190610e1c83611b49565b92845260036020528320015538808280f35b606490602087519162461bcd60e51b8352820152601a60248201527f496e636c75736976652063617264206e6f7420637265617465640000000000006044820152fd5b610e8a915060203d6020116106565761064781836117ca565b38610cc5565b602460206001600160a01b0360015460081c1685519283809263ceafb18d60e01b825233878301525afa908115610a39578691610ece575b50610cc7565b610ee7915060203d6020116106565761064781836117ca565b38610ec8565b503461018b57610efc3661173c565b90610f08949294611980565b156110a857602460206001600160a01b0360015460081c1684519283809263f82568f960e01b825233898301525afa90811561109e57869161107f575b505b6001600160a01b0380821691821561103c578688526003602052818589205416610a04577f99bdb3b69a4967125cd3125ed7837d0518fb19e0bc15f01ff01c613b9fa53e9092878360028b611014968a805192610fa3846117ae565b338452602084019681885282850198895281528d602052209151169373ffffffffffffffffffffffffffffffffffffffff1994858354161782555160018201550192511690825416179055845191829133839060209093929360408301946001600160a01b03809216845216910152565b0390a161101f578380f35b60019161102b84611b49565b938552602052832001553880808380f35b606486602087519162461bcd60e51b8352820152601060248201527f43617264206e6f742063726561746564000000000000000000000000000000006044820152fd5b611098915060203d6020116106565761064781836117ca565b38610f45565b83513d88823e3d90fd5b602460206001600160a01b0360015460081c1684519283809263ceafb18d60e01b825233898301525afa90811561109e5786916110e6575b50610f47565b6110ff915060203d6020116106565761064781836117ca565b386110e0565b50503461068e578160031936011261068e5760209060ff6001541690519015158152f35b5091903461068e5761113a36611726565b91611143611980565b60065481516323b872dd60e01b8152338782019081523060208083019190915260408201879052926001600160a01b039291849183918290036060019082908b9087165af180156112a9576112b7575b50838652600382528286208351976111aa89611768565b8282541689526111ed600183015460ff6002878d019583875201548c898883169101528c6060838360a01c16151591015260a81c16151560808c015215156118f5565b8260025416915190823b156112b35790604489928388519586948593633b52301d60e01b85528401528b60248401525af180156112a95761126b575b5061082392916005917f0151faccd240317074531046f03541fa6730271998b121127da727645d6a371d979851168852526002818720016108058582546118b1565b916005917f0151faccd240317074531046f03541fa6730271998b121127da727645d6a371d9761129e610823969561179a565b975091509192611229565b84513d89823e3d90fd5b8880fd5b6112cd90833d85116103535761034581836117ca565b5038611193565b503461018b578160031936011261018b576112ed611710565b6024359081151582036102cd576020911561137a5760246001600160a01b03918260015460081c168651958694859363f82568f960e01b855216908301525afa90811561136e57906001600160a01b039160209491611351575b50915b5191168152f35b6113689150843d86116106565761064781836117ca565b38611347565b505051903d90823e3d90fd5b60246001600160a01b03918260015460081c168651958694859363ceafb18d60e01b855216908301525afa90811561136e57906001600160a01b0391602094916113c6575b509161134a565b6113dd9150843d86116106565761064781836117ca565b386113bf565b5091903461068e578060031936011261068e576113fe6116fa565b90336001600160a01b0383160361141b57506106d0919235611ad3565b8390517f6697b232000000000000000000000000000000000000000000000000000000008152fd5b50903461018b578060031936011261018b576106d0913561146760016106ba6116fa565b611a54565b503461018b57602036600319011261018b57816020936001923581528085522001549051908152f35b503461018b57602036600319011261018b578035906114b2611980565b33845260056020528284209061152e60208460028501936114d68286541015611843565b6001600160a01b0360065416908989518096819582947fa9059cbb00000000000000000000000000000000000000000000000000000000845233908401602090939291936001600160a01b0360408201951681520152565b03925af180156115ba57927f2d9a1bdd4eb5e4a9cf6d460ad9f50107b4ce07174c163778be49a66ca7e180809592600392610823969561159b575b5061157585825461188e565b9055016115838382546118b1565b90555133815260208101919091529081906040820190565b6115b39060203d6020116103535761034581836117ca565b5038611569565b85513d88823e3d90fd5b503461018b57602036600319011261018b57356115df611980565b33835260056020528183206115f78282541015611843565b8380838015611651575b8280929181923390f11561136e57907f0827dacd90918f1f37f20d339547c89c897889cf6a581de7c2394ae65e4d21e29260018361164384610823965461188e565b8155016115838382546118b1565b6108fc9150611601565b9250503461018b57602036600319011261018b57357fffffffff00000000000000000000000000000000000000000000000000000000811680910361018b57602092507f7965db0b0000000000000000000000000000000000000000000000000000000081149081156116d0575b5015158152f35b7f01ffc9a700000000000000000000000000000000000000000000000000000000915014386116c9565b602435906001600160a01b0382168203610aa457565b600435906001600160a01b0382168203610aa457565b6040906003190112610aa4576004359060243590565b6060906003190112610aa457600435906024358015158103610aa457906044358015158103610aa45790565b60a0810190811067ffffffffffffffff82111761178457604052565b634e487b7160e01b600052604160045260246000fd5b67ffffffffffffffff811161178457604052565b6060810190811067ffffffffffffffff82111761178457604052565b90601f8019910116810190811067ffffffffffffffff82111761178457604052565b81601f82011215610aa45780359067ffffffffffffffff82116117845760405192611821601f8401601f1916602001856117ca565b82845260208383010111610aa457816000926020809301838601378301015290565b1561184a57565b606460405162461bcd60e51b815260206004820152600c60248201527f496e73756666696369656e7400000000000000000000000000000000000000006044820152fd5b9190820391821161189b57565b634e487b7160e01b600052601160045260246000fd5b9190820180921161189b57565b90816020910312610aa457518015158103610aa45790565b90816020910312610aa457516001600160a01b0381168103610aa45790565b156118fc57565b606460405162461bcd60e51b815260206004820152600d60248201527f4e6f2073747265616d20746970000000000000000000000000000000000000006044820152fd5b919082519283825260005b84811061196c575050826000602080949584010152601f8019910116010190565b60208183018101518483018201520161194b565b60ff6001541661198c57565b60046040517fd93c0665000000000000000000000000000000000000000000000000000000008152fd5b3360009081527fad3228b676f7d3cd4284a5443f17f1962b36e491b30a40b2405849e597ba5fb5602052604081205460ff16156119f05750565b6044906040519063e2517d3f60e01b82523360048301526024820152fd5b80600052600060205260406000203360005260205260ff6040600020541615611a345750565b60405163e2517d3f60e01b81523360048201526024810191909152604490fd5b90600091808352826020526001600160a01b036040842092169182845260205260ff60408420541615600014611ace57808352826020526040832082845260205260408320600160ff198254161790557f2f8788117e7eff1d82e926ec794901d17c78024a50270940304540a733656f0d339380a4600190565b505090565b90600091808352826020526001600160a01b036040842092169182845260205260ff604084205416600014611ace5780835282602052604083208284526020526040832060ff1981541690557ff6391f5c32d9c69d2a47ea670b442974b53935d1edc7fd64eb21e047a839171b339380a4600190565b60009060206001600160a01b03600254166024604051809581937fdd0b281e0000000000000000000000000000000000000000000000000000000083523360048401525af1918215611c0657600092611bd1575b5060407f236fd1951ac6aca14ad8c0126104dbb231554bef74d9eb1ea9b3a14781edde5f918151908152836020820152a190565b9091506020813d602011611bfe575b81611bed602093836117ca565b81010312610aa45751906040611b9d565b3d9150611be0565b6040513d6000823e3d90fdfea2646970667358221220b889e988d36efc66bff9264384685fa935e1fa73727e9a996932bd19a744b7ce64736f6c634300081800336080346100bb57601f6137c438819003918201601f19168301916001600160401b038311848410176100c0578084926020946040528339810103126100bb57516001600160a01b0390818116908190036100bb5780156100a257600080546001600160a01b03198116831782556040519316907f8be0079c531659141344cd1fd0a4f28419497f9722a3daafe3b4186f6b6457e09080a36136ed90816100d78239f35b604051631e4fbdf760e01b815260006004820152602490fd5b600080fd5b634e487b7160e01b600052604160045260246000fdfe604060808152600490813610156200001657600080fd5b600091823560e01c908163032b1ff9146200041d578382633fd39fa1146200035b57508163715018a614620002ed5781638da5cb5b14620002c557816397e68eb614620001bf578163ceafb18d1462000181578163f2fde38b14620000c6575063f82568f9146200008657600080fd5b34620000c2576020366003190112620000c257602091816001600160a01b039182620000b162000578565b168152600285522054169051908152f35b5080fd5b9050346200017d5760203660031901126200017d57620000e562000578565b90620000f062000653565b6001600160a01b038092169283156200014e5750506000548273ffffffffffffffffffffffffffffffffffffffff19821617600055167f8be0079c531659141344cd1fd0a4f28419497f9722a3daafe3b4186f6b6457e0600080a380f35b908460249251917f1e4fbdf7000000000000000000000000000000000000000000000000000000008352820152fd5b8280fd5b505034620000c2576020366003190112620000c257602091816001600160a01b039182620001ae62000578565b168152600185522054169051908152f35b919050346200017d57806003193601126200017d57620001de62000578565b67ffffffffffffffff92602435848111620002c15762000202903690830162000594565b6200020c62000653565b6001600160a01b03809316948587526001602052838588205416620002bd578451926117ed908185019285841090841117620002aa5750918562000263928594620006998639308152816020820152019062000611565b039085f08015620002a0579382916020951693815260018552208273ffffffffffffffffffffffffffffffffffffffff1982541617905551908152f35b82513d86823e3d90fd5b886041602492634e487b7160e01b835252fd5b8680fd5b8580fd5b505034620000c25781600319360112620000c2576001600160a01b0360209254169051908152f35b833462000358578060031936011262000358576200030a62000653565b60006001600160a01b03815473ffffffffffffffffffffffffffffffffffffffff1981168355167f8be0079c531659141344cd1fd0a4f28419497f9722a3daafe3b4186f6b6457e08280a380f35b80fd5b9291503462000419578160031936011262000419576200037a62000578565b602435906001600160a01b0390818316809303620002c1576200039c62000653565b16803b15620004155760248592855196879384927f6a627842000000000000000000000000000000000000000000000000000000008452878401525af18015620002a057620003e9578380f35b67ffffffffffffffff8311620004025750523880808380f35b836041602492634e487b7160e01b835252fd5b8480fd5b5050fd5b919050346200017d5760a03660031901126200017d576200043d62000578565b67ffffffffffffffff92602435848111620002c15762000461903690830162000594565b93604435818111620002bd576200047c903690840162000594565b608435828111620005745762000496903690850162000594565b906001600160a01b0380951696878952600260205285878a20541662000570578651946118329081870195878710908711176200055d5750859492620004fb620005209593620005099362001e86893930865260a0602087015260a086019062000611565b908482038a86015262000611565b916064356060820152608081840391015262000611565b039085f08015620002a0579382916020951693815260028552208273ffffffffffffffffffffffffffffffffffffffff1982541617905551908152f35b8a6041602492634e487b7160e01b835252fd5b8880fd5b8780fd5b600435906001600160a01b03821682036200058f57565b600080fd5b81601f820112156200058f5780359067ffffffffffffffff92838311620005fb5760405193601f8401601f19908116603f0116850190811185821017620005fb57604052828452602083830101116200058f57816000926020809301838601378301015290565b634e487b7160e01b600052604160045260246000fd5b919082519283825260005b8481106200063e575050826000602080949584010152601f8019910116010190565b6020818301810151848301820152016200061c565b6001600160a01b036000541633036200066857565b60246040517f118cdaa7000000000000000000000000000000000000000000000000000000008152336004820152fdfe6080604052346200051e57620017ed803803806200001d8162000543565b9283398101906040818303126200051e5780516001600160a01b0390818116908190036200051e576020838101516001600160401b03948582116200051e570194601f918183880112156200051e5786518681116200033957601f19976200008b8286018a16840162000543565b938285528383830101116200051e57829060005b8381106200050957505060009184010152620000ba62000523565b93600d85526c125b98db1d5cda5d9950d85c99609a1b82860152620000de62000523565b9560039687815262494e4360e81b84820152865189811162000339576000546001988982811c92168015620004fe575b8783101462000318578189849311620004a8575b508690898311600114620004445760009262000438575b5050600019828b1b1c191690881b176000555b80519089821162000339578754908882811c921680156200042d575b8683101462000318578188849311620003d7575b508590888311600114620003745760009262000368575b5050600019828a1b1c191690871b1786555b81156200034f57600680546001600160a01b031981168417909155167f8be0079c531659141344cd1fd0a4f28419497f9722a3daafe3b4186f6b6457e0600080a3815195861162000339576008548481811c911680156200032e575b828210146200031857838111620002cc575b50809286116001146200025e57508495509084929160009562000252575b50501b92600019911b1c1916176008555b60405161128390816200056a8239f35b01519350388062000231565b93929585908116600860005285600020956000905b89838310620002b1575050501062000296575b50505050811b0160085562000242565b01519060f884600019921b161c191690553880808062000286565b85870151895590970196948501948893509081019062000273565b6008600052816000208480890160051c820192848a106200030e575b0160051c019085905b8281106200030157505062000213565b60008155018590620002f1565b92508192620002e8565b634e487b7160e01b600052602260045260246000fd5b90607f169062000201565b634e487b7160e01b600052604160045260246000fd5b604051631e4fbdf760e01b815260006004820152602490fd5b01519050388062000193565b908c8a94169184600052876000209260005b89828210620003c05750508411620003a7575b505050811b018655620001a5565b0151600019838c1b60f8161c1916905538808062000399565b8385015186558d9790950194938401930162000386565b90915088600052856000208880850160051c82019288861062000423575b918b91869594930160051c01915b828110620004135750506200017c565b600081558594508b910162000403565b92508192620003f5565b91607f169162000168565b01519050388062000139565b908d8b94169160008052886000209260005b8a82821062000491575050841162000478575b505050811b016000556200014c565b0151600019838d1b60f8161c1916905538808062000469565b8385015186558e9790950194938401930162000456565b90915060008052866000208980850160051c820192898610620004f4575b918c91869594930160051c01915b828110620004e457505062000122565b600081558594508c9101620004d4565b92508192620004c6565b91607f16916200010e565b8181018301518682018401528492016200009f565b600080fd5b60408051919082016001600160401b038111838210176200033957604052565b6040519190601f01601f191682016001600160401b03811183821017620003395760405256fe6080604081815260048036101561001557600080fd5b600092833560e01c90816301ffc9a714610af25750806306fdde0314610a41578063081812fc14610a08578063095ea7b31461091557806323b872dd146108fd57806342842e0e146108ae57806342966c68146107855780636352211e146107555780636a627842146105f957806370a082311461058b578063715018a6146105305780638da5cb5b1461050857806395d89b4114610429578063a22cb4651461036f578063a7f93ebd14610354578063b88d4fde146102cb578063c87b56dd146101ea578063e985e9c5146101985763f2fde38b146100f457600080fd5b346101945760203660031901126101945761010d610c02565b90610116611209565b6001600160a01b03809216928315610165575050600654826001600160a01b0319821617600655167f8be0079c531659141344cd1fd0a4f28419497f9722a3daafe3b4186f6b6457e08380a380f35b908460249251917f1e4fbdf7000000000000000000000000000000000000000000000000000000008352820152fd5b8280fd5b5050346101e657806003193601126101e65760ff816020936101b8610c02565b6101c0610c1d565b6001600160a01b0391821683526005875283832091168252855220549151911615158152f35b5080fd5b50903461019457602091826003193601126102c7573583526009825280832081519384918181549061021b82610cbc565b928386526001928860018216918260001461029d57505060011461025f575b858861025b8961024c848a0385610c68565b51928284938452830190610bc2565b0390f35b87945081939291528383205b828410610285575050508201018161024c61025b3861023a565b8054848a01860152889550879490930192810161026b565b60ff19168882015294151560051b8701909401945085935061024c925061025b915038905061023a565b8380fd5b509034610194576080366003190112610194576102e6610c02565b6102ee610c1d565b846064359467ffffffffffffffff86116101e657366023870112156101e6578501359461032661031d87610ca0565b95519586610c68565b85855236602487830101116101e6578561035196602460209301838801378501015260443591611039565b80f35b5050346101e657816003193601126101e65751908152602090f35b509034610194578060031936011261019457610389610c02565b9060243591821515809303610425576001600160a01b03169283156103f75750338452600560205280842083855260205280842060ff1981541660ff8416179055519081527f17307eab39ab6107e8899845ad3d59bd9653f200f220920489ca2b5937696c3160203392a380f35b8360249251917f5b08ba18000000000000000000000000000000000000000000000000000000008352820152fd5b8480fd5b82843461050557806003193601126105055781519182826001936001549461045086610cbc565b91828552602096876001821691826000146104de575050600114610482575b50505061025b929161024c910385610c68565b9190869350600183527fb10e2d527612073b26eecdfd717e6a320cf44b4afac2b0732d9fcbe2b7fa0cf65b8284106104c6575050508201018161024c61025b61046f565b8054848a0186015288955087949093019281016104ad565b60ff19168782015293151560051b8601909301935084925061024c915061025b905061046f565b80fd5b5050346101e657816003193601126101e6576020906001600160a01b03600654169051908152f35b8334610505578060031936011261050557610549611209565b806001600160a01b036006546001600160a01b03198116600655167f8be0079c531659141344cd1fd0a4f28419497f9722a3daafe3b4186f6b6457e08280a380f35b509134610505576020366003190112610505576001600160a01b036105ae610c02565b169283156105cb5750806020938392526003845220549051908152f35b9060249251917f89c62b64000000000000000000000000000000000000000000000000000000008352820152fd5b50823461050557602092836003193601126101e657610616610c02565b61061e611209565b6007546001600160a01b0380921691821561073f57818552600287528385205416918215159283610707575b818652600388528486206001815401905582865260028852848620826001600160a01b03198254161790557fddf252ad1be2c89b69c2b068fc378daa952ba7f163c4a11628f55a4df523b3ef8680a46106d9576106b1906009856007548552528220610ee2565b60075460001981146106c65760010160075580f35b506011602492634e487b7160e01b835252fd5b6024935051917f73c6ac6e000000000000000000000000000000000000000000000000000000008352820152fd5b61072883600052600460205260406000206001600160a01b03198154169055565b80865260038852848620805460001901905561064a565b60248686865191633250574960e11b8352820152fd5b50913461050557602036600319011261050557506001600160a01b0361077d602093356111ce565b915191168152f35b50903461019457602090816003193601126102c7578235916107a5611209565b82855260098152848281206107ba8154610cbc565b80610872575b50508390526002815282856001600160a01b0384822054166002811594851561083a575b848452528482206001600160a01b031981541690557fddf252ad1be2c89b69c2b068fc378daa952ba7f163c4a11628f55a4df523b3ef8280a4610825578380f35b602493505191637e27328960e01b8352820152fd5b61085b85600052600460205260406000206001600160a01b03198154169055565b8284526003815286842080546000190190556107e4565b82601f821160011461088a575050555b8438806107c0565b90918082526108a7601f868420940160051c840160018501610ecb565b5555610882565b509190346101e6576108bf36610c33565b91835193602085019085821067ffffffffffffffff8311176108ea5761035196975052858452611039565b60248760418a634e487b7160e01b835252fd5b83346105055761035161090f36610c33565b91610cf6565b50903461019457806003193601126101945761092f610c02565b9160243561093c816111ce565b331515806109f5575b806109cd575b61099e5781906001600160a01b03809616958691167f8c5be1e5ebec7d5bd14f71427d1e84f3dd0314c0f7b2291e5b200ac8c7c3b9258880a484526020528220906001600160a01b031982541617905580f35b83517fa9fbf51f0000000000000000000000000000000000000000000000000000000081523381850152602490fd5b506001600160a01b0381168652600560205283862033875260205260ff84872054161561094b565b50336001600160a01b0382161415610945565b50346101945760203660031901126101945781602093826001600160a01b039335610a32816111ce565b50825285522054169051908152f35b82843461050557806003193601126105055781519182828354610a6381610cbc565b90818452602095600191876001821691826000146104de575050600114610a975750505061025b929161024c910385610c68565b91908693508280527f290decd9548b62a8d60345a988386fc84ba6bc95484008f6362f93160ef3e5635b828410610ada575050508201018161024c61025b61046f565b8054848a018601528895508794909301928101610ac1565b9250503461019457602036600319011261019457357fffffffff00000000000000000000000000000000000000000000000000000000811680910361019457602092507f80ac58cd000000000000000000000000000000000000000000000000000000008114908115610b98575b8115610b6e575b5015158152f35b7f01ffc9a70000000000000000000000000000000000000000000000000000000091501438610b67565b7f5b5e139f0000000000000000000000000000000000000000000000000000000081149150610b60565b919082519283825260005b848110610bee575050826000602080949584010152601f8019910116010190565b602081830181015184830182015201610bcd565b600435906001600160a01b0382168203610c1857565b600080fd5b602435906001600160a01b0382168203610c1857565b6060906003190112610c18576001600160a01b03906004358281168103610c1857916024359081168103610c18579060443590565b90601f8019910116810190811067ffffffffffffffff821117610c8a57604052565b634e487b7160e01b600052604160045260246000fd5b67ffffffffffffffff8111610c8a57601f01601f191660200190565b90600182811c92168015610cec575b6020831014610cd657565b634e487b7160e01b600052602260045260246000fd5b91607f1691610ccb565b90916001600160a01b03809316928315610eb357600092828452826020956002875260409684888820541696879133151580610e04575b509060027fddf252ad1be2c89b69c2b068fc378daa952ba7f163c4a11628f55a4df523b3ef9284610dcc575b858352600381528b83206001815401905586835252898120846001600160a01b031982541617905580a41692838303610d925750505050565b6064945051927f64283d7b000000000000000000000000000000000000000000000000000000008452600484015260248301526044820152fd5b610ded87600052600460205260406000206001600160a01b03198154169055565b848352600381528b83208054600019019055610d59565b91939450915080610e72575b15610e2057859291879138610d2d565b878688610e3d576024915190637e27328960e01b82526004820152fd5b60449151907f177e802f0000000000000000000000000000000000000000000000000000000082523360048301526024820152fd5b503387148015610e97575b80610e105750858252600481523385898420541614610e10565b5086825260058152878220338352815260ff8883205416610e7d565b6024604051633250574960e11b815260006004820152fd5b818110610ed6575050565b60008155600101610ecb565b906008821461103557610ef6600854610cbc565b9167ffffffffffffffff8311610c8a57610f108154610cbc565b601f8111610ff8575b50600092601f8111600114610f555780919293600091610f49575b508160011b916000199060031b1c1916179055565b90506008015438610f34565b8184526020808520601f19831695909181905b878210610fbf57505082600194959610610f86575b5050811b019055565b7ff3f7a9fe364faab93b216da50a3214154f22a0a2b415b23a84c8169e8b636ee3015460001960f88460031b161c191690553880610f7d565b82938192937ff3f7a9fe364faab93b216da50a3214154f22a0a2b415b23a84c8169e8b636ee30154815560018091019401920190610f68565b61102590826000526020600020601f860160051c8101916020871061102b575b601f0160051c0190610ecb565b38610f19565b9091508190611018565b9050565b611044838383610cf6565b813b611051575b50505050565b6001600160a01b03949192939480931693604051937f150b7a020000000000000000000000000000000000000000000000000000000092838652336004870152166024850152604484015260806064840152826110b46020966084830190610bc2565b039285816000958187895af1849181611176575b50611127575050503d60001461111f573d6110e281610ca0565b906110f06040519283610c68565b81528091843d92013e5b8051928361111a5760248360405190633250574960e11b82526004820152fd5b019050fd5b5060606110fa565b9092507fffffffff00000000000000000000000000000000000000000000000000000000919450160361115e57503880808061104b565b60249060405190633250574960e11b82526004820152fd5b9091508681813d83116111c7575b61118e8183610c68565b8101031261042557517fffffffff00000000000000000000000000000000000000000000000000000000811681036104255790386110c8565b503d611184565b8060005260026020526001600160a01b03604060002054169081156111f1575090565b60249060405190637e27328960e01b82526004820152fd5b6001600160a01b0360065416330361121d57565b60246040517f118cdaa7000000000000000000000000000000000000000000000000000000008152336004820152fdfea2646970667358221220bd53b3265229f1221b52eb2d09624447592b834aea407137417fce63f044c68c64736f6c634300081800336080604052346200050d5762001832803803806200001d8162000512565b92833981019060a0818303126200050d5780516001600160a01b0380821693918490036200050d5760208381015190946001600160401b039490918581116200050d57846200006e91830162000538565b9360408201518681116200050d57816200008a91840162000538565b9160608101519160808201518881116200050d57620000aa920162000538565b92855194878611620004f7576000938454966001988989811c99168015620004ec575b8c8a1014620003ef5781908c601f9a8b811162000496575b50508c908d8b84116001146200042e5750889262000422575b5050600019600383901b1c191690891b1785555b8051908982116200040e5788548981811c9116801562000403575b8c821014620003ef57908b828a85941162000399575b50508b908983116001146200033257879262000326575b5050600019600383901b1c191690881b1787555b81156200030d57600680546001600160a01b031981168417909155167f8be0079c531659141344cd1fd0a4f28419497f9722a3daafe3b4186f6b6457e08480a36008558151948511620002f9576009548481811c91168015620002ee575b87821014620002da5783811162000291575b5085928511600114620002285793945084929190836200021c575b50501b916000199060031b1c1916176009555b6040516112879081620005ab8239f35b015192503880620001f9565b6009815285812093958591601f198316915b888383106200027657505050106200025c575b505050811b016009556200020c565b015160001960f88460031b161c191690553880806200024d565b8587015188559096019594850194879350908101906200023a565b600982528682208480880160051c820192898910620002d0575b0160051c019085905b828110620002c4575050620001de565b838155018590620002b4565b92508192620002ab565b634e487b7160e01b82526022600452602482fd5b90607f1690620001cc565b634e487b7160e01b81526041600452602490fd5b604051631e4fbdf760e01b815260048101859052602490fd5b0151905038806200015a565b8a88528c88208b94509190601f198416898f5b8282106200037f575050841162000365575b505050811b0187556200016e565b015160001960f88460031b161c1916905538808062000357565b8484015186558e9790950194938401939081019062000345565b909192508a8852898289209181860160051c8301938610620003e5575b918c91869594930160051c01915b828110620003d657508d915062000143565b8981558594508c9101620003c4565b92508192620003b6565b634e487b7160e01b87526022600452602487fd5b90607f16906200012d565b634e487b7160e01b86526041600452602486fd5b015190503880620000fe565b91908c9450601f1984168a8052838b20938b905b8282106200047c575050841162000462575b505050811b01855562000112565b015160001960f88460031b161c1916905538808062000454565b8484015186558f9790950194938401939081019062000442565b909192508880528a828a209181860160051c8301938610620004e2575b918d91869594930160051c01915b828110620004d357508e9150620000e5565b8a81558594508d9101620004c1565b92508192620004b3565b98607f1698620000cd565b634e487b7160e01b600052604160045260246000fd5b600080fd5b6040519190601f01601f191682016001600160401b03811183821017620004f757604052565b919080601f840112156200050d5782516001600160401b038111620004f7576020906200056e601f8201601f1916830162000512565b928184528282870101116200050d5760005b8181106200059657508260009394955001015290565b85810183015184820184015282016200058056fe6080604081815260048036101561001557600080fd5b600092833560e01c90816301ffc9a714610af65750806306fdde0314610a45578063081812fc14610a0c578063095ea7b31461091957806323b872dd1461090157806342842e0e146108b257806342966c68146107895780636352211e146107595780636a627842146105fd57806370a082311461058f578063715018a6146105345780638da5cb5b1461050c57806395d89b411461042d578063a22cb46514610373578063a7f93ebd14610354578063b88d4fde146102cb578063c87b56dd146101ea578063e985e9c5146101985763f2fde38b146100f457600080fd5b346101945760203660031901126101945761010d610c06565b9061011661120d565b6001600160a01b03809216928315610165575050600654826001600160a01b0319821617600655167f8be0079c531659141344cd1fd0a4f28419497f9722a3daafe3b4186f6b6457e08380a380f35b908460249251917f1e4fbdf7000000000000000000000000000000000000000000000000000000008352820152fd5b8280fd5b5050346101e657806003193601126101e65760ff816020936101b8610c06565b6101c0610c21565b6001600160a01b0391821683526005875283832091168252855220549151911615158152f35b5080fd5b50903461019457602091826003193601126102c757358352600a825280832081519384918181549061021b82610cc0565b928386526001928860018216918260001461029d57505060011461025f575b858861025b8961024c848a0385610c6c565b51928284938452830190610bc6565b0390f35b87945081939291528383205b828410610285575050508201018161024c61025b3861023a565b8054848a01860152889550879490930192810161026b565b60ff19168882015294151560051b8701909401945085935061024c925061025b915038905061023a565b8380fd5b509034610194576080366003190112610194576102e6610c06565b6102ee610c21565b846064359467ffffffffffffffff86116101e657366023870112156101e6578501359461032661031d87610ca4565b95519586610c6c565b85855236602487830101116101e657856103519660246020930183880137850101526044359161103d565b80f35b5050346101e657816003193601126101e6576020906008549051908152f35b50903461019457806003193601126101945761038d610c06565b9060243591821515809303610429576001600160a01b03169283156103fb5750338452600560205280842083855260205280842060ff1981541660ff8416179055519081527f17307eab39ab6107e8899845ad3d59bd9653f200f220920489ca2b5937696c3160203392a380f35b8360249251917f5b08ba18000000000000000000000000000000000000000000000000000000008352820152fd5b8480fd5b82843461050957806003193601126105095781519182826001936001549461045486610cc0565b91828552602096876001821691826000146104e2575050600114610486575b50505061025b929161024c910385610c6c565b9190869350600183527fb10e2d527612073b26eecdfd717e6a320cf44b4afac2b0732d9fcbe2b7fa0cf65b8284106104ca575050508201018161024c61025b610473565b8054848a0186015288955087949093019281016104b1565b60ff19168782015293151560051b8601909301935084925061024c915061025b9050610473565b80fd5b5050346101e657816003193601126101e6576020906001600160a01b03600654169051908152f35b833461050957806003193601126105095761054d61120d565b806001600160a01b036006546001600160a01b03198116600655167f8be0079c531659141344cd1fd0a4f28419497f9722a3daafe3b4186f6b6457e08280a380f35b509134610509576020366003190112610509576001600160a01b036105b2610c06565b169283156105cf5750806020938392526003845220549051908152f35b9060249251917f89c62b64000000000000000000000000000000000000000000000000000000008352820152fd5b50823461050957602092836003193601126101e65761061a610c06565b61062261120d565b6007546001600160a01b038092169182156107435781855260028752838520541691821515928361070b575b818652600388528486206001815401905582865260028852848620826001600160a01b03198254161790557fddf252ad1be2c89b69c2b068fc378daa952ba7f163c4a11628f55a4df523b3ef8680a46106dd576106b590600a856007548552528220610ee6565b60075460001981146106ca5760010160075580f35b506011602492634e487b7160e01b835252fd5b6024935051917f73c6ac6e000000000000000000000000000000000000000000000000000000008352820152fd5b61072c83600052600460205260406000206001600160a01b03198154169055565b80865260038852848620805460001901905561064e565b60248686865191633250574960e11b8352820152fd5b50913461050957602036600319011261050957506001600160a01b03610781602093356111d2565b915191168152f35b50903461019457602090816003193601126102c7578235916107a961120d565b828552600a8152848281206107be8154610cc0565b80610876575b50508390526002815282856001600160a01b0384822054166002811594851561083e575b848452528482206001600160a01b031981541690557fddf252ad1be2c89b69c2b068fc378daa952ba7f163c4a11628f55a4df523b3ef8280a4610829578380f35b602493505191637e27328960e01b8352820152fd5b61085f85600052600460205260406000206001600160a01b03198154169055565b8284526003815286842080546000190190556107e8565b82601f821160011461088e575050555b8438806107c4565b90918082526108ab601f868420940160051c840160018501610ecf565b5555610886565b509190346101e6576108c336610c37565b91835193602085019085821067ffffffffffffffff8311176108ee576103519697505285845261103d565b60248760418a634e487b7160e01b835252fd5b83346105095761035161091336610c37565b91610cfa565b509034610194578060031936011261019457610933610c06565b91602435610940816111d2565b331515806109f9575b806109d1575b6109a25781906001600160a01b03809616958691167f8c5be1e5ebec7d5bd14f71427d1e84f3dd0314c0f7b2291e5b200ac8c7c3b9258880a484526020528220906001600160a01b031982541617905580f35b83517fa9fbf51f0000000000000000000000000000000000000000000000000000000081523381850152602490fd5b506001600160a01b0381168652600560205283862033875260205260ff84872054161561094f565b50336001600160a01b0382161415610949565b50346101945760203660031901126101945781602093826001600160a01b039335610a36816111d2565b50825285522054169051908152f35b82843461050957806003193601126105095781519182828354610a6781610cc0565b90818452602095600191876001821691826000146104e2575050600114610a9b5750505061025b929161024c910385610c6c565b91908693508280527f290decd9548b62a8d60345a988386fc84ba6bc95484008f6362f93160ef3e5635b828410610ade575050508201018161024c61025b610473565b8054848a018601528895508794909301928101610ac5565b9250503461019457602036600319011261019457357fffffffff00000000000000000000000000000000000000000000000000000000811680910361019457602092507f80ac58cd000000000000000000000000000000000000000000000000000000008114908115610b9c575b8115610b72575b5015158152f35b7f01ffc9a70000000000000000000000000000000000000000000000000000000091501438610b6b565b7f5b5e139f0000000000000000000000000000000000000000000000000000000081149150610b64565b919082519283825260005b848110610bf2575050826000602080949584010152601f8019910116010190565b602081830181015184830182015201610bd1565b600435906001600160a01b0382168203610c1c57565b600080fd5b602435906001600160a01b0382168203610c1c57565b6060906003190112610c1c576001600160a01b03906004358281168103610c1c57916024359081168103610c1c579060443590565b90601f8019910116810190811067ffffffffffffffff821117610c8e57604052565b634e487b7160e01b600052604160045260246000fd5b67ffffffffffffffff8111610c8e57601f01601f191660200190565b90600182811c92168015610cf0575b6020831014610cda57565b634e487b7160e01b600052602260045260246000fd5b91607f1691610ccf565b90916001600160a01b03809316928315610eb757600092828452826020956002875260409684888820541696879133151580610e08575b509060027fddf252ad1be2c89b69c2b068fc378daa952ba7f163c4a11628f55a4df523b3ef9284610dd0575b858352600381528b83206001815401905586835252898120846001600160a01b031982541617905580a41692838303610d965750505050565b6064945051927f64283d7b000000000000000000000000000000000000000000000000000000008452600484015260248301526044820152fd5b610df187600052600460205260406000206001600160a01b03198154169055565b848352600381528b83208054600019019055610d5d565b91939450915080610e76575b15610e2457859291879138610d31565b878688610e41576024915190637e27328960e01b82526004820152fd5b60449151907f177e802f0000000000000000000000000000000000000000000000000000000082523360048301526024820152fd5b503387148015610e9b575b80610e145750858252600481523385898420541614610e14565b5086825260058152878220338352815260ff8883205416610e81565b6024604051633250574960e11b815260006004820152fd5b818110610eda575050565b60008155600101610ecf565b906009821461103957610efa600954610cc0565b9167ffffffffffffffff8311610c8e57610f148154610cc0565b601f8111610ffc575b50600092601f8111600114610f595780919293600091610f4d575b508160011b916000199060031b1c1916179055565b90506009015438610f38565b8184526020808520601f19831695909181905b878210610fc357505082600194959610610f8a575b5050811b019055565b7f6e1540171b6c0c960b71a7020d9f60077f6af931a8bbf590da0223dacf75c7af015460001960f88460031b161c191690553880610f81565b82938192937f6e1540171b6c0c960b71a7020d9f60077f6af931a8bbf590da0223dacf75c7af0154815560018091019401920190610f6c565b61102990826000526020600020601f860160051c8101916020871061102f575b601f0160051c0190610ecf565b38610f1d565b909150819061101c565b9050565b611048838383610cfa565b813b611055575b50505050565b6001600160a01b03949192939480931693604051937f150b7a020000000000000000000000000000000000000000000000000000000092838652336004870152166024850152604484015260806064840152826110b86020966084830190610bc6565b039285816000958187895af184918161117a575b5061112b575050503d600014611123573d6110e681610ca4565b906110f46040519283610c6c565b81528091843d92013e5b8051928361111e5760248360405190633250574960e11b82526004820152fd5b019050fd5b5060606110fe565b9092507fffffffff00000000000000000000000000000000000000000000000000000000919450160361116257503880808061104f565b60249060405190633250574960e11b82526004820152fd5b9091508681813d83116111cb575b6111928183610c6c565b8101031261042957517fffffffff00000000000000000000000000000000000000000000000000000000811681036104295790386110cc565b503d611188565b8060005260026020526001600160a01b03604060002054169081156111f5575090565b60249060405190637e27328960e01b82526004820152fd5b6001600160a01b0360065416330361122157565b60246040517f118cdaa7000000000000000000000000000000000000000000000000000000008152336004820152fdfea2646970667358221220b85f90f74920f70261e60fd524b51edf1622b983208926b441a3a2aca275a44464736f6c63430008180033a2646970667358221220e36b4369d4e5a81f9a44c4bf0d00d22cc32e89047f2392068b65d908abc1f61264736f6c634300081800336080346100bb57601f61062b38819003918201601f19168301916001600160401b038311848410176100c0578084926020946040528339810103126100bb57516001600160a01b0390818116908190036100bb5780156100a257600080546001600160a01b03198116831782556040519316907f8be0079c531659141344cd1fd0a4f28419497f9722a3daafe3b4186f6b6457e09080a361055490816100d78239f35b604051631e4fbdf760e01b815260006004820152602490fd5b600080fd5b634e487b7160e01b600052604160045260246000fdfe6080604081815260048036101561001557600080fd5b600092833560e01c908163241b71bb1461048d575080633b52301d146103ed57806370ded48a146103c4578063715018a61461035e5780638da5cb5b14610334578063980975811461024e578063dd0b281e1461012a5763f2fde38b1461007b57600080fd5b34610126576020366003190112610126576100946104bf565b9061009d6104da565b6001600160a01b038092169283156100f757505082548273ffffffffffffffffffffffffffffffffffffffff198216178455167f8be0079c531659141344cd1fd0a4f28419497f9722a3daafe3b4186f6b6457e08380a380f35b908460249251917f1e4fbdf7000000000000000000000000000000000000000000000000000000008352820152fd5b8280fd5b50913461024b57602036600319011261024b576101456104bf565b61014d6104da565b825167ffffffffffffffff9360608201858111838210176102385781526001600160a01b0380931692838352602083019185835280840194868652815160208101917feeeeeeeeeeeeeeeeeeeeeeeeeeeeeeeeeeeeeeee000000000000000000000000835283820152426060820152606081526080810198818a10908a1117610225576020995090829189600297969594525190209687815260018a522092511673ffffffffffffffffffffffffffffffffffffffff19835416178255516001820155019051151560ff801983541691161790558152f35b60248860418c634e487b7160e01b835252fd5b602485604189634e487b7160e01b835252fd5b80fd5b5090346101265780600319360112610126576102686104bf565b6102706104da565b60243584526001602052818420906001600160a01b03808354169116036102f1576002019182549160ff83166102ae57505060ff1916600117905580f35b906020606492519162461bcd60e51b8352820152601b60248201527f446174612e5469702077617320616c72656164792070617573656400000000006044820152fd5b606483602084519162461bcd60e51b8352820152600960248201527f4e6f74206f776e657200000000000000000000000000000000000000000000006044820152fd5b50503461035a578160031936011261035a576001600160a01b0360209254169051908152f35b5080fd5b833461024b578060031936011261024b576103776104da565b806001600160a01b03815473ffffffffffffffffffffffffffffffffffffffff1981168355167f8be0079c531659141344cd1fd0a4f28419497f9722a3daafe3b4186f6b6457e08280a380f35b503461012657602036600319011261012657816020936001923581528285522001549051908152f35b5090346101265780600319360112610126576104076104da565b8135835260016020528083209060ff60028301541661044b5750600101805491602435830180931161043857505580f35b836011602492634e487b7160e01b835252fd5b5162461bcd60e51b8152602081840152601260248201527f446174612e5469702069732070617573656400000000000000000000000000006044820152606490fd5b92919050346104bb5760203660031901126104bb573583526001602090815292206002015460ff1615158152f35b8380fd5b600435906001600160a01b03821682036104d557565b600080fd5b6001600160a01b036000541633036104ee57565b60246040517f118cdaa7000000000000000000000000000000000000000000000000000000008152336004820152fdfea2646970667358221220c133f07684a98b05eb890db105336dcb5ea5855bd6f12bcb03bdfc26ee8498f664736f6c63430008180033",
  "linkReferences": {},
  "deployedLinkReferences": {}
}